{
  "contractName": "AFL8_CampaignModel",
  "abi": [
    {
      "inputs": [],
      "stateMutability": "nonpayable",
      "type": "constructor"
    },
    {
      "inputs": [],
      "name": "All_Slots_Taken",
      "type": "error"
    },
    {
      "inputs": [],
      "name": "Already_Listed",
      "type": "error"
    },
    {
      "inputs": [],
      "name": "Array_Length_Mismatch",
      "type": "error"
    },
    {
      "inputs": [],
      "name": "Event_Has_Ended",
      "type": "error"
    },
    {
      "inputs": [],
      "name": "Greenlist_Expired",
      "type": "error"
    },
    {
      "inputs": [],
      "name": "Insufficient_Amount",
      "type": "error"
    },
    {
      "inputs": [],
      "name": "Insufficient_Balance",
      "type": "error"
    },
    {
      "inputs": [],
      "name": "Insufficient_Funds",
      "type": "error"
    },
    {
      "inputs": [],
      "name": "Insufficient_MLQ",
      "type": "error"
    },
    {
      "inputs": [],
      "name": "Insufficient_Supply",
      "type": "error"
    },
    {
      "inputs": [],
      "name": "Invalid_Amount",
      "type": "error"
    },
    {
      "inputs": [],
      "name": "Invalid_Response",
      "type": "error"
    },
    {
      "inputs": [],
      "name": "Max_Tokens_Minted",
      "type": "error"
    },
    {
      "inputs": [],
      "name": "Min_Requirements_Not_Met",
      "type": "error"
    },
    {
      "inputs": [],
      "name": "Mint_In_Progress",
      "type": "error"
    },
    {
      "inputs": [],
      "name": "Mint_Is_Not_Yet_Live",
      "type": "error"
    },
    {
      "inputs": [],
      "name": "Not_Burnable",
      "type": "error"
    },
    {
      "inputs": [],
      "name": "Not_Friends",
      "type": "error"
    },
    {
      "inputs": [],
      "name": "Not_Friends_Rev",
      "type": "error"
    },
    {
      "inputs": [],
      "name": "Not_Greenlisted",
      "type": "error"
    },
    {
      "inputs": [],
      "name": "Not_Pausable",
      "type": "error"
    },
    {
      "inputs": [],
      "name": "Sold_Out",
      "type": "error"
    },
    {
      "inputs": [],
      "name": "Unauthorized",
      "type": "error"
    },
    {
      "inputs": [],
      "name": "You_Are_Not_The_Holder",
      "type": "error"
    },
    {
      "inputs": [],
      "name": "You_Need_To_Wait",
      "type": "error"
    },
    {
      "anonymous": false,
      "inputs": [
        {
          "indexed": false,
          "internalType": "uint256",
          "name": "TX",
          "type": "uint256"
        },
        {
          "indexed": false,
          "internalType": "address",
          "name": "ACTOR",
          "type": "address"
        },
        {
          "indexed": false,
          "internalType": "string",
          "name": "ACTION",
          "type": "string"
        },
        {
          "indexed": false,
          "internalType": "address",
          "name": "REL",
          "type": "address"
        },
        {
          "indexed": false,
          "internalType": "uint256",
          "name": "DATE",
          "type": "uint256"
        }
      ],
      "name": "ACTION_Log",
      "type": "event"
    },
    {
      "anonymous": false,
      "inputs": [
        {
          "indexed": true,
          "internalType": "address",
          "name": "owner",
          "type": "address"
        },
        {
          "indexed": true,
          "internalType": "address",
          "name": "approved",
          "type": "address"
        },
        {
          "indexed": true,
          "internalType": "uint256",
          "name": "tokenId",
          "type": "uint256"
        }
      ],
      "name": "Approval",
      "type": "event"
    },
    {
      "anonymous": false,
      "inputs": [
        {
          "indexed": true,
          "internalType": "address",
          "name": "owner",
          "type": "address"
        },
        {
          "indexed": true,
          "internalType": "address",
          "name": "operator",
          "type": "address"
        },
        {
          "indexed": false,
          "internalType": "bool",
          "name": "approved",
          "type": "bool"
        }
      ],
      "name": "ApprovalForAll",
      "type": "event"
    },
    {
      "anonymous": false,
      "inputs": [
        {
          "indexed": false,
          "internalType": "uint256",
          "name": "TX",
          "type": "uint256"
        },
        {
          "indexed": false,
          "internalType": "address",
          "name": "ACTOR",
          "type": "address"
        },
        {
          "indexed": false,
          "internalType": "string",
          "name": "ERROR",
          "type": "string"
        },
        {
          "indexed": false,
          "internalType": "uint256",
          "name": "DATE",
          "type": "uint256"
        }
      ],
      "name": "ERR_Log",
      "type": "event"
    },
    {
      "anonymous": false,
      "inputs": [
        {
          "indexed": false,
          "internalType": "uint256",
          "name": "TX",
          "type": "uint256"
        },
        {
          "indexed": false,
          "internalType": "address",
          "name": "TRUSTEE",
          "type": "address"
        },
        {
          "indexed": false,
          "internalType": "uint256",
          "name": "AMNT",
          "type": "uint256"
        },
        {
          "indexed": false,
          "internalType": "uint256",
          "name": "DATE",
          "type": "uint256"
        }
      ],
      "name": "TX_Log",
      "type": "event"
    },
    {
      "anonymous": false,
      "inputs": [
        {
          "indexed": true,
          "internalType": "address",
          "name": "from",
          "type": "address"
        },
        {
          "indexed": true,
          "internalType": "address",
          "name": "to",
          "type": "address"
        },
        {
          "indexed": true,
          "internalType": "uint256",
          "name": "tokenId",
          "type": "uint256"
        }
      ],
      "name": "Transfer",
      "type": "event"
    },
    {
      "inputs": [],
      "name": "C_ID",
      "outputs": [
        {
          "internalType": "uint256",
          "name": "",
          "type": "uint256"
        }
      ],
      "stateMutability": "view",
      "type": "function"
    },
    {
      "inputs": [],
      "name": "afl8",
      "outputs": [
        {
          "internalType": "contract iii6CoinModel",
          "name": "",
          "type": "address"
        }
      ],
      "stateMutability": "view",
      "type": "function"
    },
    {
      "inputs": [
        {
          "internalType": "address",
          "name": "to",
          "type": "address"
        },
        {
          "internalType": "uint256",
          "name": "tokenId",
          "type": "uint256"
        }
      ],
      "name": "approve",
      "outputs": [],
      "stateMutability": "nonpayable",
      "type": "function"
    },
    {
      "inputs": [
        {
          "internalType": "address",
          "name": "owner",
          "type": "address"
        }
      ],
      "name": "balanceOf",
      "outputs": [
        {
          "internalType": "uint256",
          "name": "",
          "type": "uint256"
        }
      ],
      "stateMutability": "view",
      "type": "function"
    },
    {
      "inputs": [
        {
          "internalType": "uint256",
          "name": "",
          "type": "uint256"
        }
      ],
      "name": "campaignSafe",
      "outputs": [
        {
          "internalType": "uint256",
          "name": "",
          "type": "uint256"
        }
      ],
      "stateMutability": "view",
      "type": "function"
    },
    {
      "inputs": [
        {
          "internalType": "address",
          "name": "",
          "type": "address"
        },
        {
          "internalType": "uint256",
          "name": "",
          "type": "uint256"
        }
      ],
      "name": "campaignShow",
      "outputs": [
        {
          "internalType": "uint256",
          "name": "id",
          "type": "uint256"
        },
        {
          "internalType": "address",
          "name": "author",
          "type": "address"
        },
        {
          "internalType": "uint256",
          "name": "start",
          "type": "uint256"
        },
        {
          "internalType": "uint256",
          "name": "budget",
          "type": "uint256"
        },
        {
          "internalType": "uint256",
          "name": "price",
          "type": "uint256"
        },
        {
          "internalType": "uint256",
          "name": "actions",
          "type": "uint256"
        },
        {
          "internalType": "bytes",
          "name": "dias",
          "type": "bytes"
        },
        {
          "internalType": "enum iii6Misc.CampaignType",
          "name": "ctype",
          "type": "uint8"
        },
        {
          "internalType": "enum iii6Misc.Status",
          "name": "state",
          "type": "uint8"
        }
      ],
      "stateMutability": "view",
      "type": "function"
    },
    {
      "inputs": [
        {
          "internalType": "uint256",
          "name": "",
          "type": "uint256"
        }
      ],
      "name": "campaigns",
      "outputs": [
        {
          "internalType": "uint256",
          "name": "id",
          "type": "uint256"
        },
        {
          "internalType": "address",
          "name": "author",
          "type": "address"
        },
        {
          "internalType": "uint256",
          "name": "start",
          "type": "uint256"
        },
        {
          "internalType": "uint256",
          "name": "budget",
          "type": "uint256"
        },
        {
          "internalType": "uint256",
          "name": "price",
          "type": "uint256"
        },
        {
          "internalType": "uint256",
          "name": "actions",
          "type": "uint256"
        },
        {
          "internalType": "bytes",
          "name": "dias",
          "type": "bytes"
        },
        {
          "internalType": "enum iii6Misc.CampaignType",
          "name": "ctype",
          "type": "uint8"
        },
        {
          "internalType": "enum iii6Misc.Status",
          "name": "state",
          "type": "uint8"
        }
      ],
      "stateMutability": "view",
      "type": "function"
    },
    {
      "inputs": [],
      "name": "changeMintState",
      "outputs": [
        {
          "internalType": "bool",
          "name": "",
          "type": "bool"
        }
      ],
      "stateMutability": "nonpayable",
      "type": "function"
    },
    {
      "inputs": [
        {
          "internalType": "uint256",
          "name": "",
          "type": "uint256"
        }
      ],
      "name": "dias",
      "outputs": [
        {
          "internalType": "bytes",
          "name": "",
          "type": "bytes"
        }
      ],
      "stateMutability": "view",
      "type": "function"
    },
    {
      "inputs": [
        {
          "internalType": "uint256",
          "name": "tokenId",
          "type": "uint256"
        }
      ],
      "name": "getApproved",
      "outputs": [
        {
          "internalType": "address",
          "name": "",
          "type": "address"
        }
      ],
      "stateMutability": "view",
      "type": "function"
    },
    {
      "inputs": [
        {
          "internalType": "uint256",
          "name": "count",
          "type": "uint256"
        }
      ],
      "name": "grabIds",
      "outputs": [
        {
          "internalType": "uint256",
          "name": "ids",
          "type": "uint256"
        }
      ],
      "stateMutability": "view",
      "type": "function"
    },
    {
      "inputs": [
        {
          "internalType": "uint256",
          "name": "_id",
          "type": "uint256"
        }
      ],
      "name": "holder",
      "outputs": [
        {
          "internalType": "address",
          "name": "",
          "type": "address"
        }
      ],
      "stateMutability": "view",
      "type": "function"
    },
    {
      "inputs": [
        {
          "internalType": "address",
          "name": "owner",
          "type": "address"
        },
        {
          "internalType": "address",
          "name": "operator",
          "type": "address"
        }
      ],
      "name": "isApprovedForAll",
      "outputs": [
        {
          "internalType": "bool",
          "name": "",
          "type": "bool"
        }
      ],
      "stateMutability": "view",
      "type": "function"
    },
    {
      "inputs": [
        {
          "internalType": "address",
          "name": "_adr",
          "type": "address"
        }
      ],
      "name": "isOwner",
      "outputs": [
        {
          "internalType": "bool",
          "name": "",
          "type": "bool"
        }
      ],
      "stateMutability": "view",
      "type": "function"
    },
    {
      "inputs": [],
      "name": "max",
      "outputs": [
        {
          "internalType": "uint256",
          "name": "",
          "type": "uint256"
        }
      ],
      "stateMutability": "view",
      "type": "function"
    },
    {
      "inputs": [
        {
          "internalType": "uint256",
          "name": "_amnt",
          "type": "uint256"
        }
      ],
      "name": "mint",
      "outputs": [
        {
          "internalType": "uint256",
          "name": "",
          "type": "uint256"
        }
      ],
      "stateMutability": "payable",
      "type": "function"
    },
    {
      "inputs": [],
      "name": "minted",
      "outputs": [
        {
          "internalType": "uint256",
          "name": "",
          "type": "uint256"
        }
      ],
      "stateMutability": "view",
      "type": "function"
    },
    {
      "inputs": [],
      "name": "nam",
      "outputs": [
        {
          "internalType": "string",
          "name": "",
          "type": "string"
        }
      ],
      "stateMutability": "view",
      "type": "function"
    },
    {
      "inputs": [],
      "name": "name",
      "outputs": [
        {
          "internalType": "string",
          "name": "",
          "type": "string"
        }
      ],
      "stateMutability": "view",
      "type": "function"
    },
    {
      "inputs": [
        {
          "internalType": "address",
          "name": "",
          "type": "address"
        }
      ],
      "name": "nftCount",
      "outputs": [
        {
          "internalType": "uint256",
          "name": "",
          "type": "uint256"
        }
      ],
      "stateMutability": "view",
      "type": "function"
    },
    {
      "inputs": [
        {
          "internalType": "address",
          "name": "",
          "type": "address"
        },
        {
          "internalType": "uint256",
          "name": "",
          "type": "uint256"
        }
      ],
      "name": "ntfIdByCount",
      "outputs": [
        {
          "internalType": "uint256",
          "name": "",
          "type": "uint256"
        }
      ],
      "stateMutability": "view",
      "type": "function"
    },
    {
      "inputs": [],
      "name": "owner",
      "outputs": [
        {
          "internalType": "address",
          "name": "",
          "type": "address"
        }
      ],
      "stateMutability": "view",
      "type": "function"
    },
    {
      "inputs": [
        {
          "internalType": "uint256",
          "name": "tokenId",
          "type": "uint256"
        }
      ],
      "name": "ownerOf",
      "outputs": [
        {
          "internalType": "address",
          "name": "",
          "type": "address"
        }
      ],
      "stateMutability": "view",
      "type": "function"
    },
    {
      "inputs": [],
      "name": "price",
      "outputs": [
        {
          "internalType": "uint256",
          "name": "",
          "type": "uint256"
        }
      ],
      "stateMutability": "view",
      "type": "function"
    },
    {
      "inputs": [
        {
          "internalType": "address",
          "name": "from",
          "type": "address"
        },
        {
          "internalType": "address",
          "name": "to",
          "type": "address"
        },
        {
          "internalType": "uint256",
          "name": "tokenId",
          "type": "uint256"
        }
      ],
      "name": "safeTransferFrom",
      "outputs": [],
      "stateMutability": "nonpayable",
      "type": "function"
    },
    {
      "inputs": [
        {
          "internalType": "address",
          "name": "from",
          "type": "address"
        },
        {
          "internalType": "address",
          "name": "to",
          "type": "address"
        },
        {
          "internalType": "uint256",
          "name": "tokenId",
          "type": "uint256"
        },
        {
          "internalType": "bytes",
          "name": "data",
          "type": "bytes"
        }
      ],
      "name": "safeTransferFrom",
      "outputs": [],
      "stateMutability": "nonpayable",
      "type": "function"
    },
    {
      "inputs": [
        {
          "internalType": "address",
          "name": "operator",
          "type": "address"
        },
        {
          "internalType": "bool",
          "name": "approved",
          "type": "bool"
        }
      ],
      "name": "setApprovalForAll",
      "outputs": [],
      "stateMutability": "nonpayable",
      "type": "function"
    },
    {
      "inputs": [],
      "name": "start",
      "outputs": [
        {
          "internalType": "bool",
          "name": "",
          "type": "bool"
        }
      ],
      "stateMutability": "view",
      "type": "function"
    },
    {
      "inputs": [
        {
          "internalType": "bytes4",
          "name": "interfaceId",
          "type": "bytes4"
        }
      ],
      "name": "supportsInterface",
      "outputs": [
        {
          "internalType": "bool",
          "name": "",
          "type": "bool"
        }
      ],
      "stateMutability": "view",
      "type": "function"
    },
    {
      "inputs": [],
      "name": "sym",
      "outputs": [
        {
          "internalType": "string",
          "name": "",
          "type": "string"
        }
      ],
      "stateMutability": "view",
      "type": "function"
    },
    {
      "inputs": [],
      "name": "symbol",
      "outputs": [
        {
          "internalType": "string",
          "name": "",
          "type": "string"
        }
      ],
      "stateMutability": "view",
      "type": "function"
    },
    {
      "inputs": [
        {
          "internalType": "uint256",
          "name": "tokenId",
          "type": "uint256"
        }
      ],
      "name": "tokenURI",
      "outputs": [
        {
          "internalType": "string",
          "name": "",
          "type": "string"
        }
      ],
      "stateMutability": "view",
      "type": "function"
    },
    {
      "inputs": [
        {
          "internalType": "address",
          "name": "from",
          "type": "address"
        },
        {
          "internalType": "address",
          "name": "to",
          "type": "address"
        },
        {
          "internalType": "uint256",
          "name": "tokenId",
          "type": "uint256"
        }
      ],
      "name": "transferFrom",
      "outputs": [],
      "stateMutability": "nonpayable",
      "type": "function"
    },
    {
      "inputs": [
        {
          "internalType": "uint256",
          "name": "_start",
          "type": "uint256"
        },
        {
          "internalType": "uint256",
          "name": "_budget",
          "type": "uint256"
        },
        {
          "internalType": "uint256",
          "name": "_price",
          "type": "uint256"
        },
        {
          "internalType": "string",
          "name": "_dias",
          "type": "string"
        },
        {
          "internalType": "uint256",
          "name": "_ctype",
          "type": "uint256"
        }
      ],
      "name": "createCampaign",
      "outputs": [
        {
          "internalType": "bool",
          "name": "",
          "type": "bool"
        }
      ],
      "stateMutability": "nonpayable",
      "type": "function"
    },
    {
      "inputs": [
        {
          "internalType": "uint256",
          "name": "_cid",
          "type": "uint256"
        },
        {
          "internalType": "bool",
          "name": "_quit",
          "type": "bool"
        }
      ],
      "name": "changeState",
      "outputs": [
        {
          "internalType": "bool",
          "name": "",
          "type": "bool"
        }
      ],
      "stateMutability": "nonpayable",
      "type": "function"
    }
  ],
  "bytecode": "0x60806040523480156200001157600080fd5b50336040518060400160405280601881526020017f416666696c696174652043616d706169676e20417373657400000000000000008152506040518060400160405280600481526020017f41464c38000000000000000000000000000000000000000000000000000000008152506000806000848481600090816200009791906200046d565b508060019081620000a991906200046d565b505050600060068190555060006007819055506000600881905550600060098190555085600a60006101000a81548173ffffffffffffffffffffffffffffffffffffffff021916908373ffffffffffffffffffffffffffffffffffffffff16021790555084600d90816200011e91906200046d565b5083600e90816200013091906200046d565b5082600c8190555066038d7ea4c68000826200014d919062000583565b6010819055506000811115620001d95780306040516200016d90620001e5565b6200017a92919062000624565b604051809103906000f08015801562000197573d6000803e3d6000fd5b50601460006101000a81548173ffffffffffffffffffffffffffffffffffffffff021916908373ffffffffffffffffffffffffffffffffffffffff1602179055505b50505050505062000651565b611ccc806200566b83390190565b600081519050919050565b7f4e487b7100000000000000000000000000000000000000000000000000000000600052604160045260246000fd5b7f4e487b7100000000000000000000000000000000000000000000000000000000600052602260045260246000fd5b600060028204905060018216806200027557607f821691505b6020821081036200028b576200028a6200022d565b5b50919050565b60008190508160005260206000209050919050565b60006020601f8301049050919050565b600082821b905092915050565b600060088302620002f57fffffffffffffffffffffffffffffffffffffffffffffffffffffffffffffffff82620002b6565b620003018683620002b6565b95508019841693508086168417925050509392505050565b6000819050919050565b6000819050919050565b60006200034e62000348620003428462000319565b62000323565b62000319565b9050919050565b6000819050919050565b6200036a836200032d565b62000382620003798262000355565b848454620002c3565b825550505050565b600090565b620003996200038a565b620003a68184846200035f565b505050565b5b81811015620003ce57620003c26000826200038f565b600181019050620003ac565b5050565b601f8211156200041d57620003e78162000291565b620003f284620002a6565b8101602085101562000402578190505b6200041a6200041185620002a6565b830182620003ab565b50505b505050565b600082821c905092915050565b6000620004426000198460080262000422565b1980831691505092915050565b60006200045d83836200042f565b9150826002028217905092915050565b6200047882620001f3565b67ffffffffffffffff811115620004945762000493620001fe565b5b620004a082546200025c565b620004ad828285620003d2565b600060209050601f831160018114620004e55760008415620004d0578287015190505b620004dc85826200044f565b8655506200054c565b601f198416620004f58662000291565b60005b828110156200051f57848901518255600182019150602085019450602081019050620004f8565b868310156200053f57848901516200053b601f8916826200042f565b8355505b6001600288020188555050505b505050505050565b7f4e487b7100000000000000000000000000000000000000000000000000000000600052601160045260246000fd5b6000620005908262000319565b91506200059d8362000319565b9250828202620005ad8162000319565b91508282048414831517620005c757620005c662000554565b5b5092915050565b620005d98162000319565b82525050565b600073ffffffffffffffffffffffffffffffffffffffff82169050919050565b60006200060c82620005df565b9050919050565b6200061e81620005ff565b82525050565b60006040820190506200063b6000830185620005ce565b6200064a602083018462000613565b9392505050565b61500a80620006616000396000f3fe6080604052600436106102045760003560e01c806383813a2811610118578063aba4759f116100a0578063be9a65551161006f578063be9a655514610808578063c87b56dd14610833578063c971ebb314610870578063d7bb9d74146108ad578063e985e9c5146108ea57610204565b8063aba4759f1461073a578063b524fd6f14610777578063b88d4fde146107a2578063ba899a2e146107cb57610204565b80639b4f589f116100e75780639b4f589f1461064e578063a035b1fe1461068b578063a0712d68146106b6578063a22cb465146106e6578063a51d8fb11461070f57610204565b806383813a28146105a25780638da5cb5b146105cd57806395d89b41146105f85780639af9bec01461062357610204565b80632f54bf6e1161019b5780636352211e1161016a5780636352211e1461047b5780636ac5db19146104b8578063705faf2d146104e357806370a08231146105285780637641a89a1461056557610204565b80632f54bf6e146103ad578063406d4d23146103ea57806342842e0e146104275780634f02c4201461045057610204565b80630f4c0134116101d75780630f4c0134146102d7578063141961bc1461031457806314e0d7c01461035957806323b872dd1461038457610204565b806301ffc9a71461020957806306fdde0314610246578063081812fc14610271578063095ea7b3146102ae575b600080fd5b34801561021557600080fd5b50610230600480360381019061022b91906138e1565b610927565b60405161023d9190613929565b60405180910390f35b34801561025257600080fd5b5061025b610a09565b60405161026891906139d4565b60405180910390f35b34801561027d57600080fd5b5061029860048036038101906102939190613a2c565b610a9b565b6040516102a59190613a9a565b60405180910390f35b3480156102ba57600080fd5b506102d560048036038101906102d09190613ae1565b610ae1565b005b3480156102e357600080fd5b506102fe60048036038101906102f99190613ae1565b610bf8565b60405161030b9190613b30565b60405180910390f35b34801561032057600080fd5b5061033b60048036038101906103369190613a2c565b610c1d565b60405161035099989796959493929190613c5f565b60405180910390f35b34801561036557600080fd5b5061036e610d3d565b60405161037b9190613d52565b60405180910390f35b34801561039057600080fd5b506103ab60048036038101906103a69190613d6d565b610d63565b005b3480156103b957600080fd5b506103d460048036038101906103cf9190613dc0565b610dc3565b6040516103e19190613929565b60405180910390f35b3480156103f657600080fd5b50610411600480360381019061040c9190613e19565b610e2b565b60405161041e9190613929565b60405180910390f35b34801561043357600080fd5b5061044e60048036038101906104499190613d6d565b6110da565b005b34801561045c57600080fd5b506104656110fa565b6040516104729190613b30565b60405180910390f35b34801561048757600080fd5b506104a2600480360381019061049d9190613a2c565b611100565b6040516104af9190613a9a565b60405180910390f35b3480156104c457600080fd5b506104cd611186565b6040516104da9190613b30565b60405180910390f35b3480156104ef57600080fd5b5061050a60048036038101906105059190613ae1565b61118c565b60405161051f99989796959493929190613c5f565b60405180910390f35b34801561053457600080fd5b5061054f600480360381019061054a9190613dc0565b6112a9565b60405161055c9190613b30565b60405180910390f35b34801561057157600080fd5b5061058c60048036038101906105879190613f8e565b611360565b6040516105999190613929565b60405180910390f35b3480156105ae57600080fd5b506105b76115c6565b6040516105c491906139d4565b60405180910390f35b3480156105d957600080fd5b506105e2611654565b6040516105ef9190613a9a565b60405180910390f35b34801561060457600080fd5b5061060d61167a565b60405161061a91906139d4565b60405180910390f35b34801561062f57600080fd5b5061063861170c565b60405161064591906139d4565b60405180910390f35b34801561065a57600080fd5b5061067560048036038101906106709190613a2c565b61179a565b6040516106829190614025565b60405180910390f35b34801561069757600080fd5b506106a061183a565b6040516106ad9190613b30565b60405180910390f35b6106d060048036038101906106cb9190613a2c565b611840565b6040516106dd9190613b30565b60405180910390f35b3480156106f257600080fd5b5061070d60048036038101906107089190614047565b6118f5565b005b34801561071b57600080fd5b5061072461190b565b6040516107319190613b30565b60405180910390f35b34801561074657600080fd5b50610761600480360381019061075c9190613a2c565b611911565b60405161076e9190613b30565b60405180910390f35b34801561078357600080fd5b5061078c61196b565b6040516107999190613929565b60405180910390f35b3480156107ae57600080fd5b506107c960048036038101906107c49190614128565b61197a565b005b3480156107d757600080fd5b506107f260048036038101906107ed9190613a2c565b6119dc565b6040516107ff9190613a9a565b60405180910390f35b34801561081457600080fd5b5061081d6119ee565b60405161082a9190613929565b60405180910390f35b34801561083f57600080fd5b5061085a60048036038101906108559190613a2c565b611a01565b60405161086791906139d4565b60405180910390f35b34801561087c57600080fd5b5061089760048036038101906108929190613dc0565b611a69565b6040516108a49190613b30565b60405180910390f35b3480156108b957600080fd5b506108d460048036038101906108cf9190613a2c565b611a81565b6040516108e19190613b30565b60405180910390f35b3480156108f657600080fd5b50610911600480360381019061090c91906141ab565b611a99565b60405161091e9190613929565b60405180910390f35b60007f80ac58cd000000000000000000000000000000000000000000000000000000007bffffffffffffffffffffffffffffffffffffffffffffffffffffffff1916827bffffffffffffffffffffffffffffffffffffffffffffffffffffffff191614806109f257507f5b5e139f000000000000000000000000000000000000000000000000000000007bffffffffffffffffffffffffffffffffffffffffffffffffffffffff1916827bffffffffffffffffffffffffffffffffffffffffffffffffffffffff1916145b80610a025750610a0182611b2d565b5b9050919050565b606060008054610a189061421a565b80601f0160208091040260200160405190810160405280929190818152602001828054610a449061421a565b8015610a915780601f10610a6657610100808354040283529160200191610a91565b820191906000526020600020905b815481529060010190602001808311610a7457829003601f168201915b5050505050905090565b6000610aa682611b97565b6004600083815260200190815260200160002060009054906101000a900473ffffffffffffffffffffffffffffffffffffffff169050919050565b6000610aec82611100565b90508073ffffffffffffffffffffffffffffffffffffffff168373ffffffffffffffffffffffffffffffffffffffff1603610b5c576040517f08c379a0000000000000000000000000000000000000000000000000000000008152600401610b53906142bd565b60405180910390fd5b8073ffffffffffffffffffffffffffffffffffffffff16610b7b611be2565b73ffffffffffffffffffffffffffffffffffffffff161480610baa5750610ba981610ba4611be2565b611a99565b5b610be9576040517f08c379a0000000000000000000000000000000000000000000000000000000008152600401610be09061434f565b60405180910390fd5b610bf38383611bea565b505050565b6013602052816000526040600020602052806000526040600020600091509150505481565b60188181548110610c2d57600080fd5b90600052602060002090600802016000915090508060000154908060010160009054906101000a900473ffffffffffffffffffffffffffffffffffffffff1690806002015490806003015490806004015490806005015490806006018054610c949061421a565b80601f0160208091040260200160405190810160405280929190818152602001828054610cc09061421a565b8015610d0d5780601f10610ce257610100808354040283529160200191610d0d565b820191906000526020600020905b815481529060010190602001808311610cf057829003601f168201915b5050505050908060070160009054906101000a900460ff16908060070160019054906101000a900460ff16905089565b601560009054906101000a900473ffffffffffffffffffffffffffffffffffffffff1681565b610d74610d6e611be2565b82611ca3565b610db3576040517f08c379a0000000000000000000000000000000000000000000000000000000008152600401610daa906143e1565b60405180910390fd5b610dbe838383611d38565b505050565b6000600a60009054906101000a900473ffffffffffffffffffffffffffffffffffffffff1673ffffffffffffffffffffffffffffffffffffffff168273ffffffffffffffffffffffffffffffffffffffff1614610e21576000610e24565b60015b9050919050565b60008060188481548110610e4257610e41614401565b5b906000526020600020906008020160405180610120016040529081600082015481526020016001820160009054906101000a900473ffffffffffffffffffffffffffffffffffffffff1673ffffffffffffffffffffffffffffffffffffffff1673ffffffffffffffffffffffffffffffffffffffff16815260200160028201548152602001600382015481526020016004820154815260200160058201548152602001600682018054610ef49061421a565b80601f0160208091040260200160405190810160405280929190818152602001828054610f209061421a565b8015610f6d5780601f10610f4257610100808354040283529160200191610f6d565b820191906000526020600020905b815481529060010190602001808311610f5057829003601f168201915b505050505081526020016007820160009054906101000a900460ff166004811115610f9b57610f9a613ba0565b5b6004811115610fad57610fac613ba0565b5b81526020016007820160019054906101000a900460ff166003811115610fd657610fd5613ba0565b5b6003811115610fe857610fe7613ba0565b5b815250509050821561100557610ffd84612031565b9150506110d4565b428160400151108015611041575060038081111561102657611025613ba0565b5b816101000151600381111561103e5761103d613ba0565b5b14155b156110ce576000600381111561105a57611059613ba0565b5b816101000151600381111561107257611071613ba0565b5b14806110a757506002600381111561108d5761108c613ba0565b5b81610100015160038111156110a5576110a4613ba0565b5b145b156110bd576110b584612346565b9150506110d4565b6110c68461265b565b9150506110d4565b60009150505b92915050565b6110f58383836040518060200160405280600081525061197a565b505050565b600b5481565b60008061110c83612970565b9050600073ffffffffffffffffffffffffffffffffffffffff168173ffffffffffffffffffffffffffffffffffffffff160361117d576040517f08c379a00000000000000000000000000000000000000000000000000000000081526004016111749061447c565b60405180910390fd5b80915050919050565b600c5481565b601a602052816000526040600020602052806000526040600020600091509150508060000154908060010160009054906101000a900473ffffffffffffffffffffffffffffffffffffffff16908060020154908060030154908060040154908060050154908060060180546112009061421a565b80601f016020809104026020016040519081016040528092919081815260200182805461122c9061421a565b80156112795780601f1061124e57610100808354040283529160200191611279565b820191906000526020600020905b81548152906001019060200180831161125c57829003601f168201915b5050505050908060070160009054906101000a900460ff16908060070160019054906101000a900460ff16905089565b60008073ffffffffffffffffffffffffffffffffffffffff168273ffffffffffffffffffffffffffffffffffffffff1603611319576040517f08c379a00000000000000000000000000000000000000000000000000000000081526004016113109061450e565b60405180910390fd5b600360008373ffffffffffffffffffffffffffffffffffffffff1673ffffffffffffffffffffffffffffffffffffffff168152602001908152602001600020549050919050565b60008085674563918244f40000611377919061455d565b905080601560009054906101000a900473ffffffffffffffffffffffffffffffffffffffff1673ffffffffffffffffffffffffffffffffffffffff166370a08231336040518263ffffffff1660e01b81526004016113d59190613a9a565b602060405180830381865afa1580156113f2573d6000803e3d6000fd5b505050506040513d601f19601f8201168201806040525081019061141691906145a6565b1015611457576040517f08c379a000000000000000000000000000000000000000000000000000000000815260040161144e9061461f565b60405180910390fd5b600080840361146957600090506114a4565b6001840361147a57600190506114a3565b6002840361148b57600290506114a2565b6003840361149c57600390506114a1565b600490505b5b5b5b60006114b18289896129ad565b9050600081036114f6576040517f08c379a00000000000000000000000000000000000000000000000000000000081526004016114ed9061468b565b60405180910390fd5b6000428a101561150557600190505b601560009054906101000a900473ffffffffffffffffffffffffffffffffffffffff1673ffffffffffffffffffffffffffffffffffffffff166323b872dd3330876040518463ffffffff1660e01b8152600401611564939291906146ab565b6020604051808303816000875af1158015611583573d6000803e3d6000fd5b505050506040513d601f19601f820116820180604052508101906115a791906146f7565b506115b78a8a8a858b8887612be3565b94505050505095945050505050565b600e80546115d39061421a565b80601f01602080910402602001604051908101604052809291908181526020018280546115ff9061421a565b801561164c5780601f106116215761010080835404028352916020019161164c565b820191906000526020600020905b81548152906001019060200180831161162f57829003601f168201915b505050505081565b600a60009054906101000a900473ffffffffffffffffffffffffffffffffffffffff1681565b6060600180546116899061421a565b80601f01602080910402602001604051908101604052809291908181526020018280546116b59061421a565b80156117025780601f106116d757610100808354040283529160200191611702565b820191906000526020600020905b8154815290600101906020018083116116e557829003601f168201915b5050505050905090565b600d80546117199061421a565b80601f01602080910402602001604051908101604052809291908181526020018280546117459061421a565b80156117925780601f1061176757610100808354040283529160200191611792565b820191906000526020600020905b81548152906001019060200180831161177557829003601f168201915b505050505081565b601160205280600052604060002060009150905080546117b99061421a565b80601f01602080910402602001604051908101604052809291908181526020018280546117e59061421a565b80156118325780601f1061180757610100808354040283529160200191611832565b820191906000526020600020905b81548152906001019060200180831161181557829003601f168201915b505050505081565b60105481565b6000600c54600b541015806118645750600c5482600b54611861919061455d565b10155b1561189b576040517f064a6c4100000000000000000000000000000000000000000000000000000000815260040160405180910390fd5b816010546118a99190614724565b34106118e1576040517fefc60c1400000000000000000000000000000000000000000000000000000000815260040160405180910390fd5b6118ea82612fe4565b50600b549050919050565b611907611900611be2565b8383613031565b5050565b60175481565b6000601360003373ffffffffffffffffffffffffffffffffffffffff1673ffffffffffffffffffffffffffffffffffffffff1681526020019081526020016000206000838152602001908152602001600020549050919050565b600061197561319d565b905090565b61198b611985611be2565b83611ca3565b6119ca576040517f08c379a00000000000000000000000000000000000000000000000000000000081526004016119c1906143e1565b60405180910390fd5b6119d6848484846131cd565b50505050565b60006119e782611100565b9050919050565b600f60009054906101000a900460ff1681565b6060611a0c82611b97565b6000611a16613229565b90506000815111611a365760405180602001604052806000815250611a61565b80611a4084613240565b604051602001611a519291906147a2565b6040516020818303038152906040525b915050919050565b60126020528060005260406000206000915090505481565b601b6020528060005260406000206000915090505481565b6000600560008473ffffffffffffffffffffffffffffffffffffffff1673ffffffffffffffffffffffffffffffffffffffff16815260200190815260200160002060008373ffffffffffffffffffffffffffffffffffffffff1673ffffffffffffffffffffffffffffffffffffffff16815260200190815260200160002060009054906101000a900460ff16905092915050565b60007f01ffc9a7000000000000000000000000000000000000000000000000000000007bffffffffffffffffffffffffffffffffffffffffffffffffffffffff1916827bffffffffffffffffffffffffffffffffffffffffffffffffffffffff1916149050919050565b611ba08161330e565b611bdf576040517f08c379a0000000000000000000000000000000000000000000000000000000008152600401611bd69061447c565b60405180910390fd5b50565b600033905090565b816004600083815260200190815260200160002060006101000a81548173ffffffffffffffffffffffffffffffffffffffff021916908373ffffffffffffffffffffffffffffffffffffffff160217905550808273ffffffffffffffffffffffffffffffffffffffff16611c5d83611100565b73ffffffffffffffffffffffffffffffffffffffff167f8c5be1e5ebec7d5bd14f71427d1e84f3dd0314c0f7b2291e5b200ac8c7c3b92560405160405180910390a45050565b600080611caf83611100565b90508073ffffffffffffffffffffffffffffffffffffffff168473ffffffffffffffffffffffffffffffffffffffff161480611cf15750611cf08185611a99565b5b80611d2f57508373ffffffffffffffffffffffffffffffffffffffff16611d1784610a9b565b73ffffffffffffffffffffffffffffffffffffffff16145b91505092915050565b8273ffffffffffffffffffffffffffffffffffffffff16611d5882611100565b73ffffffffffffffffffffffffffffffffffffffff1614611dae576040517f08c379a0000000000000000000000000000000000000000000000000000000008152600401611da590614838565b60405180910390fd5b600073ffffffffffffffffffffffffffffffffffffffff168273ffffffffffffffffffffffffffffffffffffffff1603611e1d576040517f08c379a0000000000000000000000000000000000000000000000000000000008152600401611e14906148ca565b60405180910390fd5b611e2a838383600161334f565b8273ffffffffffffffffffffffffffffffffffffffff16611e4a82611100565b73ffffffffffffffffffffffffffffffffffffffff1614611ea0576040517f08c379a0000000000000000000000000000000000000000000000000000000008152600401611e9790614838565b60405180910390fd5b6004600082815260200190815260200160002060006101000a81549073ffffffffffffffffffffffffffffffffffffffff02191690556001600360008573ffffffffffffffffffffffffffffffffffffffff1673ffffffffffffffffffffffffffffffffffffffff168152602001908152602001600020600082825403925050819055506001600360008473ffffffffffffffffffffffffffffffffffffffff1673ffffffffffffffffffffffffffffffffffffffff16815260200190815260200160002060008282540192505081905550816002600083815260200190815260200160002060006101000a81548173ffffffffffffffffffffffffffffffffffffffff021916908373ffffffffffffffffffffffffffffffffffffffff160217905550808273ffffffffffffffffffffffffffffffffffffffff168473ffffffffffffffffffffffffffffffffffffffff167fddf252ad1be2c89b69c2b068fc378daa952ba7f163c4a11628f55a4df523b3ef60405160405180910390a461202c8383836001613355565b505050565b6000806018838154811061204857612047614401565b5b906000526020600020906008020160405180610120016040529081600082015481526020016001820160009054906101000a900473ffffffffffffffffffffffffffffffffffffffff1673ffffffffffffffffffffffffffffffffffffffff1673ffffffffffffffffffffffffffffffffffffffff168152602001600282015481526020016003820154815260200160048201548152602001600582015481526020016006820180546120fa9061421a565b80601f01602080910402602001604051908101604052809291908181526020018280546121269061421a565b80156121735780601f1061214857610100808354040283529160200191612173565b820191906000526020600020905b81548152906001019060200180831161215657829003601f168201915b505050505081526020016007820160009054906101000a900460ff1660048111156121a1576121a0613ba0565b5b60048111156121b3576121b2613ba0565b5b81526020016007820160019054906101000a900460ff1660038111156121dc576121db613ba0565b5b60038111156121ee576121ed613ba0565b5b8152505090506003816101000190600381111561220e5761220d613ba0565b5b9081600381111561222257612221613ba0565b5b81525050806018848154811061223b5761223a614401565b5b90600052602060002090600802016000820151816000015560208201518160010160006101000a81548173ffffffffffffffffffffffffffffffffffffffff021916908373ffffffffffffffffffffffffffffffffffffffff16021790555060408201518160020155606082015181600301556080820151816004015560a0820151816005015560c08201518160060190816122d79190614a8c565b5060e08201518160070160006101000a81548160ff0219169083600481111561230357612302613ba0565b5b02179055506101008201518160070160016101000a81548160ff0219169083600381111561233457612333613ba0565b5b02179055509050506001915050919050565b6000806018838154811061235d5761235c614401565b5b906000526020600020906008020160405180610120016040529081600082015481526020016001820160009054906101000a900473ffffffffffffffffffffffffffffffffffffffff1673ffffffffffffffffffffffffffffffffffffffff1673ffffffffffffffffffffffffffffffffffffffff1681526020016002820154815260200160038201548152602001600482015481526020016005820154815260200160068201805461240f9061421a565b80601f016020809104026020016040519081016040528092919081815260200182805461243b9061421a565b80156124885780601f1061245d57610100808354040283529160200191612488565b820191906000526020600020905b81548152906001019060200180831161246b57829003601f168201915b505050505081526020016007820160009054906101000a900460ff1660048111156124b6576124b5613ba0565b5b60048111156124c8576124c7613ba0565b5b81526020016007820160019054906101000a900460ff1660038111156124f1576124f0613ba0565b5b600381111561250357612502613ba0565b5b8152505090506001816101000190600381111561252357612522613ba0565b5b9081600381111561253757612536613ba0565b5b8152505080601884815481106125505761254f614401565b5b90600052602060002090600802016000820151816000015560208201518160010160006101000a81548173ffffffffffffffffffffffffffffffffffffffff021916908373ffffffffffffffffffffffffffffffffffffffff16021790555060408201518160020155606082015181600301556080820151816004015560a0820151816005015560c08201518160060190816125ec9190614a8c565b5060e08201518160070160006101000a81548160ff0219169083600481111561261857612617613ba0565b5b02179055506101008201518160070160016101000a81548160ff0219169083600381111561264957612648613ba0565b5b02179055509050506001915050919050565b6000806018838154811061267257612671614401565b5b906000526020600020906008020160405180610120016040529081600082015481526020016001820160009054906101000a900473ffffffffffffffffffffffffffffffffffffffff1673ffffffffffffffffffffffffffffffffffffffff1673ffffffffffffffffffffffffffffffffffffffff168152602001600282015481526020016003820154815260200160048201548152602001600582015481526020016006820180546127249061421a565b80601f01602080910402602001604051908101604052809291908181526020018280546127509061421a565b801561279d5780601f106127725761010080835404028352916020019161279d565b820191906000526020600020905b81548152906001019060200180831161278057829003601f168201915b505050505081526020016007820160009054906101000a900460ff1660048111156127cb576127ca613ba0565b5b60048111156127dd576127dc613ba0565b5b81526020016007820160019054906101000a900460ff16600381111561280657612805613ba0565b5b600381111561281857612817613ba0565b5b8152505090506002816101000190600381111561283857612837613ba0565b5b9081600381111561284c5761284b613ba0565b5b81525050806018848154811061286557612864614401565b5b90600052602060002090600802016000820151816000015560208201518160010160006101000a81548173ffffffffffffffffffffffffffffffffffffffff021916908373ffffffffffffffffffffffffffffffffffffffff16021790555060408201518160020155606082015181600301556080820151816004015560a0820151816005015560c08201518160060190816129019190614a8c565b5060e08201518160070160006101000a81548160ff0219169083600481111561292d5761292c613ba0565b5b02179055506101008201518160070160016101000a81548160ff0219169083600381111561295e5761295d613ba0565b5b02179055509050506000915050919050565b60006002600083815260200190815260200160002060009054906101000a900473ffffffffffffffffffffffffffffffffffffffff169050919050565b60008060048111156129c2576129c1613ba0565b5b8460048111156129d5576129d4613ba0565b5b03612a37576611c37937e08000821015612a24576040517f08c379a0000000000000000000000000000000000000000000000000000000008152600401612a1b90614baa565b60405180910390fd5b8183612a309190614bf9565b9050612bdc565b60016004811115612a4b57612a4a613ba0565b5b846004811115612a5e57612a5d613ba0565b5b03612ac05766b1a2bc2ec50000821015612aad576040517f08c379a0000000000000000000000000000000000000000000000000000000008152600401612aa490614baa565b60405180910390fd5b8183612ab99190614bf9565b9050612bdb565b60026004811115612ad457612ad3613ba0565b5b846004811115612ae757612ae6613ba0565b5b03612b4a576706f05b59d3b20000821015612b37576040517f08c379a0000000000000000000000000000000000000000000000000000000008152600401612b2e90614baa565b60405180910390fd5b8183612b439190614bf9565b9050612bda565b60036004811115612b5e57612b5d613ba0565b5b846004811115612b7157612b70613ba0565b5b03612bd457674563918244f40000821015612bc1576040517f08c379a0000000000000000000000000000000000000000000000000000000008152600401612bb890614baa565b60405180910390fd5b8183612bcd9190614bf9565b9050612bd9565b600090505b5b5b5b9392505050565b6000601860405180610120016040528060175481526020013373ffffffffffffffffffffffffffffffffffffffff1681526020018a8152602001898152602001888152602001878152602001868152602001856004811115612c4857612c47613ba0565b5b8152602001846003811115612c6057612c5f613ba0565b5b81525090806001815401808255809150506001900390600052602060002090600802016000909190919091506000820151816000015560208201518160010160006101000a81548173ffffffffffffffffffffffffffffffffffffffff021916908373ffffffffffffffffffffffffffffffffffffffff16021790555060408201518160020155606082015181600301556080820151816004015560a0820151816005015560c0820151816006019081612d1a9190614a8c565b5060e08201518160070160006101000a81548160ff02191690836004811115612d4657612d45613ba0565b5b02179055506101008201518160070160016101000a81548160ff02191690836003811115612d7757612d76613ba0565b5b02179055505050601860175481548110612d9457612d93614401565b5b9060005260206000209060080201601a60003373ffffffffffffffffffffffffffffffffffffffff1673ffffffffffffffffffffffffffffffffffffffff1681526020019081526020016000206000601960003373ffffffffffffffffffffffffffffffffffffffff1673ffffffffffffffffffffffffffffffffffffffff168152602001908152602001600020548152602001908152602001600020600082015481600001556001820160009054906101000a900473ffffffffffffffffffffffffffffffffffffffff168160010160006101000a81548173ffffffffffffffffffffffffffffffffffffffff021916908373ffffffffffffffffffffffffffffffffffffffff1602179055506002820154816002015560038201548160030155600482015481600401556005820154816005015560068201816006019081612ede9190614c40565b506007820160009054906101000a900460ff168160070160006101000a81548160ff02191690836004811115612f1757612f16613ba0565b5b02179055506007820160019054906101000a900460ff168160070160016101000a81548160ff02191690836003811115612f5457612f53613ba0565b5b0217905550905050601960003373ffffffffffffffffffffffffffffffffffffffff1673ffffffffffffffffffffffffffffffffffffffff1681526020019081526020016000206000815480929190612fac90614d28565b9190505550612fbd3360175461335b565b60176000815480929190612fd090614d28565b919050555060019050979650505050505050565b60006007821115612ff457600080fd5b60005b828110156130265761300b33600b5461335b565b600b6000815460010191905081905550806001019050612ff7565b50600b549050919050565b8173ffffffffffffffffffffffffffffffffffffffff168373ffffffffffffffffffffffffffffffffffffffff160361309f576040517f08c379a000000000000000000000000000000000000000000000000000000000815260040161309690614dbc565b60405180910390fd5b80600560008573ffffffffffffffffffffffffffffffffffffffff1673ffffffffffffffffffffffffffffffffffffffff16815260200190815260200160002060008473ffffffffffffffffffffffffffffffffffffffff1673ffffffffffffffffffffffffffffffffffffffff16815260200190815260200160002060006101000a81548160ff0219169083151502179055508173ffffffffffffffffffffffffffffffffffffffff168373ffffffffffffffffffffffffffffffffffffffff167f17307eab39ab6107e8899845ad3d59bd9653f200f220920489ca2b5937696c31836040516131909190613929565b60405180910390a3505050565b6000600f60009054906101000a900460ff1615600f60006101000a81548160ff0219169083151502179055905090565b6131d8848484611d38565b6131e484848484613578565b613223576040517f08c379a000000000000000000000000000000000000000000000000000000000815260040161321a90614e4e565b60405180910390fd5b50505050565b606060405180602001604052806000815250905090565b60606000600161324f846136ff565b01905060008167ffffffffffffffff81111561326e5761326d613e63565b5b6040519080825280601f01601f1916602001820160405280156132a05781602001600182028036833780820191505090505b509050600082602001820190505b600115613303578080600190039150507f3031323334353637383961626364656600000000000000000000000000000000600a86061a8153600a85816132f7576132f6614bca565b5b049450600085036132ae575b819350505050919050565b60008073ffffffffffffffffffffffffffffffffffffffff1661333083612970565b73ffffffffffffffffffffffffffffffffffffffff1614159050919050565b50505050565b50505050565b600073ffffffffffffffffffffffffffffffffffffffff168273ffffffffffffffffffffffffffffffffffffffff16036133ca576040517f08c379a00000000000000000000000000000000000000000000000000000000081526004016133c190614eba565b60405180910390fd5b6133d38161330e565b15613413576040517f08c379a000000000000000000000000000000000000000000000000000000000815260040161340a90614f26565b60405180910390fd5b61342160008383600161334f565b61342a8161330e565b1561346a576040517f08c379a000000000000000000000000000000000000000000000000000000000815260040161346190614f26565b60405180910390fd5b6001600360008473ffffffffffffffffffffffffffffffffffffffff1673ffffffffffffffffffffffffffffffffffffffff16815260200190815260200160002060008282540192505081905550816002600083815260200190815260200160002060006101000a81548173ffffffffffffffffffffffffffffffffffffffff021916908373ffffffffffffffffffffffffffffffffffffffff160217905550808273ffffffffffffffffffffffffffffffffffffffff16600073ffffffffffffffffffffffffffffffffffffffff167fddf252ad1be2c89b69c2b068fc378daa952ba7f163c4a11628f55a4df523b3ef60405160405180910390a4613574600083836001613355565b5050565b60006135998473ffffffffffffffffffffffffffffffffffffffff16613852565b156136f2578373ffffffffffffffffffffffffffffffffffffffff1663150b7a026135c2611be2565b8786866040518563ffffffff1660e01b81526004016135e49493929190614f46565b6020604051808303816000875af192505050801561362057506040513d601f19601f8201168201806040525081019061361d9190614fa7565b60015b6136a2573d8060008114613650576040519150601f19603f3d011682016040523d82523d6000602084013e613655565b606091505b50600081510361369a576040517f08c379a000000000000000000000000000000000000000000000000000000000815260040161369190614e4e565b60405180910390fd5b805181602001fd5b63150b7a0260e01b7bffffffffffffffffffffffffffffffffffffffffffffffffffffffff1916817bffffffffffffffffffffffffffffffffffffffffffffffffffffffff1916149150506136f7565b600190505b949350505050565b600080600090507a184f03e93ff9f4daa797ed6e38ed64bf6a1f010000000000000000831061375d577a184f03e93ff9f4daa797ed6e38ed64bf6a1f010000000000000000838161375357613752614bca565b5b0492506040810190505b6d04ee2d6d415b85acef8100000000831061379a576d04ee2d6d415b85acef810000000083816137905761378f614bca565b5b0492506020810190505b662386f26fc1000083106137c957662386f26fc1000083816137bf576137be614bca565b5b0492506010810190505b6305f5e10083106137f2576305f5e10083816137e8576137e7614bca565b5b0492506008810190505b612710831061381757612710838161380d5761380c614bca565b5b0492506004810190505b6064831061383a57606483816138305761382f614bca565b5b0492506002810190505b600a8310613849576001810190505b80915050919050565b6000808273ffffffffffffffffffffffffffffffffffffffff163b119050919050565b6000604051905090565b600080fd5b600080fd5b60007fffffffff0000000000000000000000000000000000000000000000000000000082169050919050565b6138be81613889565b81146138c957600080fd5b50565b6000813590506138db816138b5565b92915050565b6000602082840312156138f7576138f661387f565b5b6000613905848285016138cc565b91505092915050565b60008115159050919050565b6139238161390e565b82525050565b600060208201905061393e600083018461391a565b92915050565b600081519050919050565b600082825260208201905092915050565b60005b8381101561397e578082015181840152602081019050613963565b60008484015250505050565b6000601f19601f8301169050919050565b60006139a682613944565b6139b0818561394f565b93506139c0818560208601613960565b6139c98161398a565b840191505092915050565b600060208201905081810360008301526139ee818461399b565b905092915050565b6000819050919050565b613a09816139f6565b8114613a1457600080fd5b50565b600081359050613a2681613a00565b92915050565b600060208284031215613a4257613a4161387f565b5b6000613a5084828501613a17565b91505092915050565b600073ffffffffffffffffffffffffffffffffffffffff82169050919050565b6000613a8482613a59565b9050919050565b613a9481613a79565b82525050565b6000602082019050613aaf6000830184613a8b565b92915050565b613abe81613a79565b8114613ac957600080fd5b50565b600081359050613adb81613ab5565b92915050565b60008060408385031215613af857613af761387f565b5b6000613b0685828601613acc565b9250506020613b1785828601613a17565b9150509250929050565b613b2a816139f6565b82525050565b6000602082019050613b456000830184613b21565b92915050565b600081519050919050565b600082825260208201905092915050565b6000613b7282613b4b565b613b7c8185613b56565b9350613b8c818560208601613960565b613b958161398a565b840191505092915050565b7f4e487b7100000000000000000000000000000000000000000000000000000000600052602160045260246000fd5b60058110613be057613bdf613ba0565b5b50565b6000819050613bf182613bcf565b919050565b6000613c0182613be3565b9050919050565b613c1181613bf6565b82525050565b60048110613c2857613c27613ba0565b5b50565b6000819050613c3982613c17565b919050565b6000613c4982613c2b565b9050919050565b613c5981613c3e565b82525050565b600061012082019050613c75600083018c613b21565b613c82602083018b613a8b565b613c8f604083018a613b21565b613c9c6060830189613b21565b613ca96080830188613b21565b613cb660a0830187613b21565b81810360c0830152613cc88186613b67565b9050613cd760e0830185613c08565b613ce5610100830184613c50565b9a9950505050505050505050565b6000819050919050565b6000613d18613d13613d0e84613a59565b613cf3565b613a59565b9050919050565b6000613d2a82613cfd565b9050919050565b6000613d3c82613d1f565b9050919050565b613d4c81613d31565b82525050565b6000602082019050613d676000830184613d43565b92915050565b600080600060608486031215613d8657613d8561387f565b5b6000613d9486828701613acc565b9350506020613da586828701613acc565b9250506040613db686828701613a17565b9150509250925092565b600060208284031215613dd657613dd561387f565b5b6000613de484828501613acc565b91505092915050565b613df68161390e565b8114613e0157600080fd5b50565b600081359050613e1381613ded565b92915050565b60008060408385031215613e3057613e2f61387f565b5b6000613e3e85828601613a17565b9250506020613e4f85828601613e04565b9150509250929050565b600080fd5b600080fd5b7f4e487b7100000000000000000000000000000000000000000000000000000000600052604160045260246000fd5b613e9b8261398a565b810181811067ffffffffffffffff82111715613eba57613eb9613e63565b5b80604052505050565b6000613ecd613875565b9050613ed98282613e92565b919050565b600067ffffffffffffffff821115613ef957613ef8613e63565b5b613f028261398a565b9050602081019050919050565b82818337600083830152505050565b6000613f31613f2c84613ede565b613ec3565b905082815260208101848484011115613f4d57613f4c613e5e565b5b613f58848285613f0f565b509392505050565b600082601f830112613f7557613f74613e59565b5b8135613f85848260208601613f1e565b91505092915050565b600080600080600060a08688031215613faa57613fa961387f565b5b6000613fb888828901613a17565b9550506020613fc988828901613a17565b9450506040613fda88828901613a17565b935050606086013567ffffffffffffffff811115613ffb57613ffa613884565b5b61400788828901613f60565b925050608061401888828901613a17565b9150509295509295909350565b6000602082019050818103600083015261403f8184613b67565b905092915050565b6000806040838503121561405e5761405d61387f565b5b600061406c85828601613acc565b925050602061407d85828601613e04565b9150509250929050565b600067ffffffffffffffff8211156140a2576140a1613e63565b5b6140ab8261398a565b9050602081019050919050565b60006140cb6140c684614087565b613ec3565b9050828152602081018484840111156140e7576140e6613e5e565b5b6140f2848285613f0f565b509392505050565b600082601f83011261410f5761410e613e59565b5b813561411f8482602086016140b8565b91505092915050565b600080600080608085870312156141425761414161387f565b5b600061415087828801613acc565b945050602061416187828801613acc565b935050604061417287828801613a17565b925050606085013567ffffffffffffffff81111561419357614192613884565b5b61419f878288016140fa565b91505092959194509250565b600080604083850312156141c2576141c161387f565b5b60006141d085828601613acc565b92505060206141e185828601613acc565b9150509250929050565b7f4e487b7100000000000000000000000000000000000000000000000000000000600052602260045260246000fd5b6000600282049050600182168061423257607f821691505b602082108103614245576142446141eb565b5b50919050565b7f4552433732313a20617070726f76616c20746f2063757272656e74206f776e6560008201527f7200000000000000000000000000000000000000000000000000000000000000602082015250565b60006142a760218361394f565b91506142b28261424b565b604082019050919050565b600060208201905081810360008301526142d68161429a565b9050919050565b7f4552433732313a20617070726f76652063616c6c6572206973206e6f7420746f60008201527f6b656e206f776e6572206f7220617070726f76656420666f7220616c6c000000602082015250565b6000614339603d8361394f565b9150614344826142dd565b604082019050919050565b600060208201905081810360008301526143688161432c565b9050919050565b7f4552433732313a2063616c6c6572206973206e6f7420746f6b656e206f776e6560008201527f72206f7220617070726f76656400000000000000000000000000000000000000602082015250565b60006143cb602d8361394f565b91506143d68261436f565b604082019050919050565b600060208201905081810360008301526143fa816143be565b9050919050565b7f4e487b7100000000000000000000000000000000000000000000000000000000600052603260045260246000fd5b7f4552433732313a20696e76616c696420746f6b656e2049440000000000000000600082015250565b600061446660188361394f565b915061447182614430565b602082019050919050565b6000602082019050818103600083015261449581614459565b9050919050565b7f4552433732313a2061646472657373207a65726f206973206e6f74206120766160008201527f6c6964206f776e65720000000000000000000000000000000000000000000000602082015250565b60006144f860298361394f565b91506145038261449c565b604082019050919050565b60006020820190508181036000830152614527816144eb565b9050919050565b7f4e487b7100000000000000000000000000000000000000000000000000000000600052601160045260246000fd5b6000614568826139f6565b9150614573836139f6565b925082820190508082111561458b5761458a61452e565b5b92915050565b6000815190506145a081613a00565b92915050565b6000602082840312156145bc576145bb61387f565b5b60006145ca84828501614591565b91505092915050565b7f3a3a20696e73756666696369656e742066756e6473203a3a0000000000000000600082015250565b600061460960188361394f565b9150614614826145d3565b602082019050919050565b60006020820190508181036000830152614638816145fc565b9050919050565b7f3a3a206e6f7420656e6f75676820627564676574203a3a000000000000000000600082015250565b600061467560178361394f565b91506146808261463f565b602082019050919050565b600060208201905081810360008301526146a481614668565b9050919050565b60006060820190506146c06000830186613a8b565b6146cd6020830185613a8b565b6146da6040830184613b21565b949350505050565b6000815190506146f181613ded565b92915050565b60006020828403121561470d5761470c61387f565b5b600061471b848285016146e2565b91505092915050565b600061472f826139f6565b915061473a836139f6565b9250828202614748816139f6565b9150828204841483151761475f5761475e61452e565b5b5092915050565b600081905092915050565b600061477c82613944565b6147868185614766565b9350614796818560208601613960565b80840191505092915050565b60006147ae8285614771565b91506147ba8284614771565b91508190509392505050565b7f4552433732313a207472616e736665722066726f6d20696e636f72726563742060008201527f6f776e6572000000000000000000000000000000000000000000000000000000602082015250565b600061482260258361394f565b915061482d826147c6565b604082019050919050565b6000602082019050818103600083015261485181614815565b9050919050565b7f4552433732313a207472616e7366657220746f20746865207a65726f2061646460008201527f7265737300000000000000000000000000000000000000000000000000000000602082015250565b60006148b460248361394f565b91506148bf82614858565b604082019050919050565b600060208201905081810360008301526148e3816148a7565b9050919050565b60008190508160005260206000209050919050565b60006020601f8301049050919050565b600082821b905092915050565b60006008830261494c7fffffffffffffffffffffffffffffffffffffffffffffffffffffffffffffffff8261490f565b614956868361490f565b95508019841693508086168417925050509392505050565b600061498961498461497f846139f6565b613cf3565b6139f6565b9050919050565b6000819050919050565b6149a38361496e565b6149b76149af82614990565b84845461491c565b825550505050565b600090565b6149cc6149bf565b6149d781848461499a565b505050565b5b818110156149fb576149f06000826149c4565b6001810190506149dd565b5050565b601f821115614a4057614a11816148ea565b614a1a846148ff565b81016020851015614a29578190505b614a3d614a35856148ff565b8301826149dc565b50505b505050565b600082821c905092915050565b6000614a6360001984600802614a45565b1980831691505092915050565b6000614a7c8383614a52565b9150826002028217905092915050565b614a9582613b4b565b67ffffffffffffffff811115614aae57614aad613e63565b5b614ab8825461421a565b614ac38282856149ff565b600060209050601f831160018114614af65760008415614ae4578287015190505b614aee8582614a70565b865550614b56565b601f198416614b04866148ea565b60005b82811015614b2c57848901518255600182019150602085019450602081019050614b07565b86831015614b495784890151614b45601f891682614a52565b8355505b6001600288020188555050505b505050505050565b7f3a3a20707269636520746f6f206c6f77203a3a00000000000000000000000000600082015250565b6000614b9460138361394f565b9150614b9f82614b5e565b602082019050919050565b60006020820190508181036000830152614bc381614b87565b9050919050565b7f4e487b7100000000000000000000000000000000000000000000000000000000600052601260045260246000fd5b6000614c04826139f6565b9150614c0f836139f6565b925082614c1f57614c1e614bca565b5b828204905092915050565b600081549050614c398161421a565b9050919050565b818103614c4e575050614d26565b614c5782614c2a565b67ffffffffffffffff811115614c7057614c6f613e63565b5b614c7a825461421a565b614c858282856149ff565b6000601f831160018114614cb45760008415614ca2578287015490505b614cac8582614a70565b865550614d1f565b601f198416614cc2876148ea565b9650614ccd866148ea565b60005b82811015614cf557848901548255600182019150600185019450602081019050614cd0565b86831015614d125784890154614d0e601f891682614a52565b8355505b6001600288020188555050505b5050505050505b565b6000614d33826139f6565b91507fffffffffffffffffffffffffffffffffffffffffffffffffffffffffffffffff8203614d6557614d6461452e565b5b600182019050919050565b7f4552433732313a20617070726f766520746f2063616c6c657200000000000000600082015250565b6000614da660198361394f565b9150614db182614d70565b602082019050919050565b60006020820190508181036000830152614dd581614d99565b9050919050565b7f4552433732313a207472616e7366657220746f206e6f6e20455243373231526560008201527f63656976657220696d706c656d656e7465720000000000000000000000000000602082015250565b6000614e3860328361394f565b9150614e4382614ddc565b604082019050919050565b60006020820190508181036000830152614e6781614e2b565b9050919050565b7f4552433732313a206d696e7420746f20746865207a65726f2061646472657373600082015250565b6000614ea460208361394f565b9150614eaf82614e6e565b602082019050919050565b60006020820190508181036000830152614ed381614e97565b9050919050565b7f4552433732313a20746f6b656e20616c7265616479206d696e74656400000000600082015250565b6000614f10601c8361394f565b9150614f1b82614eda565b602082019050919050565b60006020820190508181036000830152614f3f81614f03565b9050919050565b6000608082019050614f5b6000830187613a8b565b614f686020830186613a8b565b614f756040830185613b21565b8181036060830152614f878184613b67565b905095945050505050565b600081519050614fa1816138b5565b92915050565b600060208284031215614fbd57614fbc61387f565b5b6000614fcb84828501614f92565b9150509291505056fea26469706673582212205e7ed7c38c757513efca5e611aa684038abdca8dffeb884facd4f4a09d93099864736f6c6343000811003360806040523480156200001157600080fd5b5060405162001ccc38038062001ccc8339818101604052810190620000379190620001d8565b336000806101000a81548173ffffffffffffffffffffffffffffffffffffffff021916908373ffffffffffffffffffffffffffffffffffffffff1602179055506040518060400160405280601a81526020017f4245204652455348204d5920465255495459204652454e5a202100000000000081525060039081620000bd91906200048f565b50600060018190555081600281905550620000de81620000e760201b60201c565b50505062000576565b600081600560006101000a81548173ffffffffffffffffffffffffffffffffffffffff021916908373ffffffffffffffffffffffffffffffffffffffff16021790555060019050919050565b600080fd5b6000819050919050565b6200014d8162000138565b81146200015957600080fd5b50565b6000815190506200016d8162000142565b92915050565b600073ffffffffffffffffffffffffffffffffffffffff82169050919050565b6000620001a08262000173565b9050919050565b620001b28162000193565b8114620001be57600080fd5b50565b600081519050620001d281620001a7565b92915050565b60008060408385031215620001f257620001f162000133565b5b600062000202858286016200015c565b92505060206200021585828601620001c1565b9150509250929050565b600081519050919050565b7f4e487b7100000000000000000000000000000000000000000000000000000000600052604160045260246000fd5b7f4e487b7100000000000000000000000000000000000000000000000000000000600052602260045260246000fd5b60006002820490506001821680620002a157607f821691505b602082108103620002b757620002b662000259565b5b50919050565b60008190508160005260206000209050919050565b60006020601f8301049050919050565b600082821b905092915050565b600060088302620003217fffffffffffffffffffffffffffffffffffffffffffffffffffffffffffffffff82620002e2565b6200032d8683620002e2565b95508019841693508086168417925050509392505050565b6000819050919050565b6000620003706200036a620003648462000138565b62000345565b62000138565b9050919050565b6000819050919050565b6200038c836200034f565b620003a46200039b8262000377565b848454620002ef565b825550505050565b600090565b620003bb620003ac565b620003c881848462000381565b505050565b5b81811015620003f057620003e4600082620003b1565b600181019050620003ce565b5050565b601f8211156200043f576200040981620002bd565b6200041484620002d2565b8101602085101562000424578190505b6200043c6200043385620002d2565b830182620003cd565b50505b505050565b600082821c905092915050565b6000620004646000198460080262000444565b1980831691505092915050565b60006200047f838362000451565b9150826002028217905092915050565b6200049a826200021f565b67ffffffffffffffff811115620004b657620004b56200022a565b5b620004c2825462000288565b620004cf828285620003f4565b600060209050601f831160018114620005075760008415620004f2578287015190505b620004fe858262000471565b8655506200056e565b601f1984166200051786620002bd565b60005b8281101562000541578489015182556001820191506020850194506020810190506200051a565b868310156200056157848901516200055d601f89168262000451565b8355505b6001600288020188555050505b505050505050565b61174680620005866000396000f3fe6080604052600436106100f35760003560e01c806377b3cc9a1161008a578063e21f37ce11610059578063e21f37ce14610349578063ece866b914610374578063f794062e1461039f578063f851a440146103dc576100f3565b806377b3cc9a14610286578063c4784fd4146102b1578063c85e07b9146102e1578063cc87ec5f1461030c576100f3565b8063329dd364116100c6578063329dd364146101c8578063365b98b2146101f35780633ccfd60b146102305780636ac5db191461025b576100f3565b806301c0fb4c146100f8578063161dbc14146101355780632a0c74d4146101725780632f7136551461019d575b600080fd5b34801561010457600080fd5b5061011f600480360381019061011a9190610e7d565b610407565b60405161012c9190610ec5565b60405180910390f35b34801561014157600080fd5b5061015c60048036038101906101579190611026565b610419565b6040516101699190610ec5565b60405180910390f35b34801561017e57600080fd5b506101876104c0565b60405161019491906110ee565b60405180910390f35b3480156101a957600080fd5b506101b2610552565b6040516101bf919061116f565b60405180910390f35b3480156101d457600080fd5b506101dd610578565b6040516101ea9190611236565b60405180910390f35b3480156101ff57600080fd5b5061021a60048036038101906102159190611288565b6105fb565b60405161022791906112c4565b60405180910390f35b34801561023c57600080fd5b50610245610632565b60405161025291906112ee565b60405180910390f35b34801561026757600080fd5b50610270610726565b60405161027d91906112ee565b60405180910390f35b34801561029257600080fd5b5061029b61072c565b6040516102a89190610ec5565b60405180910390f35b6102cb60048036038101906102c69190611026565b610925565b6040516102d89190610ec5565b60405180910390f35b3480156102ed57600080fd5b506102f66109d0565b60405161030391906112ee565b60405180910390f35b34801561031857600080fd5b50610333600480360381019061032e9190610e7d565b6109d6565b6040516103409190610ec5565b60405180910390f35b34801561035557600080fd5b5061035e610c19565b60405161036b91906110ee565b60405180910390f35b34801561038057600080fd5b50610389610ca7565b60405161039691906112ee565b60405180910390f35b3480156103ab57600080fd5b506103c660048036038101906103c19190610e7d565b610cad565b6040516103d39190610ec5565b60405180910390f35b3480156103e857600080fd5b506103f1610ccd565b6040516103fe91906112c4565b60405180910390f35b600061041282610cf1565b9050919050565b60003373ffffffffffffffffffffffffffffffffffffffff1660008054906101000a900473ffffffffffffffffffffffffffffffffffffffff1673ffffffffffffffffffffffffffffffffffffffff16146104a0576040517f82b4290000000000000000000000000000000000000000000000000000000000815260040160405180910390fd5b81600390816104af919061150b565b504260048190555060019050919050565b6060600380546104cf90611338565b80601f01602080910402602001604051908101604052809291908181526020018280546104fb90611338565b80156105485780601f1061051d57610100808354040283529160200191610548565b820191906000526020600020905b81548152906001019060200180831161052b57829003601f168201915b5050505050905090565b600560009054906101000a900473ffffffffffffffffffffffffffffffffffffffff1681565b610580610de7565b60076104d28060200260405190810160405280929190826104d280156105f1576020028201915b8160009054906101000a900473ffffffffffffffffffffffffffffffffffffffff1673ffffffffffffffffffffffffffffffffffffffff16815260200190600101908083116105a7575b5050505050905090565b6007816104d2811061060c57600080fd5b016000915054906101000a900473ffffffffffffffffffffffffffffffffffffffff1681565b60003373ffffffffffffffffffffffffffffffffffffffff1660008054906101000a900473ffffffffffffffffffffffffffffffffffffffff1673ffffffffffffffffffffffffffffffffffffffff16146106b9576040517f82b4290000000000000000000000000000000000000000000000000000000000815260040160405180910390fd5b60008054906101000a900473ffffffffffffffffffffffffffffffffffffffff1673ffffffffffffffffffffffffffffffffffffffff166108fc479081150290604051600060405180830381858888f1935050505015801561071f573d6000803e3d6000fd5b5047905090565b60025481565b60003360011515600660008373ffffffffffffffffffffffffffffffffffffffff1673ffffffffffffffffffffffffffffffffffffffff16815260200190815260200160002060009054906101000a900460ff161515036107b9576040517fe08ca6b000000000000000000000000000000000000000000000000000000000815260040160405180910390fd5b600254600154106107f6576040517fea5db9c500000000000000000000000000000000000000000000000000000000815260040160405180910390fd5b6001600660003373ffffffffffffffffffffffffffffffffffffffff1673ffffffffffffffffffffffffffffffffffffffff16815260200190815260200160002060006101000a81548160ff0219169083151502179055503360076001546104d28110610866576108656115dd565b5b0160006101000a81548173ffffffffffffffffffffffffffffffffffffffff021916908373ffffffffffffffffffffffffffffffffffffffff160217905550600160008154809291906108b89061163b565b9190505550600254600154036108d2576108d0610d3d565b505b600660003373ffffffffffffffffffffffffffffffffffffffff1673ffffffffffffffffffffffffffffffffffffffff16815260200190815260200160002060009054906101000a900460ff1691505090565b6000670de0b6b3a76400003411610968576040517f99956c4600000000000000000000000000000000000000000000000000000000815260040160405180910390fd5b610e106004546109789190611683565b42116109b0576040517f7cd5facc00000000000000000000000000000000000000000000000000000000815260040160405180910390fd5b81600390816109bf919061150b565b504260048190555060019050919050565b60045481565b60008160011515600660008373ffffffffffffffffffffffffffffffffffffffff1673ffffffffffffffffffffffffffffffffffffffff16815260200190815260200160002060009054906101000a900460ff16151503610a63576040517fe08ca6b000000000000000000000000000000000000000000000000000000000815260040160405180910390fd5b3373ffffffffffffffffffffffffffffffffffffffff1660008054906101000a900473ffffffffffffffffffffffffffffffffffffffff1673ffffffffffffffffffffffffffffffffffffffff1614610ae8576040517f82b4290000000000000000000000000000000000000000000000000000000000815260040160405180910390fd5b6001600660008573ffffffffffffffffffffffffffffffffffffffff1673ffffffffffffffffffffffffffffffffffffffff16815260200190815260200160002060006101000a81548160ff0219169083151502179055508260076001546104d28110610b5857610b576115dd565b5b0160006101000a81548173ffffffffffffffffffffffffffffffffffffffff021916908373ffffffffffffffffffffffffffffffffffffffff16021790555060016000815480929190610baa9061163b565b919050555060025460015403610bc457610bc2610d3d565b505b600660008473ffffffffffffffffffffffffffffffffffffffff1673ffffffffffffffffffffffffffffffffffffffff16815260200190815260200160002060009054906101000a900460ff16915050919050565b60038054610c2690611338565b80601f0160208091040260200160405190810160405280929190818152602001828054610c5290611338565b8015610c9f5780601f10610c7457610100808354040283529160200191610c9f565b820191906000526020600020905b815481529060010190602001808311610c8257829003601f168201915b505050505081565b60015481565b60066020528060005260406000206000915054906101000a900460ff1681565b60008054906101000a900473ffffffffffffffffffffffffffffffffffffffff1681565b600081600560006101000a81548173ffffffffffffffffffffffffffffffffffffffff021916908373ffffffffffffffffffffffffffffffffffffffff16021790555060019050919050565b600060025460015414610d4f57600080fd5b600560009054906101000a900473ffffffffffffffffffffffffffffffffffffffff1673ffffffffffffffffffffffffffffffffffffffff1663b524fd6f6040518163ffffffff1660e01b81526004016020604051808303816000875af1158015610dbe573d6000803e3d6000fd5b505050506040513d601f19601f82011682018060405250810190610de291906116e3565b905090565b60405180619a4001604052806104d290602082028036833780820191505090505090565b6000604051905090565b600080fd5b600080fd5b600073ffffffffffffffffffffffffffffffffffffffff82169050919050565b6000610e4a82610e1f565b9050919050565b610e5a81610e3f565b8114610e6557600080fd5b50565b600081359050610e7781610e51565b92915050565b600060208284031215610e9357610e92610e15565b5b6000610ea184828501610e68565b91505092915050565b60008115159050919050565b610ebf81610eaa565b82525050565b6000602082019050610eda6000830184610eb6565b92915050565b600080fd5b600080fd5b6000601f19601f8301169050919050565b7f4e487b7100000000000000000000000000000000000000000000000000000000600052604160045260246000fd5b610f3382610eea565b810181811067ffffffffffffffff82111715610f5257610f51610efb565b5b80604052505050565b6000610f65610e0b565b9050610f718282610f2a565b919050565b600067ffffffffffffffff821115610f9157610f90610efb565b5b610f9a82610eea565b9050602081019050919050565b82818337600083830152505050565b6000610fc9610fc484610f76565b610f5b565b905082815260208101848484011115610fe557610fe4610ee5565b5b610ff0848285610fa7565b509392505050565b600082601f83011261100d5761100c610ee0565b5b813561101d848260208601610fb6565b91505092915050565b60006020828403121561103c5761103b610e15565b5b600082013567ffffffffffffffff81111561105a57611059610e1a565b5b61106684828501610ff8565b91505092915050565b600081519050919050565b600082825260208201905092915050565b60005b838110156110a957808201518184015260208101905061108e565b60008484015250505050565b60006110c08261106f565b6110ca818561107a565b93506110da81856020860161108b565b6110e381610eea565b840191505092915050565b6000602082019050818103600083015261110881846110b5565b905092915050565b6000819050919050565b600061113561113061112b84610e1f565b611110565b610e1f565b9050919050565b60006111478261111a565b9050919050565b60006111598261113c565b9050919050565b6111698161114e565b82525050565b60006020820190506111846000830184611160565b92915050565b60006104d29050919050565b600081905092915050565b6000819050919050565b6111b481610e3f565b82525050565b60006111c683836111ab565b60208301905092915050565b6000602082019050919050565b6111e88161118a565b6111f28184611196565b92506111fd826111a1565b8060005b8381101561122e57815161121587826111ba565b9650611220836111d2565b925050600181019050611201565b505050505050565b6000619a408201905061124c60008301846111df565b92915050565b6000819050919050565b61126581611252565b811461127057600080fd5b50565b6000813590506112828161125c565b92915050565b60006020828403121561129e5761129d610e15565b5b60006112ac84828501611273565b91505092915050565b6112be81610e3f565b82525050565b60006020820190506112d960008301846112b5565b92915050565b6112e881611252565b82525050565b600060208201905061130360008301846112df565b92915050565b7f4e487b7100000000000000000000000000000000000000000000000000000000600052602260045260246000fd5b6000600282049050600182168061135057607f821691505b60208210810361136357611362611309565b5b50919050565b60008190508160005260206000209050919050565b60006020601f8301049050919050565b600082821b905092915050565b6000600883026113cb7fffffffffffffffffffffffffffffffffffffffffffffffffffffffffffffffff8261138e565b6113d5868361138e565b95508019841693508086168417925050509392505050565b60006114086114036113fe84611252565b611110565b611252565b9050919050565b6000819050919050565b611422836113ed565b61143661142e8261140f565b84845461139b565b825550505050565b600090565b61144b61143e565b611456818484611419565b505050565b5b8181101561147a5761146f600082611443565b60018101905061145c565b5050565b601f8211156114bf5761149081611369565b6114998461137e565b810160208510156114a8578190505b6114bc6114b48561137e565b83018261145b565b50505b505050565b600082821c905092915050565b60006114e2600019846008026114c4565b1980831691505092915050565b60006114fb83836114d1565b9150826002028217905092915050565b6115148261106f565b67ffffffffffffffff81111561152d5761152c610efb565b5b6115378254611338565b61154282828561147e565b600060209050601f8311600181146115755760008415611563578287015190505b61156d85826114ef565b8655506115d5565b601f19841661158386611369565b60005b828110156115ab57848901518255600182019150602085019450602081019050611586565b868310156115c857848901516115c4601f8916826114d1565b8355505b6001600288020188555050505b505050505050565b7f4e487b7100000000000000000000000000000000000000000000000000000000600052603260045260246000fd5b7f4e487b7100000000000000000000000000000000000000000000000000000000600052601160045260246000fd5b600061164682611252565b91507fffffffffffffffffffffffffffffffffffffffffffffffffffffffffffffffff82036116785761167761160c565b5b600182019050919050565b600061168e82611252565b915061169983611252565b92508282019050808211156116b1576116b061160c565b5b92915050565b6116c081610eaa565b81146116cb57600080fd5b50565b6000815190506116dd816116b7565b92915050565b6000602082840312156116f9576116f8610e15565b5b6000611707848285016116ce565b9150509291505056fea2646970667358221220fb40d6067d634d309e462a9ebce6364cd39eb2c6dd01a9ab2709fdbd32f059db64736f6c63430008110033",
  "immutableReferences": {},
  "source": "// SPDX-License-Identifier: GPL-3.0\n// // // // // // // // // // // // // // // // // // // // // // // // // // // // // // // // // // // // // // // // // // // // // // // // // // // // // // // // // // // // //\n//\n//      WWWWWWWWWWWWWWWWWWWWWWWWWWWWWWWWWWWWWWWWWWWWWWWWWWWWWWWWWWWWWWWWWWWWWNXK0OOOOO0KXNWWWWWWWWWWWWWWWWWW\n//      WWWWWWWWWWWWWWWWWWWWWWWWWWWWWWWWWWWWWWWWWWWWWWWWWWWWWWWWWWWWWWWWXOdl;'...........,:oOXWWWWWWWWWWWWWW\n//      WWWWWWWWWWWWWWWWWWWWWWWWWWWWWWWWWWWWWWWWWWWWWWWWWWWWWWWWWWWWWXkc'. .';:clooooolc:,. .,oKWWWWWWWWWWWW\n//      WWWWWWWWWWWWWWWWWWWWWWWWWWWWWWWWWWWWWWWWWNKK0000KXXXNNNNNWWKo' .'cdk00KKKKKKKKKK00Od;. .dNWWWWWWWWWW\n//      WWWWWWWWWWWWWWWWWWWWWWWWWWWWWWWWWWWWWNOo;'.........'',,,:kx' .;dO0K0Oxlc:;;:cdk0K00K0x, .dNWWWWWWWWW\n//      WWWWWWWWWWWWWWWWWWWWWWWWWWWWWWWWWWWWO:.    .....        .,. 'd000KOo,. .'',.. .lOKK00Kd. ,KWWWWWWWWW\n//      WWWWWWWWWWWWWWWWWWWWWWWWWWWWWWWWWWW0,     :OXXX0:       .. 'xKK000l. ,xKXNNXx' .dKKK0Kx' '0WWWWWWWWW\n//      WWWWWWWWWWWWWWX0kxdooooodk0NWWWXOOx;     .oOOXWWo       .  c000000:  lXNWNX0l. ,kK00K0l. cXWWWWWWWWW\n//      WWWWWWWWWWWNOc'.          .,xXO,.            :KX:      ';. :000KK0x,  .,;,'. .:x000KOl. ,OWWWWWWWWWW\n//      WWWWWWWWWWNo.     .::'      .kx'..       ...'dNk.      lO; .:x00000Odc;,,,;cok000Oxc' .:0WWWWWWWWWWW\n//      WWWWWWWWWWK;     .dNWK;     .xWXKd.     ;OKKXWNl      .kW0;  .'cx00KKKK0000KK0kl;.  .:kNWWWWWWWWWWWW\n//      WWWWWWWWWWWOl;,;ckKKkc.     ,KWWWd.    .xWWWWW0,      :Od;. .';lx000OOkkOO0000Od:,. .c0WWWWWWWWWWWWW\n//      WWWWWWWWWWNKkoc:;,..        lNWWX:     ;KWWWWWx.      .. .,lxO00xl;'......,:dO0K00xc. .xNWWWWWWWWWWW\n//      WWWWWWWWNk;.        .      .kWWWk.     oNWWWWX:        .:x000Oo,. .;clool:'  ,x0K000d. 'OWWWWWWWWWWW\n//      WWWWWWWXl.     'cdkOo.     :XWWNl     'OWWWWWO.       .o0KKKOc. ,xKNWWWWWWXo. ,kK00K0c .oWWWWWWWWWWW\n//      WWWWWWWx.     ,ONNKx'      lKXKk'     ,OXWWX0:        ;xO0KKd. ;KWWWWWWWWWWx. ,kKK00O: .dWWWWWWWWWWW\n//      WWWWWWWd.      .,'.        .....       .cKd'.          .l0KKd. 'kNWWWWWWXOl. .d00KK0d. ,0WWWWWWWWWWW\n//      WWWWWWW0;          .,.                 .o0;            'x00K0o. .';ccc:;.. .:x0KKK0d' .xWWWWWWWWWWWW\n//      WWWWWWWWXxc;,'',:lx0N0l;,,:clooddxxddooONNOdodxxxdo;  .d000KK0Oo:,'...',;cok0KKK0x:. 'kNWWWWWWWWWWWW\n//      WWWWWWWWWWWWNNNNWWWWWWWWNNWWWWWWWWWWWWWWWWWWWWWWWWWKc  ,oO0KKK0K000OO0000K0KK0ko;. .lKWWWWWWWWWWWWWW\n//      WWWWWWWWWWWWWWWWWWWWWWWWWWWWWWWWWWWWWWWWWWWWWWWWWWWWXx,. .:ldkO00000000OOxdl:'. .;dKWWWWWWWWWWWWWWWW\n//      WWWWWWWWWWWWWWWWWWWWWWWWWWWWWWWWWWWWWWWWWWWWWWWWWWWWWWXOl,......',,,,,'......,cd0NWWWWWWWWWWWWWWWWWW\n//      WWWWWWWWWWWWWWWWWWWWWWWWWWWWWWWWWWWWWWWWWWWWWWWWWWWWWWWWWNKOxoc::;;;;;:cloxOKNWWWWWWWWWWWWWWWWWWWWWW\n//      WWWWWWWWWWWWWWWWWWWWWWWWWWWWWWWWWWWWWWWWWWWWWWWWWWWWWWWWWWWWWWWWWWWWWWWWWWWWWWWWWWWWWWWWWWWWWWWWWWWW\n//\n// // // // // // // // // // // // // // // // // // // // // // // // // // // // // // // // // // // // // // // // // // // // // // // // // // // // // // // // // // // // //\n//                                                                                                                                                                                  //\n//      @dev            ::              Aron Mauritala Ayuk                                                                                                                                          //\n//      @msg            ::              stereo@iii6.xyz                                                                                                                                   //\n//      @github         ::              @stereoIII6\n//      @twitter        ::              @stereoIII6                                                                                                                                              //\n//                                                                                                                                                                                  //\n// // // // // // // // // // // // // // // // // // // // // // // // // // // // // // // // // // // // // // // // // // // // // // // // // // // // // // // // // // // // //\n//                                                                                                                                                                                  //\n//      @dev            ::              Juan Xavier Valverde                                                                                                                                    //\n//      @msg            ::              juanxavier@iii6.xyz                                                                                                                               //\n//      @twitter        ::              @JuanXavier                                                                                                                                             //\n//      @github         ::              @JuanXavier                                                                                                                                             //\n//                                                                                                                                                                                  //                                                                                                                                                                                 //\n// // // // // // // // // // // // // // // // // // // // // // // // // // // // // // // // // // // // // // // // // // // // // // // // // // // // // // // // // // // // //\n//  *   *   *   *   *   *   *   *   *   *   *   *   *   *   *   *   *   *   *   *   *   *   *   *   *   *   *   *   *   *   *   *   *   *   *   *   *   *   *   *   *   *   *   *   //\n// // // // // // // // // // // // // // // // // // // // // // // // // // // // // // // // // // // // // // // // // // // // // // // // // // // // // // // // // // // // //\n//                                                                                                                                                                                  //\n//      @company        ::              Fractio Holding                                                                                                                                                                       //\n//      @title          ::              iii6 Coin Model                                                                                                                            //\n//      @description    ::              ERC20 Model Preset Contract                                                                                                                           //\n//      @version        ::              0.0.1                                                                                                                                       //\n//      @purpose        ::              ERC20 Model Preset                                                                                                          //\n//                                                                                                                                                                                  //\n//                                                                                                                                                                                  //\n//                                                                                                                                                                                  //\n//                                                                                                                                                                                  //\n//                                                                                                                                                                                  //\n// // // // // // // // // // // // // // // // // // // // // // // // // // // // // // // // // // // // // // // // // // // // // // // // // // // // // // // // // // // // //\n//  *   *   *   *   *   *   *   *   *   *   *   *   *   *   *   *   *   *   *   *   *   *   *   *   *   *   *   *   *   *   *   *   *   *   *   *   *   *   *   *   *   *   *   *   //\n// // // // // // // // // // // // // // // // // // // // // // // // // // // // // // // // // // // // // // // // // // // // // // // // // // // // // // // // // // // // //\n\npragma solidity ^0.8.7;\n\nimport \"../iii6utils/Assets/iii6CoinModel.sol\";\nimport \"../iii6utils/Assets/iii6DiaModel.sol\";\nimport \"../iii6utils/Misc/iii6Misc.sol\";\n\ncontract AFL8_CampaignModel is iii6DiaModel, iii6Misc {\n    iii6CoinModel public afl8;\n    uint256 FEE;\n    struct Campaign {\n        uint256 id;\n        address author;\n        uint256 start;\n        uint256 budget;\n        uint256 price;\n        uint256 actions;\n        bytes dias;\n        CampaignType ctype;\n        Status state;\n    }\n    uint256 public C_ID;\n    Campaign[] public campaigns;\n    mapping(address => uint256) campaignCount;\n    mapping(address => mapping(uint256 => Campaign)) public campaignShow;\n    mapping(uint256 => uint256) public campaignSafe;\n\n    // initialises the contract at deployment\n    constructor()\n        iii6DiaModel(msg.sender, \"Affiliate Campaign Asset\", \"AFL8\", 0, 0, 0)\n    {\n        // afl8 = iii6CoinModel();\n    }\n\n    // function takes (campaign type , budget , price) and returns (actions)=>{Views,Clicks,Leads,Sales}\n    function _calcActions(\n        CampaignType _ctype,\n        uint256 _budget,\n        uint256 _price\n    ) internal pure returns (uint256 actions) {\n        if (_ctype == CampaignType.View) {\n            // VIEW CAMPAIGNS\n            require(_price >= 5 * 10**15, \":: price too low ::\");\n            actions = _budget / _price;\n        } else if (_ctype == CampaignType.Click) {\n            // CLICK CAMPAIGNS\n            require(_price >= 5 * 10**16, \":: price too low ::\");\n            actions = _budget / _price;\n        } else if (_ctype == CampaignType.Lead) {\n            // LEAD CAMPAIGNS\n            require(_price >= 5 * 10**17, \":: price too low ::\");\n            actions = _budget / _price;\n        } else if (_ctype == CampaignType.Sale) {\n            // SALE CAMPAIGNS\n            require(_price >= 5 * 10**18, \":: price too low ::\");\n            actions = _budget / _price;\n        } else {\n            // ERROR FALLBACK\n            actions = 0;\n        }\n    }\n\n    // function makes a new Campaign from input() and mints a campaign token\n    function _makeCampaign(\n        uint256 _start,\n        uint256 _budget,\n        uint256 _price,\n        uint256 _actions,\n        string memory _dias,\n        CampaignType _ctype,\n        Status _state\n    ) internal returns (bool) {\n        // Write Struct to Array & Mapping\n        campaigns.push(\n            Campaign(\n                C_ID,\n                msg.sender,\n                _start,\n                _budget,\n                _price,\n                _actions,\n                bytes(_dias),\n                _ctype,\n                _state\n            )\n        );\n        campaignShow[msg.sender][campaignCount[msg.sender]] = campaigns[C_ID];\n        // Iterate\n        campaignCount[msg.sender]++;\n        _mint(msg.sender, C_ID);\n        C_ID++;\n        // Exit\n        return true;\n    }\n\n    // function pauses campaign\n    function _pauseCampaign(uint256 _cid) internal returns (bool) {\n        // get campaign data\n        Campaign memory campaign = campaigns[_cid];\n        // set campaign status\n        campaign.state = Status.Paused;\n        // write new state to campaign\n        campaigns[_cid] = campaign;\n        // exit with bool\n        return false;\n    }\n\n    // function starts campaign\n    function _startCampaign(uint256 _cid) internal returns (bool) {\n        // get campaign data\n        Campaign memory campaign = campaigns[_cid];\n        // set campaign status\n        campaign.state = Status.Active;\n        // write new state to campaign\n        campaigns[_cid] = campaign;\n        // exit with bool\n        return true;\n    }\n\n    // function starts campaign\n    function _endCampaign(uint256 _cid) internal returns (bool) {\n        // get campaign data\n        Campaign memory campaign = campaigns[_cid];\n        // set campaign status\n        campaign.state = Status.Ended;\n        // write new state to campaign\n        campaigns[_cid] = campaign;\n        // exit with bool\n        return true;\n    }\n\n    // function handles payment and calls make campaign\n    function createCampaign(\n        uint256 _start,\n        uint256 _budget,\n        uint256 _price,\n        string memory _dias,\n        uint256 _ctype\n    ) external returns (bool) {\n        // check fund availability\n        uint256 checksum = (5 * 10**18) + _budget;\n        require(\n            afl8.balanceOf(msg.sender) >= checksum,\n            \":: insufficient funds ::\"\n        );\n        // Translate Campaign Type to ENUM\n        CampaignType ctyp;\n        if (_ctype == 0) {\n            ctyp = CampaignType.View;\n        } else if (_ctype == 1) {\n            ctyp = CampaignType.Click;\n        } else if (_ctype == 2) {\n            ctyp = CampaignType.Lead;\n        } else if (_ctype == 3) {\n            ctyp = CampaignType.Sale;\n        } else {\n            ctyp = CampaignType.Inactive;\n        }\n        // Calculate Action Count from Input\n        uint256 actions = _calcActions(ctyp, _budget, _price);\n        require(actions != 0, \":: not enough budget ::\");\n        // Check Timing & Set Status ENUM\n        Status stat = Status.Pending;\n        if (_start < block.timestamp) {\n            stat = Status.Active;\n        }\n        // Transfer funds from user to contract\n        afl8.transferFrom(msg.sender, address(this), checksum);\n        // create Campaign Token\n        return\n            _makeCampaign(_start, _budget, _price, actions, _dias, ctyp, stat);\n    }\n\n    // function changes campaign state\n    function changeState(uint256 _cid, bool _quit) external returns (bool) {\n        // get campaign data\n        Campaign memory campaign = campaigns[_cid];\n        // check if campaign is started or ended\n        if (_quit) {\n            return _endCampaign(_cid);\n        }\n        if (\n            campaign.start < block.timestamp && campaign.state != Status.Ended\n        ) {\n            // check campaign state\n            if (\n                campaign.state == Status.Pending ||\n                campaign.state == Status.Paused\n            ) {\n                // exit set to active\n                return _startCampaign(_cid);\n            } else {\n                // exit set to paused\n                return _pauseCampaign(_cid);\n            }\n        }\n        // exit with bool\n        else return false;\n    }\n}\n",
  "sourcePath": "/Users/iii6/Documents/GitHub/Gamble360/contracts/afl8Projects/afl8ProjectModel.sol",
  "compiler": {
    "name": "solc",
    "version": "0.8.17+commit.8df45f5f.Emscripten.clang"
  },
  "schemaVersion": "3.4.8",
  "updatedAt": "2023-04-04T04:07:08.593Z",
  "devdoc": {
    "kind": "dev",
    "methods": {
      "approve(address,uint256)": {
        "details": "See {IERC721-approve}."
      },
      "balanceOf(address)": {
        "details": "See {IERC721-balanceOf}."
      },
      "getApproved(uint256)": {
        "details": "See {IERC721-getApproved}."
      },
      "isApprovedForAll(address,address)": {
        "details": "See {IERC721-isApprovedForAll}."
      },
      "name()": {
        "details": "See {IERC721Metadata-name}."
      },
      "ownerOf(uint256)": {
        "details": "See {IERC721-ownerOf}."
      },
      "safeTransferFrom(address,address,uint256)": {
        "details": "See {IERC721-safeTransferFrom}."
      },
      "safeTransferFrom(address,address,uint256,bytes)": {
        "details": "See {IERC721-safeTransferFrom}."
      },
      "setApprovalForAll(address,bool)": {
        "details": "See {IERC721-setApprovalForAll}."
      },
      "supportsInterface(bytes4)": {
        "details": "See {IERC165-supportsInterface}."
      },
      "symbol()": {
        "details": "See {IERC721Metadata-symbol}."
      },
      "tokenURI(uint256)": {
        "details": "See {IERC721Metadata-tokenURI}."
      },
      "transferFrom(address,address,uint256)": {
        "details": "See {IERC721-transferFrom}."
      }
    },
    "version": 1
  },
  "userdoc": {
    "kind": "user",
    "methods": {},
    "version": 1
  }
}