{
  "contractName": "FrootyCoolTingz",
  "abi": [
    {
      "inputs": [
        {
          "internalType": "address",
          "name": "_ICE",
          "type": "address"
        },
        {
          "internalType": "address",
          "name": "_Greenlist",
          "type": "address"
        }
      ],
      "stateMutability": "nonpayable",
      "type": "constructor"
    },
    {
      "anonymous": false,
      "inputs": [
        {
          "indexed": true,
          "internalType": "address",
          "name": "owner",
          "type": "address"
        },
        {
          "indexed": true,
          "internalType": "address",
          "name": "approved",
          "type": "address"
        },
        {
          "indexed": true,
          "internalType": "uint256",
          "name": "tokenId",
          "type": "uint256"
        }
      ],
      "name": "Approval",
      "type": "event"
    },
    {
      "anonymous": false,
      "inputs": [
        {
          "indexed": true,
          "internalType": "address",
          "name": "owner",
          "type": "address"
        },
        {
          "indexed": true,
          "internalType": "address",
          "name": "operator",
          "type": "address"
        },
        {
          "indexed": false,
          "internalType": "bool",
          "name": "approved",
          "type": "bool"
        }
      ],
      "name": "ApprovalForAll",
      "type": "event"
    },
    {
      "anonymous": false,
      "inputs": [
        {
          "indexed": true,
          "internalType": "address",
          "name": "from",
          "type": "address"
        },
        {
          "indexed": true,
          "internalType": "address",
          "name": "to",
          "type": "address"
        },
        {
          "indexed": true,
          "internalType": "uint256",
          "name": "tokenId",
          "type": "uint256"
        }
      ],
      "name": "Transfer",
      "type": "event"
    },
    {
      "inputs": [],
      "name": "GLC",
      "outputs": [
        {
          "internalType": "contract Greenlist",
          "name": "",
          "type": "address"
        }
      ],
      "stateMutability": "view",
      "type": "function"
    },
    {
      "inputs": [
        {
          "internalType": "address",
          "name": "to",
          "type": "address"
        },
        {
          "internalType": "uint256",
          "name": "tokenId",
          "type": "uint256"
        }
      ],
      "name": "approve",
      "outputs": [],
      "stateMutability": "nonpayable",
      "type": "function"
    },
    {
      "inputs": [
        {
          "internalType": "address",
          "name": "owner",
          "type": "address"
        }
      ],
      "name": "balanceOf",
      "outputs": [
        {
          "internalType": "uint256",
          "name": "",
          "type": "uint256"
        }
      ],
      "stateMutability": "view",
      "type": "function"
    },
    {
      "inputs": [
        {
          "internalType": "uint256",
          "name": "",
          "type": "uint256"
        }
      ],
      "name": "dias",
      "outputs": [
        {
          "internalType": "bytes",
          "name": "",
          "type": "bytes"
        }
      ],
      "stateMutability": "view",
      "type": "function"
    },
    {
      "inputs": [
        {
          "internalType": "uint256",
          "name": "tokenId",
          "type": "uint256"
        }
      ],
      "name": "getApproved",
      "outputs": [
        {
          "internalType": "address",
          "name": "",
          "type": "address"
        }
      ],
      "stateMutability": "view",
      "type": "function"
    },
    {
      "inputs": [],
      "name": "ice",
      "outputs": [
        {
          "internalType": "contract ICE",
          "name": "",
          "type": "address"
        }
      ],
      "stateMutability": "view",
      "type": "function"
    },
    {
      "inputs": [
        {
          "internalType": "address",
          "name": "owner",
          "type": "address"
        },
        {
          "internalType": "address",
          "name": "operator",
          "type": "address"
        }
      ],
      "name": "isApprovedForAll",
      "outputs": [
        {
          "internalType": "bool",
          "name": "",
          "type": "bool"
        }
      ],
      "stateMutability": "view",
      "type": "function"
    },
    {
      "inputs": [],
      "name": "max",
      "outputs": [
        {
          "internalType": "uint256",
          "name": "",
          "type": "uint256"
        }
      ],
      "stateMutability": "view",
      "type": "function"
    },
    {
      "inputs": [],
      "name": "minted",
      "outputs": [
        {
          "internalType": "uint256",
          "name": "",
          "type": "uint256"
        }
      ],
      "stateMutability": "view",
      "type": "function"
    },
    {
      "inputs": [],
      "name": "nam",
      "outputs": [
        {
          "internalType": "string",
          "name": "",
          "type": "string"
        }
      ],
      "stateMutability": "view",
      "type": "function"
    },
    {
      "inputs": [],
      "name": "name",
      "outputs": [
        {
          "internalType": "string",
          "name": "",
          "type": "string"
        }
      ],
      "stateMutability": "view",
      "type": "function"
    },
    {
      "inputs": [],
      "name": "num",
      "outputs": [
        {
          "internalType": "uint256",
          "name": "",
          "type": "uint256"
        }
      ],
      "stateMutability": "view",
      "type": "function"
    },
    {
      "inputs": [
        {
          "internalType": "uint256",
          "name": "",
          "type": "uint256"
        }
      ],
      "name": "ownedBy",
      "outputs": [
        {
          "internalType": "address",
          "name": "",
          "type": "address"
        }
      ],
      "stateMutability": "view",
      "type": "function"
    },
    {
      "inputs": [],
      "name": "owner",
      "outputs": [
        {
          "internalType": "address",
          "name": "",
          "type": "address"
        }
      ],
      "stateMutability": "view",
      "type": "function"
    },
    {
      "inputs": [
        {
          "internalType": "uint256",
          "name": "tokenId",
          "type": "uint256"
        }
      ],
      "name": "ownerOf",
      "outputs": [
        {
          "internalType": "address",
          "name": "",
          "type": "address"
        }
      ],
      "stateMutability": "view",
      "type": "function"
    },
    {
      "inputs": [],
      "name": "price",
      "outputs": [
        {
          "internalType": "uint256",
          "name": "",
          "type": "uint256"
        }
      ],
      "stateMutability": "view",
      "type": "function"
    },
    {
      "inputs": [
        {
          "internalType": "address",
          "name": "from",
          "type": "address"
        },
        {
          "internalType": "address",
          "name": "to",
          "type": "address"
        },
        {
          "internalType": "uint256",
          "name": "tokenId",
          "type": "uint256"
        }
      ],
      "name": "safeTransferFrom",
      "outputs": [],
      "stateMutability": "nonpayable",
      "type": "function"
    },
    {
      "inputs": [
        {
          "internalType": "address",
          "name": "from",
          "type": "address"
        },
        {
          "internalType": "address",
          "name": "to",
          "type": "address"
        },
        {
          "internalType": "uint256",
          "name": "tokenId",
          "type": "uint256"
        },
        {
          "internalType": "bytes",
          "name": "data",
          "type": "bytes"
        }
      ],
      "name": "safeTransferFrom",
      "outputs": [],
      "stateMutability": "nonpayable",
      "type": "function"
    },
    {
      "inputs": [
        {
          "internalType": "address",
          "name": "operator",
          "type": "address"
        },
        {
          "internalType": "bool",
          "name": "approved",
          "type": "bool"
        }
      ],
      "name": "setApprovalForAll",
      "outputs": [],
      "stateMutability": "nonpayable",
      "type": "function"
    },
    {
      "inputs": [],
      "name": "slots",
      "outputs": [
        {
          "internalType": "uint256",
          "name": "",
          "type": "uint256"
        }
      ],
      "stateMutability": "view",
      "type": "function"
    },
    {
      "inputs": [],
      "name": "sloz",
      "outputs": [
        {
          "internalType": "uint256",
          "name": "",
          "type": "uint256"
        }
      ],
      "stateMutability": "view",
      "type": "function"
    },
    {
      "inputs": [],
      "name": "start",
      "outputs": [
        {
          "internalType": "bool",
          "name": "",
          "type": "bool"
        }
      ],
      "stateMutability": "view",
      "type": "function"
    },
    {
      "inputs": [
        {
          "internalType": "uint256",
          "name": "",
          "type": "uint256"
        }
      ],
      "name": "status",
      "outputs": [
        {
          "internalType": "string",
          "name": "",
          "type": "string"
        }
      ],
      "stateMutability": "view",
      "type": "function"
    },
    {
      "inputs": [
        {
          "internalType": "bytes4",
          "name": "interfaceId",
          "type": "bytes4"
        }
      ],
      "name": "supportsInterface",
      "outputs": [
        {
          "internalType": "bool",
          "name": "",
          "type": "bool"
        }
      ],
      "stateMutability": "view",
      "type": "function"
    },
    {
      "inputs": [],
      "name": "sym",
      "outputs": [
        {
          "internalType": "string",
          "name": "",
          "type": "string"
        }
      ],
      "stateMutability": "view",
      "type": "function"
    },
    {
      "inputs": [],
      "name": "symbol",
      "outputs": [
        {
          "internalType": "string",
          "name": "",
          "type": "string"
        }
      ],
      "stateMutability": "view",
      "type": "function"
    },
    {
      "inputs": [
        {
          "internalType": "uint256",
          "name": "",
          "type": "uint256"
        }
      ],
      "name": "tid",
      "outputs": [
        {
          "internalType": "uint256",
          "name": "",
          "type": "uint256"
        }
      ],
      "stateMutability": "view",
      "type": "function"
    },
    {
      "inputs": [
        {
          "internalType": "uint256",
          "name": "tokenId",
          "type": "uint256"
        }
      ],
      "name": "tokenURI",
      "outputs": [
        {
          "internalType": "string",
          "name": "",
          "type": "string"
        }
      ],
      "stateMutability": "view",
      "type": "function"
    },
    {
      "inputs": [
        {
          "internalType": "address",
          "name": "from",
          "type": "address"
        },
        {
          "internalType": "address",
          "name": "to",
          "type": "address"
        },
        {
          "internalType": "uint256",
          "name": "tokenId",
          "type": "uint256"
        }
      ],
      "name": "transferFrom",
      "outputs": [],
      "stateMutability": "nonpayable",
      "type": "function"
    },
    {
      "inputs": [
        {
          "internalType": "address",
          "name": "_adr",
          "type": "address"
        }
      ],
      "name": "isOwner",
      "outputs": [
        {
          "internalType": "bool",
          "name": "",
          "type": "bool"
        }
      ],
      "stateMutability": "view",
      "type": "function"
    },
    {
      "inputs": [
        {
          "internalType": "uint256",
          "name": "_amnt",
          "type": "uint256"
        },
        {
          "internalType": "uint256[]",
          "name": "_diasIDs",
          "type": "uint256[]"
        },
        {
          "internalType": "string[]",
          "name": "_diasOBJs",
          "type": "string[]"
        }
      ],
      "name": "mint",
      "outputs": [
        {
          "internalType": "uint256",
          "name": "",
          "type": "uint256"
        }
      ],
      "stateMutability": "payable",
      "type": "function"
    },
    {
      "inputs": [
        {
          "internalType": "uint256[]",
          "name": "_diasIDs",
          "type": "uint256[]"
        },
        {
          "internalType": "string[]",
          "name": "_diasOBJs",
          "type": "string[]"
        }
      ],
      "name": "greenMint",
      "outputs": [
        {
          "internalType": "uint256",
          "name": "",
          "type": "uint256"
        }
      ],
      "stateMutability": "nonpayable",
      "type": "function"
    },
    {
      "inputs": [
        {
          "internalType": "uint256",
          "name": "_id",
          "type": "uint256"
        },
        {
          "internalType": "string",
          "name": "_status",
          "type": "string"
        }
      ],
      "name": "setStatus",
      "outputs": [
        {
          "internalType": "bool",
          "name": "",
          "type": "bool"
        }
      ],
      "stateMutability": "payable",
      "type": "function"
    },
    {
      "inputs": [],
      "name": "changeMintState",
      "outputs": [
        {
          "internalType": "bool",
          "name": "",
          "type": "bool"
        }
      ],
      "stateMutability": "nonpayable",
      "type": "function"
    },
    {
      "inputs": [],
      "name": "changeMS",
      "outputs": [
        {
          "internalType": "bool",
          "name": "",
          "type": "bool"
        }
      ],
      "stateMutability": "nonpayable",
      "type": "function"
    },
    {
      "inputs": [
        {
          "internalType": "uint256",
          "name": "_id",
          "type": "uint256"
        }
      ],
      "name": "holder",
      "outputs": [
        {
          "internalType": "address",
          "name": "",
          "type": "address"
        }
      ],
      "stateMutability": "view",
      "type": "function"
    },
    {
      "inputs": [],
      "name": "clearSloz",
      "outputs": [
        {
          "internalType": "bool",
          "name": "",
          "type": "bool"
        }
      ],
      "stateMutability": "nonpayable",
      "type": "function"
    },
    {
      "inputs": [],
      "name": "flush",
      "outputs": [
        {
          "internalType": "uint256",
          "name": "",
          "type": "uint256"
        }
      ],
      "stateMutability": "nonpayable",
      "type": "function"
    },
    {
      "inputs": [
        {
          "internalType": "address",
          "name": "_erc",
          "type": "address"
        }
      ],
      "name": "flushERC20",
      "outputs": [
        {
          "internalType": "uint256",
          "name": "",
          "type": "uint256"
        }
      ],
      "stateMutability": "nonpayable",
      "type": "function"
    },
    {
      "inputs": [
        {
          "internalType": "address",
          "name": "_erc",
          "type": "address"
        },
        {
          "internalType": "uint256",
          "name": "_id",
          "type": "uint256"
        }
      ],
      "name": "flushERC721",
      "outputs": [
        {
          "internalType": "uint256",
          "name": "",
          "type": "uint256"
        }
      ],
      "stateMutability": "nonpayable",
      "type": "function"
    }
  ],
  "bytecode": "0x60806040523480156200001157600080fd5b50604051620052cd380380620052cd83398181016040528101906200003791906200029c565b6040518060400160405280601181526020017f46726f6f747920436f6f6c2054696e677a0000000000000000000000000000008152506040518060400160405280600581526020017f46524f4f540000000000000000000000000000000000000000000000000000008152508160009081620000b491906200055d565b508060019081620000c691906200055d565b50505060016008819055506000600b8190555033600660006101000a81548173ffffffffffffffffffffffffffffffffffffffff021916908373ffffffffffffffffffffffffffffffffffffffff1602179055506040518060400160405280601181526020017f46726f6f747920436f6f6c2054696e677a000000000000000000000000000000815250600990816200016091906200055d565b506040518060400160405280600581526020017f46524f4f54000000000000000000000000000000000000000000000000000000815250600a9081620001a791906200055d565b5081601260006101000a81548173ffffffffffffffffffffffffffffffffffffffff021916908373ffffffffffffffffffffffffffffffffffffffff16021790555080601360006101000a81548173ffffffffffffffffffffffffffffffffffffffff021916908373ffffffffffffffffffffffffffffffffffffffff160217905550505062000644565b600080fd5b600073ffffffffffffffffffffffffffffffffffffffff82169050919050565b6000620002648262000237565b9050919050565b620002768162000257565b81146200028257600080fd5b50565b60008151905062000296816200026b565b92915050565b60008060408385031215620002b657620002b562000232565b5b6000620002c68582860162000285565b9250506020620002d98582860162000285565b9150509250929050565b600081519050919050565b7f4e487b7100000000000000000000000000000000000000000000000000000000600052604160045260246000fd5b7f4e487b7100000000000000000000000000000000000000000000000000000000600052602260045260246000fd5b600060028204905060018216806200036557607f821691505b6020821081036200037b576200037a6200031d565b5b50919050565b60008190508160005260206000209050919050565b60006020601f8301049050919050565b600082821b905092915050565b600060088302620003e57fffffffffffffffffffffffffffffffffffffffffffffffffffffffffffffffff82620003a6565b620003f18683620003a6565b95508019841693508086168417925050509392505050565b6000819050919050565b6000819050919050565b60006200043e62000438620004328462000409565b62000413565b62000409565b9050919050565b6000819050919050565b6200045a836200041d565b62000472620004698262000445565b848454620003b3565b825550505050565b600090565b620004896200047a565b620004968184846200044f565b505050565b5b81811015620004be57620004b26000826200047f565b6001810190506200049c565b5050565b601f8211156200050d57620004d78162000381565b620004e28462000396565b81016020851015620004f2578190505b6200050a620005018562000396565b8301826200049b565b50505b505050565b600082821c905092915050565b6000620005326000198460080262000512565b1980831691505092915050565b60006200054d83836200051f565b9150826002028217905092915050565b6200056882620002e3565b67ffffffffffffffff811115620005845762000583620002ee565b5b6200059082546200034c565b6200059d828285620004c2565b600060209050601f831160018114620005d55760008415620005c0578287015190505b620005cc85826200053f565b8655506200063c565b601f198416620005e58662000381565b60005b828110156200060f57848901518255600182019150602085019450602081019050620005e8565b868310156200062f57848901516200062b601f8916826200051f565b8355505b6001600288020188555050505b505050505050565b614c7980620006546000396000f3fe60806040526004361061023b5760003560e01c806370a082311161012e578063a613e0e7116100ab578063ba899a2e1161006f578063ba899a2e146108f9578063be9a655514610936578063c87b56dd14610961578063e985e9c51461099e578063ea25b61d146109db5761023b565b8063a613e0e714610800578063a9700e1f1461083d578063ae943abc14610868578063b524fd6f146108a5578063b88d4fde146108d05761023b565b806395d89b41116100f257806395d89b41146107195780639af9bec0146107445780639b4f589f1461076f578063a035b1fe146107ac578063a22cb465146107d75761023b565b806370a082311461061957806376917df9146106565780637d23b33c1461068657806383813a28146106c35780638da5cb5b146106ee5761023b565b806342d21ef7116101bc5780634f02c420116101805780634f02c420146105305780636352211e1461055b5780636ac5db19146105985780636b9f96ea146105c35780636f743acd146105ee5761023b565b806342d21ef714610435578063477523c21461047257806348547d69146104af5780634c2a860d146104da5780634e70b1dc146105055761023b565b8063216d534c11610203578063216d534c1461033e57806323b872dd1461037b5780632f54bf6e146103a45780633b8d676f146103e157806342842e0e1461040c5761023b565b806301ffc9a71461024057806306fdde031461027d578063081812fc146102a8578063095ea7b3146102e557806320a7270d1461030e575b600080fd5b34801561024c57600080fd5b5061026760048036038101906102629190613125565b610a06565b604051610274919061316d565b60405180910390f35b34801561028957600080fd5b50610292610ae8565b60405161029f9190613218565b60405180910390f35b3480156102b457600080fd5b506102cf60048036038101906102ca9190613270565b610b7a565b6040516102dc91906132de565b60405180910390f35b3480156102f157600080fd5b5061030c60048036038101906103079190613325565b610bc0565b005b61032860048036038101906103239190613643565b610cd7565b60405161033591906136dd565b60405180910390f35b34801561034a57600080fd5b5061036560048036038101906103609190613325565b610eca565b60405161037291906136dd565b60405180910390f35b34801561038757600080fd5b506103a2600480360381019061039d91906136f8565b610f6b565b005b3480156103b057600080fd5b506103cb60048036038101906103c6919061374b565b610fcb565b6040516103d8919061316d565b60405180910390f35b3480156103ed57600080fd5b506103f6611035565b604051610403919061316d565b60405180910390f35b34801561041857600080fd5b50610433600480360381019061042e91906136f8565b611044565b005b34801561044157600080fd5b5061045c60048036038101906104579190613270565b611064565b6040516104699190613218565b60405180910390f35b34801561047e57600080fd5b506104996004803603810190610494919061374b565b611104565b6040516104a691906136dd565b60405180910390f35b3480156104bb57600080fd5b506104c46112a8565b6040516104d191906136dd565b60405180910390f35b3480156104e657600080fd5b506104ef6112ae565b6040516104fc91906137d7565b60405180910390f35b34801561051157600080fd5b5061051a6112d4565b60405161052791906136dd565b60405180910390f35b34801561053c57600080fd5b506105456112d9565b60405161055291906136dd565b60405180910390f35b34801561056757600080fd5b50610582600480360381019061057d9190613270565b6112df565b60405161058f91906132de565b60405180910390f35b3480156105a457600080fd5b506105ad611365565b6040516105ba91906136dd565b60405180910390f35b3480156105cf57600080fd5b506105d861136a565b6040516105e591906136dd565b60405180910390f35b3480156105fa57600080fd5b506106036113db565b60405161061091906136dd565b60405180910390f35b34801561062557600080fd5b50610640600480360381019061063b919061374b565b6113e0565b60405161064d91906136dd565b60405180910390f35b610670600480360381019061066b91906137f2565b611497565b60405161067d919061316d565b60405180910390f35b34801561069257600080fd5b506106ad60048036038101906106a8919061384e565b61173a565b6040516106ba91906136dd565b60405180910390f35b3480156106cf57600080fd5b506106d8611aa0565b6040516106e59190613218565b60405180910390f35b3480156106fa57600080fd5b50610703611b2e565b60405161071091906132de565b60405180910390f35b34801561072557600080fd5b5061072e611b54565b60405161073b9190613218565b60405180910390f35b34801561075057600080fd5b50610759611be6565b6040516107669190613218565b60405180910390f35b34801561077b57600080fd5b5061079660048036038101906107919190613270565b611c74565b6040516107a3919061391b565b60405180910390f35b3480156107b857600080fd5b506107c1611d14565b6040516107ce91906136dd565b60405180910390f35b3480156107e357600080fd5b506107fe60048036038101906107f99190613969565b611d1f565b005b34801561080c57600080fd5b5061082760048036038101906108229190613270565b611d35565b60405161083491906132de565b60405180910390f35b34801561084957600080fd5b50610852611d68565b60405161085f91906139ca565b60405180910390f35b34801561087457600080fd5b5061088f600480360381019061088a9190613270565b611d8e565b60405161089c91906136dd565b60405180910390f35b3480156108b157600080fd5b506108ba611da6565b6040516108c7919061316d565b60405180910390f35b3480156108dc57600080fd5b506108f760048036038101906108f29190613a86565b611e0f565b005b34801561090557600080fd5b50610920600480360381019061091b9190613270565b611e71565b60405161092d91906132de565b60405180910390f35b34801561094257600080fd5b5061094b611e83565b604051610958919061316d565b60405180910390f35b34801561096d57600080fd5b5061098860048036038101906109839190613270565b611e96565b6040516109959190613218565b60405180910390f35b3480156109aa57600080fd5b506109c560048036038101906109c09190613b09565b611efe565b6040516109d2919061316d565b60405180910390f35b3480156109e757600080fd5b506109f0611f92565b6040516109fd919061316d565b60405180910390f35b60007f80ac58cd000000000000000000000000000000000000000000000000000000007bffffffffffffffffffffffffffffffffffffffffffffffffffffffff1916827bffffffffffffffffffffffffffffffffffffffffffffffffffffffff19161480610ad157507f5b5e139f000000000000000000000000000000000000000000000000000000007bffffffffffffffffffffffffffffffffffffffffffffffffffffffff1916827bffffffffffffffffffffffffffffffffffffffffffffffffffffffff1916145b80610ae15750610ae082611fa4565b5b9050919050565b606060008054610af790613b78565b80601f0160208091040260200160405190810160405280929190818152602001828054610b2390613b78565b8015610b705780601f10610b4557610100808354040283529160200191610b70565b820191906000526020600020905b815481529060010190602001808311610b5357829003601f168201915b5050505050905090565b6000610b858261200e565b6004600083815260200190815260200160002060009054906101000a900473ffffffffffffffffffffffffffffffffffffffff169050919050565b6000610bcb826112df565b90508073ffffffffffffffffffffffffffffffffffffffff168373ffffffffffffffffffffffffffffffffffffffff1603610c3b576040517f08c379a0000000000000000000000000000000000000000000000000000000008152600401610c3290613c1b565b60405180910390fd5b8073ffffffffffffffffffffffffffffffffffffffff16610c5a612059565b73ffffffffffffffffffffffffffffffffffffffff161480610c895750610c8881610c83612059565b611efe565b5b610cc8576040517f08c379a0000000000000000000000000000000000000000000000000000000008152600401610cbf90613cad565b60405180910390fd5b610cd28383612061565b505050565b6000600b546001610ce89190613cfc565b6005610cf49190613cfc565b60085410610d37576040517f08c379a0000000000000000000000000000000000000000000000000000000008152600401610d2e90613d7c565b60405180910390fd5b6601c6bf5263400084610d4a9190613d9c565b341015610d8c576040517f08c379a0000000000000000000000000000000000000000000000000000000008152600401610d8390613e2a565b60405180910390fd5b60011515600c60009054906101000a900460ff16151514610de2576040517f08c379a0000000000000000000000000000000000000000000000000000000008152600401610dd990613e96565b60405180910390fd5b610dee8433858561211a565b506000600942610dfe9190613ee5565b905060005b818111610ebc57601260009054906101000a900473ffffffffffffffffffffffffffffffffffffffff1673ffffffffffffffffffffffffffffffffffffffff1663fdb5fefc336040518263ffffffff1660e01b8152600401610e6591906132de565b6020604051808303816000875af1158015610e84573d6000803e3d6000fd5b505050506040513d601f19601f82011682018060405250810190610ea89190613f2b565b508080610eb490613f58565b915050610e03565b506008549150509392505050565b6000808390508073ffffffffffffffffffffffffffffffffffffffff166323b872dd30600660009054906101000a900473ffffffffffffffffffffffffffffffffffffffff16866040518463ffffffff1660e01b8152600401610f2f93929190613fa0565b600060405180830381600087803b158015610f4957600080fd5b505af1158015610f5d573d6000803e3d6000fd5b505050508291505092915050565b610f7c610f76612059565b826123d5565b610fbb576040517f08c379a0000000000000000000000000000000000000000000000000000000008152600401610fb290614049565b60405180910390fd5b610fc683838361246a565b505050565b6000600660009054906101000a900473ffffffffffffffffffffffffffffffffffffffff1673ffffffffffffffffffffffffffffffffffffffff168273ffffffffffffffffffffffffffffffffffffffff160361102b5760019050611030565b600090505b919050565b600061103f612763565b905090565b61105f83838360405180602001604052806000815250611e0f565b505050565b600f602052806000526040600020600091509050805461108390613b78565b80601f01602080910402602001604051908101604052809291908181526020018280546110af90613b78565b80156110fc5780601f106110d1576101008083540402835291602001916110fc565b820191906000526020600020905b8154815290600101906020018083116110df57829003601f168201915b505050505081565b6000808290508073ffffffffffffffffffffffffffffffffffffffff166323b872dd30600660009054906101000a900473ffffffffffffffffffffffffffffffffffffffff168473ffffffffffffffffffffffffffffffffffffffff166370a08231306040518263ffffffff1660e01b815260040161118391906132de565b602060405180830381865afa1580156111a0573d6000803e3d6000fd5b505050506040513d601f19601f820116820180604052508101906111c4919061407e565b6040518463ffffffff1660e01b81526004016111e293929190613fa0565b6020604051808303816000875af1158015611201573d6000803e3d6000fd5b505050506040513d601f19601f820116820180604052508101906112259190613f2b565b508073ffffffffffffffffffffffffffffffffffffffff166370a08231306040518263ffffffff1660e01b815260040161125f91906132de565b602060405180830381865afa15801561127c573d6000803e3d6000fd5b505050506040513d601f19601f820116820180604052508101906112a0919061407e565b915050919050565b600b5481565b601260009054906101000a900473ffffffffffffffffffffffffffffffffffffffff1681565b600181565b60085481565b6000806112eb83612793565b9050600073ffffffffffffffffffffffffffffffffffffffff168173ffffffffffffffffffffffffffffffffffffffff160361135c576040517f08c379a0000000000000000000000000000000000000000000000000000000008152600401611353906140f7565b60405180910390fd5b80915050919050565b600581565b6000600660009054906101000a900473ffffffffffffffffffffffffffffffffffffffff1673ffffffffffffffffffffffffffffffffffffffff166108fc479081150290604051600060405180830381858888f193505050501580156113d4573d6000803e3d6000fd5b5047905090565b600181565b60008073ffffffffffffffffffffffffffffffffffffffff168273ffffffffffffffffffffffffffffffffffffffff1603611450576040517f08c379a000000000000000000000000000000000000000000000000000000000815260040161144790614189565b60405180910390fd5b600360008373ffffffffffffffffffffffffffffffffffffffff1673ffffffffffffffffffffffffffffffffffffffff168152602001908152602001600020549050919050565b60003373ffffffffffffffffffffffffffffffffffffffff166010600085815260200190815260200160002060009054906101000a900473ffffffffffffffffffffffffffffffffffffffff1673ffffffffffffffffffffffffffffffffffffffff161461153a576040517f08c379a0000000000000000000000000000000000000000000000000000000008152600401611531906141f5565b60405180910390fd5b60001515600c60009054906101000a900460ff16151514611590576040517f08c379a000000000000000000000000000000000000000000000000000000000815260040161158790614261565b60405180910390fd5b670de0b6b3a76400003410156115a557600080fd5b601260009054906101000a900473ffffffffffffffffffffffffffffffffffffffff1673ffffffffffffffffffffffffffffffffffffffff1663fdb5fefc336040518263ffffffff1660e01b815260040161160091906132de565b6020604051808303816000875af115801561161f573d6000803e3d6000fd5b505050506040513d601f19601f820116820180604052508101906116439190613f2b565b5060006009426116539190613ee5565b148061166a5750600980426116689190613ee5565b145b1561170f57601260009054906101000a900473ffffffffffffffffffffffffffffffffffffffff1673ffffffffffffffffffffffffffffffffffffffff1663fdb5fefc336040518263ffffffff1660e01b81526004016116ca91906132de565b6020604051808303816000875af11580156116e9573d6000803e3d6000fd5b505050506040513d601f19601f8201168201806040525081019061170d9190613f2b565b505b81600f6000858152602001908152602001600020908161172f9190614423565b506001905092915050565b6000600560085410611781576040517f08c379a000000000000000000000000000000000000000000000000000000000815260040161177890613d7c565b60405180910390fd5b60011515600c60009054906101000a900460ff161515146117d7576040517f08c379a00000000000000000000000000000000000000000000000000000000081526004016117ce90613e96565b60405180910390fd5b6000601360009054906101000a900473ffffffffffffffffffffffffffffffffffffffff1673ffffffffffffffffffffffffffffffffffffffff1663f794062e336040518263ffffffff1660e01b815260040161183491906132de565b602060405180830381865afa158015611851573d6000803e3d6000fd5b505050506040513d601f19601f820116820180604052508101906118759190613f2b565b905060011515811515146118be576040517f08c379a00000000000000000000000000000000000000000000000000000000081526004016118b590614541565b60405180910390fd5b6001600b541115611904576040517f08c379a00000000000000000000000000000000000000000000000000000000081526004016118fb906145ad565b60405180910390fd5b611911600133868661211a565b50601260009054906101000a900473ffffffffffffffffffffffffffffffffffffffff1673ffffffffffffffffffffffffffffffffffffffff1663fdb5fefc336040518263ffffffff1660e01b815260040161196d91906132de565b6020604051808303816000875af115801561198c573d6000803e3d6000fd5b505050506040513d601f19601f820116820180604052508101906119b09190613f2b565b5060006009426119c09190613ee5565b14806119d75750600980426119d59190613ee5565b145b15611a7c57601260009054906101000a900473ffffffffffffffffffffffffffffffffffffffff1673ffffffffffffffffffffffffffffffffffffffff1663fdb5fefc336040518263ffffffff1660e01b8152600401611a3791906132de565b6020604051808303816000875af1158015611a56573d6000803e3d6000fd5b505050506040513d601f19601f82011682018060405250810190611a7a9190613f2b565b505b600b6000815480929190611a8f90613f58565b919050555060085491505092915050565b600a8054611aad90613b78565b80601f0160208091040260200160405190810160405280929190818152602001828054611ad990613b78565b8015611b265780601f10611afb57610100808354040283529160200191611b26565b820191906000526020600020905b815481529060010190602001808311611b0957829003601f168201915b505050505081565b600660009054906101000a900473ffffffffffffffffffffffffffffffffffffffff1681565b606060018054611b6390613b78565b80601f0160208091040260200160405190810160405280929190818152602001828054611b8f90613b78565b8015611bdc5780601f10611bb157610100808354040283529160200191611bdc565b820191906000526020600020905b815481529060010190602001808311611bbf57829003601f168201915b5050505050905090565b60098054611bf390613b78565b80601f0160208091040260200160405190810160405280929190818152602001828054611c1f90613b78565b8015611c6c5780601f10611c4157610100808354040283529160200191611c6c565b820191906000526020600020905b815481529060010190602001808311611c4f57829003601f168201915b505050505081565b600d6020528060005260406000206000915090508054611c9390613b78565b80601f0160208091040260200160405190810160405280929190818152602001828054611cbf90613b78565b8015611d0c5780601f10611ce157610100808354040283529160200191611d0c565b820191906000526020600020905b815481529060010190602001808311611cef57829003601f168201915b505050505081565b6601c6bf5263400081565b611d31611d2a612059565b83836127d0565b5050565b60106020528060005260406000206000915054906101000a900473ffffffffffffffffffffffffffffffffffffffff1681565b601360009054906101000a900473ffffffffffffffffffffffffffffffffffffffff1681565b600e6020528060005260406000206000915090505481565b6000600660009054906101000a900473ffffffffffffffffffffffffffffffffffffffff1673ffffffffffffffffffffffffffffffffffffffff163373ffffffffffffffffffffffffffffffffffffffff1614611e0257600080fd5b611e0a612763565b905090565b611e20611e1a612059565b836123d5565b611e5f576040517f08c379a0000000000000000000000000000000000000000000000000000000008152600401611e5690614049565b60405180910390fd5b611e6b8484848461293c565b50505050565b6000611e7c826112df565b9050919050565b600c60009054906101000a900460ff1681565b6060611ea18261200e565b6000611eab612998565b90506000815111611ecb5760405180602001604052806000815250611ef6565b80611ed5846129af565b604051602001611ee6929190614609565b6040516020818303038152906040525b915050919050565b6000600560008473ffffffffffffffffffffffffffffffffffffffff1673ffffffffffffffffffffffffffffffffffffffff16815260200190815260200160002060008373ffffffffffffffffffffffffffffffffffffffff1673ffffffffffffffffffffffffffffffffffffffff16815260200190815260200160002060009054906101000a900460ff16905092915050565b60006104d2600b819055506001905090565b60007f01ffc9a7000000000000000000000000000000000000000000000000000000007bffffffffffffffffffffffffffffffffffffffffffffffffffffffff1916827bffffffffffffffffffffffffffffffffffffffffffffffffffffffff1916149050919050565b61201781612a7d565b612056576040517f08c379a000000000000000000000000000000000000000000000000000000000815260040161204d906140f7565b60405180910390fd5b50565b600033905090565b816004600083815260200190815260200160002060006101000a81548173ffffffffffffffffffffffffffffffffffffffff021916908373ffffffffffffffffffffffffffffffffffffffff160217905550808273ffffffffffffffffffffffffffffffffffffffff166120d4836112df565b73ffffffffffffffffffffffffffffffffffffffff167f8c5be1e5ebec7d5bd14f71427d1e84f3dd0314c0f7b2291e5b200ac8c7c3b92560405160405180910390a45050565b6000600185612128866113e0565b612132919061462d565b1115612173576040517f08c379a000000000000000000000000000000000000000000000000000000000815260040161216a906146d3565b60405180910390fd5b600585600854612183919061462d565b11156121c4576040517f08c379a00000000000000000000000000000000000000000000000000000000081526004016121bb9061473f565b60405180910390fd5b61220584846000815181106121dc576121db61475f565b5b6020026020010151846000815181106121f8576121f761475f565b5b6020026020010151612abe565b50600285106123c85761224f84846000815181106122265761222561475f565b5b6020026020010151846000815181106122425761224161475f565b5b6020026020010151612abe565b50600385106123c75761229984846000815181106122705761226f61475f565b5b60200260200101518460008151811061228c5761228b61475f565b5b6020026020010151612abe565b50600485106123c6576122e384846000815181106122ba576122b961475f565b5b6020026020010151846000815181106122d6576122d561475f565b5b6020026020010151612abe565b50600585106123c55761232d84846000815181106123045761230361475f565b5b6020026020010151846000815181106123205761231f61475f565b5b6020026020010151612abe565b50600685106123c457612377848460008151811061234e5761234d61475f565b5b60200260200101518460008151811061236a5761236961475f565b5b6020026020010151612abe565b50600785106123c3576123c184846000815181106123985761239761475f565b5b6020026020010151846000815181106123b4576123b361475f565b5b6020026020010151612abe565b505b5b5b5b5b5b6008549050949350505050565b6000806123e1836112df565b90508073ffffffffffffffffffffffffffffffffffffffff168473ffffffffffffffffffffffffffffffffffffffff16148061242357506124228185611efe565b5b8061246157508373ffffffffffffffffffffffffffffffffffffffff1661244984610b7a565b73ffffffffffffffffffffffffffffffffffffffff16145b91505092915050565b8273ffffffffffffffffffffffffffffffffffffffff1661248a826112df565b73ffffffffffffffffffffffffffffffffffffffff16146124e0576040517f08c379a00000000000000000000000000000000000000000000000000000000081526004016124d790614800565b60405180910390fd5b600073ffffffffffffffffffffffffffffffffffffffff168273ffffffffffffffffffffffffffffffffffffffff160361254f576040517f08c379a000000000000000000000000000000000000000000000000000000000815260040161254690614892565b60405180910390fd5b61255c8383836001612b93565b8273ffffffffffffffffffffffffffffffffffffffff1661257c826112df565b73ffffffffffffffffffffffffffffffffffffffff16146125d2576040517f08c379a00000000000000000000000000000000000000000000000000000000081526004016125c990614800565b60405180910390fd5b6004600082815260200190815260200160002060006101000a81549073ffffffffffffffffffffffffffffffffffffffff02191690556001600360008573ffffffffffffffffffffffffffffffffffffffff1673ffffffffffffffffffffffffffffffffffffffff168152602001908152602001600020600082825403925050819055506001600360008473ffffffffffffffffffffffffffffffffffffffff1673ffffffffffffffffffffffffffffffffffffffff16815260200190815260200160002060008282540192505081905550816002600083815260200190815260200160002060006101000a81548173ffffffffffffffffffffffffffffffffffffffff021916908373ffffffffffffffffffffffffffffffffffffffff160217905550808273ffffffffffffffffffffffffffffffffffffffff168473ffffffffffffffffffffffffffffffffffffffff167fddf252ad1be2c89b69c2b068fc378daa952ba7f163c4a11628f55a4df523b3ef60405160405180910390a461275e8383836001612b99565b505050565b6000600c60009054906101000a900460ff1615600c60006101000a81548160ff0219169083151502179055905090565b60006002600083815260200190815260200160002060009054906101000a900473ffffffffffffffffffffffffffffffffffffffff169050919050565b8173ffffffffffffffffffffffffffffffffffffffff168373ffffffffffffffffffffffffffffffffffffffff160361283e576040517f08c379a0000000000000000000000000000000000000000000000000000000008152600401612835906148fe565b60405180910390fd5b80600560008573ffffffffffffffffffffffffffffffffffffffff1673ffffffffffffffffffffffffffffffffffffffff16815260200190815260200160002060008473ffffffffffffffffffffffffffffffffffffffff1673ffffffffffffffffffffffffffffffffffffffff16815260200190815260200160002060006101000a81548160ff0219169083151502179055508173ffffffffffffffffffffffffffffffffffffffff168373ffffffffffffffffffffffffffffffffffffffff167f17307eab39ab6107e8899845ad3d59bd9653f200f220920489ca2b5937696c318360405161292f919061316d565b60405180910390a3505050565b61294784848461246a565b61295384848484612b9f565b612992576040517f08c379a000000000000000000000000000000000000000000000000000000000815260040161298990614990565b60405180910390fd5b50505050565b606060405180602001604052806000815250905090565b6060600060016129be84612d26565b01905060008167ffffffffffffffff8111156129dd576129dc61336a565b5b6040519080825280601f01601f191660200182016040528015612a0f5781602001600182028036833780820191505090505b509050600082602001820190505b600115612a72578080600190039150507f3031323334353637383961626364656600000000000000000000000000000000600a86061a8153600a8581612a6657612a65613eb6565b5b04945060008503612a1d575b819350505050919050565b60008073ffffffffffffffffffffffffffffffffffffffff16612a9f83612793565b73ffffffffffffffffffffffffffffffffffffffff1614159050919050565b6000612acc84600854612e79565b82600e600060085481526020019081526020016000208190555081600d600060085481526020019081526020016000209081612b089190614a0b565b50600854601160008673ffffffffffffffffffffffffffffffffffffffff1673ffffffffffffffffffffffffffffffffffffffff1681526020019081526020016000208190555060086000815480929190612b6290613f58565b919050555060016005612b75919061462d565b60085403612b8757612b85612763565b505b60085490509392505050565b50505050565b50505050565b6000612bc08473ffffffffffffffffffffffffffffffffffffffff16613096565b15612d19578373ffffffffffffffffffffffffffffffffffffffff1663150b7a02612be9612059565b8786866040518563ffffffff1660e01b8152600401612c0b9493929190614add565b6020604051808303816000875af1925050508015612c4757506040513d601f19601f82011682018060405250810190612c449190614b3e565b60015b612cc9573d8060008114612c77576040519150601f19603f3d011682016040523d82523d6000602084013e612c7c565b606091505b506000815103612cc1576040517f08c379a0000000000000000000000000000000000000000000000000000000008152600401612cb890614990565b60405180910390fd5b805181602001fd5b63150b7a0260e01b7bffffffffffffffffffffffffffffffffffffffffffffffffffffffff1916817bffffffffffffffffffffffffffffffffffffffffffffffffffffffff191614915050612d1e565b600190505b949350505050565b600080600090507a184f03e93ff9f4daa797ed6e38ed64bf6a1f0100000000000000008310612d84577a184f03e93ff9f4daa797ed6e38ed64bf6a1f0100000000000000008381612d7a57612d79613eb6565b5b0492506040810190505b6d04ee2d6d415b85acef81000000008310612dc1576d04ee2d6d415b85acef81000000008381612db757612db6613eb6565b5b0492506020810190505b662386f26fc100008310612df057662386f26fc100008381612de657612de5613eb6565b5b0492506010810190505b6305f5e1008310612e19576305f5e1008381612e0f57612e0e613eb6565b5b0492506008810190505b6127108310612e3e576127108381612e3457612e33613eb6565b5b0492506004810190505b60648310612e615760648381612e5757612e56613eb6565b5b0492506002810190505b600a8310612e70576001810190505b80915050919050565b600073ffffffffffffffffffffffffffffffffffffffff168273ffffffffffffffffffffffffffffffffffffffff1603612ee8576040517f08c379a0000000000000000000000000000000000000000000000000000000008152600401612edf90614bb7565b60405180910390fd5b612ef181612a7d565b15612f31576040517f08c379a0000000000000000000000000000000000000000000000000000000008152600401612f2890614c23565b60405180910390fd5b612f3f600083836001612b93565b612f4881612a7d565b15612f88576040517f08c379a0000000000000000000000000000000000000000000000000000000008152600401612f7f90614c23565b60405180910390fd5b6001600360008473ffffffffffffffffffffffffffffffffffffffff1673ffffffffffffffffffffffffffffffffffffffff16815260200190815260200160002060008282540192505081905550816002600083815260200190815260200160002060006101000a81548173ffffffffffffffffffffffffffffffffffffffff021916908373ffffffffffffffffffffffffffffffffffffffff160217905550808273ffffffffffffffffffffffffffffffffffffffff16600073ffffffffffffffffffffffffffffffffffffffff167fddf252ad1be2c89b69c2b068fc378daa952ba7f163c4a11628f55a4df523b3ef60405160405180910390a4613092600083836001612b99565b5050565b6000808273ffffffffffffffffffffffffffffffffffffffff163b119050919050565b6000604051905090565b600080fd5b600080fd5b60007fffffffff0000000000000000000000000000000000000000000000000000000082169050919050565b613102816130cd565b811461310d57600080fd5b50565b60008135905061311f816130f9565b92915050565b60006020828403121561313b5761313a6130c3565b5b600061314984828501613110565b91505092915050565b60008115159050919050565b61316781613152565b82525050565b6000602082019050613182600083018461315e565b92915050565b600081519050919050565b600082825260208201905092915050565b60005b838110156131c25780820151818401526020810190506131a7565b60008484015250505050565b6000601f19601f8301169050919050565b60006131ea82613188565b6131f48185613193565b93506132048185602086016131a4565b61320d816131ce565b840191505092915050565b6000602082019050818103600083015261323281846131df565b905092915050565b6000819050919050565b61324d8161323a565b811461325857600080fd5b50565b60008135905061326a81613244565b92915050565b600060208284031215613286576132856130c3565b5b60006132948482850161325b565b91505092915050565b600073ffffffffffffffffffffffffffffffffffffffff82169050919050565b60006132c88261329d565b9050919050565b6132d8816132bd565b82525050565b60006020820190506132f360008301846132cf565b92915050565b613302816132bd565b811461330d57600080fd5b50565b60008135905061331f816132f9565b92915050565b6000806040838503121561333c5761333b6130c3565b5b600061334a85828601613310565b925050602061335b8582860161325b565b9150509250929050565b600080fd5b7f4e487b7100000000000000000000000000000000000000000000000000000000600052604160045260246000fd5b6133a2826131ce565b810181811067ffffffffffffffff821117156133c1576133c061336a565b5b80604052505050565b60006133d46130b9565b90506133e08282613399565b919050565b600067ffffffffffffffff821115613400576133ff61336a565b5b602082029050602081019050919050565b600080fd5b6000613429613424846133e5565b6133ca565b9050808382526020820190506020840283018581111561344c5761344b613411565b5b835b818110156134755780613461888261325b565b84526020840193505060208101905061344e565b5050509392505050565b600082601f83011261349457613493613365565b5b81356134a4848260208601613416565b91505092915050565b600067ffffffffffffffff8211156134c8576134c761336a565b5b602082029050602081019050919050565b600080fd5b600067ffffffffffffffff8211156134f9576134f861336a565b5b613502826131ce565b9050602081019050919050565b82818337600083830152505050565b600061353161352c846134de565b6133ca565b90508281526020810184848401111561354d5761354c6134d9565b5b61355884828561350f565b509392505050565b600082601f83011261357557613574613365565b5b813561358584826020860161351e565b91505092915050565b60006135a161359c846134ad565b6133ca565b905080838252602082019050602084028301858111156135c4576135c3613411565b5b835b8181101561360b57803567ffffffffffffffff8111156135e9576135e8613365565b5b8086016135f68982613560565b855260208501945050506020810190506135c6565b5050509392505050565b600082601f83011261362a57613629613365565b5b813561363a84826020860161358e565b91505092915050565b60008060006060848603121561365c5761365b6130c3565b5b600061366a8682870161325b565b935050602084013567ffffffffffffffff81111561368b5761368a6130c8565b5b6136978682870161347f565b925050604084013567ffffffffffffffff8111156136b8576136b76130c8565b5b6136c486828701613615565b9150509250925092565b6136d78161323a565b82525050565b60006020820190506136f260008301846136ce565b92915050565b600080600060608486031215613711576137106130c3565b5b600061371f86828701613310565b935050602061373086828701613310565b92505060406137418682870161325b565b9150509250925092565b600060208284031215613761576137606130c3565b5b600061376f84828501613310565b91505092915050565b6000819050919050565b600061379d6137986137938461329d565b613778565b61329d565b9050919050565b60006137af82613782565b9050919050565b60006137c1826137a4565b9050919050565b6137d1816137b6565b82525050565b60006020820190506137ec60008301846137c8565b92915050565b60008060408385031215613809576138086130c3565b5b60006138178582860161325b565b925050602083013567ffffffffffffffff811115613838576138376130c8565b5b61384485828601613560565b9150509250929050565b60008060408385031215613865576138646130c3565b5b600083013567ffffffffffffffff811115613883576138826130c8565b5b61388f8582860161347f565b925050602083013567ffffffffffffffff8111156138b0576138af6130c8565b5b6138bc85828601613615565b9150509250929050565b600081519050919050565b600082825260208201905092915050565b60006138ed826138c6565b6138f781856138d1565b93506139078185602086016131a4565b613910816131ce565b840191505092915050565b6000602082019050818103600083015261393581846138e2565b905092915050565b61394681613152565b811461395157600080fd5b50565b6000813590506139638161393d565b92915050565b600080604083850312156139805761397f6130c3565b5b600061398e85828601613310565b925050602061399f85828601613954565b9150509250929050565b60006139b4826137a4565b9050919050565b6139c4816139a9565b82525050565b60006020820190506139df60008301846139bb565b92915050565b600067ffffffffffffffff821115613a00576139ff61336a565b5b613a09826131ce565b9050602081019050919050565b6000613a29613a24846139e5565b6133ca565b905082815260208101848484011115613a4557613a446134d9565b5b613a5084828561350f565b509392505050565b600082601f830112613a6d57613a6c613365565b5b8135613a7d848260208601613a16565b91505092915050565b60008060008060808587031215613aa057613a9f6130c3565b5b6000613aae87828801613310565b9450506020613abf87828801613310565b9350506040613ad08782880161325b565b925050606085013567ffffffffffffffff811115613af157613af06130c8565b5b613afd87828801613a58565b91505092959194509250565b60008060408385031215613b2057613b1f6130c3565b5b6000613b2e85828601613310565b9250506020613b3f85828601613310565b9150509250929050565b7f4e487b7100000000000000000000000000000000000000000000000000000000600052602260045260246000fd5b60006002820490506001821680613b9057607f821691505b602082108103613ba357613ba2613b49565b5b50919050565b7f4552433732313a20617070726f76616c20746f2063757272656e74206f776e6560008201527f7200000000000000000000000000000000000000000000000000000000000000602082015250565b6000613c05602183613193565b9150613c1082613ba9565b604082019050919050565b60006020820190508181036000830152613c3481613bf8565b9050919050565b7f4552433732313a20617070726f76652063616c6c6572206973206e6f7420746f60008201527f6b656e206f776e6572206f7220617070726f76656420666f7220616c6c000000602082015250565b6000613c97603d83613193565b9150613ca282613c3b565b604082019050919050565b60006020820190508181036000830152613cc681613c8a565b9050919050565b7f4e487b7100000000000000000000000000000000000000000000000000000000600052601160045260246000fd5b6000613d078261323a565b9150613d128361323a565b9250828203905081811115613d2a57613d29613ccd565b5b92915050565b7f534f4c44204f5554000000000000000000000000000000000000000000000000600082015250565b6000613d66600883613193565b9150613d7182613d30565b602082019050919050565b60006020820190508181036000830152613d9581613d59565b9050919050565b6000613da78261323a565b9150613db28361323a565b9250828202613dc08161323a565b91508282048414831517613dd757613dd6613ccd565b5b5092915050565b7f494e5355464649434945542046554e4453000000000000000000000000000000600082015250565b6000613e14601183613193565b9150613e1f82613dde565b602082019050919050565b60006020820190508181036000830152613e4381613e07565b9050919050565b7f4d494e54204953204e4f5420594554204c495645000000000000000000000000600082015250565b6000613e80601483613193565b9150613e8b82613e4a565b602082019050919050565b60006020820190508181036000830152613eaf81613e73565b9050919050565b7f4e487b7100000000000000000000000000000000000000000000000000000000600052601260045260246000fd5b6000613ef08261323a565b9150613efb8361323a565b925082613f0b57613f0a613eb6565b5b828206905092915050565b600081519050613f258161393d565b92915050565b600060208284031215613f4157613f406130c3565b5b6000613f4f84828501613f16565b91505092915050565b6000613f638261323a565b91507fffffffffffffffffffffffffffffffffffffffffffffffffffffffffffffffff8203613f9557613f94613ccd565b5b600182019050919050565b6000606082019050613fb560008301866132cf565b613fc260208301856132cf565b613fcf60408301846136ce565b949350505050565b7f4552433732313a2063616c6c6572206973206e6f7420746f6b656e206f776e6560008201527f72206f7220617070726f76656400000000000000000000000000000000000000602082015250565b6000614033602d83613193565b915061403e82613fd7565b604082019050919050565b6000602082019050818103600083015261406281614026565b9050919050565b60008151905061407881613244565b92915050565b600060208284031215614094576140936130c3565b5b60006140a284828501614069565b91505092915050565b7f4552433732313a20696e76616c696420746f6b656e2049440000000000000000600082015250565b60006140e1601883613193565b91506140ec826140ab565b602082019050919050565b60006020820190508181036000830152614110816140d4565b9050919050565b7f4552433732313a2061646472657373207a65726f206973206e6f74206120766160008201527f6c6964206f776e65720000000000000000000000000000000000000000000000602082015250565b6000614173602983613193565b915061417e82614117565b604082019050919050565b600060208201905081810360008301526141a281614166565b9050919050565b7f594f5520415245204e4f542054484520484f4c44455200000000000000000000600082015250565b60006141df601683613193565b91506141ea826141a9565b602082019050919050565b6000602082019050818103600083015261420e816141d2565b9050919050565b7f4d494e54204953205354494c4c20494e2050524f475245535300000000000000600082015250565b600061424b601983613193565b915061425682614215565b602082019050919050565b6000602082019050818103600083015261427a8161423e565b9050919050565b60008190508160005260206000209050919050565b60006020601f8301049050919050565b600082821b905092915050565b6000600883026142e37fffffffffffffffffffffffffffffffffffffffffffffffffffffffffffffffff826142a6565b6142ed86836142a6565b95508019841693508086168417925050509392505050565b600061432061431b6143168461323a565b613778565b61323a565b9050919050565b6000819050919050565b61433a83614305565b61434e61434682614327565b8484546142b3565b825550505050565b600090565b614363614356565b61436e818484614331565b505050565b5b818110156143925761438760008261435b565b600181019050614374565b5050565b601f8211156143d7576143a881614281565b6143b184614296565b810160208510156143c0578190505b6143d46143cc85614296565b830182614373565b50505b505050565b600082821c905092915050565b60006143fa600019846008026143dc565b1980831691505092915050565b600061441383836143e9565b9150826002028217905092915050565b61442c82613188565b67ffffffffffffffff8111156144455761444461336a565b5b61444f8254613b78565b61445a828285614396565b600060209050601f83116001811461448d576000841561447b578287015190505b6144858582614407565b8655506144ed565b601f19841661449b86614281565b60005b828110156144c35784890151825560018201915060208501945060208101905061449e565b868310156144e057848901516144dc601f8916826143e9565b8355505b6001600288020188555050505b505050505050565b7f594f5520415245204e4f5420475245454e4c4953544544000000000000000000600082015250565b600061452b601783613193565b9150614536826144f5565b602082019050919050565b6000602082019050818103600083015261455a8161451e565b9050919050565b7f414c4c20534c4f54532048415645204245454e204d494e544544000000000000600082015250565b6000614597601a83613193565b91506145a282614561565b602082019050919050565b600060208201905081810360008301526145c68161458a565b9050919050565b600081905092915050565b60006145e382613188565b6145ed81856145cd565b93506145fd8185602086016131a4565b80840191505092915050565b600061461582856145d8565b915061462182846145d8565b91508190509392505050565b60006146388261323a565b91506146438361323a565b925082820190508082111561465b5761465a613ccd565b5b92915050565b7f4558434545444544204d4158204d494e5441424c4520544f4b454e532050455260008201527f2057414c4c455400000000000000000000000000000000000000000000000000602082015250565b60006146bd602783613193565b91506146c882614661565b604082019050919050565b600060208201905081810360008301526146ec816146b0565b9050919050565b7f4e4f5420454e4f55474820535550504c59000000000000000000000000000000600082015250565b6000614729601183613193565b9150614734826146f3565b602082019050919050565b600060208201905081810360008301526147588161471c565b9050919050565b7f4e487b7100000000000000000000000000000000000000000000000000000000600052603260045260246000fd5b7f4552433732313a207472616e736665722066726f6d20696e636f72726563742060008201527f6f776e6572000000000000000000000000000000000000000000000000000000602082015250565b60006147ea602583613193565b91506147f58261478e565b604082019050919050565b60006020820190508181036000830152614819816147dd565b9050919050565b7f4552433732313a207472616e7366657220746f20746865207a65726f2061646460008201527f7265737300000000000000000000000000000000000000000000000000000000602082015250565b600061487c602483613193565b915061488782614820565b604082019050919050565b600060208201905081810360008301526148ab8161486f565b9050919050565b7f4552433732313a20617070726f766520746f2063616c6c657200000000000000600082015250565b60006148e8601983613193565b91506148f3826148b2565b602082019050919050565b60006020820190508181036000830152614917816148db565b9050919050565b7f4552433732313a207472616e7366657220746f206e6f6e20455243373231526560008201527f63656976657220696d706c656d656e7465720000000000000000000000000000602082015250565b600061497a603283613193565b91506149858261491e565b604082019050919050565b600060208201905081810360008301526149a98161496d565b9050919050565b60008190508160005260206000209050919050565b601f821115614a06576149d7816149b0565b6149e084614296565b810160208510156149ef578190505b614a036149fb85614296565b830182614373565b50505b505050565b614a14826138c6565b67ffffffffffffffff811115614a2d57614a2c61336a565b5b614a378254613b78565b614a428282856149c5565b600060209050601f831160018114614a755760008415614a63578287015190505b614a6d8582614407565b865550614ad5565b601f198416614a83866149b0565b60005b82811015614aab57848901518255600182019150602085019450602081019050614a86565b86831015614ac85784890151614ac4601f8916826143e9565b8355505b6001600288020188555050505b505050505050565b6000608082019050614af260008301876132cf565b614aff60208301866132cf565b614b0c60408301856136ce565b8181036060830152614b1e81846138e2565b905095945050505050565b600081519050614b38816130f9565b92915050565b600060208284031215614b5457614b536130c3565b5b6000614b6284828501614b29565b91505092915050565b7f4552433732313a206d696e7420746f20746865207a65726f2061646472657373600082015250565b6000614ba1602083613193565b9150614bac82614b6b565b602082019050919050565b60006020820190508181036000830152614bd081614b94565b9050919050565b7f4552433732313a20746f6b656e20616c7265616479206d696e74656400000000600082015250565b6000614c0d601c83613193565b9150614c1882614bd7565b602082019050919050565b60006020820190508181036000830152614c3c81614c00565b905091905056fea2646970667358221220424a167806b1cdf90e711e43def2758e67e62b2a6c73b0f7c8831c5c0b2e184c64736f6c63430008110033",
  "immutableReferences": {},
  "source": "// SPDX-License-Identifier: MIT\n\n// MAINNET CONTRACT ADDRESSES\n\n// GL :: 0xecE922B118eEd554Fb9d3318a81FecB8C8D1bD95\n// ICE :: 0x890b24d94075B743a89171E5b8A2d9B9049eBf36\n// FROOT :: 0xb2330f3836799B36F0be49Df1043C62d30253479\n\n// TESTNET CONTRACT ADDRESSES\n\n// GREENLIST :: 0x0f6ee895f93a0525747DdD7c5c177fF65DBD7454\n// ICE :: 0xec09faf4b1c6F198cFF1535800d55123C8C848bE :: ERC20\n// FROOTYCOOLTINGS :: 0x069BF09A8EDb8C1b3AC7f62bA57C601DBaCc6747 :: ERC721\n\npragma solidity ^0.8.10;\n\nimport \"@openzeppelin/contracts/token/ERC20/ERC20.sol\";\nimport \"@openzeppelin/contracts/token/ERC721/ERC721.sol\";\n\ncontract Greenlist {\n    address public admin;\n\n    uint256 public l;\n    uint256 public max;\n    string public message;\n    uint256 public stamp;\n    FrootyCoolTingz public FCT;\n    mapping(address => bool) public isListed;\n    address[1234] public users;\n    modifier notListed(address _adr) {\n        require(isListed[_adr] == false, \"already listed\");\n        _;\n    }\n\n    constructor() {\n        admin = msg.sender;\n        // isListed[msg.sender] = true; // OFF ON TESTNET\n        // users[0] = msg.sender;\n        message = \"BE FRESH MY FRUITY FRENZ !\";\n        // l = 1; // Mainnet\n        // max = 1234; // Mainnet\n        l = 0; // Testnet\n        max = 1; // Testnet\n    }\n\n    function setFCT(address _fct) external returns (bool) {\n        FCT = FrootyCoolTingz(_fct);\n        return true;\n    }\n\n    function autoStart() internal returns (bool) {\n        return FCT.changeMS();\n    }\n\n    function getListed() external notListed(msg.sender) returns (bool) {\n        require(l < max, \"no more greenlist tickets left\");\n        isListed[msg.sender] = true;\n        users[l] = (msg.sender);\n        l++;\n        if (l == max) autoStart();\n        return isListed[msg.sender];\n    }\n\n    function makeListing(address _adr) external notListed(_adr) returns (bool) {\n        require(admin == msg.sender, \"you are not admin\");\n        isListed[_adr] = true;\n        users[l] = (_adr);\n        l++;\n        if (l == max) autoStart();\n        return isListed[_adr];\n    }\n\n    function showUsers() external view returns (address[1234] memory) {\n        return users;\n    }\n\n    function setMsg(string memory _msg) external payable returns (bool) {\n        require(msg.value <= 1 * 10**18, \"insufficient balance sent\");\n        require(block.timestamp >= stamp + 60 * 60, \"you need to wait\");\n        message = _msg;\n        stamp = block.timestamp;\n        return true;\n    }\n\n    function setMsgAdmin(string memory _msg) external returns (bool) {\n        require(admin == msg.sender, \"you are not admin\");\n        message = _msg;\n        stamp = block.timestamp;\n        return true;\n    }\n\n    function showMsg() external view returns (string memory) {\n        return message;\n    }\n\n    function withdraw() external returns (uint256) {\n        require(admin == msg.sender, \"you are not admin\");\n        payable(admin).transfer(address(this).balance);\n        return address(this).balance;\n    }\n}\n\ncontract ICE is ERC20 {\n    uint256 public constant digits = 10**18;\n    uint256 public constant price = (1 * digits) / 10000; // Testnet :: 10000 // Mainnet :: 10\n\n    address admin;\n\n    modifier onlyA() {\n        require(msg.sender == admin);\n        _;\n    }\n\n    constructor() ERC20(\"Incredibly Cool Essence\", \"ICE\") {\n        admin = msg.sender;\n    }\n\n    function _domint(uint256 _amnt, address _adr) internal returns (uint256) {\n        _mint(_adr, _amnt);\n        return _amnt;\n    }\n\n    function _doburn(uint256 _amnt, address _adr) internal returns (uint256) {\n        _burn(_adr, _amnt);\n        return _amnt;\n    }\n\n    function swap(uint256 _amnt, address _adr)\n        external\n        payable\n        returns (uint256)\n    {\n        require(_amnt >= 10, \"MINIMUM 10 ICE\");\n        require(msg.value >= price * _amnt, \"INSUFFICIENT FUNDS PROVIDED\");\n        return _domint(_amnt, _adr);\n    }\n\n    function earn(address _adr) external returns (bool) {\n        _domint(1 * 10**18, _adr);\n        return true;\n    }\n}\n\ncontract FrootyCoolTingz is ERC721 {\n    // Public Constants\n    uint256 public constant price = 5 * 10**14; // PRICE VAL Testnet\n    // uint256 public constant price = 5 * 10**18; // PRICE VAL Mainnet\n    uint256 public constant num = 1; // MAX MINTS / WALLET\n    // MAINNET\n    /* *\n    uint256 public constant max = 5555; // MAX TOTAL MINTS\n    uint256 public constant sloz = 1234; // MAX FREE MINTS\n    // */\n    // TESTNET\n    /* */\n    uint256 public constant max = 5; // MAX TOTAL MINTS\n    uint256 public constant sloz = 1; // MAX FREE MINTS\n    // */\n    // Public Variables\n    address public owner; // CONTRACT OWNER\n    address iceAdr;\n    uint256 public minted; // TOKENS MINTED 1-5000\n    string public nam; // TOKEN NAME\n    string public sym; // TOKEN SYMBOL\n    uint256 public slots; // SLOZ USED 1-1234\n    bool public start; // ALLOWS MINT TO START\n    // Public Mappings\n    mapping(uint256 => bytes) public dias; // TOKEN ID SHOWS DIAS BYTES OBJECT\n    mapping(uint256 => uint256) public tid; // TOKEN ID SHOWS DIAS ID\n    mapping(uint256 => string) public status;\n    mapping(uint256 => address) public ownedBy;\n    mapping(address => uint256) private minter;\n    ICE public ice;\n    Greenlist public GLC;\n\n    modifier onlyO() {\n        // ONLY OWNER CAN USE MOD FUNX\n        require(msg.sender == owner);\n        _;\n    }\n\n    constructor(address _ICE, address _Greenlist)\n        ERC721(\"Frooty Cool Tingz\", \"FROOT\")\n    {\n        // INIT CONTRACT SET PUB VARS\n        minted = 1;\n        slots = 0;\n        owner = msg.sender;\n        nam = \"Frooty Cool Tingz\";\n        sym = \"FROOT\";\n        // EVMOS\n        /*  *\n        ice = ICE(0x890b24d94075B743a89171E5b8A2d9B9049eBf36);\n        GLC = Greenlist(0xecE922B118eEd554Fb9d3318a81FecB8C8D1bD95);\n        // */\n        // TESTNET EVMOS\n        /* */\n        ice = ICE(_ICE);\n        GLC = Greenlist(_Greenlist);\n        // */\n    }\n\n    function isOwner(address _adr) external view returns (bool) {\n        // SHOWS BOOL OF OWNERSTATUS OF ADDRESS\n        if (_adr == owner) return true;\n        else return false;\n    }\n\n    function mint(\n        uint256 _amnt,\n        uint256[] memory _diasIDs,\n        string[] memory _diasOBJs\n    ) external payable returns (uint256) {\n        // INITIATES THE MINT OF UP TO 7 TOKENS IF ALLOWED\n        require(minted < max - (sloz - slots), \"SOLD OUT\");\n        require(msg.value >= _amnt * price, \"INSUFFICIET FUNDS\");\n        require(start == true, \"MINT IS NOT YET LIVE\");\n        _doMint(_amnt, msg.sender, _diasIDs, _diasOBJs);\n        uint256 o = block.timestamp % 9;\n        for (uint256 i; i <= o; i++) ice.earn(msg.sender);\n        return minted;\n    }\n\n    function greenMint(uint256[] memory _diasIDs, string[] memory _diasOBJs)\n        external\n        returns (uint256)\n    {\n        // INITIATES THE MINT OF UP TO 7 TOKENS IF ALLOWED\n        require(minted < max, \"SOLD OUT\");\n        require(start == true, \"MINT IS NOT YET LIVE\");\n        bool boo = GLC.isListed(msg.sender);\n        require(boo == true, \"YOU ARE NOT GREENLISTED\");\n        require(slots <= sloz, \"ALL SLOTS HAVE BEEN MINTED\");\n        _doMint(1, msg.sender, _diasIDs, _diasOBJs);\n        ice.earn(msg.sender);\n        if (block.timestamp % 9 == 0 || block.timestamp % 9 == 9)\n            ice.earn(msg.sender);\n        slots++;\n        return minted;\n    }\n\n    function setStatus(uint256 _id, string memory _status)\n        external\n        payable\n        returns (bool)\n    {\n        require(ownedBy[_id] == msg.sender, \"YOU ARE NOT THE HOLDER\");\n        require(start == false, \"MINT IS STILL IN PROGRESS\");\n        require(msg.value >= 1 * 10**18);\n        ice.earn(msg.sender);\n        if (block.timestamp % 9 == 0 || block.timestamp % 9 == 9)\n            ice.earn(msg.sender);\n        status[_id] = _status;\n        return true;\n    }\n\n    function changeMintState() external onlyO returns (bool) {\n        return cMS();\n    }\n\n    function cMS() internal returns (bool) {\n        return start = !start;\n    }\n\n    // ONLY TESTNET\n    /* */\n    function changeMS() external returns (bool) {\n        return cMS();\n    }\n\n    // */\n\n    function mintOne(\n        address _adr,\n        uint256 _diasID,\n        string memory _diasOBJ\n    ) internal returns (uint256) {\n        // INTERNAL // MINTS ONE TOKEN\n        _mint(_adr, minted);\n        tid[minted] = _diasID;\n        dias[minted] = bytes(_diasOBJ);\n        minter[_adr] = minted;\n        minted++;\n        if (minted == max + 1) cMS();\n        return minted;\n    }\n\n    function _doMint(\n        uint256 _amnt,\n        address _adr,\n        uint256[] memory _diasIDs,\n        string[] memory _diasOBJs\n    ) internal returns (uint256) {\n        require(\n            balanceOf(_adr) + _amnt <= num,\n            \"EXCEEDED MAX MINTABLE TOKENS PER WALLET\"\n        );\n        require(minted + _amnt <= max, \"NOT ENOUGH SUPPLY\");\n        // INTERNAL // MINTS UP TO 7 TOKENS IN ONE TX\n        mintOne(_adr, _diasIDs[0], _diasOBJs[0]);\n        if (_amnt >= 2) {\n            mintOne(_adr, _diasIDs[0], _diasOBJs[0]);\n            if (_amnt >= 3) {\n                mintOne(_adr, _diasIDs[0], _diasOBJs[0]);\n                if (_amnt >= 4) {\n                    mintOne(_adr, _diasIDs[0], _diasOBJs[0]);\n                    if (_amnt >= 5) {\n                        mintOne(_adr, _diasIDs[0], _diasOBJs[0]);\n                        if (_amnt >= 6) {\n                            mintOne(_adr, _diasIDs[0], _diasOBJs[0]);\n                            if (_amnt >= 7) {\n                                mintOne(_adr, _diasIDs[0], _diasOBJs[0]);\n                            }\n                        }\n                    }\n                }\n            }\n        }\n        return minted;\n    }\n\n    function holder(uint256 _id) external view returns (address) {\n        // SHOWS OWNER OF TOKEN BY TID\n        return ownerOf(_id);\n    }\n\n    function clearSloz() external returns (bool) {\n        slots = 1234;\n        return true;\n    }\n\n    function flush() external returns (uint256) {\n        // WITHDRAW ALL ETHER FROM CONTRACT\n        payable(owner).transfer(address(this).balance);\n        return address(this).balance;\n    }\n\n    function flushERC20(address _erc) external returns (uint256) {\n        // WITHDRAW ALL COIN FROM CONTRACT\n        ERC20 coin = ERC20(_erc);\n        coin.transferFrom(address(this), owner, coin.balanceOf(address(this)));\n        return coin.balanceOf(address(this));\n    }\n\n    function flushERC721(address _erc, uint256 _id) external returns (uint256) {\n        // WITHDRAW ALL NFT FROM CONTRACT\n        ERC721 coin = ERC721(_erc);\n        coin.transferFrom(address(this), owner, _id);\n        return _id;\n    }\n}\n",
  "sourcePath": "/Users/iii6/Documents/GitHub/Gamble360/contracts/xxx_old/FrootyCoolTingz.sol",
  "compiler": {
    "name": "solc",
    "version": "0.8.17+commit.8df45f5f.Emscripten.clang"
  },
  "schemaVersion": "3.4.8",
  "updatedAt": "2023-04-02T17:18:59.800Z",
  "devdoc": {
    "kind": "dev",
    "methods": {
      "approve(address,uint256)": {
        "details": "See {IERC721-approve}."
      },
      "balanceOf(address)": {
        "details": "See {IERC721-balanceOf}."
      },
      "getApproved(uint256)": {
        "details": "See {IERC721-getApproved}."
      },
      "isApprovedForAll(address,address)": {
        "details": "See {IERC721-isApprovedForAll}."
      },
      "name()": {
        "details": "See {IERC721Metadata-name}."
      },
      "ownerOf(uint256)": {
        "details": "See {IERC721-ownerOf}."
      },
      "safeTransferFrom(address,address,uint256)": {
        "details": "See {IERC721-safeTransferFrom}."
      },
      "safeTransferFrom(address,address,uint256,bytes)": {
        "details": "See {IERC721-safeTransferFrom}."
      },
      "setApprovalForAll(address,bool)": {
        "details": "See {IERC721-setApprovalForAll}."
      },
      "supportsInterface(bytes4)": {
        "details": "See {IERC165-supportsInterface}."
      },
      "symbol()": {
        "details": "See {IERC721Metadata-symbol}."
      },
      "tokenURI(uint256)": {
        "details": "See {IERC721Metadata-tokenURI}."
      },
      "transferFrom(address,address,uint256)": {
        "details": "See {IERC721-transferFrom}."
      }
    },
    "version": 1
  },
  "userdoc": {
    "kind": "user",
    "methods": {},
    "version": 1
  }
}