{
  "contractName": "HI_LO",
  "abi": [
    {
      "inputs": [],
      "stateMutability": "nonpayable",
      "type": "constructor"
    },
    {
      "inputs": [],
      "name": "GameOver",
      "type": "error"
    },
    {
      "inputs": [
        {
          "internalType": "address",
          "name": "adr",
          "type": "address"
        },
        {
          "internalType": "uint256",
          "name": "balance",
          "type": "uint256"
        }
      ],
      "name": "LowFunds",
      "type": "error"
    },
    {
      "inputs": [
        {
          "internalType": "address",
          "name": "adr",
          "type": "address"
        }
      ],
      "name": "Yourself",
      "type": "error"
    },
    {
      "anonymous": false,
      "inputs": [
        {
          "indexed": false,
          "internalType": "uint256",
          "name": "cs",
          "type": "uint256"
        },
        {
          "indexed": false,
          "internalType": "address",
          "name": "from",
          "type": "address"
        },
        {
          "indexed": false,
          "internalType": "uint256",
          "name": "time",
          "type": "uint256"
        }
      ],
      "name": "Log",
      "type": "event"
    },
    {
      "inputs": [],
      "name": "g",
      "outputs": [
        {
          "internalType": "uint256",
          "name": "",
          "type": "uint256"
        }
      ],
      "stateMutability": "view",
      "type": "function",
      "constant": true
    },
    {
      "inputs": [
        {
          "internalType": "uint256",
          "name": "",
          "type": "uint256"
        }
      ],
      "name": "games",
      "outputs": [
        {
          "internalType": "uint256",
          "name": "id",
          "type": "uint256"
        },
        {
          "internalType": "uint256",
          "name": "value",
          "type": "uint256"
        },
        {
          "internalType": "address payable",
          "name": "owner",
          "type": "address"
        },
        {
          "internalType": "uint256",
          "name": "t0",
          "type": "uint256"
        },
        {
          "internalType": "bool",
          "name": "c0",
          "type": "bool"
        },
        {
          "internalType": "address payable",
          "name": "opponent",
          "type": "address"
        },
        {
          "internalType": "uint256",
          "name": "t1",
          "type": "uint256"
        },
        {
          "internalType": "bool",
          "name": "c1",
          "type": "bool"
        },
        {
          "internalType": "uint256",
          "name": "state",
          "type": "uint256"
        },
        {
          "internalType": "uint256",
          "name": "result",
          "type": "uint256"
        }
      ],
      "stateMutability": "view",
      "type": "function",
      "constant": true
    },
    {
      "inputs": [
        {
          "internalType": "address",
          "name": "",
          "type": "address"
        },
        {
          "internalType": "uint256",
          "name": "",
          "type": "uint256"
        }
      ],
      "name": "myGame",
      "outputs": [
        {
          "internalType": "uint256",
          "name": "id",
          "type": "uint256"
        },
        {
          "internalType": "uint256",
          "name": "value",
          "type": "uint256"
        },
        {
          "internalType": "address payable",
          "name": "owner",
          "type": "address"
        },
        {
          "internalType": "uint256",
          "name": "t0",
          "type": "uint256"
        },
        {
          "internalType": "bool",
          "name": "c0",
          "type": "bool"
        },
        {
          "internalType": "address payable",
          "name": "opponent",
          "type": "address"
        },
        {
          "internalType": "uint256",
          "name": "t1",
          "type": "uint256"
        },
        {
          "internalType": "bool",
          "name": "c1",
          "type": "bool"
        },
        {
          "internalType": "uint256",
          "name": "state",
          "type": "uint256"
        },
        {
          "internalType": "uint256",
          "name": "result",
          "type": "uint256"
        }
      ],
      "stateMutability": "view",
      "type": "function",
      "constant": true
    },
    {
      "inputs": [],
      "name": "withdraw",
      "outputs": [],
      "stateMutability": "nonpayable",
      "type": "function"
    },
    {
      "inputs": [
        {
          "internalType": "bool",
          "name": "_choice",
          "type": "bool"
        }
      ],
      "name": "setGame",
      "outputs": [],
      "stateMutability": "payable",
      "type": "function",
      "payable": true
    },
    {
      "inputs": [
        {
          "internalType": "uint256",
          "name": "_game",
          "type": "uint256"
        }
      ],
      "name": "joinGame",
      "outputs": [],
      "stateMutability": "payable",
      "type": "function",
      "payable": true
    }
  ],
  "bytecode": "0x60806040523480156200001157600080fd5b50336000806101000a81548173ffffffffffffffffffffffffffffffffffffffff021916908373ffffffffffffffffffffffffffffffffffffffff160217905550600942620000619190620000d2565b60016200006f919062000139565b600381905550601960018190555066038d7ea4c68000600281905550600160048190555062000174565b6000819050919050565b7f4e487b7100000000000000000000000000000000000000000000000000000000600052601260045260246000fd5b6000620000df8262000099565b9150620000ec8362000099565b925082620000ff57620000fe620000a3565b5b828206905092915050565b7f4e487b7100000000000000000000000000000000000000000000000000000000600052601160045260246000fd5b6000620001468262000099565b9150620001538362000099565b92508282019050808211156200016e576200016d6200010a565b5b92915050565b61197880620001846000396000f3fe6080604052600436106100555760003560e01c8063112b2b071461005a578063117a5b90146100765780633ccfd60b146100bc578063725c62cd146100d3578063e2179b8e14610119578063efaa55a014610144575b600080fd5b610074600480360381019061006f91906114e2565b610160565b005b34801561008257600080fd5b5061009d60048036038101906100989190611545565b61075e565b6040516100b39a999897969594939291906115d1565b60405180910390f35b3480156100c857600080fd5b506100d161080c565b005b3480156100df57600080fd5b506100fa60048036038101906100f591906116ab565b6108c9565b6040516101109a999897969594939291906115d1565b60405180910390f35b34801561012557600080fd5b5061012e610984565b60405161013b91906116eb565b60405180910390f35b61015e60048036038101906101599190611545565b61098a565b005b60025434116101aa57336002546040517f96f756fd0000000000000000000000000000000000000000000000000000000081526004016101a1929190611715565b60405180910390fd5b6000806101b73484610bda565b915091508115610311576000600560008381526020019081526020016000206040518061014001604052908160008201548152602001600182015481526020016002820160009054906101000a900473ffffffffffffffffffffffffffffffffffffffff1673ffffffffffffffffffffffffffffffffffffffff1673ffffffffffffffffffffffffffffffffffffffff168152602001600382015481526020016004820160009054906101000a900460ff161515151581526020016004820160019054906101000a900473ffffffffffffffffffffffffffffffffffffffff1673ffffffffffffffffffffffffffffffffffffffff1673ffffffffffffffffffffffffffffffffffffffff168152602001600582015481526020016006820160009054906101000a900460ff1615151515815260200160078201548152602001600882015481525050905061030b81610d0b565b50610759565b60405180610140016040528060045481526020013481526020013373ffffffffffffffffffffffffffffffffffffffff1681526020014281526020018415158152602001600073ffffffffffffffffffffffffffffffffffffffff16815260200160008152602001841515158152602001600181526020016000815250600560006004548152602001908152602001600020600082015181600001556020820151816001015560408201518160020160006101000a81548173ffffffffffffffffffffffffffffffffffffffff021916908373ffffffffffffffffffffffffffffffffffffffff1602179055506060820151816003015560808201518160040160006101000a81548160ff02191690831515021790555060a08201518160040160016101000a81548173ffffffffffffffffffffffffffffffffffffffff021916908373ffffffffffffffffffffffffffffffffffffffff16021790555060c0820151816005015560e08201518160060160006101000a81548160ff02191690831515021790555061010082015181600701556101208201518160080155905050600560006004548152602001908152602001600020600760003373ffffffffffffffffffffffffffffffffffffffff1673ffffffffffffffffffffffffffffffffffffffff1681526020019081526020016000206000600660003373ffffffffffffffffffffffffffffffffffffffff1673ffffffffffffffffffffffffffffffffffffffff16815260200190815260200160002054815260200190815260200160002060008201548160000155600182015481600101556002820160009054906101000a900473ffffffffffffffffffffffffffffffffffffffff168160020160006101000a81548173ffffffffffffffffffffffffffffffffffffffff021916908373ffffffffffffffffffffffffffffffffffffffff160217905550600382015481600301556004820160009054906101000a900460ff168160040160006101000a81548160ff0219169083151502179055506004820160019054906101000a900473ffffffffffffffffffffffffffffffffffffffff168160040160016101000a81548173ffffffffffffffffffffffffffffffffffffffff021916908373ffffffffffffffffffffffffffffffffffffffff160217905550600582015481600501556006820160009054906101000a900460ff168160060160006101000a81548160ff0219169083151502179055506007820154816007015560088201548160080155905050600660003373ffffffffffffffffffffffffffffffffffffffff1673ffffffffffffffffffffffffffffffffffffffff168152602001908152602001600020600081548092919061070d9061176d565b9190505550600060086000600454815260200190815260200160002060006101000a81548160ff021916908315150217905550600460008154809291906107539061176d565b91905055505b505050565b60056020528060005260406000206000915090508060000154908060010154908060020160009054906101000a900473ffffffffffffffffffffffffffffffffffffffff16908060030154908060040160009054906101000a900460ff16908060040160019054906101000a900473ffffffffffffffffffffffffffffffffffffffff16908060050154908060060160009054906101000a900460ff1690806007015490806008015490508a565b60008054906101000a900473ffffffffffffffffffffffffffffffffffffffff1673ffffffffffffffffffffffffffffffffffffffff163373ffffffffffffffffffffffffffffffffffffffff16036108c75760008054906101000a900473ffffffffffffffffffffffffffffffffffffffff1673ffffffffffffffffffffffffffffffffffffffff166108fc479081150290604051600060405180830381858888f193505050501580156108c5573d6000803e3d6000fd5b505b565b6007602052816000526040600020602052806000526040600020600091509150508060000154908060010154908060020160009054906101000a900473ffffffffffffffffffffffffffffffffffffffff16908060030154908060040160009054906101000a900460ff16908060040160019054906101000a900473ffffffffffffffffffffffffffffffffffffffff16908060050154908060060160009054906101000a900460ff1690806007015490806008015490508a565b60045481565b6000600560008381526020019081526020016000206040518061014001604052908160008201548152602001600182015481526020016002820160009054906101000a900473ffffffffffffffffffffffffffffffffffffffff1673ffffffffffffffffffffffffffffffffffffffff1673ffffffffffffffffffffffffffffffffffffffff168152602001600382015481526020016004820160009054906101000a900460ff161515151581526020016004820160019054906101000a900473ffffffffffffffffffffffffffffffffffffffff1673ffffffffffffffffffffffffffffffffffffffff1673ffffffffffffffffffffffffffffffffffffffff168152602001600582015481526020016006820160009054906101000a900460ff161515151581526020016007820154815260200160088201548152505090508060200151341015610b1a573381602001516040517f96f756fd000000000000000000000000000000000000000000000000000000008152600401610b11929190611715565b60405180910390fd5b600181610100015114610b59576040517fdf469ccb00000000000000000000000000000000000000000000000000000000815260040160405180910390fd5b806040015173ffffffffffffffffffffffffffffffffffffffff163373ffffffffffffffffffffffffffffffffffffffff1603610bcd57336040517f633df725000000000000000000000000000000000000000000000000000000008152600401610bc491906117b5565b60405180910390fd5b610bd681610d0b565b5050565b60008060005b600454811015610d0357846005600083815260200190815260200160002060010154148015610c7157503373ffffffffffffffffffffffffffffffffffffffff166005600083815260200190815260200160002060020160009054906101000a900473ffffffffffffffffffffffffffffffffffffffff1673ffffffffffffffffffffffffffffffffffffffff1614155b8015610ca457508315156005600083815260200190815260200160002060040160009054906101000a900460ff16151514155b8015610cc6575060016005600083815260200190815260200160002060070154145b15610ce7576001925080915060045481610ce091906117d0565b9050610cf0565b60009250600091505b8080610cfb9061176d565b915050610be0565b509250929050565b6001816101000151141580610d265750600454816000015110155b15610d5d576040517fdf469ccb00000000000000000000000000000000000000000000000000000000815260040160405180910390fd5b338160a0019073ffffffffffffffffffffffffffffffffffffffff16908173ffffffffffffffffffffffffffffffffffffffff1681525050428160c0018181525050600281610100018181525050806005600083600001518152602001908152602001600020600082015181600001556020820151816001015560408201518160020160006101000a81548173ffffffffffffffffffffffffffffffffffffffff021916908373ffffffffffffffffffffffffffffffffffffffff1602179055506060820151816003015560808201518160040160006101000a81548160ff02191690831515021790555060a08201518160040160016101000a81548173ffffffffffffffffffffffffffffffffffffffff021916908373ffffffffffffffffffffffffffffffffffffffff16021790555060c0820151816005015560e08201518160060160006101000a81548160ff0219169083151502179055506101008201518160070155610120820151816008015590505080600760003373ffffffffffffffffffffffffffffffffffffffff1673ffffffffffffffffffffffffffffffffffffffff1681526020019081526020016000206000600660003373ffffffffffffffffffffffffffffffffffffffff1673ffffffffffffffffffffffffffffffffffffffff168152602001908152602001600020548152602001908152602001600020600082015181600001556020820151816001015560408201518160020160006101000a81548173ffffffffffffffffffffffffffffffffffffffff021916908373ffffffffffffffffffffffffffffffffffffffff1602179055506060820151816003015560808201518160040160006101000a81548160ff02191690831515021790555060a08201518160040160016101000a81548173ffffffffffffffffffffffffffffffffffffffff021916908373ffffffffffffffffffffffffffffffffffffffff16021790555060c0820151816005015560e08201518160060160006101000a81548160ff02191690831515021790555061010082015181600701556101208201518160080155905050600660003373ffffffffffffffffffffffffffffffffffffffff1673ffffffffffffffffffffffffffffffffffffffff16815260200190815260200160002060008154809291906110c19061176d565b9190505550600060096003548360c001516110dc91906117d0565b6110e69190611833565b9050600060098284606001516110fc91906117d0565b6111069190611833565b905060006009828460035461111b91906117d0565b61112591906117d0565b426111309190611864565b838560035461113f9190611898565b6111499190611898565b61115391906117d0565b61115d9190611833565b90507f7612d5f812e5c2765b39f04d21c4a29667b2e2b278ad3777e490190de6c99a35813342604051611192939291906118da565b60405180910390a1808461012001818152505060006001546103e86111b79190611864565b6103e8600287602001516111cb9190611898565b6111d59190611911565b6111df9190611898565b9050600385610100018181525050846005600087600001518152602001908152602001600020600082015181600001556020820151816001015560408201518160020160006101000a81548173ffffffffffffffffffffffffffffffffffffffff021916908373ffffffffffffffffffffffffffffffffffffffff1602179055506060820151816003015560808201518160040160006101000a81548160ff02191690831515021790555060a08201518160040160016101000a81548173ffffffffffffffffffffffffffffffffffffffff021916908373ffffffffffffffffffffffffffffffffffffffff16021790555060c0820151816005015560e08201518160060160006101000a81548160ff021916908315150217905550610100820151816007015561012082015181600801559050506001600860008760000151815260200190815260200160002060006101000a81548160ff0219169083151502179055508460800151156113f85760058210156113a757846040015173ffffffffffffffffffffffffffffffffffffffff166108fc829081150290604051600060405180830381858888f193505050501580156113a1573d6000803e3d6000fd5b506113f3565b8460a0015173ffffffffffffffffffffffffffffffffffffffff166108fc829081150290604051600060405180830381858888f193505050501580156113f1573d6000803e3d6000fd5b505b61149e565b6005821015611451578460a0015173ffffffffffffffffffffffffffffffffffffffff166108fc829081150290604051600060405180830381858888f1935050505015801561144b573d6000803e3d6000fd5b5061149d565b846040015173ffffffffffffffffffffffffffffffffffffffff166108fc829081150290604051600060405180830381858888f1935050505015801561149b573d6000803e3d6000fd5b505b5b5050505050565b600080fd5b60008115159050919050565b6114bf816114aa565b81146114ca57600080fd5b50565b6000813590506114dc816114b6565b92915050565b6000602082840312156114f8576114f76114a5565b5b6000611506848285016114cd565b91505092915050565b6000819050919050565b6115228161150f565b811461152d57600080fd5b50565b60008135905061153f81611519565b92915050565b60006020828403121561155b5761155a6114a5565b5b600061156984828501611530565b91505092915050565b61157b8161150f565b82525050565b600073ffffffffffffffffffffffffffffffffffffffff82169050919050565b60006115ac82611581565b9050919050565b6115bc816115a1565b82525050565b6115cb816114aa565b82525050565b6000610140820190506115e7600083018d611572565b6115f4602083018c611572565b611601604083018b6115b3565b61160e606083018a611572565b61161b60808301896115c2565b61162860a08301886115b3565b61163560c0830187611572565b61164260e08301866115c2565b611650610100830185611572565b61165e610120830184611572565b9b9a5050505050505050505050565b600061167882611581565b9050919050565b6116888161166d565b811461169357600080fd5b50565b6000813590506116a58161167f565b92915050565b600080604083850312156116c2576116c16114a5565b5b60006116d085828601611696565b92505060206116e185828601611530565b9150509250929050565b60006020820190506117006000830184611572565b92915050565b61170f8161166d565b82525050565b600060408201905061172a6000830185611706565b6117376020830184611572565b9392505050565b7f4e487b7100000000000000000000000000000000000000000000000000000000600052601160045260246000fd5b60006117788261150f565b91507fffffffffffffffffffffffffffffffffffffffffffffffffffffffffffffffff82036117aa576117a961173e565b5b600182019050919050565b60006020820190506117ca6000830184611706565b92915050565b60006117db8261150f565b91506117e68361150f565b92508282019050808211156117fe576117fd61173e565b5b92915050565b7f4e487b7100000000000000000000000000000000000000000000000000000000600052601260045260246000fd5b600061183e8261150f565b91506118498361150f565b92508261185957611858611804565b5b828206905092915050565b600061186f8261150f565b915061187a8361150f565b92508282039050818111156118925761189161173e565b5b92915050565b60006118a38261150f565b91506118ae8361150f565b92508282026118bc8161150f565b915082820484148315176118d3576118d261173e565b5b5092915050565b60006060820190506118ef6000830186611572565b6118fc6020830185611706565b6119096040830184611572565b949350505050565b600061191c8261150f565b91506119278361150f565b92508261193757611936611804565b5b82820490509291505056fea2646970667358221220a13642cad4a9ea4f8b2010507f1c91fd2f517f695eb9760dccf4b4a8fc5dd81e64736f6c63430008110033",
  "immutableReferences": {},
  "source": "// SPDX-License-Identifier: MIT\n\npragma solidity >=0.8.2 <0.9.0;\n\nerror LowFunds(address adr, uint256 balance);\nerror NotAdmin(address adr);\nerror GameOver();\nerror Yourself(address adr);\nerror Check(uint256 num);\n\ncontract standards {\n    address private admin;\n\n    constructor() {\n        admin = msg.sender;\n    }\n\n    function withdraw() external {\n        if (msg.sender == admin) {\n            payable(admin).transfer(address(this).balance);\n        }\n    }\n}\n\ncontract HI_LO is standards {\n    event Log(uint256 cs, address from, uint256 time);\n\n    uint256 fee;\n    uint256 min;\n    uint256 t;\n    uint256 public g;\n\n    struct Game {\n        uint256 id;\n        uint256 value;\n        address payable owner;\n        uint256 t0;\n        bool c0; // 1 lo // 2 hi\n        address payable opponent;\n        uint256 t1;\n        bool c1; // 1 lo // 2 hi\n        uint256 state; // 0 invalid // 1 created // 2 played // 3 finished\n        uint256 result;\n    }\n\n    mapping(uint256 => Game) public games;\n    mapping(address => uint256) private myGames;\n    mapping(address => mapping(uint256 => Game)) public myGame;\n    mapping(uint256 => bool) played;\n\n    constructor() {\n        t = 1 + (block.timestamp % 9);\n        fee = 25;\n        min = 1 * 10**15;\n        g = 1;\n    }\n\n    function setGame(bool _choice) external payable {\n        if (msg.value <= min) revert LowFunds(msg.sender, min);\n        (bool found, uint256 id) = _scanGames(msg.value, _choice);\n        if (found) {\n            // aggregated\n            Game memory game = games[id];\n            _play(game);\n        } else {\n            games[g] = Game(\n                g,\n                msg.value,\n                payable(msg.sender),\n                block.timestamp,\n                _choice,\n                payable(address(0)),\n                0,\n                !_choice,\n                1,\n                0\n            );\n            myGame[msg.sender][myGames[msg.sender]] = games[g];\n            myGames[msg.sender]++;\n            played[g] = false;\n            g++;\n        }\n    }\n\n    function _scanGames(uint256 _value, bool _choice)\n        internal\n        view\n        returns (bool find, uint256 id)\n    {\n        for (uint256 i; i < g; i++) {\n            if (\n                games[i].value == _value &&\n                games[i].owner != msg.sender &&\n                games[i].c0 != _choice &&\n                games[i].state == 1\n            ) {\n                find = true;\n                id = i;\n                i += g;\n            } else {\n                find = false;\n                id = 0;\n            }\n        }\n    }\n\n    function joinGame(uint256 _game) external payable {\n        Game memory game = games[_game];\n        if (msg.value < game.value) revert LowFunds(msg.sender, game.value);\n        if (game.state != 1) revert GameOver();\n        if (msg.sender == game.owner) revert Yourself(msg.sender);\n        _play(game);\n    }\n\n    function _play(Game memory _game) internal {\n        if (_game.state != 1 || _game.id >= g) revert GameOver();\n        _game.opponent = payable(msg.sender);\n        _game.t1 = block.timestamp;\n        _game.state = 2;\n        games[_game.id] = _game;\n        myGame[msg.sender][myGames[msg.sender]] = _game;\n        myGames[msg.sender]++;\n        uint256 x = (_game.t1 + t) % 9;\n        uint256 y = (_game.t0 + x) % 9;\n        uint256 checksum = ((t * x * y) + (block.timestamp - (t + x + y))) % 9;\n        emit Log(checksum, msg.sender, block.timestamp);\n        _game.result = checksum;\n        uint256 win = ((_game.value * 2) / 1000) * (1000 - fee);\n        _game.state = 3;\n        games[_game.id] = _game;\n        played[_game.id] = true;\n        if (_game.c0) {\n            if (checksum < 5) {\n                _game.owner.transfer(win);\n            }\n            // player 2 wins\n            else {\n                _game.opponent.transfer(win);\n            } // player 1 wins\n        } else {\n            // player 1 lo\n            if (checksum < 5) {\n                _game.opponent.transfer(win);\n            }\n            // player 1 wins\n            else {\n                _game.owner.transfer(win);\n            } // player 2 wins\n        }\n    }\n}\n",
  "sourcePath": "/Users/iii6/Documents/GitHub/Gamble360/contracts/gamble360/HI_LO.sol",
  "compiler": {
    "name": "solc",
    "version": "0.8.17+commit.8df45f5f.Emscripten.clang"
  },
  "schemaVersion": "3.4.8",
  "updatedAt": "2023-04-02T20:32:28.297Z",
  "networkType": "ethereum",
  "devdoc": {
    "kind": "dev",
    "methods": {},
    "version": 1
  },
  "userdoc": {
    "kind": "user",
    "methods": {},
    "version": 1
  }
}