{
  "contractName": "HI_LO",
  "abi": [
    {
      "inputs": [],
      "stateMutability": "nonpayable",
      "type": "constructor"
    },
    {
      "inputs": [],
      "name": "GameOver",
      "type": "error"
    },
    {
      "inputs": [
        {
          "internalType": "address",
          "name": "adr",
          "type": "address"
        },
        {
          "internalType": "uint256",
          "name": "balance",
          "type": "uint256"
        }
      ],
      "name": "LowFunds",
      "type": "error"
    },
    {
      "inputs": [
        {
          "internalType": "address",
          "name": "adr",
          "type": "address"
        }
      ],
      "name": "Yourself",
      "type": "error"
    },
    {
      "anonymous": false,
      "inputs": [
        {
          "indexed": false,
          "internalType": "uint256",
          "name": "cs",
          "type": "uint256"
        },
        {
          "indexed": false,
          "internalType": "address",
          "name": "from",
          "type": "address"
        },
        {
          "indexed": false,
          "internalType": "uint256",
          "name": "time",
          "type": "uint256"
        }
      ],
      "name": "Log",
      "type": "event"
    },
    {
      "inputs": [],
      "name": "g",
      "outputs": [
        {
          "internalType": "uint256",
          "name": "",
          "type": "uint256"
        }
      ],
      "stateMutability": "view",
      "type": "function",
      "constant": true
    },
    {
      "inputs": [
        {
          "internalType": "uint256",
          "name": "",
          "type": "uint256"
        }
      ],
      "name": "games",
      "outputs": [
        {
          "internalType": "uint256",
          "name": "id",
          "type": "uint256"
        },
        {
          "internalType": "uint256",
          "name": "value",
          "type": "uint256"
        },
        {
          "internalType": "address payable",
          "name": "owner",
          "type": "address"
        },
        {
          "internalType": "uint256",
          "name": "t0",
          "type": "uint256"
        },
        {
          "internalType": "bool",
          "name": "c0",
          "type": "bool"
        },
        {
          "internalType": "address payable",
          "name": "opponent",
          "type": "address"
        },
        {
          "internalType": "uint256",
          "name": "t1",
          "type": "uint256"
        },
        {
          "internalType": "bool",
          "name": "c1",
          "type": "bool"
        },
        {
          "internalType": "uint256",
          "name": "state",
          "type": "uint256"
        },
        {
          "internalType": "uint256",
          "name": "result",
          "type": "uint256"
        }
      ],
      "stateMutability": "view",
      "type": "function",
      "constant": true
    },
    {
      "inputs": [
        {
          "internalType": "address",
          "name": "",
          "type": "address"
        },
        {
          "internalType": "uint256",
          "name": "",
          "type": "uint256"
        }
      ],
      "name": "myGame",
      "outputs": [
        {
          "internalType": "uint256",
          "name": "id",
          "type": "uint256"
        },
        {
          "internalType": "uint256",
          "name": "value",
          "type": "uint256"
        },
        {
          "internalType": "address payable",
          "name": "owner",
          "type": "address"
        },
        {
          "internalType": "uint256",
          "name": "t0",
          "type": "uint256"
        },
        {
          "internalType": "bool",
          "name": "c0",
          "type": "bool"
        },
        {
          "internalType": "address payable",
          "name": "opponent",
          "type": "address"
        },
        {
          "internalType": "uint256",
          "name": "t1",
          "type": "uint256"
        },
        {
          "internalType": "bool",
          "name": "c1",
          "type": "bool"
        },
        {
          "internalType": "uint256",
          "name": "state",
          "type": "uint256"
        },
        {
          "internalType": "uint256",
          "name": "result",
          "type": "uint256"
        }
      ],
      "stateMutability": "view",
      "type": "function",
      "constant": true
    },
    {
      "inputs": [
        {
          "internalType": "address",
          "name": "",
          "type": "address"
        }
      ],
      "name": "myGames",
      "outputs": [
        {
          "internalType": "uint256",
          "name": "",
          "type": "uint256"
        }
      ],
      "stateMutability": "view",
      "type": "function",
      "constant": true
    },
    {
      "inputs": [
        {
          "internalType": "uint256",
          "name": "",
          "type": "uint256"
        }
      ],
      "name": "played",
      "outputs": [
        {
          "internalType": "bool",
          "name": "",
          "type": "bool"
        }
      ],
      "stateMutability": "view",
      "type": "function",
      "constant": true
    },
    {
      "inputs": [],
      "name": "withdraw",
      "outputs": [],
      "stateMutability": "nonpayable",
      "type": "function"
    },
    {
      "inputs": [
        {
          "internalType": "bool",
          "name": "_choice",
          "type": "bool"
        }
      ],
      "name": "setGame",
      "outputs": [],
      "stateMutability": "payable",
      "type": "function",
      "payable": true
    },
    {
      "inputs": [
        {
          "internalType": "uint256",
          "name": "_game",
          "type": "uint256"
        }
      ],
      "name": "joinGame",
      "outputs": [],
      "stateMutability": "payable",
      "type": "function",
      "payable": true
    }
  ],
  "bytecode": "0x60806040523480156200001157600080fd5b50336000806101000a81548173ffffffffffffffffffffffffffffffffffffffff021916908373ffffffffffffffffffffffffffffffffffffffff160217905550600942620000619190620000d2565b60016200006f919062000139565b600381905550601960018190555066038d7ea4c68000600281905550600160048190555062000174565b6000819050919050565b7f4e487b7100000000000000000000000000000000000000000000000000000000600052601260045260246000fd5b6000620000df8262000099565b9150620000ec8362000099565b925082620000ff57620000fe620000a3565b5b828206905092915050565b7f4e487b7100000000000000000000000000000000000000000000000000000000600052601160045260246000fd5b6000620001468262000099565b9150620001538362000099565b92508282019050808211156200016e576200016d6200010a565b5b92915050565b611a9880620001846000396000f3fe60806040526004361061007b5760003560e01c8063725c62cd1161004e578063725c62cd14610136578063e2179b8e1461017c578063eaf83826146101a7578063efaa55a0146101e45761007b565b8063112b2b0714610080578063117a5b901461009c5780633a245f3d146100e25780633ccfd60b1461011f575b600080fd5b61009a600480360381019061009591906115ba565b610200565b005b3480156100a857600080fd5b506100c360048036038101906100be919061161d565b6107fe565b6040516100d99a999897969594939291906116a9565b60405180910390f35b3480156100ee57600080fd5b506101096004803603810190610104919061161d565b6108ac565b6040516101169190611745565b60405180910390f35b34801561012b57600080fd5b506101346108cc565b005b34801561014257600080fd5b5061015d6004803603810190610158919061179e565b610989565b6040516101739a999897969594939291906116a9565b60405180910390f35b34801561018857600080fd5b50610191610a44565b60405161019e91906117de565b60405180910390f35b3480156101b357600080fd5b506101ce60048036038101906101c991906117f9565b610a4a565b6040516101db91906117de565b60405180910390f35b6101fe60048036038101906101f9919061161d565b610a62565b005b600254341161024a57336002546040517f96f756fd000000000000000000000000000000000000000000000000000000008152600401610241929190611835565b60405180910390fd5b6000806102573484610cb2565b9150915081156103b1576000600560008381526020019081526020016000206040518061014001604052908160008201548152602001600182015481526020016002820160009054906101000a900473ffffffffffffffffffffffffffffffffffffffff1673ffffffffffffffffffffffffffffffffffffffff1673ffffffffffffffffffffffffffffffffffffffff168152602001600382015481526020016004820160009054906101000a900460ff161515151581526020016004820160019054906101000a900473ffffffffffffffffffffffffffffffffffffffff1673ffffffffffffffffffffffffffffffffffffffff1673ffffffffffffffffffffffffffffffffffffffff168152602001600582015481526020016006820160009054906101000a900460ff161515151581526020016007820154815260200160088201548152505090506103ab81610de3565b506107f9565b60405180610140016040528060045481526020013481526020013373ffffffffffffffffffffffffffffffffffffffff1681526020014281526020018415158152602001600073ffffffffffffffffffffffffffffffffffffffff16815260200160008152602001841515158152602001600181526020016000815250600560006004548152602001908152602001600020600082015181600001556020820151816001015560408201518160020160006101000a81548173ffffffffffffffffffffffffffffffffffffffff021916908373ffffffffffffffffffffffffffffffffffffffff1602179055506060820151816003015560808201518160040160006101000a81548160ff02191690831515021790555060a08201518160040160016101000a81548173ffffffffffffffffffffffffffffffffffffffff021916908373ffffffffffffffffffffffffffffffffffffffff16021790555060c0820151816005015560e08201518160060160006101000a81548160ff02191690831515021790555061010082015181600701556101208201518160080155905050600560006004548152602001908152602001600020600760003373ffffffffffffffffffffffffffffffffffffffff1673ffffffffffffffffffffffffffffffffffffffff1681526020019081526020016000206000600660003373ffffffffffffffffffffffffffffffffffffffff1673ffffffffffffffffffffffffffffffffffffffff16815260200190815260200160002054815260200190815260200160002060008201548160000155600182015481600101556002820160009054906101000a900473ffffffffffffffffffffffffffffffffffffffff168160020160006101000a81548173ffffffffffffffffffffffffffffffffffffffff021916908373ffffffffffffffffffffffffffffffffffffffff160217905550600382015481600301556004820160009054906101000a900460ff168160040160006101000a81548160ff0219169083151502179055506004820160019054906101000a900473ffffffffffffffffffffffffffffffffffffffff168160040160016101000a81548173ffffffffffffffffffffffffffffffffffffffff021916908373ffffffffffffffffffffffffffffffffffffffff160217905550600582015481600501556006820160009054906101000a900460ff168160060160006101000a81548160ff0219169083151502179055506007820154816007015560088201548160080155905050600660003373ffffffffffffffffffffffffffffffffffffffff1673ffffffffffffffffffffffffffffffffffffffff16815260200190815260200160002060008154809291906107ad9061188d565b9190505550600060086000600454815260200190815260200160002060006101000a81548160ff021916908315150217905550600460008154809291906107f39061188d565b91905055505b505050565b60056020528060005260406000206000915090508060000154908060010154908060020160009054906101000a900473ffffffffffffffffffffffffffffffffffffffff16908060030154908060040160009054906101000a900460ff16908060040160019054906101000a900473ffffffffffffffffffffffffffffffffffffffff16908060050154908060060160009054906101000a900460ff1690806007015490806008015490508a565b60086020528060005260406000206000915054906101000a900460ff1681565b60008054906101000a900473ffffffffffffffffffffffffffffffffffffffff1673ffffffffffffffffffffffffffffffffffffffff163373ffffffffffffffffffffffffffffffffffffffff16036109875760008054906101000a900473ffffffffffffffffffffffffffffffffffffffff1673ffffffffffffffffffffffffffffffffffffffff166108fc479081150290604051600060405180830381858888f19350505050158015610985573d6000803e3d6000fd5b505b565b6007602052816000526040600020602052806000526040600020600091509150508060000154908060010154908060020160009054906101000a900473ffffffffffffffffffffffffffffffffffffffff16908060030154908060040160009054906101000a900460ff16908060040160019054906101000a900473ffffffffffffffffffffffffffffffffffffffff16908060050154908060060160009054906101000a900460ff1690806007015490806008015490508a565b60045481565b60066020528060005260406000206000915090505481565b6000600560008381526020019081526020016000206040518061014001604052908160008201548152602001600182015481526020016002820160009054906101000a900473ffffffffffffffffffffffffffffffffffffffff1673ffffffffffffffffffffffffffffffffffffffff1673ffffffffffffffffffffffffffffffffffffffff168152602001600382015481526020016004820160009054906101000a900460ff161515151581526020016004820160019054906101000a900473ffffffffffffffffffffffffffffffffffffffff1673ffffffffffffffffffffffffffffffffffffffff1673ffffffffffffffffffffffffffffffffffffffff168152602001600582015481526020016006820160009054906101000a900460ff161515151581526020016007820154815260200160088201548152505090508060200151341015610bf2573381602001516040517f96f756fd000000000000000000000000000000000000000000000000000000008152600401610be9929190611835565b60405180910390fd5b600181610100015114610c31576040517fdf469ccb00000000000000000000000000000000000000000000000000000000815260040160405180910390fd5b806040015173ffffffffffffffffffffffffffffffffffffffff163373ffffffffffffffffffffffffffffffffffffffff1603610ca557336040517f633df725000000000000000000000000000000000000000000000000000000008152600401610c9c91906118d5565b60405180910390fd5b610cae81610de3565b5050565b60008060005b600454811015610ddb57846005600083815260200190815260200160002060010154148015610d4957503373ffffffffffffffffffffffffffffffffffffffff166005600083815260200190815260200160002060020160009054906101000a900473ffffffffffffffffffffffffffffffffffffffff1673ffffffffffffffffffffffffffffffffffffffff1614155b8015610d7c57508315156005600083815260200190815260200160002060040160009054906101000a900460ff16151514155b8015610d9e575060016005600083815260200190815260200160002060070154145b15610dbf576001925080915060045481610db891906118f0565b9050610dc8565b60009250600091505b8080610dd39061188d565b915050610cb8565b509250929050565b6001816101000151141580610dfe5750600454816000015110155b15610e35576040517fdf469ccb00000000000000000000000000000000000000000000000000000000815260040160405180910390fd5b338160a0019073ffffffffffffffffffffffffffffffffffffffff16908173ffffffffffffffffffffffffffffffffffffffff1681525050428160c0018181525050600281610100018181525050806005600083600001518152602001908152602001600020600082015181600001556020820151816001015560408201518160020160006101000a81548173ffffffffffffffffffffffffffffffffffffffff021916908373ffffffffffffffffffffffffffffffffffffffff1602179055506060820151816003015560808201518160040160006101000a81548160ff02191690831515021790555060a08201518160040160016101000a81548173ffffffffffffffffffffffffffffffffffffffff021916908373ffffffffffffffffffffffffffffffffffffffff16021790555060c0820151816005015560e08201518160060160006101000a81548160ff0219169083151502179055506101008201518160070155610120820151816008015590505080600760003373ffffffffffffffffffffffffffffffffffffffff1673ffffffffffffffffffffffffffffffffffffffff1681526020019081526020016000206000600660003373ffffffffffffffffffffffffffffffffffffffff1673ffffffffffffffffffffffffffffffffffffffff168152602001908152602001600020548152602001908152602001600020600082015181600001556020820151816001015560408201518160020160006101000a81548173ffffffffffffffffffffffffffffffffffffffff021916908373ffffffffffffffffffffffffffffffffffffffff1602179055506060820151816003015560808201518160040160006101000a81548160ff02191690831515021790555060a08201518160040160016101000a81548173ffffffffffffffffffffffffffffffffffffffff021916908373ffffffffffffffffffffffffffffffffffffffff16021790555060c0820151816005015560e08201518160060160006101000a81548160ff02191690831515021790555061010082015181600701556101208201518160080155905050600660003373ffffffffffffffffffffffffffffffffffffffff1673ffffffffffffffffffffffffffffffffffffffff16815260200190815260200160002060008154809291906111999061188d565b9190505550600060096003548360c001516111b491906118f0565b6111be9190611953565b9050600060098284606001516111d491906118f0565b6111de9190611953565b90506000600982846003546111f391906118f0565b6111fd91906118f0565b426112089190611984565b838560035461121791906119b8565b61122191906119b8565b61122b91906118f0565b6112359190611953565b90507f7612d5f812e5c2765b39f04d21c4a29667b2e2b278ad3777e490190de6c99a3581334260405161126a939291906119fa565b60405180910390a1808461012001818152505060006001546103e861128f9190611984565b6103e8600287602001516112a391906119b8565b6112ad9190611a31565b6112b791906119b8565b9050600385610100018181525050846005600087600001518152602001908152602001600020600082015181600001556020820151816001015560408201518160020160006101000a81548173ffffffffffffffffffffffffffffffffffffffff021916908373ffffffffffffffffffffffffffffffffffffffff1602179055506060820151816003015560808201518160040160006101000a81548160ff02191690831515021790555060a08201518160040160016101000a81548173ffffffffffffffffffffffffffffffffffffffff021916908373ffffffffffffffffffffffffffffffffffffffff16021790555060c0820151816005015560e08201518160060160006101000a81548160ff021916908315150217905550610100820151816007015561012082015181600801559050506001600860008760000151815260200190815260200160002060006101000a81548160ff0219169083151502179055508460800151156114d057600582101561147f57846040015173ffffffffffffffffffffffffffffffffffffffff166108fc829081150290604051600060405180830381858888f19350505050158015611479573d6000803e3d6000fd5b506114cb565b8460a0015173ffffffffffffffffffffffffffffffffffffffff166108fc829081150290604051600060405180830381858888f193505050501580156114c9573d6000803e3d6000fd5b505b611576565b6005821015611529578460a0015173ffffffffffffffffffffffffffffffffffffffff166108fc829081150290604051600060405180830381858888f19350505050158015611523573d6000803e3d6000fd5b50611575565b846040015173ffffffffffffffffffffffffffffffffffffffff166108fc829081150290604051600060405180830381858888f19350505050158015611573573d6000803e3d6000fd5b505b5b5050505050565b600080fd5b60008115159050919050565b61159781611582565b81146115a257600080fd5b50565b6000813590506115b48161158e565b92915050565b6000602082840312156115d0576115cf61157d565b5b60006115de848285016115a5565b91505092915050565b6000819050919050565b6115fa816115e7565b811461160557600080fd5b50565b600081359050611617816115f1565b92915050565b6000602082840312156116335761163261157d565b5b600061164184828501611608565b91505092915050565b611653816115e7565b82525050565b600073ffffffffffffffffffffffffffffffffffffffff82169050919050565b600061168482611659565b9050919050565b61169481611679565b82525050565b6116a381611582565b82525050565b6000610140820190506116bf600083018d61164a565b6116cc602083018c61164a565b6116d9604083018b61168b565b6116e6606083018a61164a565b6116f3608083018961169a565b61170060a083018861168b565b61170d60c083018761164a565b61171a60e083018661169a565b61172861010083018561164a565b61173661012083018461164a565b9b9a5050505050505050505050565b600060208201905061175a600083018461169a565b92915050565b600061176b82611659565b9050919050565b61177b81611760565b811461178657600080fd5b50565b60008135905061179881611772565b92915050565b600080604083850312156117b5576117b461157d565b5b60006117c385828601611789565b92505060206117d485828601611608565b9150509250929050565b60006020820190506117f3600083018461164a565b92915050565b60006020828403121561180f5761180e61157d565b5b600061181d84828501611789565b91505092915050565b61182f81611760565b82525050565b600060408201905061184a6000830185611826565b611857602083018461164a565b9392505050565b7f4e487b7100000000000000000000000000000000000000000000000000000000600052601160045260246000fd5b6000611898826115e7565b91507fffffffffffffffffffffffffffffffffffffffffffffffffffffffffffffffff82036118ca576118c961185e565b5b600182019050919050565b60006020820190506118ea6000830184611826565b92915050565b60006118fb826115e7565b9150611906836115e7565b925082820190508082111561191e5761191d61185e565b5b92915050565b7f4e487b7100000000000000000000000000000000000000000000000000000000600052601260045260246000fd5b600061195e826115e7565b9150611969836115e7565b92508261197957611978611924565b5b828206905092915050565b600061198f826115e7565b915061199a836115e7565b92508282039050818111156119b2576119b161185e565b5b92915050565b60006119c3826115e7565b91506119ce836115e7565b92508282026119dc816115e7565b915082820484148315176119f3576119f261185e565b5b5092915050565b6000606082019050611a0f600083018661164a565b611a1c6020830185611826565b611a29604083018461164a565b949350505050565b6000611a3c826115e7565b9150611a47836115e7565b925082611a5757611a56611924565b5b82820490509291505056fea2646970667358221220139ea9bfa7a746f37a4f83697eccf37a1eba41dabb623a81d54b730c4f49e80964736f6c63430008110033",
  "immutableReferences": {},
  "source": "// SPDX-License-Identifier: MIT\n\npragma solidity >=0.8.2 <0.9.0;\n\nerror LowFunds(address adr, uint256 balance);\nerror NotAdmin(address adr);\nerror GameOver();\nerror Yourself(address adr);\nerror Check(uint256 num);\n\ncontract standards {\n    address private admin;\n\n    constructor() {\n        admin = msg.sender;\n    }\n\n    function withdraw() external {\n        if (msg.sender == admin) {\n            payable(admin).transfer(address(this).balance);\n        }\n    }\n}\n\ncontract HI_LO is standards {\n    event Log(uint256 cs, address from, uint256 time);\n\n    uint256 fee;\n    uint256 min;\n    uint256 t;\n    uint256 public g;\n\n    struct Game {\n        uint256 id;\n        uint256 value;\n        address payable owner;\n        uint256 t0;\n        bool c0; // 1 lo // 2 hi\n        address payable opponent;\n        uint256 t1;\n        bool c1; // 1 lo // 2 hi\n        uint256 state; // 0 invalid // 1 created // 2 played // 3 finished\n        uint256 result;\n    }\n\n    mapping(uint256 => Game) public games;\n    mapping(address => uint256) public myGames;\n    mapping(address => mapping(uint256 => Game)) public myGame;\n    mapping(uint256 => bool) public played;\n\n    constructor() {\n        t = 1 + (block.timestamp % 9);\n        fee = 25;\n        min = 1 * 10**15;\n        g = 1;\n    }\n\n    function setGame(bool _choice) external payable {\n        if (msg.value <= min) revert LowFunds(msg.sender, min);\n        (bool found, uint256 id) = _scanGames(msg.value, _choice);\n        if (found) {\n            // aggregated\n            Game memory game = games[id];\n            _play(game);\n        } else {\n            games[g] = Game(\n                g,\n                msg.value,\n                payable(msg.sender),\n                block.timestamp,\n                _choice,\n                payable(address(0)),\n                0,\n                !_choice,\n                1,\n                0\n            );\n            myGame[msg.sender][myGames[msg.sender]] = games[g];\n            myGames[msg.sender]++;\n            played[g] = false;\n            g++;\n        }\n    }\n\n    function _scanGames(uint256 _value, bool _choice)\n        internal\n        view\n        returns (bool find, uint256 id)\n    {\n        for (uint256 i; i < g; i++) {\n            if (\n                games[i].value == _value &&\n                games[i].owner != msg.sender &&\n                games[i].c0 != _choice &&\n                games[i].state == 1\n            ) {\n                find = true;\n                id = i;\n                i += g;\n            } else {\n                find = false;\n                id = 0;\n            }\n        }\n    }\n\n    function joinGame(uint256 _game) external payable {\n        Game memory game = games[_game];\n        if (msg.value < game.value) revert LowFunds(msg.sender, game.value);\n        if (game.state != 1) revert GameOver();\n        if (msg.sender == game.owner) revert Yourself(msg.sender);\n        _play(game);\n    }\n\n    function _play(Game memory _game) internal {\n        if (_game.state != 1 || _game.id >= g) revert GameOver();\n        _game.opponent = payable(msg.sender);\n        _game.t1 = block.timestamp;\n        _game.state = 2;\n        games[_game.id] = _game;\n        myGame[msg.sender][myGames[msg.sender]] = _game;\n        myGames[msg.sender]++;\n        uint256 x = (_game.t1 + t) % 9;\n        uint256 y = (_game.t0 + x) % 9;\n        uint256 checksum = ((t * x * y) + (block.timestamp - (t + x + y))) % 9;\n        emit Log(checksum, msg.sender, block.timestamp);\n        _game.result = checksum;\n        uint256 win = ((_game.value * 2) / 1000) * (1000 - fee);\n        _game.state = 3;\n        games[_game.id] = _game;\n        played[_game.id] = true;\n        if (_game.c0) {\n            if (checksum < 5) {\n                _game.owner.transfer(win);\n            }\n            // player 2 wins\n            else {\n                _game.opponent.transfer(win);\n            } // player 1 wins\n        } else {\n            // player 1 lo\n            if (checksum < 5) {\n                _game.opponent.transfer(win);\n            }\n            // player 1 wins\n            else {\n                _game.owner.transfer(win);\n            } // player 2 wins\n        }\n    }\n}\n",
  "sourcePath": "/Users/iii6/Documents/GitHub/Gamble360/contracts/gamble360/HI_LO.sol",
  "compiler": {
    "name": "solc",
    "version": "0.8.17+commit.8df45f5f.Emscripten.clang"
  },
  "schemaVersion": "3.4.8",
  "updatedAt": "2023-04-03T15:54:47.643Z",
  "networkType": "ethereum",
  "devdoc": {
    "kind": "dev",
    "methods": {},
    "version": 1
  },
  "userdoc": {
    "kind": "user",
    "methods": {},
    "version": 1
  }
}