{
  "contractName": "ICE",
  "abi": [
    {
      "inputs": [],
      "stateMutability": "nonpayable",
      "type": "constructor"
    },
    {
      "anonymous": false,
      "inputs": [
        {
          "indexed": true,
          "internalType": "address",
          "name": "owner",
          "type": "address"
        },
        {
          "indexed": true,
          "internalType": "address",
          "name": "spender",
          "type": "address"
        },
        {
          "indexed": false,
          "internalType": "uint256",
          "name": "value",
          "type": "uint256"
        }
      ],
      "name": "Approval",
      "type": "event"
    },
    {
      "anonymous": false,
      "inputs": [
        {
          "indexed": true,
          "internalType": "address",
          "name": "from",
          "type": "address"
        },
        {
          "indexed": true,
          "internalType": "address",
          "name": "to",
          "type": "address"
        },
        {
          "indexed": false,
          "internalType": "uint256",
          "name": "value",
          "type": "uint256"
        }
      ],
      "name": "Transfer",
      "type": "event"
    },
    {
      "inputs": [
        {
          "internalType": "address",
          "name": "owner",
          "type": "address"
        },
        {
          "internalType": "address",
          "name": "spender",
          "type": "address"
        }
      ],
      "name": "allowance",
      "outputs": [
        {
          "internalType": "uint256",
          "name": "",
          "type": "uint256"
        }
      ],
      "stateMutability": "view",
      "type": "function"
    },
    {
      "inputs": [
        {
          "internalType": "address",
          "name": "spender",
          "type": "address"
        },
        {
          "internalType": "uint256",
          "name": "amount",
          "type": "uint256"
        }
      ],
      "name": "approve",
      "outputs": [
        {
          "internalType": "bool",
          "name": "",
          "type": "bool"
        }
      ],
      "stateMutability": "nonpayable",
      "type": "function"
    },
    {
      "inputs": [
        {
          "internalType": "address",
          "name": "account",
          "type": "address"
        }
      ],
      "name": "balanceOf",
      "outputs": [
        {
          "internalType": "uint256",
          "name": "",
          "type": "uint256"
        }
      ],
      "stateMutability": "view",
      "type": "function"
    },
    {
      "inputs": [],
      "name": "decimals",
      "outputs": [
        {
          "internalType": "uint8",
          "name": "",
          "type": "uint8"
        }
      ],
      "stateMutability": "view",
      "type": "function"
    },
    {
      "inputs": [
        {
          "internalType": "address",
          "name": "spender",
          "type": "address"
        },
        {
          "internalType": "uint256",
          "name": "subtractedValue",
          "type": "uint256"
        }
      ],
      "name": "decreaseAllowance",
      "outputs": [
        {
          "internalType": "bool",
          "name": "",
          "type": "bool"
        }
      ],
      "stateMutability": "nonpayable",
      "type": "function"
    },
    {
      "inputs": [],
      "name": "digits",
      "outputs": [
        {
          "internalType": "uint256",
          "name": "",
          "type": "uint256"
        }
      ],
      "stateMutability": "view",
      "type": "function"
    },
    {
      "inputs": [
        {
          "internalType": "address",
          "name": "spender",
          "type": "address"
        },
        {
          "internalType": "uint256",
          "name": "addedValue",
          "type": "uint256"
        }
      ],
      "name": "increaseAllowance",
      "outputs": [
        {
          "internalType": "bool",
          "name": "",
          "type": "bool"
        }
      ],
      "stateMutability": "nonpayable",
      "type": "function"
    },
    {
      "inputs": [],
      "name": "name",
      "outputs": [
        {
          "internalType": "string",
          "name": "",
          "type": "string"
        }
      ],
      "stateMutability": "view",
      "type": "function"
    },
    {
      "inputs": [],
      "name": "price",
      "outputs": [
        {
          "internalType": "uint256",
          "name": "",
          "type": "uint256"
        }
      ],
      "stateMutability": "view",
      "type": "function"
    },
    {
      "inputs": [],
      "name": "symbol",
      "outputs": [
        {
          "internalType": "string",
          "name": "",
          "type": "string"
        }
      ],
      "stateMutability": "view",
      "type": "function"
    },
    {
      "inputs": [],
      "name": "totalSupply",
      "outputs": [
        {
          "internalType": "uint256",
          "name": "",
          "type": "uint256"
        }
      ],
      "stateMutability": "view",
      "type": "function"
    },
    {
      "inputs": [
        {
          "internalType": "address",
          "name": "to",
          "type": "address"
        },
        {
          "internalType": "uint256",
          "name": "amount",
          "type": "uint256"
        }
      ],
      "name": "transfer",
      "outputs": [
        {
          "internalType": "bool",
          "name": "",
          "type": "bool"
        }
      ],
      "stateMutability": "nonpayable",
      "type": "function"
    },
    {
      "inputs": [
        {
          "internalType": "address",
          "name": "from",
          "type": "address"
        },
        {
          "internalType": "address",
          "name": "to",
          "type": "address"
        },
        {
          "internalType": "uint256",
          "name": "amount",
          "type": "uint256"
        }
      ],
      "name": "transferFrom",
      "outputs": [
        {
          "internalType": "bool",
          "name": "",
          "type": "bool"
        }
      ],
      "stateMutability": "nonpayable",
      "type": "function"
    },
    {
      "inputs": [
        {
          "internalType": "uint256",
          "name": "_amnt",
          "type": "uint256"
        },
        {
          "internalType": "address",
          "name": "_adr",
          "type": "address"
        }
      ],
      "name": "swap",
      "outputs": [
        {
          "internalType": "uint256",
          "name": "",
          "type": "uint256"
        }
      ],
      "stateMutability": "payable",
      "type": "function"
    },
    {
      "inputs": [
        {
          "internalType": "address",
          "name": "_adr",
          "type": "address"
        }
      ],
      "name": "earn",
      "outputs": [
        {
          "internalType": "bool",
          "name": "",
          "type": "bool"
        }
      ],
      "stateMutability": "nonpayable",
      "type": "function"
    }
  ],
  "bytecode": "0x60806040523480156200001157600080fd5b506040518060400160405280601781526020017f496e6372656469626c7920436f6f6c20457373656e63650000000000000000008152506040518060400160405280600381526020017f494345000000000000000000000000000000000000000000000000000000000081525081600390816200008f919062000365565b508060049081620000a1919062000365565b50505033600560006101000a81548173ffffffffffffffffffffffffffffffffffffffff021916908373ffffffffffffffffffffffffffffffffffffffff1602179055506200044c565b600081519050919050565b7f4e487b7100000000000000000000000000000000000000000000000000000000600052604160045260246000fd5b7f4e487b7100000000000000000000000000000000000000000000000000000000600052602260045260246000fd5b600060028204905060018216806200016d57607f821691505b60208210810362000183576200018262000125565b5b50919050565b60008190508160005260206000209050919050565b60006020601f8301049050919050565b600082821b905092915050565b600060088302620001ed7fffffffffffffffffffffffffffffffffffffffffffffffffffffffffffffffff82620001ae565b620001f98683620001ae565b95508019841693508086168417925050509392505050565b6000819050919050565b6000819050919050565b600062000246620002406200023a8462000211565b6200021b565b62000211565b9050919050565b6000819050919050565b620002628362000225565b6200027a62000271826200024d565b848454620001bb565b825550505050565b600090565b6200029162000282565b6200029e81848462000257565b505050565b5b81811015620002c657620002ba60008262000287565b600181019050620002a4565b5050565b601f8211156200031557620002df8162000189565b620002ea846200019e565b81016020851015620002fa578190505b6200031262000309856200019e565b830182620002a3565b50505b505050565b600082821c905092915050565b60006200033a600019846008026200031a565b1980831691505092915050565b600062000355838362000327565b9150826002028217905092915050565b6200037082620000eb565b67ffffffffffffffff8111156200038c576200038b620000f6565b5b62000398825462000154565b620003a5828285620002ca565b600060209050601f831160018114620003dd5760008415620003c8578287015190505b620003d4858262000347565b86555062000444565b601f198416620003ed8662000189565b60005b828110156200041757848901518255600182019150602085019450602081019050620003f0565b8683101562000437578489015162000433601f89168262000327565b8355505b6001600288020188555050505b505050505050565b611867806200045c6000396000f3fe6080604052600436106100e85760003560e01c806395d89b411161008a578063a9059cbb11610059578063a9059cbb14610320578063d3986f081461035d578063dd62ed3e1461038d578063fdb5fefc146103ca576100e8565b806395d89b41146102625780639e20437c1461028d578063a035b1fe146102b8578063a457c2d7146102e3576100e8565b806323b872dd116100c657806323b872dd14610180578063313ce567146101bd57806339509351146101e857806370a0823114610225576100e8565b806306fdde03146100ed578063095ea7b31461011857806318160ddd14610155575b600080fd5b3480156100f957600080fd5b50610102610407565b60405161010f9190610f1e565b60405180910390f35b34801561012457600080fd5b5061013f600480360381019061013a9190610fd9565b610499565b60405161014c9190611034565b60405180910390f35b34801561016157600080fd5b5061016a6104bc565b604051610177919061105e565b60405180910390f35b34801561018c57600080fd5b506101a760048036038101906101a29190611079565b6104c6565b6040516101b49190611034565b60405180910390f35b3480156101c957600080fd5b506101d26104f5565b6040516101df91906110e8565b60405180910390f35b3480156101f457600080fd5b5061020f600480360381019061020a9190610fd9565b6104fe565b60405161021c9190611034565b60405180910390f35b34801561023157600080fd5b5061024c60048036038101906102479190611103565b610535565b604051610259919061105e565b60405180910390f35b34801561026e57600080fd5b5061027761057d565b6040516102849190610f1e565b60405180910390f35b34801561029957600080fd5b506102a261060f565b6040516102af919061105e565b60405180910390f35b3480156102c457600080fd5b506102cd61061b565b6040516102da919061105e565b60405180910390f35b3480156102ef57600080fd5b5061030a60048036038101906103059190610fd9565b610640565b6040516103179190611034565b60405180910390f35b34801561032c57600080fd5b5061034760048036038101906103429190610fd9565b6106b7565b6040516103549190611034565b60405180910390f35b61037760048036038101906103729190611130565b6106da565b604051610384919061105e565b60405180910390f35b34801561039957600080fd5b506103b460048036038101906103af9190611170565b6107a1565b6040516103c1919061105e565b60405180910390f35b3480156103d657600080fd5b506103f160048036038101906103ec9190611103565b610828565b6040516103fe9190611034565b60405180910390f35b606060038054610416906111df565b80601f0160208091040260200160405190810160405280929190818152602001828054610442906111df565b801561048f5780601f106104645761010080835404028352916020019161048f565b820191906000526020600020905b81548152906001019060200180831161047257829003601f168201915b5050505050905090565b6000806104a4610846565b90506104b181858561084e565b600191505092915050565b6000600254905090565b6000806104d1610846565b90506104de858285610a17565b6104e9858585610aa3565b60019150509392505050565b60006012905090565b600080610509610846565b905061052a81858561051b85896107a1565b610525919061123f565b61084e565b600191505092915050565b60008060008373ffffffffffffffffffffffffffffffffffffffff1673ffffffffffffffffffffffffffffffffffffffff168152602001908152602001600020549050919050565b60606004805461058c906111df565b80601f01602080910402602001604051908101604052809291908181526020018280546105b8906111df565b80156106055780601f106105da57610100808354040283529160200191610605565b820191906000526020600020905b8154815290600101906020018083116105e857829003601f168201915b5050505050905090565b670de0b6b3a764000081565b612710670de0b6b3a764000060016106339190611273565b61063d91906112e4565b81565b60008061064b610846565b9050600061065982866107a1565b90508381101561069e576040517f08c379a000000000000000000000000000000000000000000000000000000000815260040161069590611387565b60405180910390fd5b6106ab828686840361084e565b60019250505092915050565b6000806106c2610846565b90506106cf818585610aa3565b600191505092915050565b6000600a831015610720576040517f08c379a0000000000000000000000000000000000000000000000000000000008152600401610717906113f3565b60405180910390fd5b82612710670de0b6b3a764000060016107399190611273565b61074391906112e4565b61074d9190611273565b34101561078f576040517f08c379a00000000000000000000000000000000000000000000000000000000081526004016107869061145f565b60405180910390fd5b6107998383610d19565b905092915050565b6000600160008473ffffffffffffffffffffffffffffffffffffffff1673ffffffffffffffffffffffffffffffffffffffff16815260200190815260200160002060008373ffffffffffffffffffffffffffffffffffffffff1673ffffffffffffffffffffffffffffffffffffffff16815260200190815260200160002054905092915050565b600061083c670de0b6b3a764000083610d19565b5060019050919050565b600033905090565b600073ffffffffffffffffffffffffffffffffffffffff168373ffffffffffffffffffffffffffffffffffffffff16036108bd576040517f08c379a00000000000000000000000000000000000000000000000000000000081526004016108b4906114f1565b60405180910390fd5b600073ffffffffffffffffffffffffffffffffffffffff168273ffffffffffffffffffffffffffffffffffffffff160361092c576040517f08c379a000000000000000000000000000000000000000000000000000000000815260040161092390611583565b60405180910390fd5b80600160008573ffffffffffffffffffffffffffffffffffffffff1673ffffffffffffffffffffffffffffffffffffffff16815260200190815260200160002060008473ffffffffffffffffffffffffffffffffffffffff1673ffffffffffffffffffffffffffffffffffffffff168152602001908152602001600020819055508173ffffffffffffffffffffffffffffffffffffffff168373ffffffffffffffffffffffffffffffffffffffff167f8c5be1e5ebec7d5bd14f71427d1e84f3dd0314c0f7b2291e5b200ac8c7c3b92583604051610a0a919061105e565b60405180910390a3505050565b6000610a2384846107a1565b90507fffffffffffffffffffffffffffffffffffffffffffffffffffffffffffffffff8114610a9d5781811015610a8f576040517f08c379a0000000000000000000000000000000000000000000000000000000008152600401610a86906115ef565b60405180910390fd5b610a9c848484840361084e565b5b50505050565b600073ffffffffffffffffffffffffffffffffffffffff168373ffffffffffffffffffffffffffffffffffffffff1603610b12576040517f08c379a0000000000000000000000000000000000000000000000000000000008152600401610b0990611681565b60405180910390fd5b600073ffffffffffffffffffffffffffffffffffffffff168273ffffffffffffffffffffffffffffffffffffffff1603610b81576040517f08c379a0000000000000000000000000000000000000000000000000000000008152600401610b7890611713565b60405180910390fd5b610b8c838383610d2e565b60008060008573ffffffffffffffffffffffffffffffffffffffff1673ffffffffffffffffffffffffffffffffffffffff16815260200190815260200160002054905081811015610c12576040517f08c379a0000000000000000000000000000000000000000000000000000000008152600401610c09906117a5565b60405180910390fd5b8181036000808673ffffffffffffffffffffffffffffffffffffffff1673ffffffffffffffffffffffffffffffffffffffff16815260200190815260200160002081905550816000808573ffffffffffffffffffffffffffffffffffffffff1673ffffffffffffffffffffffffffffffffffffffff168152602001908152602001600020600082825401925050819055508273ffffffffffffffffffffffffffffffffffffffff168473ffffffffffffffffffffffffffffffffffffffff167fddf252ad1be2c89b69c2b068fc378daa952ba7f163c4a11628f55a4df523b3ef84604051610d00919061105e565b60405180910390a3610d13848484610d33565b50505050565b6000610d258284610d38565b82905092915050565b505050565b505050565b600073ffffffffffffffffffffffffffffffffffffffff168273ffffffffffffffffffffffffffffffffffffffff1603610da7576040517f08c379a0000000000000000000000000000000000000000000000000000000008152600401610d9e90611811565b60405180910390fd5b610db360008383610d2e565b8060026000828254610dc5919061123f565b92505081905550806000808473ffffffffffffffffffffffffffffffffffffffff1673ffffffffffffffffffffffffffffffffffffffff168152602001908152602001600020600082825401925050819055508173ffffffffffffffffffffffffffffffffffffffff16600073ffffffffffffffffffffffffffffffffffffffff167fddf252ad1be2c89b69c2b068fc378daa952ba7f163c4a11628f55a4df523b3ef83604051610e76919061105e565b60405180910390a3610e8a60008383610d33565b5050565b600081519050919050565b600082825260208201905092915050565b60005b83811015610ec8578082015181840152602081019050610ead565b60008484015250505050565b6000601f19601f8301169050919050565b6000610ef082610e8e565b610efa8185610e99565b9350610f0a818560208601610eaa565b610f1381610ed4565b840191505092915050565b60006020820190508181036000830152610f388184610ee5565b905092915050565b600080fd5b600073ffffffffffffffffffffffffffffffffffffffff82169050919050565b6000610f7082610f45565b9050919050565b610f8081610f65565b8114610f8b57600080fd5b50565b600081359050610f9d81610f77565b92915050565b6000819050919050565b610fb681610fa3565b8114610fc157600080fd5b50565b600081359050610fd381610fad565b92915050565b60008060408385031215610ff057610fef610f40565b5b6000610ffe85828601610f8e565b925050602061100f85828601610fc4565b9150509250929050565b60008115159050919050565b61102e81611019565b82525050565b60006020820190506110496000830184611025565b92915050565b61105881610fa3565b82525050565b6000602082019050611073600083018461104f565b92915050565b60008060006060848603121561109257611091610f40565b5b60006110a086828701610f8e565b93505060206110b186828701610f8e565b92505060406110c286828701610fc4565b9150509250925092565b600060ff82169050919050565b6110e2816110cc565b82525050565b60006020820190506110fd60008301846110d9565b92915050565b60006020828403121561111957611118610f40565b5b600061112784828501610f8e565b91505092915050565b6000806040838503121561114757611146610f40565b5b600061115585828601610fc4565b925050602061116685828601610f8e565b9150509250929050565b6000806040838503121561118757611186610f40565b5b600061119585828601610f8e565b92505060206111a685828601610f8e565b9150509250929050565b7f4e487b7100000000000000000000000000000000000000000000000000000000600052602260045260246000fd5b600060028204905060018216806111f757607f821691505b60208210810361120a576112096111b0565b5b50919050565b7f4e487b7100000000000000000000000000000000000000000000000000000000600052601160045260246000fd5b600061124a82610fa3565b915061125583610fa3565b925082820190508082111561126d5761126c611210565b5b92915050565b600061127e82610fa3565b915061128983610fa3565b925082820261129781610fa3565b915082820484148315176112ae576112ad611210565b5b5092915050565b7f4e487b7100000000000000000000000000000000000000000000000000000000600052601260045260246000fd5b60006112ef82610fa3565b91506112fa83610fa3565b92508261130a576113096112b5565b5b828204905092915050565b7f45524332303a2064656372656173656420616c6c6f77616e63652062656c6f7760008201527f207a65726f000000000000000000000000000000000000000000000000000000602082015250565b6000611371602583610e99565b915061137c82611315565b604082019050919050565b600060208201905081810360008301526113a081611364565b9050919050565b7f4d494e494d554d20313020494345000000000000000000000000000000000000600082015250565b60006113dd600e83610e99565b91506113e8826113a7565b602082019050919050565b6000602082019050818103600083015261140c816113d0565b9050919050565b7f494e53554646494349454e542046554e44532050524f56494445440000000000600082015250565b6000611449601b83610e99565b915061145482611413565b602082019050919050565b600060208201905081810360008301526114788161143c565b9050919050565b7f45524332303a20617070726f76652066726f6d20746865207a65726f2061646460008201527f7265737300000000000000000000000000000000000000000000000000000000602082015250565b60006114db602483610e99565b91506114e68261147f565b604082019050919050565b6000602082019050818103600083015261150a816114ce565b9050919050565b7f45524332303a20617070726f766520746f20746865207a65726f20616464726560008201527f7373000000000000000000000000000000000000000000000000000000000000602082015250565b600061156d602283610e99565b915061157882611511565b604082019050919050565b6000602082019050818103600083015261159c81611560565b9050919050565b7f45524332303a20696e73756666696369656e7420616c6c6f77616e6365000000600082015250565b60006115d9601d83610e99565b91506115e4826115a3565b602082019050919050565b60006020820190508181036000830152611608816115cc565b9050919050565b7f45524332303a207472616e736665722066726f6d20746865207a65726f20616460008201527f6472657373000000000000000000000000000000000000000000000000000000602082015250565b600061166b602583610e99565b91506116768261160f565b604082019050919050565b6000602082019050818103600083015261169a8161165e565b9050919050565b7f45524332303a207472616e7366657220746f20746865207a65726f206164647260008201527f6573730000000000000000000000000000000000000000000000000000000000602082015250565b60006116fd602383610e99565b9150611708826116a1565b604082019050919050565b6000602082019050818103600083015261172c816116f0565b9050919050565b7f45524332303a207472616e7366657220616d6f756e742065786365656473206260008201527f616c616e63650000000000000000000000000000000000000000000000000000602082015250565b600061178f602683610e99565b915061179a82611733565b604082019050919050565b600060208201905081810360008301526117be81611782565b9050919050565b7f45524332303a206d696e7420746f20746865207a65726f206164647265737300600082015250565b60006117fb601f83610e99565b9150611806826117c5565b602082019050919050565b6000602082019050818103600083015261182a816117ee565b905091905056fea26469706673582212201c8226bb1e7a88d8d6ff2ef4bcb62c3c9131ef5b2dbaaa446ca4fe4c6a9b544f64736f6c63430008110033",
  "immutableReferences": {},
  "source": "// SPDX-License-Identifier: MIT\n\n// MAINNET CONTRACT ADDRESSES\n\n// GL :: 0xecE922B118eEd554Fb9d3318a81FecB8C8D1bD95\n// ICE :: 0x890b24d94075B743a89171E5b8A2d9B9049eBf36\n// FROOT :: 0xb2330f3836799B36F0be49Df1043C62d30253479\n\n// TESTNET CONTRACT ADDRESSES\n\n// GREENLIST :: 0x0f6ee895f93a0525747DdD7c5c177fF65DBD7454\n// ICE :: 0xec09faf4b1c6F198cFF1535800d55123C8C848bE :: ERC20\n// FROOTYCOOLTINGS :: 0x069BF09A8EDb8C1b3AC7f62bA57C601DBaCc6747 :: ERC721\n\npragma solidity ^0.8.10;\n\nimport \"@openzeppelin/contracts/token/ERC20/ERC20.sol\";\nimport \"@openzeppelin/contracts/token/ERC721/ERC721.sol\";\n\ncontract Greenlist {\n    address public admin;\n\n    uint256 public l;\n    uint256 public max;\n    string public message;\n    uint256 public stamp;\n    FrootyCoolTingz public FCT;\n    mapping(address => bool) public isListed;\n    address[1234] public users;\n    modifier notListed(address _adr) {\n        require(isListed[_adr] == false, \"already listed\");\n        _;\n    }\n\n    constructor() {\n        admin = msg.sender;\n        // isListed[msg.sender] = true; // OFF ON TESTNET\n        // users[0] = msg.sender;\n        message = \"BE FRESH MY FRUITY FRENZ !\";\n        // l = 1; // Mainnet\n        // max = 1234; // Mainnet\n        l = 0; // Testnet\n        max = 1; // Testnet\n    }\n\n    function setFCT(address _fct) external returns (bool) {\n        FCT = FrootyCoolTingz(_fct);\n        return true;\n    }\n\n    function autoStart() internal returns (bool) {\n        return FCT.changeMS();\n    }\n\n    function getListed() external notListed(msg.sender) returns (bool) {\n        require(l < max, \"no more greenlist tickets left\");\n        isListed[msg.sender] = true;\n        users[l] = (msg.sender);\n        l++;\n        if (l == max) autoStart();\n        return isListed[msg.sender];\n    }\n\n    function makeListing(address _adr) external notListed(_adr) returns (bool) {\n        require(admin == msg.sender, \"you are not admin\");\n        isListed[_adr] = true;\n        users[l] = (_adr);\n        l++;\n        if (l == max) autoStart();\n        return isListed[_adr];\n    }\n\n    function showUsers() external view returns (address[1234] memory) {\n        return users;\n    }\n\n    function setMsg(string memory _msg) external payable returns (bool) {\n        require(msg.value <= 1 * 10**18, \"insufficient balance sent\");\n        require(block.timestamp >= stamp + 60 * 60, \"you need to wait\");\n        message = _msg;\n        stamp = block.timestamp;\n        return true;\n    }\n\n    function setMsgAdmin(string memory _msg) external returns (bool) {\n        require(admin == msg.sender, \"you are not admin\");\n        message = _msg;\n        stamp = block.timestamp;\n        return true;\n    }\n\n    function showMsg() external view returns (string memory) {\n        return message;\n    }\n\n    function withdraw() external returns (uint256) {\n        require(admin == msg.sender, \"you are not admin\");\n        payable(admin).transfer(address(this).balance);\n        return address(this).balance;\n    }\n}\n\ncontract ICE is ERC20 {\n    uint256 public constant digits = 10**18;\n    uint256 public constant price = (1 * digits) / 10000; // Testnet :: 10000 // Mainnet :: 10\n\n    address admin;\n\n    modifier onlyA() {\n        require(msg.sender == admin);\n        _;\n    }\n\n    constructor() ERC20(\"Incredibly Cool Essence\", \"ICE\") {\n        admin = msg.sender;\n    }\n\n    function _domint(uint256 _amnt, address _adr) internal returns (uint256) {\n        _mint(_adr, _amnt);\n        return _amnt;\n    }\n\n    function _doburn(uint256 _amnt, address _adr) internal returns (uint256) {\n        _burn(_adr, _amnt);\n        return _amnt;\n    }\n\n    function swap(uint256 _amnt, address _adr)\n        external\n        payable\n        returns (uint256)\n    {\n        require(_amnt >= 10, \"MINIMUM 10 ICE\");\n        require(msg.value >= price * _amnt, \"INSUFFICIENT FUNDS PROVIDED\");\n        return _domint(_amnt, _adr);\n    }\n\n    function earn(address _adr) external returns (bool) {\n        _domint(1 * 10**18, _adr);\n        return true;\n    }\n}\n\ncontract FrootyCoolTingz is ERC721 {\n    // Public Constants\n    uint256 public constant price = 5 * 10**14; // PRICE VAL Testnet\n    // uint256 public constant price = 5 * 10**18; // PRICE VAL Mainnet\n    uint256 public constant num = 1; // MAX MINTS / WALLET\n    // MAINNET\n    /* *\n    uint256 public constant max = 5555; // MAX TOTAL MINTS\n    uint256 public constant sloz = 1234; // MAX FREE MINTS\n    // */\n    // TESTNET\n    /* */\n    uint256 public constant max = 5; // MAX TOTAL MINTS\n    uint256 public constant sloz = 1; // MAX FREE MINTS\n    // */\n    // Public Variables\n    address public owner; // CONTRACT OWNER\n    address iceAdr;\n    uint256 public minted; // TOKENS MINTED 1-5000\n    string public nam; // TOKEN NAME\n    string public sym; // TOKEN SYMBOL\n    uint256 public slots; // SLOZ USED 1-1234\n    bool public start; // ALLOWS MINT TO START\n    // Public Mappings\n    mapping(uint256 => bytes) public dias; // TOKEN ID SHOWS DIAS BYTES OBJECT\n    mapping(uint256 => uint256) public tid; // TOKEN ID SHOWS DIAS ID\n    mapping(uint256 => string) public status;\n    mapping(uint256 => address) public ownedBy;\n    mapping(address => uint256) private minter;\n    ICE public ice;\n    Greenlist public GLC;\n\n    modifier onlyO() {\n        // ONLY OWNER CAN USE MOD FUNX\n        require(msg.sender == owner);\n        _;\n    }\n\n    constructor(address _ICE, address _Greenlist)\n        ERC721(\"Frooty Cool Tingz\", \"FROOT\")\n    {\n        // INIT CONTRACT SET PUB VARS\n        minted = 1;\n        slots = 0;\n        owner = msg.sender;\n        nam = \"Frooty Cool Tingz\";\n        sym = \"FROOT\";\n        // EVMOS\n        /*  *\n        ice = ICE(0x890b24d94075B743a89171E5b8A2d9B9049eBf36);\n        GLC = Greenlist(0xecE922B118eEd554Fb9d3318a81FecB8C8D1bD95);\n        // */\n        // TESTNET EVMOS\n        /* */\n        ice = ICE(_ICE);\n        GLC = Greenlist(_Greenlist);\n        // */\n    }\n\n    function isOwner(address _adr) external view returns (bool) {\n        // SHOWS BOOL OF OWNERSTATUS OF ADDRESS\n        if (_adr == owner) return true;\n        else return false;\n    }\n\n    function mint(\n        uint256 _amnt,\n        uint256[] memory _diasIDs,\n        string[] memory _diasOBJs\n    ) external payable returns (uint256) {\n        // INITIATES THE MINT OF UP TO 7 TOKENS IF ALLOWED\n        require(minted < max - (sloz - slots), \"SOLD OUT\");\n        require(msg.value >= _amnt * price, \"INSUFFICIET FUNDS\");\n        require(start == true, \"MINT IS NOT YET LIVE\");\n        _doMint(_amnt, msg.sender, _diasIDs, _diasOBJs);\n        uint256 o = block.timestamp % 9;\n        for (uint256 i; i <= o; i++) ice.earn(msg.sender);\n        return minted;\n    }\n\n    function greenMint(uint256[] memory _diasIDs, string[] memory _diasOBJs)\n        external\n        returns (uint256)\n    {\n        // INITIATES THE MINT OF UP TO 7 TOKENS IF ALLOWED\n        require(minted < max, \"SOLD OUT\");\n        require(start == true, \"MINT IS NOT YET LIVE\");\n        bool boo = GLC.isListed(msg.sender);\n        require(boo == true, \"YOU ARE NOT GREENLISTED\");\n        require(slots <= sloz, \"ALL SLOTS HAVE BEEN MINTED\");\n        _doMint(1, msg.sender, _diasIDs, _diasOBJs);\n        ice.earn(msg.sender);\n        if (block.timestamp % 9 == 0 || block.timestamp % 9 == 9)\n            ice.earn(msg.sender);\n        slots++;\n        return minted;\n    }\n\n    function setStatus(uint256 _id, string memory _status)\n        external\n        payable\n        returns (bool)\n    {\n        require(ownedBy[_id] == msg.sender, \"YOU ARE NOT THE HOLDER\");\n        require(start == false, \"MINT IS STILL IN PROGRESS\");\n        require(msg.value >= 1 * 10**18);\n        ice.earn(msg.sender);\n        if (block.timestamp % 9 == 0 || block.timestamp % 9 == 9)\n            ice.earn(msg.sender);\n        status[_id] = _status;\n        return true;\n    }\n\n    function changeMintState() external onlyO returns (bool) {\n        return cMS();\n    }\n\n    function cMS() internal returns (bool) {\n        return start = !start;\n    }\n\n    // ONLY TESTNET\n    /* */\n    function changeMS() external returns (bool) {\n        return cMS();\n    }\n\n    // */\n\n    function mintOne(\n        address _adr,\n        uint256 _diasID,\n        string memory _diasOBJ\n    ) internal returns (uint256) {\n        // INTERNAL // MINTS ONE TOKEN\n        _mint(_adr, minted);\n        tid[minted] = _diasID;\n        dias[minted] = bytes(_diasOBJ);\n        minter[_adr] = minted;\n        minted++;\n        if (minted == max + 1) cMS();\n        return minted;\n    }\n\n    function _doMint(\n        uint256 _amnt,\n        address _adr,\n        uint256[] memory _diasIDs,\n        string[] memory _diasOBJs\n    ) internal returns (uint256) {\n        require(\n            balanceOf(_adr) + _amnt <= num,\n            \"EXCEEDED MAX MINTABLE TOKENS PER WALLET\"\n        );\n        require(minted + _amnt <= max, \"NOT ENOUGH SUPPLY\");\n        // INTERNAL // MINTS UP TO 7 TOKENS IN ONE TX\n        mintOne(_adr, _diasIDs[0], _diasOBJs[0]);\n        if (_amnt >= 2) {\n            mintOne(_adr, _diasIDs[0], _diasOBJs[0]);\n            if (_amnt >= 3) {\n                mintOne(_adr, _diasIDs[0], _diasOBJs[0]);\n                if (_amnt >= 4) {\n                    mintOne(_adr, _diasIDs[0], _diasOBJs[0]);\n                    if (_amnt >= 5) {\n                        mintOne(_adr, _diasIDs[0], _diasOBJs[0]);\n                        if (_amnt >= 6) {\n                            mintOne(_adr, _diasIDs[0], _diasOBJs[0]);\n                            if (_amnt >= 7) {\n                                mintOne(_adr, _diasIDs[0], _diasOBJs[0]);\n                            }\n                        }\n                    }\n                }\n            }\n        }\n        return minted;\n    }\n\n    function holder(uint256 _id) external view returns (address) {\n        // SHOWS OWNER OF TOKEN BY TID\n        return ownerOf(_id);\n    }\n\n    function clearSloz() external returns (bool) {\n        slots = 1234;\n        return true;\n    }\n\n    function flush() external returns (uint256) {\n        // WITHDRAW ALL ETHER FROM CONTRACT\n        payable(owner).transfer(address(this).balance);\n        return address(this).balance;\n    }\n\n    function flushERC20(address _erc) external returns (uint256) {\n        // WITHDRAW ALL COIN FROM CONTRACT\n        ERC20 coin = ERC20(_erc);\n        coin.transferFrom(address(this), owner, coin.balanceOf(address(this)));\n        return coin.balanceOf(address(this));\n    }\n\n    function flushERC721(address _erc, uint256 _id) external returns (uint256) {\n        // WITHDRAW ALL NFT FROM CONTRACT\n        ERC721 coin = ERC721(_erc);\n        coin.transferFrom(address(this), owner, _id);\n        return _id;\n    }\n}\n",
  "sourcePath": "/Users/iii6/Documents/GitHub/Gamble360/contracts/xxx_old/FrootyCoolTingz.sol",
  "compiler": {
    "name": "solc",
    "version": "0.8.17+commit.8df45f5f.Emscripten.clang"
  },
  "schemaVersion": "3.4.8",
  "updatedAt": "2023-04-02T20:28:46.529Z",
  "devdoc": {
    "kind": "dev",
    "methods": {
      "allowance(address,address)": {
        "details": "See {IERC20-allowance}."
      },
      "approve(address,uint256)": {
        "details": "See {IERC20-approve}. NOTE: If `amount` is the maximum `uint256`, the allowance is not updated on `transferFrom`. This is semantically equivalent to an infinite approval. Requirements: - `spender` cannot be the zero address."
      },
      "balanceOf(address)": {
        "details": "See {IERC20-balanceOf}."
      },
      "decimals()": {
        "details": "Returns the number of decimals used to get its user representation. For example, if `decimals` equals `2`, a balance of `505` tokens should be displayed to a user as `5.05` (`505 / 10 ** 2`). Tokens usually opt for a value of 18, imitating the relationship between Ether and Wei. This is the value {ERC20} uses, unless this function is overridden; NOTE: This information is only used for _display_ purposes: it in no way affects any of the arithmetic of the contract, including {IERC20-balanceOf} and {IERC20-transfer}."
      },
      "decreaseAllowance(address,uint256)": {
        "details": "Atomically decreases the allowance granted to `spender` by the caller. This is an alternative to {approve} that can be used as a mitigation for problems described in {IERC20-approve}. Emits an {Approval} event indicating the updated allowance. Requirements: - `spender` cannot be the zero address. - `spender` must have allowance for the caller of at least `subtractedValue`."
      },
      "increaseAllowance(address,uint256)": {
        "details": "Atomically increases the allowance granted to `spender` by the caller. This is an alternative to {approve} that can be used as a mitigation for problems described in {IERC20-approve}. Emits an {Approval} event indicating the updated allowance. Requirements: - `spender` cannot be the zero address."
      },
      "name()": {
        "details": "Returns the name of the token."
      },
      "symbol()": {
        "details": "Returns the symbol of the token, usually a shorter version of the name."
      },
      "totalSupply()": {
        "details": "See {IERC20-totalSupply}."
      },
      "transfer(address,uint256)": {
        "details": "See {IERC20-transfer}. Requirements: - `to` cannot be the zero address. - the caller must have a balance of at least `amount`."
      },
      "transferFrom(address,address,uint256)": {
        "details": "See {IERC20-transferFrom}. Emits an {Approval} event indicating the updated allowance. This is not required by the EIP. See the note at the beginning of {ERC20}. NOTE: Does not update the allowance if the current allowance is the maximum `uint256`. Requirements: - `from` and `to` cannot be the zero address. - `from` must have a balance of at least `amount`. - the caller must have allowance for ``from``'s tokens of at least `amount`."
      }
    },
    "version": 1
  },
  "userdoc": {
    "kind": "user",
    "methods": {},
    "version": 1
  }
}