{
  "contractName": "iii6PriceMath",
  "abi": [
    {
      "inputs": [],
      "stateMutability": "nonpayable",
      "type": "constructor"
    },
    {
      "inputs": [],
      "name": "ETH_USD",
      "outputs": [
        {
          "internalType": "uint256",
          "name": "",
          "type": "uint256"
        }
      ],
      "stateMutability": "view",
      "type": "function"
    },
    {
      "inputs": [],
      "name": "COIN_USD",
      "outputs": [
        {
          "internalType": "uint256",
          "name": "",
          "type": "uint256"
        }
      ],
      "stateMutability": "view",
      "type": "function"
    },
    {
      "inputs": [],
      "name": "X_USD",
      "outputs": [
        {
          "internalType": "uint256",
          "name": "",
          "type": "uint256"
        }
      ],
      "stateMutability": "view",
      "type": "function"
    },
    {
      "inputs": [],
      "name": "Y_USD",
      "outputs": [
        {
          "internalType": "uint256",
          "name": "",
          "type": "uint256"
        }
      ],
      "stateMutability": "view",
      "type": "function"
    },
    {
      "inputs": [
        {
          "internalType": "address",
          "name": "_oracle",
          "type": "address"
        },
        {
          "internalType": "uint256",
          "name": "_digits",
          "type": "uint256"
        }
      ],
      "name": "setX",
      "outputs": [
        {
          "internalType": "bool",
          "name": "",
          "type": "bool"
        }
      ],
      "stateMutability": "nonpayable",
      "type": "function"
    },
    {
      "inputs": [
        {
          "internalType": "address",
          "name": "_oracle",
          "type": "address"
        },
        {
          "internalType": "uint256",
          "name": "_digits",
          "type": "uint256"
        }
      ],
      "name": "setY",
      "outputs": [
        {
          "internalType": "bool",
          "name": "",
          "type": "bool"
        }
      ],
      "stateMutability": "nonpayable",
      "type": "function"
    },
    {
      "inputs": [],
      "name": "getEthPriceInCoin",
      "outputs": [
        {
          "internalType": "uint256",
          "name": "ethPriceCoin",
          "type": "uint256"
        }
      ],
      "stateMutability": "view",
      "type": "function"
    },
    {
      "inputs": [],
      "name": "getEthPriceInX",
      "outputs": [
        {
          "internalType": "uint256",
          "name": "ethPriceX",
          "type": "uint256"
        }
      ],
      "stateMutability": "view",
      "type": "function"
    },
    {
      "inputs": [],
      "name": "getEthPriceInY",
      "outputs": [
        {
          "internalType": "uint256",
          "name": "ethPriceY",
          "type": "uint256"
        }
      ],
      "stateMutability": "view",
      "type": "function"
    },
    {
      "inputs": [],
      "name": "getCoinPriceInEth",
      "outputs": [
        {
          "internalType": "uint256",
          "name": "coinPriceEth",
          "type": "uint256"
        }
      ],
      "stateMutability": "view",
      "type": "function"
    },
    {
      "inputs": [],
      "name": "getCoinPriceInX",
      "outputs": [
        {
          "internalType": "uint256",
          "name": "coinPriceX",
          "type": "uint256"
        }
      ],
      "stateMutability": "view",
      "type": "function"
    },
    {
      "inputs": [],
      "name": "getCoinPriceInY",
      "outputs": [
        {
          "internalType": "uint256",
          "name": "coinPriceY",
          "type": "uint256"
        }
      ],
      "stateMutability": "view",
      "type": "function"
    },
    {
      "inputs": [],
      "name": "getXPriceInEth",
      "outputs": [
        {
          "internalType": "uint256",
          "name": "xPriceEth",
          "type": "uint256"
        }
      ],
      "stateMutability": "view",
      "type": "function"
    },
    {
      "inputs": [],
      "name": "getXPriceInCoin",
      "outputs": [
        {
          "internalType": "uint256",
          "name": "xPriceCoin",
          "type": "uint256"
        }
      ],
      "stateMutability": "view",
      "type": "function"
    },
    {
      "inputs": [],
      "name": "getXPriceInY",
      "outputs": [
        {
          "internalType": "uint256",
          "name": "xPriceY",
          "type": "uint256"
        }
      ],
      "stateMutability": "view",
      "type": "function"
    },
    {
      "inputs": [],
      "name": "getYPriceInEth",
      "outputs": [
        {
          "internalType": "uint256",
          "name": "yPriceEth",
          "type": "uint256"
        }
      ],
      "stateMutability": "view",
      "type": "function"
    },
    {
      "inputs": [],
      "name": "getYPriceInCoin",
      "outputs": [
        {
          "internalType": "uint256",
          "name": "yPriceCoin",
          "type": "uint256"
        }
      ],
      "stateMutability": "view",
      "type": "function"
    },
    {
      "inputs": [],
      "name": "getYPriceInX",
      "outputs": [
        {
          "internalType": "uint256",
          "name": "yPriceX",
          "type": "uint256"
        }
      ],
      "stateMutability": "view",
      "type": "function"
    },
    {
      "inputs": [
        {
          "internalType": "uint256",
          "name": "_amt",
          "type": "uint256"
        }
      ],
      "name": "coinPriceOfUSD",
      "outputs": [
        {
          "internalType": "uint256",
          "name": "",
          "type": "uint256"
        }
      ],
      "stateMutability": "view",
      "type": "function"
    },
    {
      "inputs": [
        {
          "internalType": "uint256",
          "name": "_amt",
          "type": "uint256"
        }
      ],
      "name": "coinPriceOfEth",
      "outputs": [
        {
          "internalType": "uint256",
          "name": "",
          "type": "uint256"
        }
      ],
      "stateMutability": "view",
      "type": "function"
    },
    {
      "inputs": [
        {
          "internalType": "uint256",
          "name": "_amt",
          "type": "uint256"
        }
      ],
      "name": "coinPriceOfX",
      "outputs": [
        {
          "internalType": "uint256",
          "name": "",
          "type": "uint256"
        }
      ],
      "stateMutability": "view",
      "type": "function"
    },
    {
      "inputs": [
        {
          "internalType": "uint256",
          "name": "_amt",
          "type": "uint256"
        }
      ],
      "name": "coinPriceOfY",
      "outputs": [
        {
          "internalType": "uint256",
          "name": "",
          "type": "uint256"
        }
      ],
      "stateMutability": "view",
      "type": "function"
    },
    {
      "inputs": [
        {
          "internalType": "uint256",
          "name": "_amt",
          "type": "uint256"
        }
      ],
      "name": "ethPriceOfUSD",
      "outputs": [
        {
          "internalType": "uint256",
          "name": "",
          "type": "uint256"
        }
      ],
      "stateMutability": "view",
      "type": "function"
    },
    {
      "inputs": [
        {
          "internalType": "uint256",
          "name": "_amt",
          "type": "uint256"
        }
      ],
      "name": "xPriceOfUSD",
      "outputs": [
        {
          "internalType": "uint256",
          "name": "",
          "type": "uint256"
        }
      ],
      "stateMutability": "view",
      "type": "function"
    },
    {
      "inputs": [
        {
          "internalType": "uint256",
          "name": "_amt",
          "type": "uint256"
        }
      ],
      "name": "yPriceOfUSD",
      "outputs": [
        {
          "internalType": "uint256",
          "name": "",
          "type": "uint256"
        }
      ],
      "stateMutability": "view",
      "type": "function"
    }
  ],
  "bytecode": "0x608060405234801561001057600080fd5b50600146036100725773e47da91495c75e1d48569f343938380d8303b1f26000806101000a81548173ffffffffffffffffffffffffffffffffffffffff021916908373ffffffffffffffffffffffffffffffffffffffff160217905550610196565b600546036100d35773e47da91495c75e1d48569f343938380d8303b1f26000806101000a81548173ffffffffffffffffffffffffffffffffffffffff021916908373ffffffffffffffffffffffffffffffffffffffff160217905550610195565b608946036101345773e47da91495c75e1d48569f343938380d8303b1f26000806101000a81548173ffffffffffffffffffffffffffffffffffffffff021916908373ffffffffffffffffffffffffffffffffffffffff160217905550610194565b6201388146036101935773e47da91495c75e1d48569f343938380d8303b1f26000806101000a81548173ffffffffffffffffffffffffffffffffffffffff021916908373ffffffffffffffffffffffffffffffffffffffff1602179055505b5b5b5b611206806101a56000396000f3fe608060405234801561001057600080fd5b50600436106101735760003560e01c80637d670117116100de578063d1381f4e11610097578063e12ef5ed11610071578063e12ef5ed1461046c578063e2ab78131461048a578063e9f38fc5146104ba578063f42fff01146104ea57610173565b8063d1381f4e14610400578063d21b872014610430578063e04777af1461044e57610173565b80637d6701171461032857806387434dcd146103465780638d4a8ffe146103765780638dff74a7146103a657806396af428a146103c4578063bec9908e146103e257610173565b806348cf734d1161013057806348cf734d146102505780634a2ad99f1461026e5780636260f55b1461029e5780636a443b59146102bc57806379d79fcc146102da5780637afcc7a4146102f857610173565b8063033a7a0214610178578063054dca2a146101a85780630b4185ea146101c6578063287ead9e146101f657806329d7a0bd146102145780634459194614610232575b600080fd5b610192600480360381019061018d9190610e7b565b610508565b60405161019f9190610eb7565b60405180910390f35b6101b0610551565b6040516101bd9190610eb7565b60405180910390f35b6101e060048036038101906101db9190610e7b565b61058e565b6040516101ed9190610eb7565b60405180910390f35b6101fe6105d7565b60405161020b9190610eb7565b60405180910390f35b61021c610614565b6040516102299190610eb7565b60405180910390f35b61023a610651565b6040516102479190610eb7565b60405180910390f35b610258610660565b6040516102659190610eb7565b60405180910390f35b61028860048036038101906102839190610f30565b61069d565b6040516102959190610f8b565b60405180910390f35b6102a6610746565b6040516102b39190610eb7565b60405180910390f35b6102c4610755565b6040516102d19190610eb7565b60405180910390f35b6102e2610764565b6040516102ef9190610eb7565b60405180910390f35b610312600480360381019061030d9190610e7b565b610773565b60405161031f9190610eb7565b60405180910390f35b6103306107bd565b60405161033d9190610eb7565b60405180910390f35b610360600480360381019061035b9190610e7b565b6107cc565b60405161036d9190610eb7565b60405180910390f35b610390600480360381019061038b9190610e7b565b610816565b60405161039d9190610eb7565b60405180910390f35b6103ae610860565b6040516103bb9190610eb7565b60405180910390f35b6103cc61089d565b6040516103d99190610eb7565b60405180910390f35b6103ea6108ac565b6040516103f79190610eb7565b60405180910390f35b61041a60048036038101906104159190610e7b565b6108e9565b6040516104279190610eb7565b60405180910390f35b610438610933565b6040516104459190610eb7565b60405180910390f35b610456610970565b6040516104639190610eb7565b60405180910390f35b61047461097f565b6040516104819190610eb7565b60405180910390f35b6104a4600480360381019061049f9190610e7b565b6109bc565b6040516104b19190610eb7565b60405180910390f35b6104d460048036038101906104cf9190610f30565b610a06565b6040516104e19190610f8b565b60405180910390f35b6104f2610aaf565b6040516104ff9190610eb7565b60405180910390f35b6000806509184e72a0008361051d9190610fd5565b90506000610529610aec565b9050610548670de0b6b3a7640000836105429190610fd5565b82610b87565b92505050919050565b60008061055c610bb8565b90506000610568610aec565b9050610587670de0b6b3a7640000836105819190610fd5565b82610b87565b9250505090565b6000806509184e72a000836105a39190610fd5565b905060006105af610bb8565b90506105ce670de0b6b3a7640000836105c89190610fd5565b82610b87565b92505050919050565b6000806105e2610aec565b905060006105ee610c53565b905061060d670de0b6b3a7640000836106079190610fd5565b82610b87565b9250505090565b60008061061f610bb8565b9050600061062b610cee565b905061064a670de0b6b3a7640000836106449190610fd5565b82610b87565b9250505090565b600061065b610aec565b905090565b60008061066b610bb8565b90506000610677610c53565b9050610696670de0b6b3a7640000836106909190610fd5565b82610b87565b9250505090565b60008060009054906101000a900473ffffffffffffffffffffffffffffffffffffffff1673ffffffffffffffffffffffffffffffffffffffff16634a2ad99f84846040518363ffffffff1660e01b81526004016106fb929190611026565b6020604051808303816000875af115801561071a573d6000803e3d6000fd5b505050506040513d601f19601f8201168201806040525081019061073e919061107b565b905092915050565b6000610750610bb8565b905090565b600061075f610d89565b905090565b600061076e610dc6565b905090565b600080662386f26fc10000836107899190610fd5565b90506000610795610dc6565b90506107b4670de0b6b3a7640000836107ae9190610fd5565b82610b87565b92505050919050565b60006107c7610e03565b905090565b600080662386f26fc10000836107e29190610fd5565b905060006107ee610d89565b905061080d670de0b6b3a7640000836108079190610fd5565b82610b87565b92505050919050565b600080662386f26fc100008361082c9190610fd5565b90506000610838610e03565b9050610857670de0b6b3a7640000836108519190610fd5565b82610b87565b92505050919050565b60008061086b610cee565b90506000610877610c53565b9050610896670de0b6b3a7640000826108909190610fd5565b83610b87565b9250505090565b60006108a7610c53565b905090565b6000806108b7610bb8565b905060006108c3610c53565b90506108e2670de0b6b3a7640000826108dc9190610fd5565b83610b87565b9250505090565b600080662386f26fc10000836108ff9190610fd5565b9050600061090b610cee565b905061092a670de0b6b3a7640000836109249190610fd5565b82610b87565b92505050919050565b60008061093e610cee565b9050600061094a610aec565b9050610969670de0b6b3a7640000826109639190610fd5565b83610b87565b9250505090565b600061097a610cee565b905090565b60008061098a610aec565b90506000610996610c53565b90506109b5670de0b6b3a7640000826109af9190610fd5565b83610b87565b9250505090565b600080662386f26fc10000836109d29190610fd5565b905060006109de610c53565b90506109fd670de0b6b3a7640000836109f79190610fd5565b82610b87565b92505050919050565b60008060009054906101000a900473ffffffffffffffffffffffffffffffffffffffff1673ffffffffffffffffffffffffffffffffffffffff1663e9f38fc584846040518363ffffffff1660e01b8152600401610a64929190611026565b6020604051808303816000875af1158015610a83573d6000803e3d6000fd5b505050506040513d601f19601f82011682018060405250810190610aa7919061107b565b905092915050565b600080610aba610bb8565b90506000610ac6610aec565b9050610ae5670de0b6b3a764000082610adf9190610fd5565b83610b87565b9250505090565b60008060008054906101000a900473ffffffffffffffffffffffffffffffffffffffff1673ffffffffffffffffffffffffffffffffffffffff166396722fe56040518163ffffffff1660e01b8152600401602060405180830381865afa158015610b5a573d6000803e3d6000fd5b505050506040513d601f19601f82011682018060405250810190610b7e91906110de565b90508091505090565b6000808284610b96919061113a565b9050828185610ba5919061116b565b610baf919061119f565b91505092915050565b60008060008054906101000a900473ffffffffffffffffffffffffffffffffffffffff1673ffffffffffffffffffffffffffffffffffffffff16639a18c7956040518163ffffffff1660e01b8152600401602060405180830381865afa158015610c26573d6000803e3d6000fd5b505050506040513d601f19601f82011682018060405250810190610c4a91906110de565b90508091505090565b60008060008054906101000a900473ffffffffffffffffffffffffffffffffffffffff1673ffffffffffffffffffffffffffffffffffffffff1663414641df6040518163ffffffff1660e01b8152600401602060405180830381865afa158015610cc1573d6000803e3d6000fd5b505050506040513d601f19601f82011682018060405250810190610ce591906110de565b90508091505090565b60008060008054906101000a900473ffffffffffffffffffffffffffffffffffffffff1673ffffffffffffffffffffffffffffffffffffffff1663f2e9bd7a6040518163ffffffff1660e01b8152600401602060405180830381865afa158015610d5c573d6000803e3d6000fd5b505050506040513d601f19601f82011682018060405250810190610d8091906110de565b90508091505090565b600080610d94610cee565b90506000610da0610aec565b9050610dbf670de0b6b3a764000083610db99190610fd5565b82610b87565b9250505090565b600080610dd1610cee565b90506000610ddd610c53565b9050610dfc670de0b6b3a764000083610df69190610fd5565b82610b87565b9250505090565b600080610e0e610cee565b90506000610e1a610bb8565b9050610e39670de0b6b3a764000083610e339190610fd5565b82610b87565b9250505090565b600080fd5b6000819050919050565b610e5881610e45565b8114610e6357600080fd5b50565b600081359050610e7581610e4f565b92915050565b600060208284031215610e9157610e90610e40565b5b6000610e9f84828501610e66565b91505092915050565b610eb181610e45565b82525050565b6000602082019050610ecc6000830184610ea8565b92915050565b600073ffffffffffffffffffffffffffffffffffffffff82169050919050565b6000610efd82610ed2565b9050919050565b610f0d81610ef2565b8114610f1857600080fd5b50565b600081359050610f2a81610f04565b92915050565b60008060408385031215610f4757610f46610e40565b5b6000610f5585828601610f1b565b9250506020610f6685828601610e66565b9150509250929050565b60008115159050919050565b610f8581610f70565b82525050565b6000602082019050610fa06000830184610f7c565b92915050565b7f4e487b7100000000000000000000000000000000000000000000000000000000600052601160045260246000fd5b6000610fe082610e45565b9150610feb83610e45565b9250828202610ff981610e45565b915082820484148315176110105761100f610fa6565b5b5092915050565b61102081610ef2565b82525050565b600060408201905061103b6000830185611017565b6110486020830184610ea8565b9392505050565b61105881610f70565b811461106357600080fd5b50565b6000815190506110758161104f565b92915050565b60006020828403121561109157611090610e40565b5b600061109f84828501611066565b91505092915050565b6000819050919050565b6110bb816110a8565b81146110c657600080fd5b50565b6000815190506110d8816110b2565b92915050565b6000602082840312156110f4576110f3610e40565b5b6000611102848285016110c9565b91505092915050565b7f4e487b7100000000000000000000000000000000000000000000000000000000600052601260045260246000fd5b600061114582610e45565b915061115083610e45565b9250826111605761115f61110b565b5b828206905092915050565b600061117682610e45565b915061118183610e45565b925082820390508181111561119957611198610fa6565b5b92915050565b60006111aa82610e45565b91506111b583610e45565b9250826111c5576111c461110b565b5b82820490509291505056fea2646970667358221220566007d149c776b8cf8ca54395d8f3490b9471ecfac1300c6f89723b3d8958f864736f6c63430008110033",
  "immutableReferences": {},
  "source": "// SPDX-License-Identifier: GPL-3.0\n// // // // // // // // // // // // // // // // // // // // // // // // // // // // // // // // // // // // // // // // // // // // // // // // // // // // // // // // // // // // //\n//\n//      MMWKd:..                                                                                    ..:dKWMM\n//      MKl.                                                                                            .lKW\n//      O'       ..''''''''''''.     .''''''.     .'''''.      .''''''''''''''.     .''''''''''''..       'O\n//      '     .ckKNNWNWWWWWWWWWk.   .xNWWNWNl    ,0WWWWW0,     lNWWWWWWWWWNWNk'    ;0NNNWWWWWWWWNNKkc.     '\n//           ,OWMMMMMMMMMMMMMMMO.   .kMMMMMWl    ,KMMMMMK,     lWMMMMMMMMMMM0,    ;KMMMMMMMMMMMMMMMMWO,\n//          .kMMMMMMMMMMMMMMMMMO.   .kMMMMMWl    ,KMMMMMK,     lWMMMMMMMMMM0,    ;KMMMMMMMMMMMMMMMMMMMk.\n//          '0MMMMMMMMMMMMMMMMMO.   .kMMMMMWl    ,KMMMMMK,     lWMMMMMMMMM0,    :KMMMMMMMMMMMMMMMMMMMM0'\n//          '0MMMMMMMMMMMMMMMMMO.   .kMMMMMWl    ,KMMMMMK,     lWMMMMMMMM0,    :KMMMMMMMMMMMMMMMMMMMMM0'\n//          '0MMMMMMMMMMMMMMMMMO.   .kMMMMMWl    ,KMMMMMK,     lWMMMMMMM0,    ;0NNWWMMMMMMMMMMMMMMMMMM0'\n//          '0MMMMMMMMMMMMMMMMMO.   .kMMMMMWl    ,KMMMMMK,     lWMMMMMM0,     .'.',;lkNMMMMMMMMMMMMMMM0'\n//          '0MMMMMMMMMMMMMMMMMO.   .kMMMMMWl    ,KMMMMMK,     lWMMMMMK;              ,kWMMMMMMMMMMMMM0'\n//          '0MMMMMMMMMMMMMMMMMO.   .kMMMMMWl    ,KMMMMMK,     lWMMMMX:    .:oxxdc'    .dWMMMMMMMMMMMM0'\n//          '0MMMMMMMMMMMMMMMMMO.   .kMMMMMWl    ,KMMMMMK,     lWMMMWd.   ,OWMMMMMXl.   '0MMMMMMMMMMMM0'\n//          '0MMMMMMMMMMMMMMMMMO.   .kMMMMMWl    ,KMMMMMK,     lWMMMX;   .kMMMMMMMMK,   .xMMMMMMMMMMMM0'\n//          '0MMMMMMMMMMMMMMMMMO.   .kMMMMMWl    ,KMMMMMK,     lWMMM0'   .OMMMMMMMMX;   .xMMMMMMMMMMMM0'\n//          .OMMMMMMMMMMMMMMMMMO.   .kMMMMMWl    ,KMMMMMK,     lWMMMK,    lNMMMMMMWx.   '0MMMMMMMMMMMMO.\n//           lNMMMMMMMMMMMMMMMMO.   .kMMMMMWl    ,KMMMMMK,     lWMMMWd.   .:x0KKKkc.   .dWMMMMMMMMMMMNl\n//      .    .c0WMMMMMMMMMMMMMMO.   .kMMMMMWo    ,KMMMMMK,     lWMMMMNd.     ....     .xNMMMMMMMMMMW0c.    .\n//      l      .,lddxxxxxxxxxxxc.    :xxxxxd,    .lxxxxxl.     ,dxxxxxd:.            .cdxxxxxxxxddl,.      l\n//      No.                                                                                              .oN\n//      MW0l'                                                                                          'l0WM\n//      MMMWKd;.                                                                                    .;dKWMMM\n//\n// // // // // // // // // // // // // // // // // // // // // // // // // // // // // // // // // // // // // // // // // // // // // // // // // // // // // // // // // // // // //\n//                                                                                                                                                                                  //\n//      @dev            ::              Aron Mauritala Ayuk                                                                                                                                          //\n//      @msg            ::              stereo@iii6.xyz                                                                                                                                   //\n//      @github         ::              @stereoIII6\n//      @twitter        ::              @stereoIII6                                                                                                                                              //\n//                                                                                                                                                                                  //\n// // // // // // // // // // // // // // // // // // // // // // // // // // // // // // // // // // // // // // // // // // // // // // // // // // // // // // // // // // // // //\n//                                                                                                                                                                                  //\n//      @dev            ::              Juan Xavier Valverde                                                                                                                                    //\n//      @msg            ::              juanxavier@iii6.xyz                                                                                                                               //\n//      @twitter        ::              @JuanXavier                                                                                                                                             //\n//      @github         ::              @JuanXavier                                                                                                                                             //\n//                                                                                                                                                                                  //                                                                                                                                                                                 //\n// // // // // // // // // // // // // // // // // // // // // // // // // // // // // // // // // // // // // // // // // // // // // // // // // // // // // // // // // // // // //\n//  *   *   *   *   *   *   *   *   *   *   *   *   *   *   *   *   *   *   *   *   *   *   *   *   *   *   *   *   *   *   *   *   *   *   *   *   *   *   *   *   *   *   *   *   //\n// // // // // // // // // // // // // // // // // // // // // // // // // // // // // // // // // // // // // // // // // // // // // // // // // // // // // // // // // // // // //\n//                                                                                                                                                                                  //\n//      @company        ::              Fractio Holding                                                                                                                                                                       //\n//      @title          ::              iii6 Price Math Functions                                                                                                                            //\n//      @description    ::              Asset Safes Contract                                                                                                                           //\n//      @version        ::              0.0.1                                                                                                                                       //\n//      @purpose        ::              Price Math Function Library                                                                                                          //\n//                                                                                                                                                                                  //\n//                                                                                                                                                                                  //\n//                                                                                                                                                                                  //\n//                                                                                                                                                                                  //\n//                                                                                                                                                                                  //\n// // // // // // // // // // // // // // // // // // // // // // // // // // // // // // // // // // // // // // // // // // // // // // // // // // // // // // // // // // // // //\n//  *   *   *   *   *   *   *   *   *   *   *   *   *   *   *   *   *   *   *   *   *   *   *   *   *   *   *   *   *   *   *   *   *   *   *   *   *   *   *   *   *   *   *   *   //\n// // // // // // // // // // // // // // // // // // // // // // // // // // // // // // // // // // // // // // // // // // // // // // // // // // // // // // // // // // // // //\n\n/////////////////////////////////////////////////////////////////////////////////////////////////////////////////////\n\n/////////////////////////////////////////////////////////////////////////////////////////////////////////////////////\n\npragma solidity ^0.8.7;\n\nimport \"@openzeppelin/contracts/utils/Counters.sol\";\nimport \"@openzeppelin/contracts/utils/Strings.sol\";\nimport \"./iii6Math.sol\";\nimport \"../Oracles/iii6PriceConsumer.sol\";\n\ncontract iii6PriceMath is iii6Math {\n    /**\n     * @dev this contract is a model contract to be deployed through the iii6AssetFactory\n     */\n    // \n    // \n    // \n    // \n    // \n    // \n    iii6PriceConsumer priceFeed;\n\n    /**\n     * @dev selects the network specific iii6PriceConsumer address and loads the contract by chain id\n     */\n    constructor() {\n        if (block.chainid == 1) {\n            // \n            // \n            // \n            // \n            // \n            // \n\n            priceFeed = iii6PriceConsumer(\n                0xe47da91495C75e1D48569f343938380D8303b1f2 // wrong address\n            );\n        } else if (block.chainid == 5) {\n            // \n            // \n            // \n            // \n            // \n            // \n\n            priceFeed = iii6PriceConsumer(\n                0xe47da91495C75e1D48569f343938380D8303b1f2 // wrong address\n            );\n        } else if (block.chainid == 137) {\n            // \n            // \n            // \n            // \n            // \n            // \n\n            priceFeed = iii6PriceConsumer(\n                0xe47da91495C75e1D48569f343938380D8303b1f2 // wrong address\n            );\n        } else if (block.chainid == 80001) {\n            //  \n            //  \n            //  \n            //  \n            //  \n            //  \n\n            priceFeed = iii6PriceConsumer(\n                0xe47da91495C75e1D48569f343938380D8303b1f2\n            );\n        }\n    }\n\n    // \n    // \n    // \n    // \n    // \n    // \n\n    /**\n     * @dev gets value of eth derived from priceFeed.[...]UsdPrice()\n     * @param // INTERNAL\n     * @return uint256 eth price in usdc\n     */\n    function _getWethUsdc() internal view returns (uint256) {\n        // stores call price in price\n        int256 price = priceFeed.WethUsdPrice();\n        // exit with converted uint price\n        return uint256(price);\n    }\n\n    /**\n     * @dev gets value of gas coin derived from priceFeed.[...]UsdPrice()\n     * @param // INTERNAL\n     * @return uint256 gas coin price in usdc\n     */\n    function _getCoinUsdc() internal view returns (uint256) {\n        // stores call price in price\n        int256 price = priceFeed.CoinUsdPrice();\n        // exit with converted uint price\n        return uint256(price);\n    }\n\n    /**\n     * @dev gets value of custom token x derived from priceFeed.[...]UsdPrice()\n     * @param // INTERNAL\n     * @return uint256 custom token x price in usdc\n     */\n    function _getXUsdc() internal view returns (uint256) {\n        // stores call price in price\n        int256 price = priceFeed.XUsdPrice();\n        // exit with converted uint price\n        return uint256(price);\n    }\n\n    /**\n     * @dev gets value of custom token y derived from priceFeed.[...]UsdPrice()\n     * @param // INTERNAL\n     * @return uint256 custom token y price in usdc\n     */\n    function _getYUsdc() internal view returns (uint256) {\n        // stores call price in price\n        int256 price = priceFeed.YUsdPrice();\n        // exit with converted uint price\n        return uint256(price);\n    }\n\n    // \n    // \n    // \n    // \n    // \n    // \n\n    /**\n     * @dev gets value of eth derived from INTERNAL => _get[...]Usdc()\n     * @param // EXTERNAL\n     * @return uint256 eth price in usdc\n     */\n\n    function ETH_USD() external view returns (uint256) {\n        return _getWethUsdc();\n    }\n\n    /**\n     * @dev gets value of gascoin derived from iii6PriceConsumer => _get[...]Usdc()\n     * @param // EXTERNAL\n     * @return uint256 gascoin price in usdc\n     */\n    function COIN_USD() external view returns (uint256) {\n        return _getCoinUsdc();\n    }\n\n    /**\n     * @dev gets value of custon token x derived from iii6PriceConsumer => _get[...]Usdc()\n     * @param // EXTERNAL\n     * @return uint256 custon token x price in usdc\n     */\n    function X_USD() external view returns (uint256) {\n        return _getXUsdc();\n    }\n\n    /**\n     * @dev gets value of custon token y derived from iii6PriceConsumer => _get[...]Usdc()\n     * @param // EXTERNAL\n     * @return uint256 custon token y price in usdc\n     */\n    function Y_USD() external view returns (uint256) {\n        return _getYUsdc();\n    }\n\n    /**\n     * @dev sets the oracle for custom token x and adapts digit length\n     * @param // EXTERNAL\n     * @param _oracle address of the chainlink pricefeed oracle contract\n     * @param _digits number of decimals passed by oracle\n     * @return bool success\n     */\n    function setX(address _oracle, uint256 _digits) external returns (bool) {\n        return priceFeed.setX(_oracle, _digits);\n    }\n\n    /**\n     * @dev sets the oracle for custom token y and adapts digit length\n     * @param // EXTERNAL\n     * @param _oracle address of the chainlink pricefeed oracle contract\n     * @param _digits number of decimals passed by oracle\n     * @return bool success\n     */\n    function setY(address _oracle, uint256 _digits) external returns (bool) {\n        return priceFeed.setY(_oracle, _digits);\n    }\n\n    /**\n     * @dev gets value of eth denominated in gascoin derived from _get[...]Usdc()\n     * @return ethPriceCoin uint256 price of eth denominated in gascoin\n     */\n    function getEthPriceInCoin() external view returns (uint256 ethPriceCoin) {\n        // get prices from feed\n        uint256 ethPriceUsd = _getWethUsdc();\n        uint256 coinPriceUsd = _getCoinUsdc();\n        // exit with first / last price ratio\n        ethPriceCoin = _divide(ethPriceUsd * 10**18, coinPriceUsd);\n    }\n\n    /**\n     * @dev gets value of eth denominated in custom token x derived from _get[...]Usdc()\n     * @return ethPriceX uint256 price of eth denominated in custom token x\n     */\n    function getEthPriceInX() external view returns (uint256 ethPriceX) {\n        // get prices from feed\n        uint256 ethPriceUsd = _getWethUsdc();\n        uint256 xPriceUsd = _getXUsdc();\n        // exit with first / last price ratio\n        ethPriceX = _divide(ethPriceUsd * 10**18, xPriceUsd);\n    }\n\n    /**\n     * @dev gets value of eth denominated in custom token y derived from _get[...]Usdc()\n     * @return ethPriceY uint256 price of eth denominated in custom token y\n     */\n    function getEthPriceInY() external view returns (uint256 ethPriceY) {\n        // get prices from feed\n        uint256 ethPriceUsd = _getWethUsdc();\n        uint256 yPriceUsd = _getYUsdc();\n        // exit with first / last price ratio\n        ethPriceY = _divide(ethPriceUsd * 10**18, yPriceUsd);\n    }\n\n    /**\n     * @dev gets value of gascoin denominated in eth derived from _get[...]Usdc()\n     * @return coinPriceEth uint256 price of gascoin denominated in eth\n     */\n    function _getCoinPriceInEth() internal view returns (uint256 coinPriceEth) {\n        // get prices from feed\n        uint256 coinPriceUsd = _getCoinUsdc();\n        uint256 ethPriceUsd = _getWethUsdc();\n        // exit with first / last price ratio\n        coinPriceEth = _divide(coinPriceUsd * 10**18, ethPriceUsd);\n    }\n\n    /**\n     * @dev gets value of gascoin denominated in eth derived from _get[...]Usdc()\n     * @return coinPriceEth uint256 price of gascoin denominated in eth\n     */\n\n    function getCoinPriceInEth() external view returns (uint256 coinPriceEth) {\n        // get prices from feed\n        coinPriceEth = _getCoinPriceInEth();\n    }\n\n    /**\n     * @dev gets value of gascoin denominated in eth derived from _get[...]Usdc()\n     * @return coinPriceX uint256 price of gascoin denominated in eth\n     */\n    function _getCoinPriceInX() internal view returns (uint256 coinPriceX) {\n        // get prices from feed\n        uint256 coinPriceUsd = _getCoinUsdc();\n        uint256 xPriceUsd = _getXUsdc();\n        // exit with first / last price ratio\n        coinPriceX = _divide(coinPriceUsd * 10**18, xPriceUsd);\n    }\n\n    /**\n     * @dev gets value of gascoin denominated in eth derived from _get[...]Usdc()\n     * @return coinPriceX uint256 price of gascoin denominated in eth\n     */\n\n    function getCoinPriceInX() external view returns (uint256 coinPriceX) {\n        // get prices from feed\n        coinPriceX = _getCoinPriceInX();\n    }\n\n    /**\n     * @dev gets value of gascoin denominated in eth derived from _get[...]Usdc()\n     * @return coinPriceY uint256 price of gascoin denominated in eth\n     */\n    function _getCoinPriceInY() internal view returns (uint256 coinPriceY) {\n        // get prices from feed\n        uint256 coinPriceUsd = _getCoinUsdc();\n        uint256 yPriceUsd = _getYUsdc();\n        // exit with first / last price ratio\n        coinPriceY = _divide(coinPriceUsd * 10**18, yPriceUsd);\n    }\n\n    /**\n     * @dev gets value of gascoin denominated in eth derived from _get[...]Usdc()\n     * @return coinPriceY uint256 price of gascoin denominated in eth\n     */\n\n    function getCoinPriceInY() external view returns (uint256 coinPriceY) {\n        // get prices from feed\n        coinPriceY = _getCoinPriceInY();\n    }\n\n    /**\n     * @dev gets value of gascoin denominated in eth derived from _get[...]Usdc()\n     * @return xPriceEth uint256 price of gascoin denominated in eth\n     */\n    function getXPriceInEth() external view returns (uint256 xPriceEth) {\n        // get prices from feed\n        uint256 ethPriceUsd = _getWethUsdc();\n        uint256 xPriceUsd = _getXUsdc();\n        // exit with first / last price ratio\n        xPriceEth = _divide(xPriceUsd * 10**18, ethPriceUsd);\n    }\n\n    /**\n     * @dev gets value of gascoin denominated in eth derived from _get[...]Usdc()\n     * @return xPriceCoin uint256 price of gascoin denominated in eth\n     */\n    function getXPriceInCoin() external view returns (uint256 xPriceCoin) {\n        // get prices from feed\n        uint256 coinPriceUsd = _getCoinUsdc();\n        uint256 xPriceUsd = _getXUsdc();\n        // exit with first / last price ratio\n        xPriceCoin = _divide(xPriceUsd * 10**18, coinPriceUsd);\n    }\n\n    /**\n     * @dev gets value of gascoin denominated in eth derived from _get[...]Usdc()\n     * @return xPriceY uint256 price of gascoin denominated in eth\n     */\n    function getXPriceInY() external view returns (uint256 xPriceY) {\n        // get prices from feed\n        uint256 yPriceUsd = _getYUsdc();\n        uint256 xPriceUsd = _getXUsdc();\n        // exit with first / last price ratio\n        xPriceY = _divide(xPriceUsd * 10**18, yPriceUsd);\n    }\n\n    /**\n     * @dev gets value of gascoin denominated in eth derived from _get[...]Usdc()\n     * @return yPriceEth uint256 price of gascoin denominated in eth\n     */\n    function getYPriceInEth() external view returns (uint256 yPriceEth) {\n        // get prices from feed\n        uint256 ethPriceUsd = _getWethUsdc();\n        uint256 yPriceUsd = _getYUsdc();\n        // exit with first / last price ratio\n        yPriceEth = _divide(yPriceUsd * 10**18, ethPriceUsd);\n    }\n\n    /**\n     * @dev gets value of gascoin denominated in eth derived from _get[...]Usdc()\n     * @return yPriceCoin uint256 price of gascoin denominated in eth\n     */\n    function getYPriceInCoin() external view returns (uint256 yPriceCoin) {\n        // get prices from feed\n        uint256 coinPriceUsd = _getCoinUsdc();\n        uint256 yPriceUsd = _getYUsdc();\n        // exit with first / last price ratio\n        yPriceCoin = _divide(yPriceUsd * 10**18, coinPriceUsd);\n    }\n\n    /**\n     * @dev gets value of gascoin denominated in eth derived from _get[...]Usdc()\n     * @return yPriceX uint256 price of gascoin denominated in eth\n     */\n    function getYPriceInX() external view returns (uint256 yPriceX) {\n        // get prices from feed\n        uint256 yPriceUsd = _getYUsdc();\n        uint256 xPriceUsd = _getXUsdc();\n        // exit with first / last price ratio\n        yPriceX = _divide(yPriceUsd * 10**18, xPriceUsd);\n    }\n\n    /**\n     * @dev Returns price for input amount in chosen currency\n     * @param _amt uint256 amount of usd\n     * @return Result of division\n     */\n    function coinPriceOfUSD(uint256 _amt) external view returns (uint256) {\n        // add 18 digits\n        uint256 usdamount = _amt * 10**16;\n        uint256 coinprice = _getCoinUsdc();\n        return _divide((usdamount * 10**18), coinprice);\n    }\n\n    /**\n     * @dev Returns price for input amount in chosen currency\n     * @param _amt uint256 amount of usd\n     * @return Result of division\n     */\n    function coinPriceOfEth(uint256 _amt) external view returns (uint256) {\n        // add 18 digits\n        uint256 ethamount = _amt * 10**16;\n        uint256 coinprice = _getCoinPriceInEth();\n        return _divide((ethamount * 10**18), coinprice);\n    }\n\n    /**\n     * @dev Returns price for input amount in chosen currency\n     * @param _amt uint256 amount of usd\n     * @return Result of division\n     */\n    function coinPriceOfX(uint256 _amt) external view returns (uint256) {\n        // add 18 digits\n        uint256 xamount = _amt * 10**16;\n        uint256 coinprice = _getCoinPriceInX();\n        return _divide((xamount * 10**18), coinprice);\n    }\n\n    /**\n     * @dev Returns price for input amount in chosen currency\n     * @param _amt uint256 amount of usd\n     * @return Result of division\n     */\n    function coinPriceOfY(uint256 _amt) external view returns (uint256) {\n        // add 18 digits\n        uint256 yamount = _amt * 10**16;\n        uint256 coinprice = _getCoinPriceInY();\n        return _divide((yamount * 10**18), coinprice);\n    }\n\n    /**\n     * @dev Returns price for input amount in chosen currency\n     * @param _amt uint256 amount of usd\n     * @return Result of division\n     */\n    function ethPriceOfUSD(uint256 _amt) external view returns (uint256) {\n        // add 18 digits\n        uint256 ethamount = _amt * 10**13;\n        uint256 coinprice = _getWethUsdc();\n        return _divide((ethamount * 10**18), coinprice);\n    }\n\n    /**\n     * @dev Returns price for input amount in chosen currency\n     * @param _amt uint256 amount of usd\n     * @return Result of division\n     */\n    function xPriceOfUSD(uint256 _amt) external view returns (uint256) {\n        // add 18 digits\n        uint256 usdamount = _amt * 10**16;\n        uint256 coinprice = _getXUsdc();\n        return _divide((usdamount * 10**18), coinprice);\n    }\n\n    /**\n     * @dev Returns price for input amount in chosen currency\n     * @param _amt uint256 amount of usd\n     * @return Result of division\n     */\n    function yPriceOfUSD(uint256 _amt) external view returns (uint256) {\n        // add 18 digits\n        uint256 yamount = _amt * 10**13;\n        uint256 coinprice = _getYUsdc();\n        return _divide((yamount * 10**18), coinprice);\n    }\n}\n// // // // // // // // // // // // // // // // // // // // // // // // // // // // // // // // // // // // // // // // // // // // // // // // // // // // // // // // // // // // //\n//\n//      MMWKd:..                                                                                    ..:dKWMM\n//      MKl.                                                                                            .lKW\n//      O'       ..''''''''''''.     .''''''.     .'''''.      .''''''''''''''.     .''''''''''''..       'O\n//      '     .ckKNNWNWWWWWWWWWk.   .xNWWNWNl    ,0WWWWW0,     lNWWWWWWWWWNWNk'    ;0NNNWWWWWWWWNNKkc.     '\n//           ,OWMMMMMMMMMMMMMMMO.   .kMMMMMWl    ,KMMMMMK,     lWMMMMMMMMMMM0,    ;KMMMMMMMMMMMMMMMMWO,\n//          .kMMMMMMMMMMMMMMMMMO.   .kMMMMMWl    ,KMMMMMK,     lWMMMMMMMMMM0,    ;KMMMMMMMMMMMMMMMMMMMk.\n//          '0MMMMMMMMMMMMMMMMMO.   .kMMMMMWl    ,KMMMMMK,     lWMMMMMMMMM0,    :KMMMMMMMMMMMMMMMMMMMM0'\n//          '0MMMMMMMMMMMMMMMMMO.   .kMMMMMWl    ,KMMMMMK,     lWMMMMMMMM0,    :KMMMMMMMMMMMMMMMMMMMMM0'\n//          '0MMMMMMMMMMMMMMMMMO.   .kMMMMMWl    ,KMMMMMK,     lWMMMMMMM0,    ;0NNWWMMMMMMMMMMMMMMMMMM0'\n//          '0MMMMMMMMMMMMMMMMMO.   .kMMMMMWl    ,KMMMMMK,     lWMMMMMM0,     .'.',;lkNMMMMMMMMMMMMMMM0'\n//          '0MMMMMMMMMMMMMMMMMO.   .kMMMMMWl    ,KMMMMMK,     lWMMMMMK;              ,kWMMMMMMMMMMMMM0'\n//          '0MMMMMMMMMMMMMMMMMO.   .kMMMMMWl    ,KMMMMMK,     lWMMMMX:    .:oxxdc'    .dWMMMMMMMMMMMM0'\n//          '0MMMMMMMMMMMMMMMMMO.   .kMMMMMWl    ,KMMMMMK,     lWMMMWd.   ,OWMMMMMXl.   '0MMMMMMMMMMMM0'\n//          '0MMMMMMMMMMMMMMMMMO.   .kMMMMMWl    ,KMMMMMK,     lWMMMX;   .kMMMMMMMMK,   .xMMMMMMMMMMMM0'\n//          '0MMMMMMMMMMMMMMMMMO.   .kMMMMMWl    ,KMMMMMK,     lWMMM0'   .OMMMMMMMMX;   .xMMMMMMMMMMMM0'\n//          .OMMMMMMMMMMMMMMMMMO.   .kMMMMMWl    ,KMMMMMK,     lWMMMK,    lNMMMMMMWx.   '0MMMMMMMMMMMMO.\n//           lNMMMMMMMMMMMMMMMMO.   .kMMMMMWl    ,KMMMMMK,     lWMMMWd.   .:x0KKKkc.   .dWMMMMMMMMMMMNl\n//      .    .c0WMMMMMMMMMMMMMMO.   .kMMMMMWo    ,KMMMMMK,     lWMMMMNd.     ....     .xNMMMMMMMMMMW0c.    .\n//      l      .,lddxxxxxxxxxxxc.    :xxxxxd,    .lxxxxxl.     ,dxxxxxd:.            .cdxxxxxxxxddl,.      l\n//      No.                                                                                              .oN\n//      MW0l'                                                                                          'l0WM\n//      MMMWKd;.                                                                                    .;dKWMMM\n//\n// // // // // // // // // // // // // // // // // // // // // // // // // // // // // // // // // // // // // // // // // // // // // // // // // // // // // // // // // // // // //\n",
  "sourcePath": "/Users/iii6/Documents/GitHub/Gamble360/contracts/iii6Utils/Math/iii6PriceMath.sol",
  "compiler": {
    "name": "solc",
    "version": "0.8.17+commit.8df45f5f.Emscripten.clang"
  },
  "schemaVersion": "3.4.8",
  "updatedAt": "2023-04-02T20:30:54.870Z",
  "devdoc": {
    "kind": "dev",
    "methods": {
      "COIN_USD()": {
        "details": "gets value of gascoin derived from iii6PriceConsumer => _get[...]Usdc()",
        "params": {
          "": "// EXTERNAL"
        },
        "returns": {
          "_0": "uint256 gascoin price in usdc"
        }
      },
      "ETH_USD()": {
        "details": "gets value of eth derived from INTERNAL => _get[...]Usdc()",
        "params": {
          "": "// EXTERNAL"
        },
        "returns": {
          "_0": "uint256 eth price in usdc"
        }
      },
      "X_USD()": {
        "details": "gets value of custon token x derived from iii6PriceConsumer => _get[...]Usdc()",
        "params": {
          "": "// EXTERNAL"
        },
        "returns": {
          "_0": "uint256 custon token x price in usdc"
        }
      },
      "Y_USD()": {
        "details": "gets value of custon token y derived from iii6PriceConsumer => _get[...]Usdc()",
        "params": {
          "": "// EXTERNAL"
        },
        "returns": {
          "_0": "uint256 custon token y price in usdc"
        }
      },
      "coinPriceOfEth(uint256)": {
        "details": "Returns price for input amount in chosen currency",
        "params": {
          "_amt": "uint256 amount of usd"
        },
        "returns": {
          "_0": "Result of division"
        }
      },
      "coinPriceOfUSD(uint256)": {
        "details": "Returns price for input amount in chosen currency",
        "params": {
          "_amt": "uint256 amount of usd"
        },
        "returns": {
          "_0": "Result of division"
        }
      },
      "coinPriceOfX(uint256)": {
        "details": "Returns price for input amount in chosen currency",
        "params": {
          "_amt": "uint256 amount of usd"
        },
        "returns": {
          "_0": "Result of division"
        }
      },
      "coinPriceOfY(uint256)": {
        "details": "Returns price for input amount in chosen currency",
        "params": {
          "_amt": "uint256 amount of usd"
        },
        "returns": {
          "_0": "Result of division"
        }
      },
      "constructor": {
        "details": "selects the network specific iii6PriceConsumer address and loads the contract by chain id"
      },
      "ethPriceOfUSD(uint256)": {
        "details": "Returns price for input amount in chosen currency",
        "params": {
          "_amt": "uint256 amount of usd"
        },
        "returns": {
          "_0": "Result of division"
        }
      },
      "getCoinPriceInEth()": {
        "details": "gets value of gascoin denominated in eth derived from _get[...]Usdc()",
        "returns": {
          "coinPriceEth": "uint256 price of gascoin denominated in eth"
        }
      },
      "getCoinPriceInX()": {
        "details": "gets value of gascoin denominated in eth derived from _get[...]Usdc()",
        "returns": {
          "coinPriceX": "uint256 price of gascoin denominated in eth"
        }
      },
      "getCoinPriceInY()": {
        "details": "gets value of gascoin denominated in eth derived from _get[...]Usdc()",
        "returns": {
          "coinPriceY": "uint256 price of gascoin denominated in eth"
        }
      },
      "getEthPriceInCoin()": {
        "details": "gets value of eth denominated in gascoin derived from _get[...]Usdc()",
        "returns": {
          "ethPriceCoin": "uint256 price of eth denominated in gascoin"
        }
      },
      "getEthPriceInX()": {
        "details": "gets value of eth denominated in custom token x derived from _get[...]Usdc()",
        "returns": {
          "ethPriceX": "uint256 price of eth denominated in custom token x"
        }
      },
      "getEthPriceInY()": {
        "details": "gets value of eth denominated in custom token y derived from _get[...]Usdc()",
        "returns": {
          "ethPriceY": "uint256 price of eth denominated in custom token y"
        }
      },
      "getXPriceInCoin()": {
        "details": "gets value of gascoin denominated in eth derived from _get[...]Usdc()",
        "returns": {
          "xPriceCoin": "uint256 price of gascoin denominated in eth"
        }
      },
      "getXPriceInEth()": {
        "details": "gets value of gascoin denominated in eth derived from _get[...]Usdc()",
        "returns": {
          "xPriceEth": "uint256 price of gascoin denominated in eth"
        }
      },
      "getXPriceInY()": {
        "details": "gets value of gascoin denominated in eth derived from _get[...]Usdc()",
        "returns": {
          "xPriceY": "uint256 price of gascoin denominated in eth"
        }
      },
      "getYPriceInCoin()": {
        "details": "gets value of gascoin denominated in eth derived from _get[...]Usdc()",
        "returns": {
          "yPriceCoin": "uint256 price of gascoin denominated in eth"
        }
      },
      "getYPriceInEth()": {
        "details": "gets value of gascoin denominated in eth derived from _get[...]Usdc()",
        "returns": {
          "yPriceEth": "uint256 price of gascoin denominated in eth"
        }
      },
      "getYPriceInX()": {
        "details": "gets value of gascoin denominated in eth derived from _get[...]Usdc()",
        "returns": {
          "yPriceX": "uint256 price of gascoin denominated in eth"
        }
      },
      "setX(address,uint256)": {
        "details": "sets the oracle for custom token x and adapts digit length",
        "params": {
          "": "// EXTERNAL",
          "_digits": "number of decimals passed by oracle",
          "_oracle": "address of the chainlink pricefeed oracle contract"
        },
        "returns": {
          "_0": "bool success"
        }
      },
      "setY(address,uint256)": {
        "details": "sets the oracle for custom token y and adapts digit length",
        "params": {
          "": "// EXTERNAL",
          "_digits": "number of decimals passed by oracle",
          "_oracle": "address of the chainlink pricefeed oracle contract"
        },
        "returns": {
          "_0": "bool success"
        }
      },
      "xPriceOfUSD(uint256)": {
        "details": "Returns price for input amount in chosen currency",
        "params": {
          "_amt": "uint256 amount of usd"
        },
        "returns": {
          "_0": "Result of division"
        }
      },
      "yPriceOfUSD(uint256)": {
        "details": "Returns price for input amount in chosen currency",
        "params": {
          "_amt": "uint256 amount of usd"
        },
        "returns": {
          "_0": "Result of division"
        }
      }
    },
    "stateVariables": {
      "priceFeed": {
        "details": "this contract is a model contract to be deployed through the iii6AssetFactory"
      }
    },
    "version": 1
  },
  "userdoc": {
    "kind": "user",
    "methods": {},
    "version": 1
  }
}