{
  "contractName": "iii6CoinModelDrop",
  "abi": [
    {
      "inputs": [
        {
          "internalType": "string",
          "name": "_name",
          "type": "string"
        },
        {
          "internalType": "string",
          "name": "_sym",
          "type": "string"
        },
        {
          "internalType": "uint256",
          "name": "_rate",
          "type": "uint256"
        },
        {
          "internalType": "uint256",
          "name": "_supply",
          "type": "uint256"
        },
        {
          "internalType": "bool",
          "name": "_burn",
          "type": "bool"
        },
        {
          "internalType": "bool",
          "name": "_pause",
          "type": "bool"
        },
        {
          "internalType": "uint256",
          "name": "_curr",
          "type": "uint256"
        }
      ],
      "stateMutability": "nonpayable",
      "type": "constructor"
    },
    {
      "anonymous": false,
      "inputs": [
        {
          "indexed": true,
          "internalType": "address",
          "name": "owner",
          "type": "address"
        },
        {
          "indexed": true,
          "internalType": "address",
          "name": "spender",
          "type": "address"
        },
        {
          "indexed": false,
          "internalType": "uint256",
          "name": "value",
          "type": "uint256"
        }
      ],
      "name": "Approval",
      "type": "event"
    },
    {
      "anonymous": false,
      "inputs": [
        {
          "indexed": true,
          "internalType": "address",
          "name": "previousOwner",
          "type": "address"
        },
        {
          "indexed": true,
          "internalType": "address",
          "name": "newOwner",
          "type": "address"
        }
      ],
      "name": "OwnershipTransferred",
      "type": "event"
    },
    {
      "anonymous": false,
      "inputs": [
        {
          "indexed": false,
          "internalType": "address",
          "name": "account",
          "type": "address"
        }
      ],
      "name": "Paused",
      "type": "event"
    },
    {
      "anonymous": false,
      "inputs": [
        {
          "indexed": true,
          "internalType": "address",
          "name": "from",
          "type": "address"
        },
        {
          "indexed": true,
          "internalType": "address",
          "name": "to",
          "type": "address"
        },
        {
          "indexed": false,
          "internalType": "uint256",
          "name": "value",
          "type": "uint256"
        }
      ],
      "name": "Transfer",
      "type": "event"
    },
    {
      "anonymous": false,
      "inputs": [
        {
          "indexed": false,
          "internalType": "address",
          "name": "account",
          "type": "address"
        }
      ],
      "name": "Unpaused",
      "type": "event"
    },
    {
      "stateMutability": "payable",
      "type": "fallback"
    },
    {
      "inputs": [],
      "name": "MAX_SUPPLY",
      "outputs": [
        {
          "internalType": "uint256",
          "name": "",
          "type": "uint256"
        }
      ],
      "stateMutability": "view",
      "type": "function"
    },
    {
      "inputs": [],
      "name": "PUB_SUPPLY",
      "outputs": [
        {
          "internalType": "uint256",
          "name": "",
          "type": "uint256"
        }
      ],
      "stateMutability": "view",
      "type": "function"
    },
    {
      "inputs": [
        {
          "internalType": "address",
          "name": "owner",
          "type": "address"
        },
        {
          "internalType": "address",
          "name": "spender",
          "type": "address"
        }
      ],
      "name": "allowance",
      "outputs": [
        {
          "internalType": "uint256",
          "name": "",
          "type": "uint256"
        }
      ],
      "stateMutability": "view",
      "type": "function"
    },
    {
      "inputs": [
        {
          "internalType": "address",
          "name": "spender",
          "type": "address"
        },
        {
          "internalType": "uint256",
          "name": "amount",
          "type": "uint256"
        }
      ],
      "name": "approve",
      "outputs": [
        {
          "internalType": "bool",
          "name": "",
          "type": "bool"
        }
      ],
      "stateMutability": "nonpayable",
      "type": "function"
    },
    {
      "inputs": [
        {
          "internalType": "address",
          "name": "account",
          "type": "address"
        }
      ],
      "name": "balanceOf",
      "outputs": [
        {
          "internalType": "uint256",
          "name": "",
          "type": "uint256"
        }
      ],
      "stateMutability": "view",
      "type": "function"
    },
    {
      "inputs": [
        {
          "internalType": "uint256",
          "name": "_amount",
          "type": "uint256"
        }
      ],
      "name": "burn",
      "outputs": [],
      "stateMutability": "nonpayable",
      "type": "function"
    },
    {
      "inputs": [
        {
          "internalType": "address",
          "name": "account",
          "type": "address"
        },
        {
          "internalType": "uint256",
          "name": "amount",
          "type": "uint256"
        }
      ],
      "name": "burnFrom",
      "outputs": [],
      "stateMutability": "nonpayable",
      "type": "function"
    },
    {
      "inputs": [
        {
          "internalType": "uint256",
          "name": "_amount",
          "type": "uint256"
        }
      ],
      "name": "buyTokens",
      "outputs": [
        {
          "internalType": "uint256",
          "name": "",
          "type": "uint256"
        }
      ],
      "stateMutability": "payable",
      "type": "function"
    },
    {
      "inputs": [],
      "name": "decimals",
      "outputs": [
        {
          "internalType": "uint8",
          "name": "",
          "type": "uint8"
        }
      ],
      "stateMutability": "view",
      "type": "function"
    },
    {
      "inputs": [
        {
          "internalType": "address",
          "name": "spender",
          "type": "address"
        },
        {
          "internalType": "uint256",
          "name": "subtractedValue",
          "type": "uint256"
        }
      ],
      "name": "decreaseAllowance",
      "outputs": [
        {
          "internalType": "bool",
          "name": "",
          "type": "bool"
        }
      ],
      "stateMutability": "nonpayable",
      "type": "function"
    },
    {
      "inputs": [
        {
          "internalType": "address",
          "name": "spender",
          "type": "address"
        },
        {
          "internalType": "uint256",
          "name": "addedValue",
          "type": "uint256"
        }
      ],
      "name": "increaseAllowance",
      "outputs": [
        {
          "internalType": "bool",
          "name": "",
          "type": "bool"
        }
      ],
      "stateMutability": "nonpayable",
      "type": "function"
    },
    {
      "inputs": [],
      "name": "name",
      "outputs": [
        {
          "internalType": "string",
          "name": "",
          "type": "string"
        }
      ],
      "stateMutability": "view",
      "type": "function"
    },
    {
      "inputs": [],
      "name": "owner",
      "outputs": [
        {
          "internalType": "address",
          "name": "",
          "type": "address"
        }
      ],
      "stateMutability": "view",
      "type": "function"
    },
    {
      "inputs": [],
      "name": "paused",
      "outputs": [
        {
          "internalType": "bool",
          "name": "",
          "type": "bool"
        }
      ],
      "stateMutability": "view",
      "type": "function"
    },
    {
      "inputs": [],
      "name": "rate",
      "outputs": [
        {
          "internalType": "uint256",
          "name": "",
          "type": "uint256"
        }
      ],
      "stateMutability": "view",
      "type": "function"
    },
    {
      "inputs": [],
      "name": "renounceOwnership",
      "outputs": [],
      "stateMutability": "nonpayable",
      "type": "function"
    },
    {
      "inputs": [
        {
          "internalType": "uint256",
          "name": "_newSupply",
          "type": "uint256"
        }
      ],
      "name": "setMaxSupply",
      "outputs": [
        {
          "internalType": "uint256",
          "name": "",
          "type": "uint256"
        }
      ],
      "stateMutability": "nonpayable",
      "type": "function"
    },
    {
      "inputs": [
        {
          "internalType": "uint256",
          "name": "_rate",
          "type": "uint256"
        }
      ],
      "name": "setRate",
      "outputs": [
        {
          "internalType": "uint256",
          "name": "",
          "type": "uint256"
        }
      ],
      "stateMutability": "nonpayable",
      "type": "function"
    },
    {
      "inputs": [],
      "name": "symbol",
      "outputs": [
        {
          "internalType": "string",
          "name": "",
          "type": "string"
        }
      ],
      "stateMutability": "view",
      "type": "function"
    },
    {
      "inputs": [],
      "name": "title",
      "outputs": [
        {
          "internalType": "string",
          "name": "",
          "type": "string"
        }
      ],
      "stateMutability": "view",
      "type": "function"
    },
    {
      "inputs": [],
      "name": "toggleBurn",
      "outputs": [
        {
          "internalType": "bool",
          "name": "",
          "type": "bool"
        }
      ],
      "stateMutability": "nonpayable",
      "type": "function"
    },
    {
      "inputs": [],
      "name": "togglePause",
      "outputs": [
        {
          "internalType": "bool",
          "name": "",
          "type": "bool"
        }
      ],
      "stateMutability": "nonpayable",
      "type": "function"
    },
    {
      "inputs": [],
      "name": "toggleState",
      "outputs": [
        {
          "internalType": "bool",
          "name": "",
          "type": "bool"
        }
      ],
      "stateMutability": "nonpayable",
      "type": "function"
    },
    {
      "inputs": [],
      "name": "totalSupply",
      "outputs": [
        {
          "internalType": "uint256",
          "name": "",
          "type": "uint256"
        }
      ],
      "stateMutability": "view",
      "type": "function"
    },
    {
      "inputs": [
        {
          "internalType": "address",
          "name": "to",
          "type": "address"
        },
        {
          "internalType": "uint256",
          "name": "amount",
          "type": "uint256"
        }
      ],
      "name": "transfer",
      "outputs": [
        {
          "internalType": "bool",
          "name": "",
          "type": "bool"
        }
      ],
      "stateMutability": "nonpayable",
      "type": "function"
    },
    {
      "inputs": [
        {
          "internalType": "address",
          "name": "from",
          "type": "address"
        },
        {
          "internalType": "address",
          "name": "to",
          "type": "address"
        },
        {
          "internalType": "uint256",
          "name": "amount",
          "type": "uint256"
        }
      ],
      "name": "transferFrom",
      "outputs": [
        {
          "internalType": "bool",
          "name": "",
          "type": "bool"
        }
      ],
      "stateMutability": "nonpayable",
      "type": "function"
    },
    {
      "inputs": [
        {
          "internalType": "address",
          "name": "newOwner",
          "type": "address"
        }
      ],
      "name": "transferOwnership",
      "outputs": [],
      "stateMutability": "nonpayable",
      "type": "function"
    },
    {
      "stateMutability": "payable",
      "type": "receive"
    },
    {
      "inputs": [],
      "name": "dropToken",
      "outputs": [],
      "stateMutability": "nonpayable",
      "type": "function"
    }
  ],
  "bytecode": "0x60806040523480156200001157600080fd5b5060405162002de338038062002de3833981810160405281019062000037919062000415565b8686868686868585816003908162000050919062000747565b50806004908162000062919062000747565b5050506000600560006101000a81548160ff021916908315150217905550620000a0620000946200011960201b60201c565b6200012160201b60201c565b620000b184620001e760201b60201c565b508260088190555085600a9081620000ca919062000747565b5081600960006101000a81548160ff02191690831515021790555080600960016101000a81548160ff02191690831515021790555083600681905550505050505050505050505050506200082e565b600033905090565b6000600560019054906101000a900473ffffffffffffffffffffffffffffffffffffffff16905081600560016101000a81548173ffffffffffffffffffffffffffffffffffffffff021916908373ffffffffffffffffffffffffffffffffffffffff1602179055508173ffffffffffffffffffffffffffffffffffffffff168173ffffffffffffffffffffffffffffffffffffffff167f8be0079c531659141344cd1fd0a4f28419497f9722a3daafe3b4186f6b6457e060405160405180910390a35050565b6000808290506000811015620001fc57600080fd5b806006819055915050919050565b6000604051905090565b600080fd5b600080fd5b600080fd5b600080fd5b6000601f19601f8301169050919050565b7f4e487b7100000000000000000000000000000000000000000000000000000000600052604160045260246000fd5b620002738262000228565b810181811067ffffffffffffffff8211171562000295576200029462000239565b5b80604052505050565b6000620002aa6200020a565b9050620002b8828262000268565b919050565b600067ffffffffffffffff821115620002db57620002da62000239565b5b620002e68262000228565b9050602081019050919050565b60005b8381101562000313578082015181840152602081019050620002f6565b60008484015250505050565b6000620003366200033084620002bd565b6200029e565b90508281526020810184848401111562000355576200035462000223565b5b62000362848285620002f3565b509392505050565b600082601f8301126200038257620003816200021e565b5b8151620003948482602086016200031f565b91505092915050565b6000819050919050565b620003b2816200039d565b8114620003be57600080fd5b50565b600081519050620003d281620003a7565b92915050565b60008115159050919050565b620003ef81620003d8565b8114620003fb57600080fd5b50565b6000815190506200040f81620003e4565b92915050565b600080600080600080600060e0888a03121562000437576200043662000214565b5b600088015167ffffffffffffffff81111562000458576200045762000219565b5b620004668a828b016200036a565b975050602088015167ffffffffffffffff8111156200048a576200048962000219565b5b620004988a828b016200036a565b9650506040620004ab8a828b01620003c1565b9550506060620004be8a828b01620003c1565b9450506080620004d18a828b01620003fe565b93505060a0620004e48a828b01620003fe565b92505060c0620004f78a828b01620003c1565b91505092959891949750929550565b600081519050919050565b7f4e487b7100000000000000000000000000000000000000000000000000000000600052602260045260246000fd5b600060028204905060018216806200055957607f821691505b6020821081036200056f576200056e62000511565b5b50919050565b60008190508160005260206000209050919050565b60006020601f8301049050919050565b600082821b905092915050565b600060088302620005d97fffffffffffffffffffffffffffffffffffffffffffffffffffffffffffffffff826200059a565b620005e586836200059a565b95508019841693508086168417925050509392505050565b6000819050919050565b600062000628620006226200061c846200039d565b620005fd565b6200039d565b9050919050565b6000819050919050565b620006448362000607565b6200065c62000653826200062f565b848454620005a7565b825550505050565b600090565b6200067362000664565b6200068081848462000639565b505050565b5b81811015620006a8576200069c60008262000669565b60018101905062000686565b5050565b601f821115620006f757620006c18162000575565b620006cc846200058a565b81016020851015620006dc578190505b620006f4620006eb856200058a565b83018262000685565b50505b505050565b600082821c905092915050565b60006200071c60001984600802620006fc565b1980831691505092915050565b600062000737838362000709565b9150826002028217905092915050565b620007528262000506565b67ffffffffffffffff8111156200076e576200076d62000239565b5b6200077a825462000540565b62000787828285620006ac565b600060209050601f831160018114620007bf5760008415620007aa578287015190505b620007b6858262000729565b86555062000826565b601f198416620007cf8662000575565b60005b82811015620007f957848901518255600182019150602085019450602081019050620007d2565b8683101562000819578489015162000815601f89168262000709565b8355505b6001600288020188555050505b505050505050565b6125a5806200083e6000396000f3fe6080604052600436106101bb5760003560e01c80636f8b44b0116100ec578063a457c2d71161008a578063c7945de011610064578063c7945de014610651578063d37e510414610668578063dd62ed3e14610693578063f2fde38b146106d0576101ca565b8063a457c2d7146105ac578063a9059cbb146105e9578063c4ae316814610626576101ca565b8063778a56ce116100c6578063778a56ce1461050257806379cc67901461052d5780638da5cb5b1461055657806395d89b4114610581576101ca565b80636f8b44b01461047157806370a08231146104ae578063715018a6146104eb576101ca565b806332cb6b0c11610159578063395093511161013357806339509351146103b557806342966c68146103f25780634a79d50c1461041b5780635c975abb14610446576101ca565b806332cb6b0c1461031d57806334fcf437146103485780633610724e14610385576101ca565b8063201a49d611610195578063201a49d61461025f57806323b872dd1461028a5780632c4e722e146102c7578063313ce567146102f2576101ca565b806306fdde03146101cc578063095ea7b3146101f757806318160ddd14610234576101ca565b366101ca576101c86106f9565b005b005b3480156101d857600080fd5b506101e1610718565b6040516101ee919061195d565b60405180910390f35b34801561020357600080fd5b5061021e60048036038101906102199190611a18565b6107aa565b60405161022b9190611a73565b60405180910390f35b34801561024057600080fd5b506102496107cd565b6040516102569190611a9d565b60405180910390f35b34801561026b57600080fd5b506102746107d7565b6040516102819190611a9d565b60405180910390f35b34801561029657600080fd5b506102b160048036038101906102ac9190611ab8565b6107dd565b6040516102be9190611a73565b60405180910390f35b3480156102d357600080fd5b506102dc61080c565b6040516102e99190611a9d565b60405180910390f35b3480156102fe57600080fd5b50610307610812565b6040516103149190611b27565b60405180910390f35b34801561032957600080fd5b5061033261081b565b60405161033f9190611a9d565b60405180910390f35b34801561035457600080fd5b5061036f600480360381019061036a9190611b42565b610821565b60405161037c9190611a9d565b60405180910390f35b61039f600480360381019061039a9190611b42565b61083b565b6040516103ac9190611a9d565b60405180910390f35b3480156103c157600080fd5b506103dc60048036038101906103d79190611a18565b6108c3565b6040516103e99190611a73565b60405180910390f35b3480156103fe57600080fd5b5061041960048036038101906104149190611b42565b6108fa565b005b34801561042757600080fd5b50610430610927565b60405161043d919061195d565b60405180910390f35b34801561045257600080fd5b5061045b6109b5565b6040516104689190611a73565b60405180910390f35b34801561047d57600080fd5b5061049860048036038101906104939190611b42565b6109cc565b6040516104a59190611a9d565b60405180910390f35b3480156104ba57600080fd5b506104d560048036038101906104d09190611b6f565b6109e3565b6040516104e29190611a9d565b60405180910390f35b3480156104f757600080fd5b50610500610a2b565b005b34801561050e57600080fd5b50610517610a3f565b6040516105249190611a73565b60405180910390f35b34801561053957600080fd5b50610554600480360381019061054f9190611a18565b610a77565b005b34801561056257600080fd5b5061056b610a97565b6040516105789190611bab565b60405180910390f35b34801561058d57600080fd5b50610596610ac1565b6040516105a3919061195d565b60405180910390f35b3480156105b857600080fd5b506105d360048036038101906105ce9190611a18565b610b53565b6040516105e09190611a73565b60405180910390f35b3480156105f557600080fd5b50610610600480360381019061060b9190611a18565b610bca565b60405161061d9190611a73565b60405180910390f35b34801561063257600080fd5b5061063b610bed565b6040516106489190611a73565b60405180910390f35b34801561065d57600080fd5b50610666610c25565b005b34801561067457600080fd5b5061067d610c3a565b60405161068a9190611a73565b60405180910390f35b34801561069f57600080fd5b506106ba60048036038101906106b59190611bc6565b610c94565b6040516106c79190611a9d565b60405180910390f35b3480156106dc57600080fd5b506106f760048036038101906106f29190611b6f565b610d1b565b005b6000600654346107099190611c64565b90506107153382610d9e565b50565b60606003805461072790611cc4565b80601f016020809104026020016040519081016040528092919081815260200182805461075390611cc4565b80156107a05780601f10610775576101008083540402835291602001916107a0565b820191906000526020600020905b81548152906001019060200180831161078357829003601f168201915b5050505050905090565b6000806107b5610ef4565b90506107c2818585610efc565b600191505092915050565b6000600254905090565b60075481565b6000806107e8610ef4565b90506107f58582856110c5565b610800858585611151565b60019150509392505050565b60065481565b60006012905090565b60085481565b600061082b6113c7565b61083482611445565b9050919050565b60006006548261084b9190611cf5565b341161085657600080fd5b6000670de0b6b3a76400008361086c9190611cf5565b60075460085461087c9190611d37565b6108869190611d37565b101561089157600080fd5b6108ae33670de0b6b3a7640000846108a99190611cf5565b610d9e565b600654826108bc9190611cf5565b9050919050565b6000806108ce610ef4565b90506108ef8185856108e08589610c94565b6108ea9190611d6b565b610efc565b600191505092915050565b60001515600960009054906101000a900460ff1615150361091a57600080fd5b6109243382611467565b50565b600a805461093490611cc4565b80601f016020809104026020016040519081016040528092919081815260200182805461096090611cc4565b80156109ad5780601f10610982576101008083540402835291602001916109ad565b820191906000526020600020905b81548152906001019060200180831161099057829003601f168201915b505050505081565b6000600560009054906101000a900460ff16905090565b60006109d66113c7565b8160088190559050919050565b60008060008373ffffffffffffffffffffffffffffffffffffffff1673ffffffffffffffffffffffffffffffffffffffff168152602001908152602001600020549050919050565b610a336113c7565b610a3d6000611634565b565b6000610a496113c7565b600960009054906101000a900460ff1615600960006101000a81548160ff0219169083151502179055905090565b610a8982610a83610ef4565b836110c5565b610a938282611467565b5050565b6000600560019054906101000a900473ffffffffffffffffffffffffffffffffffffffff16905090565b606060048054610ad090611cc4565b80601f0160208091040260200160405190810160405280929190818152602001828054610afc90611cc4565b8015610b495780601f10610b1e57610100808354040283529160200191610b49565b820191906000526020600020905b815481529060010190602001808311610b2c57829003601f168201915b5050505050905090565b600080610b5e610ef4565b90506000610b6c8286610c94565b905083811015610bb1576040517f08c379a0000000000000000000000000000000000000000000000000000000008152600401610ba890611e11565b60405180910390fd5b610bbe8286868403610efc565b60019250505092915050565b600080610bd5610ef4565b9050610be2818585611151565b600191505092915050565b6000610bf76113c7565b600960019054906101000a900460ff1615600960016101000a81548160ff0219169083151502179055905090565b610c383368056bc75e2d63100000610d9e565b565b6000610c446113c7565b60001515600960019054906101000a900460ff16151503610c6457600080fd5b610c6c6109b5565b15610c7e57610c796116fa565b610c87565b610c8661175d565b5b610c8f6109b5565b905090565b6000600160008473ffffffffffffffffffffffffffffffffffffffff1673ffffffffffffffffffffffffffffffffffffffff16815260200190815260200160002060008373ffffffffffffffffffffffffffffffffffffffff1673ffffffffffffffffffffffffffffffffffffffff16815260200190815260200160002054905092915050565b610d236113c7565b600073ffffffffffffffffffffffffffffffffffffffff168173ffffffffffffffffffffffffffffffffffffffff1603610d92576040517f08c379a0000000000000000000000000000000000000000000000000000000008152600401610d8990611ea3565b60405180910390fd5b610d9b81611634565b50565b600073ffffffffffffffffffffffffffffffffffffffff168273ffffffffffffffffffffffffffffffffffffffff1603610e0d576040517f08c379a0000000000000000000000000000000000000000000000000000000008152600401610e0490611f0f565b60405180910390fd5b610e19600083836117c0565b8060026000828254610e2b9190611d6b565b92505081905550806000808473ffffffffffffffffffffffffffffffffffffffff1673ffffffffffffffffffffffffffffffffffffffff168152602001908152602001600020600082825401925050819055508173ffffffffffffffffffffffffffffffffffffffff16600073ffffffffffffffffffffffffffffffffffffffff167fddf252ad1be2c89b69c2b068fc378daa952ba7f163c4a11628f55a4df523b3ef83604051610edc9190611a9d565b60405180910390a3610ef0600083836117d8565b5050565b600033905090565b600073ffffffffffffffffffffffffffffffffffffffff168373ffffffffffffffffffffffffffffffffffffffff1603610f6b576040517f08c379a0000000000000000000000000000000000000000000000000000000008152600401610f6290611fa1565b60405180910390fd5b600073ffffffffffffffffffffffffffffffffffffffff168273ffffffffffffffffffffffffffffffffffffffff1603610fda576040517f08c379a0000000000000000000000000000000000000000000000000000000008152600401610fd190612033565b60405180910390fd5b80600160008573ffffffffffffffffffffffffffffffffffffffff1673ffffffffffffffffffffffffffffffffffffffff16815260200190815260200160002060008473ffffffffffffffffffffffffffffffffffffffff1673ffffffffffffffffffffffffffffffffffffffff168152602001908152602001600020819055508173ffffffffffffffffffffffffffffffffffffffff168373ffffffffffffffffffffffffffffffffffffffff167f8c5be1e5ebec7d5bd14f71427d1e84f3dd0314c0f7b2291e5b200ac8c7c3b925836040516110b89190611a9d565b60405180910390a3505050565b60006110d18484610c94565b90507fffffffffffffffffffffffffffffffffffffffffffffffffffffffffffffffff811461114b578181101561113d576040517f08c379a00000000000000000000000000000000000000000000000000000000081526004016111349061209f565b60405180910390fd5b61114a8484848403610efc565b5b50505050565b600073ffffffffffffffffffffffffffffffffffffffff168373ffffffffffffffffffffffffffffffffffffffff16036111c0576040517f08c379a00000000000000000000000000000000000000000000000000000000081526004016111b790612131565b60405180910390fd5b600073ffffffffffffffffffffffffffffffffffffffff168273ffffffffffffffffffffffffffffffffffffffff160361122f576040517f08c379a0000000000000000000000000000000000000000000000000000000008152600401611226906121c3565b60405180910390fd5b61123a8383836117c0565b60008060008573ffffffffffffffffffffffffffffffffffffffff1673ffffffffffffffffffffffffffffffffffffffff168152602001908152602001600020549050818110156112c0576040517f08c379a00000000000000000000000000000000000000000000000000000000081526004016112b790612255565b60405180910390fd5b8181036000808673ffffffffffffffffffffffffffffffffffffffff1673ffffffffffffffffffffffffffffffffffffffff16815260200190815260200160002081905550816000808573ffffffffffffffffffffffffffffffffffffffff1673ffffffffffffffffffffffffffffffffffffffff168152602001908152602001600020600082825401925050819055508273ffffffffffffffffffffffffffffffffffffffff168473ffffffffffffffffffffffffffffffffffffffff167fddf252ad1be2c89b69c2b068fc378daa952ba7f163c4a11628f55a4df523b3ef846040516113ae9190611a9d565b60405180910390a36113c18484846117d8565b50505050565b6113cf610ef4565b73ffffffffffffffffffffffffffffffffffffffff166113ed610a97565b73ffffffffffffffffffffffffffffffffffffffff1614611443576040517f08c379a000000000000000000000000000000000000000000000000000000000815260040161143a906122c1565b60405180910390fd5b565b600080829050600081101561145957600080fd5b806006819055915050919050565b600073ffffffffffffffffffffffffffffffffffffffff168273ffffffffffffffffffffffffffffffffffffffff16036114d6576040517f08c379a00000000000000000000000000000000000000000000000000000000081526004016114cd90612353565b60405180910390fd5b6114e2826000836117c0565b60008060008473ffffffffffffffffffffffffffffffffffffffff1673ffffffffffffffffffffffffffffffffffffffff16815260200190815260200160002054905081811015611568576040517f08c379a000000000000000000000000000000000000000000000000000000000815260040161155f906123e5565b60405180910390fd5b8181036000808573ffffffffffffffffffffffffffffffffffffffff1673ffffffffffffffffffffffffffffffffffffffff1681526020019081526020016000208190555081600260008282540392505081905550600073ffffffffffffffffffffffffffffffffffffffff168373ffffffffffffffffffffffffffffffffffffffff167fddf252ad1be2c89b69c2b068fc378daa952ba7f163c4a11628f55a4df523b3ef8460405161161b9190611a9d565b60405180910390a361162f836000846117d8565b505050565b6000600560019054906101000a900473ffffffffffffffffffffffffffffffffffffffff16905081600560016101000a81548173ffffffffffffffffffffffffffffffffffffffff021916908373ffffffffffffffffffffffffffffffffffffffff1602179055508173ffffffffffffffffffffffffffffffffffffffff168173ffffffffffffffffffffffffffffffffffffffff167f8be0079c531659141344cd1fd0a4f28419497f9722a3daafe3b4186f6b6457e060405160405180910390a35050565b6117026117dd565b6000600560006101000a81548160ff0219169083151502179055507f5db9ee0a495bf2e6ff9c91a7834c1ba4fdd244a5e8aa4e537bd38aeae4b073aa611746610ef4565b6040516117539190611bab565b60405180910390a1565b611765611826565b6001600560006101000a81548160ff0219169083151502179055507f62e78cea01bee320cd4e420270b5ea74000d11b0c9f74754ebdbfc544b05a2586117a9610ef4565b6040516117b69190611bab565b60405180910390a1565b6117c8611826565b6117d3838383611870565b505050565b505050565b6117e56109b5565b611824576040517f08c379a000000000000000000000000000000000000000000000000000000000815260040161181b90612451565b60405180910390fd5b565b61182e6109b5565b1561186e576040517f08c379a0000000000000000000000000000000000000000000000000000000008152600401611865906124bd565b60405180910390fd5b565b61187b8383836118c8565b6118836109b5565b156118c3576040517f08c379a00000000000000000000000000000000000000000000000000000000081526004016118ba9061254f565b60405180910390fd5b505050565b505050565b600081519050919050565b600082825260208201905092915050565b60005b838110156119075780820151818401526020810190506118ec565b60008484015250505050565b6000601f19601f8301169050919050565b600061192f826118cd565b61193981856118d8565b93506119498185602086016118e9565b61195281611913565b840191505092915050565b600060208201905081810360008301526119778184611924565b905092915050565b600080fd5b600073ffffffffffffffffffffffffffffffffffffffff82169050919050565b60006119af82611984565b9050919050565b6119bf816119a4565b81146119ca57600080fd5b50565b6000813590506119dc816119b6565b92915050565b6000819050919050565b6119f5816119e2565b8114611a0057600080fd5b50565b600081359050611a12816119ec565b92915050565b60008060408385031215611a2f57611a2e61197f565b5b6000611a3d858286016119cd565b9250506020611a4e85828601611a03565b9150509250929050565b60008115159050919050565b611a6d81611a58565b82525050565b6000602082019050611a886000830184611a64565b92915050565b611a97816119e2565b82525050565b6000602082019050611ab26000830184611a8e565b92915050565b600080600060608486031215611ad157611ad061197f565b5b6000611adf868287016119cd565b9350506020611af0868287016119cd565b9250506040611b0186828701611a03565b9150509250925092565b600060ff82169050919050565b611b2181611b0b565b82525050565b6000602082019050611b3c6000830184611b18565b92915050565b600060208284031215611b5857611b5761197f565b5b6000611b6684828501611a03565b91505092915050565b600060208284031215611b8557611b8461197f565b5b6000611b93848285016119cd565b91505092915050565b611ba5816119a4565b82525050565b6000602082019050611bc06000830184611b9c565b92915050565b60008060408385031215611bdd57611bdc61197f565b5b6000611beb858286016119cd565b9250506020611bfc858286016119cd565b9150509250929050565b7f4e487b7100000000000000000000000000000000000000000000000000000000600052601260045260246000fd5b7f4e487b7100000000000000000000000000000000000000000000000000000000600052601160045260246000fd5b6000611c6f826119e2565b9150611c7a836119e2565b925082611c8a57611c89611c06565b5b828204905092915050565b7f4e487b7100000000000000000000000000000000000000000000000000000000600052602260045260246000fd5b60006002820490506001821680611cdc57607f821691505b602082108103611cef57611cee611c95565b5b50919050565b6000611d00826119e2565b9150611d0b836119e2565b9250828202611d19816119e2565b91508282048414831517611d3057611d2f611c35565b5b5092915050565b6000611d42826119e2565b9150611d4d836119e2565b9250828203905081811115611d6557611d64611c35565b5b92915050565b6000611d76826119e2565b9150611d81836119e2565b9250828201905080821115611d9957611d98611c35565b5b92915050565b7f45524332303a2064656372656173656420616c6c6f77616e63652062656c6f7760008201527f207a65726f000000000000000000000000000000000000000000000000000000602082015250565b6000611dfb6025836118d8565b9150611e0682611d9f565b604082019050919050565b60006020820190508181036000830152611e2a81611dee565b9050919050565b7f4f776e61626c653a206e6577206f776e657220697320746865207a65726f206160008201527f6464726573730000000000000000000000000000000000000000000000000000602082015250565b6000611e8d6026836118d8565b9150611e9882611e31565b604082019050919050565b60006020820190508181036000830152611ebc81611e80565b9050919050565b7f45524332303a206d696e7420746f20746865207a65726f206164647265737300600082015250565b6000611ef9601f836118d8565b9150611f0482611ec3565b602082019050919050565b60006020820190508181036000830152611f2881611eec565b9050919050565b7f45524332303a20617070726f76652066726f6d20746865207a65726f2061646460008201527f7265737300000000000000000000000000000000000000000000000000000000602082015250565b6000611f8b6024836118d8565b9150611f9682611f2f565b604082019050919050565b60006020820190508181036000830152611fba81611f7e565b9050919050565b7f45524332303a20617070726f766520746f20746865207a65726f20616464726560008201527f7373000000000000000000000000000000000000000000000000000000000000602082015250565b600061201d6022836118d8565b915061202882611fc1565b604082019050919050565b6000602082019050818103600083015261204c81612010565b9050919050565b7f45524332303a20696e73756666696369656e7420616c6c6f77616e6365000000600082015250565b6000612089601d836118d8565b915061209482612053565b602082019050919050565b600060208201905081810360008301526120b88161207c565b9050919050565b7f45524332303a207472616e736665722066726f6d20746865207a65726f20616460008201527f6472657373000000000000000000000000000000000000000000000000000000602082015250565b600061211b6025836118d8565b9150612126826120bf565b604082019050919050565b6000602082019050818103600083015261214a8161210e565b9050919050565b7f45524332303a207472616e7366657220746f20746865207a65726f206164647260008201527f6573730000000000000000000000000000000000000000000000000000000000602082015250565b60006121ad6023836118d8565b91506121b882612151565b604082019050919050565b600060208201905081810360008301526121dc816121a0565b9050919050565b7f45524332303a207472616e7366657220616d6f756e742065786365656473206260008201527f616c616e63650000000000000000000000000000000000000000000000000000602082015250565b600061223f6026836118d8565b915061224a826121e3565b604082019050919050565b6000602082019050818103600083015261226e81612232565b9050919050565b7f4f776e61626c653a2063616c6c6572206973206e6f7420746865206f776e6572600082015250565b60006122ab6020836118d8565b91506122b682612275565b602082019050919050565b600060208201905081810360008301526122da8161229e565b9050919050565b7f45524332303a206275726e2066726f6d20746865207a65726f2061646472657360008201527f7300000000000000000000000000000000000000000000000000000000000000602082015250565b600061233d6021836118d8565b9150612348826122e1565b604082019050919050565b6000602082019050818103600083015261236c81612330565b9050919050565b7f45524332303a206275726e20616d6f756e7420657863656564732062616c616e60008201527f6365000000000000000000000000000000000000000000000000000000000000602082015250565b60006123cf6022836118d8565b91506123da82612373565b604082019050919050565b600060208201905081810360008301526123fe816123c2565b9050919050565b7f5061757361626c653a206e6f7420706175736564000000000000000000000000600082015250565b600061243b6014836118d8565b915061244682612405565b602082019050919050565b6000602082019050818103600083015261246a8161242e565b9050919050565b7f5061757361626c653a2070617573656400000000000000000000000000000000600082015250565b60006124a76010836118d8565b91506124b282612471565b602082019050919050565b600060208201905081810360008301526124d68161249a565b9050919050565b7f45524332305061757361626c653a20746f6b656e207472616e7366657220776860008201527f696c652070617573656400000000000000000000000000000000000000000000602082015250565b6000612539602a836118d8565b9150612544826124dd565b604082019050919050565b600060208201905081810360008301526125688161252c565b905091905056fea2646970667358221220873caa3f881232301d99a4e2e84c7bc1e43543ba405224835443979396bc176064736f6c63430008110033",
  "immutableReferences": {},
  "source": "// SPDX-License-Identifier: GPL-3.0\n// // // // // // // // // // // // // // // // // // // // // // // // // // // // // // // // // // // // // // // // // // // // // // // // // // // // // // // // // // // // //\n//\n//      MMWKd:..                                                                                    ..:dKWMM\n//      MKl.                                                                                            .lKW\n//      O'       ..''''''''''''.     .''''''.     .'''''.      .''''''''''''''.     .''''''''''''..       'O\n//      '     .ckKNNWNWWWWWWWWWk.   .xNWWNWNl    ,0WWWWW0,     lNWWWWWWWWWNWNk'    ;0NNNWWWWWWWWNNKkc.     '\n//           ,OWMMMMMMMMMMMMMMMO.   .kMMMMMWl    ,KMMMMMK,     lWMMMMMMMMMMM0,    ;KMMMMMMMMMMMMMMMMWO,\n//          .kMMMMMMMMMMMMMMMMMO.   .kMMMMMWl    ,KMMMMMK,     lWMMMMMMMMMM0,    ;KMMMMMMMMMMMMMMMMMMMk.\n//          '0MMMMMMMMMMMMMMMMMO.   .kMMMMMWl    ,KMMMMMK,     lWMMMMMMMMM0,    :KMMMMMMMMMMMMMMMMMMMM0'\n//          '0MMMMMMMMMMMMMMMMMO.   .kMMMMMWl    ,KMMMMMK,     lWMMMMMMMM0,    :KMMMMMMMMMMMMMMMMMMMMM0'\n//          '0MMMMMMMMMMMMMMMMMO.   .kMMMMMWl    ,KMMMMMK,     lWMMMMMMM0,    ;0NNWWMMMMMMMMMMMMMMMMMM0'\n//          '0MMMMMMMMMMMMMMMMMO.   .kMMMMMWl    ,KMMMMMK,     lWMMMMMM0,     .'.',;lkNMMMMMMMMMMMMMMM0'\n//          '0MMMMMMMMMMMMMMMMMO.   .kMMMMMWl    ,KMMMMMK,     lWMMMMMK;              ,kWMMMMMMMMMMMMM0'\n//          '0MMMMMMMMMMMMMMMMMO.   .kMMMMMWl    ,KMMMMMK,     lWMMMMX:    .:oxxdc'    .dWMMMMMMMMMMMM0'\n//          '0MMMMMMMMMMMMMMMMMO.   .kMMMMMWl    ,KMMMMMK,     lWMMMWd.   ,OWMMMMMXl.   '0MMMMMMMMMMMM0'\n//          '0MMMMMMMMMMMMMMMMMO.   .kMMMMMWl    ,KMMMMMK,     lWMMMX;   .kMMMMMMMMK,   .xMMMMMMMMMMMM0'\n//          '0MMMMMMMMMMMMMMMMMO.   .kMMMMMWl    ,KMMMMMK,     lWMMM0'   .OMMMMMMMMX;   .xMMMMMMMMMMMM0'\n//          .OMMMMMMMMMMMMMMMMMO.   .kMMMMMWl    ,KMMMMMK,     lWMMMK,    lNMMMMMMWx.   '0MMMMMMMMMMMMO.\n//           lNMMMMMMMMMMMMMMMMO.   .kMMMMMWl    ,KMMMMMK,     lWMMMWd.   .:x0KKKkc.   .dWMMMMMMMMMMMNl\n//      .    .c0WMMMMMMMMMMMMMMO.   .kMMMMMWo    ,KMMMMMK,     lWMMMMNd.     ....     .xNMMMMMMMMMMW0c.    .\n//      l      .,lddxxxxxxxxxxxc.    :xxxxxd,    .lxxxxxl.     ,dxxxxxd:.            .cdxxxxxxxxddl,.      l\n//      No.                                                                                              .oN\n//      MW0l'                                                                                          'l0WM\n//      MMMWKd;.                                                                                    .;dKWMMM\n//\n// // // // // // // // // // // // // // // // // // // // // // // // // // // // // // // // // // // // // // // // // // // // // // // // // // // // // // // // // // // // //\n//                                                                                                                                                                                  //\n//      @dev            ::              Aron Mauritala Ayuk                                                                                                                                          //\n//      @msg            ::              stereo@iii6.xyz                                                                                                                                   //\n//      @github         ::              @stereoIII6\n//      @twitter        ::              @stereoIII6                                                                                                                                              //\n//                                                                                                                                                                                  //\n// // // // // // // // // // // // // // // // // // // // // // // // // // // // // // // // // // // // // // // // // // // // // // // // // // // // // // // // // // // // //\n//                                                                                                                                                                                  //\n//      @dev            ::              Juan Xavier Valverde                                                                                                                                    //\n//      @msg            ::              juanxavier@iii6.xyz                                                                                                                               //\n//      @twitter        ::              @JuanXavier                                                                                                                                             //\n//      @github         ::              @JuanXavier                                                                                                                                             //\n//                                                                                                                                                                                  //                                                                                                                                                                                 //\n// // // // // // // // // // // // // // // // // // // // // // // // // // // // // // // // // // // // // // // // // // // // // // // // // // // // // // // // // // // // //\n//  *   *   *   *   *   *   *   *   *   *   *   *   *   *   *   *   *   *   *   *   *   *   *   *   *   *   *   *   *   *   *   *   *   *   *   *   *   *   *   *   *   *   *   *   //\n// // // // // // // // // // // // // // // // // // // // // // // // // // // // // // // // // // // // // // // // // // // // // // // // // // // // // // // // // // // // //\n//                                                                                                                                                                                  //\n//      @company        ::              Fractio Holding                                                                                                                                                                       //\n//      @title          ::              iii6 Coin Model                                                                                                                            //\n//      @description    ::              ERC20 Model Preset Contract                                                                                                                           //\n//      @version        ::              0.0.1                                                                                                                                       //\n//      @purpose        ::              ERC20 Model Preset                                                                                                          //\n//                                                                                                                                                                                  //\n//                                                                                                                                                                                  //\n//                                                                                                                                                                                  //\n//                                                                                                                                                                                  //\n//                                                                                                                                                                                  //\n// // // // // // // // // // // // // // // // // // // // // // // // // // // // // // // // // // // // // // // // // // // // // // // // // // // // // // // // // // // // //\n//  *   *   *   *   *   *   *   *   *   *   *   *   *   *   *   *   *   *   *   *   *   *   *   *   *   *   *   *   *   *   *   *   *   *   *   *   *   *   *   *   *   *   *   *   //\n// // // // // // // // // // // // // // // // // // // // // // // // // // // // // // // // // // // // // // // // // // // // // // // // // // // // // // // // // // // // //\n\n/////////////////////////////////////////////////////////////////////////////////////////////////////////////////////\n\n/////////////////////////////////////////////////////////////////////////////////////////////////////////////////////\n\npragma solidity ^0.8.7;\n\nimport \"@openzeppelin/contracts/token/ERC20/ERC20.sol\";\nimport \"@openzeppelin/contracts/access/Ownable.sol\";\nimport \"@openzeppelin/contracts/token/ERC20/extensions/ERC20Burnable.sol\";\nimport \"@openzeppelin/contracts/token/ERC20/extensions/ERC20Pausable.sol\";\nimport \"../Oracles/iii6PriceConsumer.sol\";\nimport \"../Math/iii6PriceMath.sol\";\nimport \"../Wallets/iii6Safes.sol\";\nimport \"../Misc/iii6Misc.sol\";\n\ncontract iii6CoinModel is\n    ERC20,\n    ERC20Pausable,\n    ERC20Burnable,\n    Ownable,\n    iii6Misc\n{\n    /**\n     * @dev this contract is a factory contract to deploy iii6CoinModel & iii6DiaModel\n     */\n    // \n    // \n    // \n    // \n    // \n    // \n    /**\n     * @dev declaration of storage vars\n     */\n    uint256 public rate;\n    uint256 public PUB_SUPPLY;\n    uint256 public MAX_SUPPLY;\n    bool private burns;\n    bool private pauses;\n    string public title;\n\n    /**\n     * @dev declaration of enums structs and arrays\n     */\n\n    /**\n     * @dev creates an instance of iii6CoinModel\n     * @param _name token name\n     * @param _sym token symbol\n     * @param _rate token rate\n     * @param _supply max token supply // if 0-infinte\n     * @param _burn bool burnable\n     * @param _pause bool pauseble\n     */\n    constructor(\n        string memory _name, // Token Name\n        string memory _sym, // Token Symbol\n        uint256 _rate, // Token Price in USD // 100 == 1 usd // 100000 = 1ETH\n        uint256 _supply, // Token Max Supply\n        bool _burn, // Burnable Option\n        bool _pause\n    ) ERC20(_name, _sym) {\n        _setRate(_rate); /** @dev see _setRate() :: line138 */\n        MAX_SUPPLY = _supply;\n        title = _name;\n        burns = _burn;\n        pauses = _pause;\n        rate = _rate; /** @dev see Rates{} :: line97 */\n    }\n\n    // \n    // \n    // \n    // \n    // \n    // \n\n    /**\n     * @dev sets token price in denomination currency ocoin\n     * @param _newRate token price in $ocoin (denomination currency)\n     * denomination currency can be set in setCurr()\n     * @return uint256 rate in gascoin\n     */\n    function _setRate(uint256 _newRate) internal returns (uint256) {\n        uint256 gP = _newRate;\n        if (gP < 0) revert();\n        return rate = gP;\n    }\n\n    /**\n     * @dev overrides ERC20 & ERC20Pausable\n     */\n    function _beforeTokenTransfer(\n        address from,\n        address to,\n        uint256 amount\n    ) internal override(ERC20, ERC20Pausable) whenNotPaused {\n        super._beforeTokenTransfer(from, to, amount);\n    }\n\n    // \n    // \n    // \n    // \n    // \n    // \n\n    /**\n     * @dev sets the rate of currency in denomination currency\n     * @dev check the ocoin for its state to determine what value to type in\n     * @param // EXTERNAL\n     * @param _rate  ocoin (denomination currency) // 0-eth 1-gascoin 2-xCur 2-yCur >4-usdc\n     * denomination currency can be set in setCurr()\n     * @return _setRate // ocoin name as enum Coins\n     */\n    function setRate(uint256 _rate) external onlyOwner returns (uint256) {\n        return _setRate(_rate);\n    }\n\n    /**\n     * @dev sets the max supply\n     * @param // EXTERNAL only owner\n     * @param _newSupply  ocoin (denomination currency) // 0-eth 1-gascoin 2-xCur 2-yCur >4-usdc\n     * denomination currency can be set in setCurr()\n     * @return Max Supply\n     */\n    function setMaxSupply(uint256 _newSupply)\n        external\n        onlyOwner\n        returns (uint256)\n    {\n        return MAX_SUPPLY = _newSupply;\n    }\n\n    /**\n     * @dev burn function for token holders only for burnable contracts\n     * @param _amount of tokens to burn // EXTERNAL\n     */\n    function burn(uint256 _amount) public override {\n        if (burns == false) revert();\n        _burn(msg.sender, _amount);\n    }\n\n    /**\n     * @dev toggle the pausable functionality on the contract\n     * @return pausable state of contract\n     */\n    function togglePause() public onlyOwner returns (bool) {\n        return pauses = !pauses;\n    }\n\n    /**\n     * @dev toggle the burnable functionality on the contract\n     * @return burnable state of contract\n     */\n    function toggleBurn() public onlyOwner returns (bool) {\n        return burns = !burns;\n    }\n\n    /**\n     * @dev if contract pauses the state get checked and toggled via condition to opposite state\n     * @return active state of contract (true = paused / false = active)\n     */\n    function toggleState() public onlyOwner returns (bool) {\n        if (pauses == false) revert();\n        if (paused()) _unpause();\n        else _pause();\n        return paused();\n    }\n\n    /**\n     * @dev buy function for token holders\n     * @param _amount of tokens to mint // EXTERNAL\n     * @return uint total price\n     */\n    function buyTokens(uint256 _amount) external payable returns (uint256) {\n        if (msg.value <= _amount * rate) revert();\n        if ((MAX_SUPPLY - PUB_SUPPLY) - (_amount * 10**18) < 0) revert();\n        _mint(msg.sender, _amount * 10**18);\n        return _amount * rate;\n    }\n\n    /**\n     * @dev recieve function returns tokens on gascoin transfer to contract\n     */\n\n    receive() external payable {\n        // condition\n        _rcMint();\n    }\n\n    /**\n     * @dev recieve function returns tokens on gascoin and/or tokens transfer to contract\n     */\n    fallback() external payable {\n        // condition\n        // _rcMint();\n    }\n\n    /**\n     * @dev does mint  in exchange for gascoin action on recieve() and fallback()\n     */\n    function _rcMint() internal {\n        uint256 amount = msg.value / rate;\n        _mint(msg.sender, amount);\n    }\n}\n\ncontract iii6CoinModelDrop is iii6CoinModel {\n    /**\n     * @dev creates an instance of iii6CoinModel\n     * @param _name token name\n     * @param _sym token symbol\n     * @param _rate token rate\n     * @param _supply max token supply // if 0-infinte\n     * @param _burn bool burnable\n     * @param _pause bool pauseble\n     * @param _curr denomintaor currency // 0-eth 1-gascoin 2-xCur 2-yCur >4-usdc\n     */\n    constructor(\n        string memory _name,\n        string memory _sym,\n        uint256 _rate,\n        uint256 _supply,\n        bool _burn,\n        bool _pause,\n        uint256 _curr\n    ) iii6CoinModel(_name, _sym, _rate, _supply, _burn, _pause) {}\n\n    /**\n     * @dev Drops users 100 Full Tokens For testnets only\n     */\n    function dropToken() external {\n        _mint(msg.sender, 100 * 10**18);\n    }\n}\n// // // // // // // // // // // // // // // // // // // // // // // // // // // // // // // // // // // // // // // // // // // // // // // // // // // // // // // // // // // // //\n//\n//      MMWKd:..                                                                                    ..:dKWMM\n//      MKl.                                                                                            .lKW\n//      O'       ..''''''''''''.     .''''''.     .'''''.      .''''''''''''''.     .''''''''''''..       'O\n//      '     .ckKNNWNWWWWWWWWWk.   .xNWWNWNl    ,0WWWWW0,     lNWWWWWWWWWNWNk'    ;0NNNWWWWWWWWNNKkc.     '\n//           ,OWMMMMMMMMMMMMMMMO.   .kMMMMMWl    ,KMMMMMK,     lWMMMMMMMMMMM0,    ;KMMMMMMMMMMMMMMMMWO,\n//          .kMMMMMMMMMMMMMMMMMO.   .kMMMMMWl    ,KMMMMMK,     lWMMMMMMMMMM0,    ;KMMMMMMMMMMMMMMMMMMMk.\n//          '0MMMMMMMMMMMMMMMMMO.   .kMMMMMWl    ,KMMMMMK,     lWMMMMMMMMM0,    :KMMMMMMMMMMMMMMMMMMMM0'\n//          '0MMMMMMMMMMMMMMMMMO.   .kMMMMMWl    ,KMMMMMK,     lWMMMMMMMM0,    :KMMMMMMMMMMMMMMMMMMMMM0'\n//          '0MMMMMMMMMMMMMMMMMO.   .kMMMMMWl    ,KMMMMMK,     lWMMMMMMM0,    ;0NNWWMMMMMMMMMMMMMMMMMM0'\n//          '0MMMMMMMMMMMMMMMMMO.   .kMMMMMWl    ,KMMMMMK,     lWMMMMMM0,     .'.',;lkNMMMMMMMMMMMMMMM0'\n//          '0MMMMMMMMMMMMMMMMMO.   .kMMMMMWl    ,KMMMMMK,     lWMMMMMK;              ,kWMMMMMMMMMMMMM0'\n//          '0MMMMMMMMMMMMMMMMMO.   .kMMMMMWl    ,KMMMMMK,     lWMMMMX:    .:oxxdc'    .dWMMMMMMMMMMMM0'\n//          '0MMMMMMMMMMMMMMMMMO.   .kMMMMMWl    ,KMMMMMK,     lWMMMWd.   ,OWMMMMMXl.   '0MMMMMMMMMMMM0'\n//          '0MMMMMMMMMMMMMMMMMO.   .kMMMMMWl    ,KMMMMMK,     lWMMMX;   .kMMMMMMMMK,   .xMMMMMMMMMMMM0'\n//          '0MMMMMMMMMMMMMMMMMO.   .kMMMMMWl    ,KMMMMMK,     lWMMM0'   .OMMMMMMMMX;   .xMMMMMMMMMMMM0'\n//          .OMMMMMMMMMMMMMMMMMO.   .kMMMMMWl    ,KMMMMMK,     lWMMMK,    lNMMMMMMWx.   '0MMMMMMMMMMMMO.\n//           lNMMMMMMMMMMMMMMMMO.   .kMMMMMWl    ,KMMMMMK,     lWMMMWd.   .:x0KKKkc.   .dWMMMMMMMMMMMNl\n//      .    .c0WMMMMMMMMMMMMMMO.   .kMMMMMWo    ,KMMMMMK,     lWMMMMNd.     ....     .xNMMMMMMMMMMW0c.    .\n//      l      .,lddxxxxxxxxxxxc.    :xxxxxd,    .lxxxxxl.     ,dxxxxxd:.            .cdxxxxxxxxddl,.      l\n//      No.                                                                                              .oN\n//      MW0l'                                                                                          'l0WM\n//      MMMWKd;.                                                                                    .;dKWMMM\n//\n// // // // // // // // // // // // // // // // // // // // // // // // // // // // // // // // // // // // // // // // // // // // // // // // // // // // // // // // // // // // //\n",
  "sourcePath": "/Users/iii6/Documents/GitHub/Gamble360/contracts/iii6utils/Assets/iii6CoinModel.sol",
  "compiler": {
    "name": "solc",
    "version": "0.8.17+commit.8df45f5f.Emscripten.clang"
  },
  "schemaVersion": "3.4.8",
  "updatedAt": "2023-04-03T15:52:02.792Z",
  "devdoc": {
    "kind": "dev",
    "methods": {
      "allowance(address,address)": {
        "details": "See {IERC20-allowance}."
      },
      "approve(address,uint256)": {
        "details": "See {IERC20-approve}. NOTE: If `amount` is the maximum `uint256`, the allowance is not updated on `transferFrom`. This is semantically equivalent to an infinite approval. Requirements: - `spender` cannot be the zero address."
      },
      "balanceOf(address)": {
        "details": "See {IERC20-balanceOf}."
      },
      "burn(uint256)": {
        "details": "burn function for token holders only for burnable contracts",
        "params": {
          "_amount": "of tokens to burn // EXTERNAL"
        }
      },
      "burnFrom(address,uint256)": {
        "details": "Destroys `amount` tokens from `account`, deducting from the caller's allowance. See {ERC20-_burn} and {ERC20-allowance}. Requirements: - the caller must have allowance for ``accounts``'s tokens of at least `amount`."
      },
      "buyTokens(uint256)": {
        "details": "buy function for token holders",
        "params": {
          "_amount": "of tokens to mint // EXTERNAL"
        },
        "returns": {
          "_0": "uint total price"
        }
      },
      "constructor": {
        "details": "creates an instance of iii6CoinModel",
        "params": {
          "_burn": "bool burnable",
          "_curr": "denomintaor currency // 0-eth 1-gascoin 2-xCur 2-yCur >4-usdc",
          "_name": "token name",
          "_pause": "bool pauseble",
          "_rate": "token rate",
          "_supply": "max token supply // if 0-infinte",
          "_sym": "token symbol"
        }
      },
      "decimals()": {
        "details": "Returns the number of decimals used to get its user representation. For example, if `decimals` equals `2`, a balance of `505` tokens should be displayed to a user as `5.05` (`505 / 10 ** 2`). Tokens usually opt for a value of 18, imitating the relationship between Ether and Wei. This is the value {ERC20} uses, unless this function is overridden; NOTE: This information is only used for _display_ purposes: it in no way affects any of the arithmetic of the contract, including {IERC20-balanceOf} and {IERC20-transfer}."
      },
      "decreaseAllowance(address,uint256)": {
        "details": "Atomically decreases the allowance granted to `spender` by the caller. This is an alternative to {approve} that can be used as a mitigation for problems described in {IERC20-approve}. Emits an {Approval} event indicating the updated allowance. Requirements: - `spender` cannot be the zero address. - `spender` must have allowance for the caller of at least `subtractedValue`."
      },
      "dropToken()": {
        "details": "Drops users 100 Full Tokens For testnets only"
      },
      "increaseAllowance(address,uint256)": {
        "details": "Atomically increases the allowance granted to `spender` by the caller. This is an alternative to {approve} that can be used as a mitigation for problems described in {IERC20-approve}. Emits an {Approval} event indicating the updated allowance. Requirements: - `spender` cannot be the zero address."
      },
      "name()": {
        "details": "Returns the name of the token."
      },
      "owner()": {
        "details": "Returns the address of the current owner."
      },
      "paused()": {
        "details": "Returns true if the contract is paused, and false otherwise."
      },
      "renounceOwnership()": {
        "details": "Leaves the contract without owner. It will not be possible to call `onlyOwner` functions anymore. Can only be called by the current owner. NOTE: Renouncing ownership will leave the contract without an owner, thereby removing any functionality that is only available to the owner."
      },
      "setMaxSupply(uint256)": {
        "details": "sets the max supply",
        "params": {
          "": "// EXTERNAL only owner",
          "_newSupply": "ocoin (denomination currency) // 0-eth 1-gascoin 2-xCur 2-yCur >4-usdc denomination currency can be set in setCurr()"
        },
        "returns": {
          "_0": "Max Supply"
        }
      },
      "setRate(uint256)": {
        "details": "sets the rate of currency in denomination currencycheck the ocoin for its state to determine what value to type in",
        "params": {
          "": "// EXTERNAL",
          "_rate": "ocoin (denomination currency) // 0-eth 1-gascoin 2-xCur 2-yCur >4-usdc denomination currency can be set in setCurr()"
        },
        "returns": {
          "_0": "_setRate // ocoin name as enum Coins"
        }
      },
      "symbol()": {
        "details": "Returns the symbol of the token, usually a shorter version of the name."
      },
      "toggleBurn()": {
        "details": "toggle the burnable functionality on the contract",
        "returns": {
          "_0": "burnable state of contract"
        }
      },
      "togglePause()": {
        "details": "toggle the pausable functionality on the contract",
        "returns": {
          "_0": "pausable state of contract"
        }
      },
      "toggleState()": {
        "details": "if contract pauses the state get checked and toggled via condition to opposite state",
        "returns": {
          "_0": "active state of contract (true = paused / false = active)"
        }
      },
      "totalSupply()": {
        "details": "See {IERC20-totalSupply}."
      },
      "transfer(address,uint256)": {
        "details": "See {IERC20-transfer}. Requirements: - `to` cannot be the zero address. - the caller must have a balance of at least `amount`."
      },
      "transferFrom(address,address,uint256)": {
        "details": "See {IERC20-transferFrom}. Emits an {Approval} event indicating the updated allowance. This is not required by the EIP. See the note at the beginning of {ERC20}. NOTE: Does not update the allowance if the current allowance is the maximum `uint256`. Requirements: - `from` and `to` cannot be the zero address. - `from` must have a balance of at least `amount`. - the caller must have allowance for ``from``'s tokens of at least `amount`."
      },
      "transferOwnership(address)": {
        "details": "Transfers ownership of the contract to a new account (`newOwner`). Can only be called by the current owner."
      }
    },
    "version": 1
  },
  "userdoc": {
    "kind": "user",
    "methods": {},
    "version": 1
  }
}