{
  "contractName": "iii6CoinFactory",
  "abi": [
    {
      "inputs": [],
      "stateMutability": "nonpayable",
      "type": "constructor"
    },
    {
      "inputs": [],
      "name": "COIN_USD",
      "outputs": [
        {
          "internalType": "uint256",
          "name": "",
          "type": "uint256"
        }
      ],
      "stateMutability": "view",
      "type": "function"
    },
    {
      "inputs": [],
      "name": "ETH_USD",
      "outputs": [
        {
          "internalType": "uint256",
          "name": "",
          "type": "uint256"
        }
      ],
      "stateMutability": "view",
      "type": "function"
    },
    {
      "inputs": [],
      "name": "X_USD",
      "outputs": [
        {
          "internalType": "uint256",
          "name": "",
          "type": "uint256"
        }
      ],
      "stateMutability": "view",
      "type": "function"
    },
    {
      "inputs": [],
      "name": "Y_USD",
      "outputs": [
        {
          "internalType": "uint256",
          "name": "",
          "type": "uint256"
        }
      ],
      "stateMutability": "view",
      "type": "function"
    },
    {
      "inputs": [
        {
          "internalType": "uint256",
          "name": "_amt",
          "type": "uint256"
        }
      ],
      "name": "coinPriceOfEth",
      "outputs": [
        {
          "internalType": "uint256",
          "name": "",
          "type": "uint256"
        }
      ],
      "stateMutability": "view",
      "type": "function"
    },
    {
      "inputs": [
        {
          "internalType": "uint256",
          "name": "_amt",
          "type": "uint256"
        }
      ],
      "name": "coinPriceOfUSD",
      "outputs": [
        {
          "internalType": "uint256",
          "name": "",
          "type": "uint256"
        }
      ],
      "stateMutability": "view",
      "type": "function"
    },
    {
      "inputs": [
        {
          "internalType": "uint256",
          "name": "_amt",
          "type": "uint256"
        }
      ],
      "name": "coinPriceOfX",
      "outputs": [
        {
          "internalType": "uint256",
          "name": "",
          "type": "uint256"
        }
      ],
      "stateMutability": "view",
      "type": "function"
    },
    {
      "inputs": [
        {
          "internalType": "uint256",
          "name": "_amt",
          "type": "uint256"
        }
      ],
      "name": "coinPriceOfY",
      "outputs": [
        {
          "internalType": "uint256",
          "name": "",
          "type": "uint256"
        }
      ],
      "stateMutability": "view",
      "type": "function"
    },
    {
      "inputs": [
        {
          "internalType": "uint256",
          "name": "_amt",
          "type": "uint256"
        }
      ],
      "name": "ethPriceOfUSD",
      "outputs": [
        {
          "internalType": "uint256",
          "name": "",
          "type": "uint256"
        }
      ],
      "stateMutability": "view",
      "type": "function"
    },
    {
      "inputs": [],
      "name": "getCoinPriceInEth",
      "outputs": [
        {
          "internalType": "uint256",
          "name": "coinPriceEth",
          "type": "uint256"
        }
      ],
      "stateMutability": "view",
      "type": "function"
    },
    {
      "inputs": [],
      "name": "getCoinPriceInX",
      "outputs": [
        {
          "internalType": "uint256",
          "name": "coinPriceX",
          "type": "uint256"
        }
      ],
      "stateMutability": "view",
      "type": "function"
    },
    {
      "inputs": [],
      "name": "getCoinPriceInY",
      "outputs": [
        {
          "internalType": "uint256",
          "name": "coinPriceY",
          "type": "uint256"
        }
      ],
      "stateMutability": "view",
      "type": "function"
    },
    {
      "inputs": [],
      "name": "getEthPriceInCoin",
      "outputs": [
        {
          "internalType": "uint256",
          "name": "ethPriceCoin",
          "type": "uint256"
        }
      ],
      "stateMutability": "view",
      "type": "function"
    },
    {
      "inputs": [],
      "name": "getEthPriceInX",
      "outputs": [
        {
          "internalType": "uint256",
          "name": "ethPriceX",
          "type": "uint256"
        }
      ],
      "stateMutability": "view",
      "type": "function"
    },
    {
      "inputs": [],
      "name": "getEthPriceInY",
      "outputs": [
        {
          "internalType": "uint256",
          "name": "ethPriceY",
          "type": "uint256"
        }
      ],
      "stateMutability": "view",
      "type": "function"
    },
    {
      "inputs": [],
      "name": "getXPriceInCoin",
      "outputs": [
        {
          "internalType": "uint256",
          "name": "xPriceCoin",
          "type": "uint256"
        }
      ],
      "stateMutability": "view",
      "type": "function"
    },
    {
      "inputs": [],
      "name": "getXPriceInEth",
      "outputs": [
        {
          "internalType": "uint256",
          "name": "xPriceEth",
          "type": "uint256"
        }
      ],
      "stateMutability": "view",
      "type": "function"
    },
    {
      "inputs": [],
      "name": "getXPriceInY",
      "outputs": [
        {
          "internalType": "uint256",
          "name": "xPriceY",
          "type": "uint256"
        }
      ],
      "stateMutability": "view",
      "type": "function"
    },
    {
      "inputs": [],
      "name": "getYPriceInCoin",
      "outputs": [
        {
          "internalType": "uint256",
          "name": "yPriceCoin",
          "type": "uint256"
        }
      ],
      "stateMutability": "view",
      "type": "function"
    },
    {
      "inputs": [],
      "name": "getYPriceInEth",
      "outputs": [
        {
          "internalType": "uint256",
          "name": "yPriceEth",
          "type": "uint256"
        }
      ],
      "stateMutability": "view",
      "type": "function"
    },
    {
      "inputs": [],
      "name": "getYPriceInX",
      "outputs": [
        {
          "internalType": "uint256",
          "name": "yPriceX",
          "type": "uint256"
        }
      ],
      "stateMutability": "view",
      "type": "function"
    },
    {
      "inputs": [
        {
          "internalType": "address",
          "name": "",
          "type": "address"
        }
      ],
      "name": "mp",
      "outputs": [
        {
          "internalType": "uint256",
          "name": "",
          "type": "uint256"
        }
      ],
      "stateMutability": "view",
      "type": "function"
    },
    {
      "inputs": [
        {
          "internalType": "address",
          "name": "",
          "type": "address"
        },
        {
          "internalType": "uint256",
          "name": "",
          "type": "uint256"
        }
      ],
      "name": "myProjects",
      "outputs": [
        {
          "internalType": "address",
          "name": "",
          "type": "address"
        }
      ],
      "stateMutability": "view",
      "type": "function"
    },
    {
      "inputs": [],
      "name": "p",
      "outputs": [
        {
          "internalType": "uint256",
          "name": "",
          "type": "uint256"
        }
      ],
      "stateMutability": "view",
      "type": "function"
    },
    {
      "inputs": [
        {
          "internalType": "uint256",
          "name": "",
          "type": "uint256"
        }
      ],
      "name": "projects",
      "outputs": [
        {
          "internalType": "address",
          "name": "",
          "type": "address"
        }
      ],
      "stateMutability": "view",
      "type": "function"
    },
    {
      "inputs": [
        {
          "internalType": "address",
          "name": "_oracle",
          "type": "address"
        },
        {
          "internalType": "uint256",
          "name": "_digits",
          "type": "uint256"
        }
      ],
      "name": "setX",
      "outputs": [
        {
          "internalType": "bool",
          "name": "",
          "type": "bool"
        }
      ],
      "stateMutability": "nonpayable",
      "type": "function"
    },
    {
      "inputs": [
        {
          "internalType": "address",
          "name": "_oracle",
          "type": "address"
        },
        {
          "internalType": "uint256",
          "name": "_digits",
          "type": "uint256"
        }
      ],
      "name": "setY",
      "outputs": [
        {
          "internalType": "bool",
          "name": "",
          "type": "bool"
        }
      ],
      "stateMutability": "nonpayable",
      "type": "function"
    },
    {
      "inputs": [
        {
          "internalType": "uint256",
          "name": "_amt",
          "type": "uint256"
        }
      ],
      "name": "xPriceOfUSD",
      "outputs": [
        {
          "internalType": "uint256",
          "name": "",
          "type": "uint256"
        }
      ],
      "stateMutability": "view",
      "type": "function"
    },
    {
      "inputs": [
        {
          "internalType": "uint256",
          "name": "_amt",
          "type": "uint256"
        }
      ],
      "name": "yPriceOfUSD",
      "outputs": [
        {
          "internalType": "uint256",
          "name": "",
          "type": "uint256"
        }
      ],
      "stateMutability": "view",
      "type": "function"
    },
    {
      "inputs": [
        {
          "internalType": "string",
          "name": "_name",
          "type": "string"
        },
        {
          "internalType": "string",
          "name": "_sym",
          "type": "string"
        },
        {
          "internalType": "uint256",
          "name": "_rate",
          "type": "uint256"
        },
        {
          "internalType": "uint256",
          "name": "_supply",
          "type": "uint256"
        },
        {
          "internalType": "bool",
          "name": "_burn",
          "type": "bool"
        },
        {
          "internalType": "bool",
          "name": "_pause",
          "type": "bool"
        }
      ],
      "name": "buildERC20Token",
      "outputs": [
        {
          "internalType": "address",
          "name": "",
          "type": "address"
        }
      ],
      "stateMutability": "payable",
      "type": "function"
    }
  ],
  "bytecode": "0x608060405234801561001057600080fd5b50600146036100725773e47da91495c75e1d48569f343938380d8303b1f26000806101000a81548173ffffffffffffffffffffffffffffffffffffffff021916908373ffffffffffffffffffffffffffffffffffffffff160217905550610196565b600546036100d35773e47da91495c75e1d48569f343938380d8303b1f26000806101000a81548173ffffffffffffffffffffffffffffffffffffffff021916908373ffffffffffffffffffffffffffffffffffffffff160217905550610195565b608946036101345773e47da91495c75e1d48569f343938380d8303b1f26000806101000a81548173ffffffffffffffffffffffffffffffffffffffff021916908373ffffffffffffffffffffffffffffffffffffffff160217905550610194565b6201388146036101935773e47da91495c75e1d48569f343938380d8303b1f26000806101000a81548173ffffffffffffffffffffffffffffffffffffffff021916908373ffffffffffffffffffffffffffffffffffffffff1602179055505b5b5b5b652d79883d200060038190555061489680620001b36000396000f3fe608060405260043610620001fa5760003560e01c80637d670117116200010f578063bec9908e11620000a3578063e12ef5ed116200006d578063e12ef5ed14620007ad578063e2ab781314620007dd578063e9f38fc51462000821578063f42fff01146200086557620001fa565b8063bec9908e14620006d9578063d1381f4e1462000709578063d21b8720146200074d578063e04777af146200077d57620001fa565b80638dff74a711620000e55780638dff74a7146200061357806392c49086146200064357806396af428a14620006795780639ae8886a14620006a957620001fa565b80637d670117146200055b57806387434dcd146200058b5780638d4a8ffe14620005cf57620001fa565b80634459194611620001935780636260f55b116200015d5780636260f55b14620004875780636a443b5914620004b757806379d79fcc14620004e75780637afcc7a4146200051757620001fa565b806344591946146200039f57806348cf734d14620003cf5780634a2ad99f14620003ff57806352da887a146200044357620001fa565b8063106581aa11620001d5578063106581aa14620002b7578063107046bd14620002fb578063287ead9e146200033f57806329d7a0bd146200036f57620001fa565b8063033a7a0214620001ff578063054dca2a14620002435780630b4185ea1462000273575b600080fd5b3480156200020c57600080fd5b506200022b600480360381019062000225919062001473565b62000895565b6040516200023a9190620014b6565b60405180910390f35b3480156200025057600080fd5b506200025b620008e6565b6040516200026a9190620014b6565b60405180910390f35b3480156200028057600080fd5b506200029f600480360381019062000299919062001473565b6200092b565b604051620002ae9190620014b6565b60405180910390f35b348015620002c457600080fd5b50620002e36004803603810190620002dd919062001538565b6200097c565b604051620002f29190620014b6565b60405180910390f35b3480156200030857600080fd5b5062000327600480360381019062000321919062001473565b62000994565b6040516200033691906200157b565b60405180910390f35b3480156200034c57600080fd5b5062000357620009c7565b604051620003669190620014b6565b60405180910390f35b3480156200037c57600080fd5b506200038762000a0c565b604051620003969190620014b6565b60405180910390f35b348015620003ac57600080fd5b50620003b762000a51565b604051620003c69190620014b6565b60405180910390f35b348015620003dc57600080fd5b50620003e762000a62565b604051620003f69190620014b6565b60405180910390f35b3480156200040c57600080fd5b506200042b600480360381019062000425919062001598565b62000aa7565b6040516200043a9190620015fc565b60405180910390f35b3480156200045057600080fd5b506200046f600480360381019062000469919062001598565b62000b55565b6040516200047e91906200157b565b60405180910390f35b3480156200049457600080fd5b506200049f62000b97565b604051620004ae9190620014b6565b60405180910390f35b348015620004c457600080fd5b50620004cf62000ba8565b604051620004de9190620014b6565b60405180910390f35b348015620004f457600080fd5b50620004ff62000bb9565b6040516200050e9190620014b6565b60405180910390f35b3480156200052457600080fd5b506200054360048036038101906200053d919062001473565b62000bca565b604051620005529190620014b6565b60405180910390f35b3480156200056857600080fd5b506200057362000c1c565b604051620005829190620014b6565b60405180910390f35b3480156200059857600080fd5b50620005b76004803603810190620005b1919062001473565b62000c2d565b604051620005c69190620014b6565b60405180910390f35b348015620005dc57600080fd5b50620005fb6004803603810190620005f5919062001473565b62000c7f565b6040516200060a9190620014b6565b60405180910390f35b3480156200062057600080fd5b506200062b62000cd1565b6040516200063a9190620014b6565b60405180910390f35b6200066160048036038101906200065b9190620016b8565b62000d16565b6040516200067091906200157b565b60405180910390f35b3480156200068657600080fd5b506200069162000dbe565b604051620006a09190620014b6565b60405180910390f35b348015620006b657600080fd5b50620006c162000dcf565b604051620006d09190620014b6565b60405180910390f35b348015620006e657600080fd5b50620006f162000dd5565b604051620007009190620014b6565b60405180910390f35b3480156200071657600080fd5b506200073560048036038101906200072f919062001473565b62000e1a565b604051620007449190620014b6565b60405180910390f35b3480156200075a57600080fd5b506200076562000e6c565b604051620007749190620014b6565b60405180910390f35b3480156200078a57600080fd5b506200079562000eb1565b604051620007a49190620014b6565b60405180910390f35b348015620007ba57600080fd5b50620007c562000ec2565b604051620007d49190620014b6565b60405180910390f35b348015620007ea57600080fd5b5062000809600480360381019062000803919062001473565b62000f07565b604051620008189190620014b6565b60405180910390f35b3480156200082e57600080fd5b506200084d600480360381019062000847919062001598565b62000f59565b6040516200085c9190620015fc565b60405180910390f35b3480156200087257600080fd5b506200087d62001007565b6040516200088c9190620014b6565b60405180910390f35b6000806509184e72a00083620008ac9190620017cb565b90506000620008ba6200104c565b9050620008dd670de0b6b3a764000083620008d69190620017cb565b82620010ea565b92505050919050565b600080620008f362001121565b90506000620009016200104c565b905062000924670de0b6b3a7640000836200091d9190620017cb565b82620010ea565b9250505090565b6000806509184e72a00083620009429190620017cb565b905060006200095062001121565b905062000973670de0b6b3a7640000836200096c9190620017cb565b82620010ea565b92505050919050565b60066020528060005260406000206000915090505481565b60056020528060005260406000206000915054906101000a900473ffffffffffffffffffffffffffffffffffffffff1681565b600080620009d46200104c565b90506000620009e2620011bf565b905062000a05670de0b6b3a764000083620009fe9190620017cb565b82620010ea565b9250505090565b60008062000a1962001121565b9050600062000a276200125d565b905062000a4a670de0b6b3a76400008362000a439190620017cb565b82620010ea565b9250505090565b600062000a5d6200104c565b905090565b60008062000a6f62001121565b9050600062000a7d620011bf565b905062000aa0670de0b6b3a76400008362000a999190620017cb565b82620010ea565b9250505090565b60008060009054906101000a900473ffffffffffffffffffffffffffffffffffffffff1673ffffffffffffffffffffffffffffffffffffffff16634a2ad99f84846040518363ffffffff1660e01b815260040162000b0792919062001816565b6020604051808303816000875af115801562000b27573d6000803e3d6000fd5b505050506040513d601f19601f8201168201806040525081019062000b4d91906200185a565b905092915050565b60076020528160005260406000206020528060005260406000206000915091509054906101000a900473ffffffffffffffffffffffffffffffffffffffff1681565b600062000ba362001121565b905090565b600062000bb4620012fb565b905090565b600062000bc562001340565b905090565b600080662386f26fc100008362000be29190620017cb565b9050600062000bf062001340565b905062000c13670de0b6b3a76400008362000c0c9190620017cb565b82620010ea565b92505050919050565b600062000c2862001385565b905090565b600080662386f26fc100008362000c459190620017cb565b9050600062000c53620012fb565b905062000c76670de0b6b3a76400008362000c6f9190620017cb565b82620010ea565b92505050919050565b600080662386f26fc100008362000c979190620017cb565b9050600062000ca562001385565b905062000cc8670de0b6b3a76400008362000cc19190620017cb565b82620010ea565b92505050919050565b60008062000cde6200125d565b9050600062000cec620011bf565b905062000d0f670de0b6b3a76400008262000d089190620017cb565b83620010ea565b9250505090565b600062000db089898080601f016020809104026020016040519081016040528093929190818152602001838380828437600081840152601f19601f8201169050808301925050505050505088888080601f016020809104026020016040519081016040528093929190818152602001838380828437600081840152601f19601f8201169050808301925050505050505087878787620013ca565b905098975050505050505050565b600062000dca620011bf565b905090565b60045481565b60008062000de262001121565b9050600062000df0620011bf565b905062000e13670de0b6b3a76400008262000e0c9190620017cb565b83620010ea565b9250505090565b600080662386f26fc100008362000e329190620017cb565b9050600062000e406200125d565b905062000e63670de0b6b3a76400008362000e5c9190620017cb565b82620010ea565b92505050919050565b60008062000e796200125d565b9050600062000e876200104c565b905062000eaa670de0b6b3a76400008262000ea39190620017cb565b83620010ea565b9250505090565b600062000ebd6200125d565b905090565b60008062000ecf6200104c565b9050600062000edd620011bf565b905062000f00670de0b6b3a76400008262000ef99190620017cb565b83620010ea565b9250505090565b600080662386f26fc100008362000f1f9190620017cb565b9050600062000f2d620011bf565b905062000f50670de0b6b3a76400008362000f499190620017cb565b82620010ea565b92505050919050565b60008060009054906101000a900473ffffffffffffffffffffffffffffffffffffffff1673ffffffffffffffffffffffffffffffffffffffff1663e9f38fc584846040518363ffffffff1660e01b815260040162000fb992919062001816565b6020604051808303816000875af115801562000fd9573d6000803e3d6000fd5b505050506040513d601f19601f8201168201806040525081019062000fff91906200185a565b905092915050565b6000806200101462001121565b90506000620010226200104c565b905062001045670de0b6b3a7640000826200103e9190620017cb565b83620010ea565b9250505090565b60008060008054906101000a900473ffffffffffffffffffffffffffffffffffffffff1673ffffffffffffffffffffffffffffffffffffffff166396722fe56040518163ffffffff1660e01b8152600401602060405180830381865afa158015620010bb573d6000803e3d6000fd5b505050506040513d601f19601f82011682018060405250810190620010e19190620018c7565b90508091505090565b6000808284620010fb919062001928565b90508281856200110c919062001960565b6200111891906200199b565b91505092915050565b60008060008054906101000a900473ffffffffffffffffffffffffffffffffffffffff1673ffffffffffffffffffffffffffffffffffffffff16639a18c7956040518163ffffffff1660e01b8152600401602060405180830381865afa15801562001190573d6000803e3d6000fd5b505050506040513d601f19601f82011682018060405250810190620011b69190620018c7565b90508091505090565b60008060008054906101000a900473ffffffffffffffffffffffffffffffffffffffff1673ffffffffffffffffffffffffffffffffffffffff1663414641df6040518163ffffffff1660e01b8152600401602060405180830381865afa1580156200122e573d6000803e3d6000fd5b505050506040513d601f19601f82011682018060405250810190620012549190620018c7565b90508091505090565b60008060008054906101000a900473ffffffffffffffffffffffffffffffffffffffff1673ffffffffffffffffffffffffffffffffffffffff1663f2e9bd7a6040518163ffffffff1660e01b8152600401602060405180830381865afa158015620012cc573d6000803e3d6000fd5b505050506040513d601f19601f82011682018060405250810190620012f29190620018c7565b90508091505090565b600080620013086200125d565b90506000620013166200104c565b905062001339670de0b6b3a764000083620013329190620017cb565b82620010ea565b9250505090565b6000806200134d6200125d565b905060006200135b620011bf565b90506200137e670de0b6b3a764000083620013779190620017cb565b82620010ea565b9250505090565b600080620013926200125d565b90506000620013a062001121565b9050620013c3670de0b6b3a764000083620013bc9190620017cb565b82620010ea565b9250505090565b600080878787878787604051620013e19062001420565b620013f29695949392919062001a6d565b604051809103906000f0801580156200140f573d6000803e3d6000fd5b509050809150509695505050505050565b612d788062001ae983390190565b600080fd5b600080fd5b6000819050919050565b6200144d8162001438565b81146200145957600080fd5b50565b6000813590506200146d8162001442565b92915050565b6000602082840312156200148c576200148b6200142e565b5b60006200149c848285016200145c565b91505092915050565b620014b08162001438565b82525050565b6000602082019050620014cd6000830184620014a5565b92915050565b600073ffffffffffffffffffffffffffffffffffffffff82169050919050565b60006200150082620014d3565b9050919050565b6200151281620014f3565b81146200151e57600080fd5b50565b600081359050620015328162001507565b92915050565b6000602082840312156200155157620015506200142e565b5b6000620015618482850162001521565b91505092915050565b6200157581620014f3565b82525050565b60006020820190506200159260008301846200156a565b92915050565b60008060408385031215620015b257620015b16200142e565b5b6000620015c28582860162001521565b9250506020620015d5858286016200145c565b9150509250929050565b60008115159050919050565b620015f681620015df565b82525050565b6000602082019050620016136000830184620015eb565b92915050565b600080fd5b600080fd5b600080fd5b60008083601f84011262001641576200164062001619565b5b8235905067ffffffffffffffff8111156200166157620016606200161e565b5b60208301915083600182028301111562001680576200167f62001623565b5b9250929050565b6200169281620015df565b81146200169e57600080fd5b50565b600081359050620016b28162001687565b92915050565b60008060008060008060008060c0898b031215620016db57620016da6200142e565b5b600089013567ffffffffffffffff811115620016fc57620016fb62001433565b5b6200170a8b828c0162001628565b9850985050602089013567ffffffffffffffff81111562001730576200172f62001433565b5b6200173e8b828c0162001628565b96509650506040620017538b828c016200145c565b9450506060620017668b828c016200145c565b9350506080620017798b828c01620016a1565b92505060a06200178c8b828c01620016a1565b9150509295985092959890939650565b7f4e487b7100000000000000000000000000000000000000000000000000000000600052601160045260246000fd5b6000620017d88262001438565b9150620017e58362001438565b9250828202620017f58162001438565b915082820484148315176200180f576200180e6200179c565b5b5092915050565b60006040820190506200182d60008301856200156a565b6200183c6020830184620014a5565b9392505050565b600081519050620018548162001687565b92915050565b6000602082840312156200187357620018726200142e565b5b6000620018838482850162001843565b91505092915050565b6000819050919050565b620018a1816200188c565b8114620018ad57600080fd5b50565b600081519050620018c18162001896565b92915050565b600060208284031215620018e057620018df6200142e565b5b6000620018f084828501620018b0565b91505092915050565b7f4e487b7100000000000000000000000000000000000000000000000000000000600052601260045260246000fd5b6000620019358262001438565b9150620019428362001438565b925082620019555762001954620018f9565b5b828206905092915050565b60006200196d8262001438565b91506200197a8362001438565b92508282039050818111156200199557620019946200179c565b5b92915050565b6000620019a88262001438565b9150620019b58362001438565b925082620019c857620019c7620018f9565b5b828204905092915050565b600081519050919050565b600082825260208201905092915050565b60005b8381101562001a0f578082015181840152602081019050620019f2565b60008484015250505050565b6000601f19601f8301169050919050565b600062001a3982620019d3565b62001a458185620019de565b935062001a57818560208601620019ef565b62001a628162001a1b565b840191505092915050565b600060c082019050818103600083015262001a89818962001a2c565b9050818103602083015262001a9f818862001a2c565b905062001ab06040830187620014a5565b62001abf6060830186620014a5565b62001ace6080830185620015eb565b62001add60a0830184620015eb565b97965050505050505056fe60806040523480156200001157600080fd5b5060405162002d7838038062002d78833981810160405281019062000037919062000408565b858581600390816200004a919062000723565b5080600490816200005c919062000723565b5050506000600560006101000a81548160ff0219169083151502179055506200009a6200008e6200010c60201b60201c565b6200011460201b60201c565b620000ab84620001da60201b60201c565b508260088190555085600a9081620000c4919062000723565b5081600960006101000a81548160ff02191690831515021790555080600960016101000a81548160ff021916908315150217905550836006819055505050505050506200080a565b600033905090565b6000600560019054906101000a900473ffffffffffffffffffffffffffffffffffffffff16905081600560016101000a81548173ffffffffffffffffffffffffffffffffffffffff021916908373ffffffffffffffffffffffffffffffffffffffff1602179055508173ffffffffffffffffffffffffffffffffffffffff168173ffffffffffffffffffffffffffffffffffffffff167f8be0079c531659141344cd1fd0a4f28419497f9722a3daafe3b4186f6b6457e060405160405180910390a35050565b6000808290506000811015620001ef57600080fd5b806006819055915050919050565b6000604051905090565b600080fd5b600080fd5b600080fd5b600080fd5b6000601f19601f8301169050919050565b7f4e487b7100000000000000000000000000000000000000000000000000000000600052604160045260246000fd5b62000266826200021b565b810181811067ffffffffffffffff821117156200028857620002876200022c565b5b80604052505050565b60006200029d620001fd565b9050620002ab82826200025b565b919050565b600067ffffffffffffffff821115620002ce57620002cd6200022c565b5b620002d9826200021b565b9050602081019050919050565b60005b8381101562000306578082015181840152602081019050620002e9565b60008484015250505050565b6000620003296200032384620002b0565b62000291565b90508281526020810184848401111562000348576200034762000216565b5b62000355848285620002e6565b509392505050565b600082601f83011262000375576200037462000211565b5b81516200038784826020860162000312565b91505092915050565b6000819050919050565b620003a58162000390565b8114620003b157600080fd5b50565b600081519050620003c5816200039a565b92915050565b60008115159050919050565b620003e281620003cb565b8114620003ee57600080fd5b50565b6000815190506200040281620003d7565b92915050565b60008060008060008060c0878903121562000428576200042762000207565b5b600087015167ffffffffffffffff8111156200044957620004486200020c565b5b6200045789828a016200035d565b965050602087015167ffffffffffffffff8111156200047b576200047a6200020c565b5b6200048989828a016200035d565b95505060406200049c89828a01620003b4565b9450506060620004af89828a01620003b4565b9350506080620004c289828a01620003f1565b92505060a0620004d589828a01620003f1565b9150509295509295509295565b600081519050919050565b7f4e487b7100000000000000000000000000000000000000000000000000000000600052602260045260246000fd5b600060028204905060018216806200053557607f821691505b6020821081036200054b576200054a620004ed565b5b50919050565b60008190508160005260206000209050919050565b60006020601f8301049050919050565b600082821b905092915050565b600060088302620005b57fffffffffffffffffffffffffffffffffffffffffffffffffffffffffffffffff8262000576565b620005c1868362000576565b95508019841693508086168417925050509392505050565b6000819050919050565b600062000604620005fe620005f88462000390565b620005d9565b62000390565b9050919050565b6000819050919050565b6200062083620005e3565b620006386200062f826200060b565b84845462000583565b825550505050565b600090565b6200064f62000640565b6200065c81848462000615565b505050565b5b8181101562000684576200067860008262000645565b60018101905062000662565b5050565b601f821115620006d3576200069d8162000551565b620006a88462000566565b81016020851015620006b8578190505b620006d0620006c78562000566565b83018262000661565b50505b505050565b600082821c905092915050565b6000620006f860001984600802620006d8565b1980831691505092915050565b6000620007138383620006e5565b9150826002028217905092915050565b6200072e82620004e2565b67ffffffffffffffff8111156200074a57620007496200022c565b5b6200075682546200051c565b6200076382828562000688565b600060209050601f8311600181146200079b576000841562000786578287015190505b62000792858262000705565b86555062000802565b601f198416620007ab8662000551565b60005b82811015620007d557848901518255600182019150602085019450602081019050620007ae565b86831015620007f55784890151620007f1601f891682620006e5565b8355505b6001600288020188555050505b505050505050565b61255e806200081a6000396000f3fe6080604052600436106101a05760003560e01c80635c975abb116100ec57806395d89b411161008a578063c4ae316811610064578063c4ae31681461060b578063d37e510414610636578063dd62ed3e14610661578063f2fde38b1461069e576101af565b806395d89b4114610566578063a457c2d714610591578063a9059cbb146105ce576101af565b8063715018a6116100c6578063715018a6146104d0578063778a56ce146104e757806379cc6790146105125780638da5cb5b1461053b576101af565b80635c975abb1461042b5780636f8b44b01461045657806370a0823114610493576101af565b8063313ce567116101595780633610724e116101335780633610724e1461036a578063395093511461039a57806342966c68146103d75780634a79d50c14610400576101af565b8063313ce567146102d757806332cb6b0c1461030257806334fcf4371461032d576101af565b806306fdde03146101b1578063095ea7b3146101dc57806318160ddd14610219578063201a49d61461024457806323b872dd1461026f5780632c4e722e146102ac576101af565b366101af576101ad6106c7565b005b005b3480156101bd57600080fd5b506101c66106e6565b6040516101d39190611916565b60405180910390f35b3480156101e857600080fd5b5061020360048036038101906101fe91906119d1565b610778565b6040516102109190611a2c565b60405180910390f35b34801561022557600080fd5b5061022e61079b565b60405161023b9190611a56565b60405180910390f35b34801561025057600080fd5b506102596107a5565b6040516102669190611a56565b60405180910390f35b34801561027b57600080fd5b5061029660048036038101906102919190611a71565b6107ab565b6040516102a39190611a2c565b60405180910390f35b3480156102b857600080fd5b506102c16107da565b6040516102ce9190611a56565b60405180910390f35b3480156102e357600080fd5b506102ec6107e0565b6040516102f99190611ae0565b60405180910390f35b34801561030e57600080fd5b506103176107e9565b6040516103249190611a56565b60405180910390f35b34801561033957600080fd5b50610354600480360381019061034f9190611afb565b6107ef565b6040516103619190611a56565b60405180910390f35b610384600480360381019061037f9190611afb565b610809565b6040516103919190611a56565b60405180910390f35b3480156103a657600080fd5b506103c160048036038101906103bc91906119d1565b610891565b6040516103ce9190611a2c565b60405180910390f35b3480156103e357600080fd5b506103fe60048036038101906103f99190611afb565b6108c8565b005b34801561040c57600080fd5b506104156108f5565b6040516104229190611916565b60405180910390f35b34801561043757600080fd5b50610440610983565b60405161044d9190611a2c565b60405180910390f35b34801561046257600080fd5b5061047d60048036038101906104789190611afb565b61099a565b60405161048a9190611a56565b60405180910390f35b34801561049f57600080fd5b506104ba60048036038101906104b59190611b28565b6109b1565b6040516104c79190611a56565b60405180910390f35b3480156104dc57600080fd5b506104e56109f9565b005b3480156104f357600080fd5b506104fc610a0d565b6040516105099190611a2c565b60405180910390f35b34801561051e57600080fd5b50610539600480360381019061053491906119d1565b610a45565b005b34801561054757600080fd5b50610550610a65565b60405161055d9190611b64565b60405180910390f35b34801561057257600080fd5b5061057b610a8f565b6040516105889190611916565b60405180910390f35b34801561059d57600080fd5b506105b860048036038101906105b391906119d1565b610b21565b6040516105c59190611a2c565b60405180910390f35b3480156105da57600080fd5b506105f560048036038101906105f091906119d1565b610b98565b6040516106029190611a2c565b60405180910390f35b34801561061757600080fd5b50610620610bbb565b60405161062d9190611a2c565b60405180910390f35b34801561064257600080fd5b5061064b610bf3565b6040516106589190611a2c565b60405180910390f35b34801561066d57600080fd5b5061068860048036038101906106839190611b7f565b610c4d565b6040516106959190611a56565b60405180910390f35b3480156106aa57600080fd5b506106c560048036038101906106c09190611b28565b610cd4565b005b6000600654346106d79190611c1d565b90506106e33382610d57565b50565b6060600380546106f590611c7d565b80601f016020809104026020016040519081016040528092919081815260200182805461072190611c7d565b801561076e5780601f106107435761010080835404028352916020019161076e565b820191906000526020600020905b81548152906001019060200180831161075157829003601f168201915b5050505050905090565b600080610783610ead565b9050610790818585610eb5565b600191505092915050565b6000600254905090565b60075481565b6000806107b6610ead565b90506107c385828561107e565b6107ce85858561110a565b60019150509392505050565b60065481565b60006012905090565b60085481565b60006107f9611380565b610802826113fe565b9050919050565b6000600654826108199190611cae565b341161082457600080fd5b6000670de0b6b3a76400008361083a9190611cae565b60075460085461084a9190611cf0565b6108549190611cf0565b101561085f57600080fd5b61087c33670de0b6b3a7640000846108779190611cae565b610d57565b6006548261088a9190611cae565b9050919050565b60008061089c610ead565b90506108bd8185856108ae8589610c4d565b6108b89190611d24565b610eb5565b600191505092915050565b60001515600960009054906101000a900460ff161515036108e857600080fd5b6108f23382611420565b50565b600a805461090290611c7d565b80601f016020809104026020016040519081016040528092919081815260200182805461092e90611c7d565b801561097b5780601f106109505761010080835404028352916020019161097b565b820191906000526020600020905b81548152906001019060200180831161095e57829003601f168201915b505050505081565b6000600560009054906101000a900460ff16905090565b60006109a4611380565b8160088190559050919050565b60008060008373ffffffffffffffffffffffffffffffffffffffff1673ffffffffffffffffffffffffffffffffffffffff168152602001908152602001600020549050919050565b610a01611380565b610a0b60006115ed565b565b6000610a17611380565b600960009054906101000a900460ff1615600960006101000a81548160ff0219169083151502179055905090565b610a5782610a51610ead565b8361107e565b610a618282611420565b5050565b6000600560019054906101000a900473ffffffffffffffffffffffffffffffffffffffff16905090565b606060048054610a9e90611c7d565b80601f0160208091040260200160405190810160405280929190818152602001828054610aca90611c7d565b8015610b175780601f10610aec57610100808354040283529160200191610b17565b820191906000526020600020905b815481529060010190602001808311610afa57829003601f168201915b5050505050905090565b600080610b2c610ead565b90506000610b3a8286610c4d565b905083811015610b7f576040517f08c379a0000000000000000000000000000000000000000000000000000000008152600401610b7690611dca565b60405180910390fd5b610b8c8286868403610eb5565b60019250505092915050565b600080610ba3610ead565b9050610bb081858561110a565b600191505092915050565b6000610bc5611380565b600960019054906101000a900460ff1615600960016101000a81548160ff0219169083151502179055905090565b6000610bfd611380565b60001515600960019054906101000a900460ff16151503610c1d57600080fd5b610c25610983565b15610c3757610c326116b3565b610c40565b610c3f611716565b5b610c48610983565b905090565b6000600160008473ffffffffffffffffffffffffffffffffffffffff1673ffffffffffffffffffffffffffffffffffffffff16815260200190815260200160002060008373ffffffffffffffffffffffffffffffffffffffff1673ffffffffffffffffffffffffffffffffffffffff16815260200190815260200160002054905092915050565b610cdc611380565b600073ffffffffffffffffffffffffffffffffffffffff168173ffffffffffffffffffffffffffffffffffffffff1603610d4b576040517f08c379a0000000000000000000000000000000000000000000000000000000008152600401610d4290611e5c565b60405180910390fd5b610d54816115ed565b50565b600073ffffffffffffffffffffffffffffffffffffffff168273ffffffffffffffffffffffffffffffffffffffff1603610dc6576040517f08c379a0000000000000000000000000000000000000000000000000000000008152600401610dbd90611ec8565b60405180910390fd5b610dd260008383611779565b8060026000828254610de49190611d24565b92505081905550806000808473ffffffffffffffffffffffffffffffffffffffff1673ffffffffffffffffffffffffffffffffffffffff168152602001908152602001600020600082825401925050819055508173ffffffffffffffffffffffffffffffffffffffff16600073ffffffffffffffffffffffffffffffffffffffff167fddf252ad1be2c89b69c2b068fc378daa952ba7f163c4a11628f55a4df523b3ef83604051610e959190611a56565b60405180910390a3610ea960008383611791565b5050565b600033905090565b600073ffffffffffffffffffffffffffffffffffffffff168373ffffffffffffffffffffffffffffffffffffffff1603610f24576040517f08c379a0000000000000000000000000000000000000000000000000000000008152600401610f1b90611f5a565b60405180910390fd5b600073ffffffffffffffffffffffffffffffffffffffff168273ffffffffffffffffffffffffffffffffffffffff1603610f93576040517f08c379a0000000000000000000000000000000000000000000000000000000008152600401610f8a90611fec565b60405180910390fd5b80600160008573ffffffffffffffffffffffffffffffffffffffff1673ffffffffffffffffffffffffffffffffffffffff16815260200190815260200160002060008473ffffffffffffffffffffffffffffffffffffffff1673ffffffffffffffffffffffffffffffffffffffff168152602001908152602001600020819055508173ffffffffffffffffffffffffffffffffffffffff168373ffffffffffffffffffffffffffffffffffffffff167f8c5be1e5ebec7d5bd14f71427d1e84f3dd0314c0f7b2291e5b200ac8c7c3b925836040516110719190611a56565b60405180910390a3505050565b600061108a8484610c4d565b90507fffffffffffffffffffffffffffffffffffffffffffffffffffffffffffffffff811461110457818110156110f6576040517f08c379a00000000000000000000000000000000000000000000000000000000081526004016110ed90612058565b60405180910390fd5b6111038484848403610eb5565b5b50505050565b600073ffffffffffffffffffffffffffffffffffffffff168373ffffffffffffffffffffffffffffffffffffffff1603611179576040517f08c379a0000000000000000000000000000000000000000000000000000000008152600401611170906120ea565b60405180910390fd5b600073ffffffffffffffffffffffffffffffffffffffff168273ffffffffffffffffffffffffffffffffffffffff16036111e8576040517f08c379a00000000000000000000000000000000000000000000000000000000081526004016111df9061217c565b60405180910390fd5b6111f3838383611779565b60008060008573ffffffffffffffffffffffffffffffffffffffff1673ffffffffffffffffffffffffffffffffffffffff16815260200190815260200160002054905081811015611279576040517f08c379a00000000000000000000000000000000000000000000000000000000081526004016112709061220e565b60405180910390fd5b8181036000808673ffffffffffffffffffffffffffffffffffffffff1673ffffffffffffffffffffffffffffffffffffffff16815260200190815260200160002081905550816000808573ffffffffffffffffffffffffffffffffffffffff1673ffffffffffffffffffffffffffffffffffffffff168152602001908152602001600020600082825401925050819055508273ffffffffffffffffffffffffffffffffffffffff168473ffffffffffffffffffffffffffffffffffffffff167fddf252ad1be2c89b69c2b068fc378daa952ba7f163c4a11628f55a4df523b3ef846040516113679190611a56565b60405180910390a361137a848484611791565b50505050565b611388610ead565b73ffffffffffffffffffffffffffffffffffffffff166113a6610a65565b73ffffffffffffffffffffffffffffffffffffffff16146113fc576040517f08c379a00000000000000000000000000000000000000000000000000000000081526004016113f39061227a565b60405180910390fd5b565b600080829050600081101561141257600080fd5b806006819055915050919050565b600073ffffffffffffffffffffffffffffffffffffffff168273ffffffffffffffffffffffffffffffffffffffff160361148f576040517f08c379a00000000000000000000000000000000000000000000000000000000081526004016114869061230c565b60405180910390fd5b61149b82600083611779565b60008060008473ffffffffffffffffffffffffffffffffffffffff1673ffffffffffffffffffffffffffffffffffffffff16815260200190815260200160002054905081811015611521576040517f08c379a00000000000000000000000000000000000000000000000000000000081526004016115189061239e565b60405180910390fd5b8181036000808573ffffffffffffffffffffffffffffffffffffffff1673ffffffffffffffffffffffffffffffffffffffff1681526020019081526020016000208190555081600260008282540392505081905550600073ffffffffffffffffffffffffffffffffffffffff168373ffffffffffffffffffffffffffffffffffffffff167fddf252ad1be2c89b69c2b068fc378daa952ba7f163c4a11628f55a4df523b3ef846040516115d49190611a56565b60405180910390a36115e883600084611791565b505050565b6000600560019054906101000a900473ffffffffffffffffffffffffffffffffffffffff16905081600560016101000a81548173ffffffffffffffffffffffffffffffffffffffff021916908373ffffffffffffffffffffffffffffffffffffffff1602179055508173ffffffffffffffffffffffffffffffffffffffff168173ffffffffffffffffffffffffffffffffffffffff167f8be0079c531659141344cd1fd0a4f28419497f9722a3daafe3b4186f6b6457e060405160405180910390a35050565b6116bb611796565b6000600560006101000a81548160ff0219169083151502179055507f5db9ee0a495bf2e6ff9c91a7834c1ba4fdd244a5e8aa4e537bd38aeae4b073aa6116ff610ead565b60405161170c9190611b64565b60405180910390a1565b61171e6117df565b6001600560006101000a81548160ff0219169083151502179055507f62e78cea01bee320cd4e420270b5ea74000d11b0c9f74754ebdbfc544b05a258611762610ead565b60405161176f9190611b64565b60405180910390a1565b6117816117df565b61178c838383611829565b505050565b505050565b61179e610983565b6117dd576040517f08c379a00000000000000000000000000000000000000000000000000000000081526004016117d49061240a565b60405180910390fd5b565b6117e7610983565b15611827576040517f08c379a000000000000000000000000000000000000000000000000000000000815260040161181e90612476565b60405180910390fd5b565b611834838383611881565b61183c610983565b1561187c576040517f08c379a000000000000000000000000000000000000000000000000000000000815260040161187390612508565b60405180910390fd5b505050565b505050565b600081519050919050565b600082825260208201905092915050565b60005b838110156118c05780820151818401526020810190506118a5565b60008484015250505050565b6000601f19601f8301169050919050565b60006118e882611886565b6118f28185611891565b93506119028185602086016118a2565b61190b816118cc565b840191505092915050565b6000602082019050818103600083015261193081846118dd565b905092915050565b600080fd5b600073ffffffffffffffffffffffffffffffffffffffff82169050919050565b60006119688261193d565b9050919050565b6119788161195d565b811461198357600080fd5b50565b6000813590506119958161196f565b92915050565b6000819050919050565b6119ae8161199b565b81146119b957600080fd5b50565b6000813590506119cb816119a5565b92915050565b600080604083850312156119e8576119e7611938565b5b60006119f685828601611986565b9250506020611a07858286016119bc565b9150509250929050565b60008115159050919050565b611a2681611a11565b82525050565b6000602082019050611a416000830184611a1d565b92915050565b611a508161199b565b82525050565b6000602082019050611a6b6000830184611a47565b92915050565b600080600060608486031215611a8a57611a89611938565b5b6000611a9886828701611986565b9350506020611aa986828701611986565b9250506040611aba868287016119bc565b9150509250925092565b600060ff82169050919050565b611ada81611ac4565b82525050565b6000602082019050611af56000830184611ad1565b92915050565b600060208284031215611b1157611b10611938565b5b6000611b1f848285016119bc565b91505092915050565b600060208284031215611b3e57611b3d611938565b5b6000611b4c84828501611986565b91505092915050565b611b5e8161195d565b82525050565b6000602082019050611b796000830184611b55565b92915050565b60008060408385031215611b9657611b95611938565b5b6000611ba485828601611986565b9250506020611bb585828601611986565b9150509250929050565b7f4e487b7100000000000000000000000000000000000000000000000000000000600052601260045260246000fd5b7f4e487b7100000000000000000000000000000000000000000000000000000000600052601160045260246000fd5b6000611c288261199b565b9150611c338361199b565b925082611c4357611c42611bbf565b5b828204905092915050565b7f4e487b7100000000000000000000000000000000000000000000000000000000600052602260045260246000fd5b60006002820490506001821680611c9557607f821691505b602082108103611ca857611ca7611c4e565b5b50919050565b6000611cb98261199b565b9150611cc48361199b565b9250828202611cd28161199b565b91508282048414831517611ce957611ce8611bee565b5b5092915050565b6000611cfb8261199b565b9150611d068361199b565b9250828203905081811115611d1e57611d1d611bee565b5b92915050565b6000611d2f8261199b565b9150611d3a8361199b565b9250828201905080821115611d5257611d51611bee565b5b92915050565b7f45524332303a2064656372656173656420616c6c6f77616e63652062656c6f7760008201527f207a65726f000000000000000000000000000000000000000000000000000000602082015250565b6000611db4602583611891565b9150611dbf82611d58565b604082019050919050565b60006020820190508181036000830152611de381611da7565b9050919050565b7f4f776e61626c653a206e6577206f776e657220697320746865207a65726f206160008201527f6464726573730000000000000000000000000000000000000000000000000000602082015250565b6000611e46602683611891565b9150611e5182611dea565b604082019050919050565b60006020820190508181036000830152611e7581611e39565b9050919050565b7f45524332303a206d696e7420746f20746865207a65726f206164647265737300600082015250565b6000611eb2601f83611891565b9150611ebd82611e7c565b602082019050919050565b60006020820190508181036000830152611ee181611ea5565b9050919050565b7f45524332303a20617070726f76652066726f6d20746865207a65726f2061646460008201527f7265737300000000000000000000000000000000000000000000000000000000602082015250565b6000611f44602483611891565b9150611f4f82611ee8565b604082019050919050565b60006020820190508181036000830152611f7381611f37565b9050919050565b7f45524332303a20617070726f766520746f20746865207a65726f20616464726560008201527f7373000000000000000000000000000000000000000000000000000000000000602082015250565b6000611fd6602283611891565b9150611fe182611f7a565b604082019050919050565b6000602082019050818103600083015261200581611fc9565b9050919050565b7f45524332303a20696e73756666696369656e7420616c6c6f77616e6365000000600082015250565b6000612042601d83611891565b915061204d8261200c565b602082019050919050565b6000602082019050818103600083015261207181612035565b9050919050565b7f45524332303a207472616e736665722066726f6d20746865207a65726f20616460008201527f6472657373000000000000000000000000000000000000000000000000000000602082015250565b60006120d4602583611891565b91506120df82612078565b604082019050919050565b60006020820190508181036000830152612103816120c7565b9050919050565b7f45524332303a207472616e7366657220746f20746865207a65726f206164647260008201527f6573730000000000000000000000000000000000000000000000000000000000602082015250565b6000612166602383611891565b91506121718261210a565b604082019050919050565b6000602082019050818103600083015261219581612159565b9050919050565b7f45524332303a207472616e7366657220616d6f756e742065786365656473206260008201527f616c616e63650000000000000000000000000000000000000000000000000000602082015250565b60006121f8602683611891565b91506122038261219c565b604082019050919050565b60006020820190508181036000830152612227816121eb565b9050919050565b7f4f776e61626c653a2063616c6c6572206973206e6f7420746865206f776e6572600082015250565b6000612264602083611891565b915061226f8261222e565b602082019050919050565b6000602082019050818103600083015261229381612257565b9050919050565b7f45524332303a206275726e2066726f6d20746865207a65726f2061646472657360008201527f7300000000000000000000000000000000000000000000000000000000000000602082015250565b60006122f6602183611891565b91506123018261229a565b604082019050919050565b60006020820190508181036000830152612325816122e9565b9050919050565b7f45524332303a206275726e20616d6f756e7420657863656564732062616c616e60008201527f6365000000000000000000000000000000000000000000000000000000000000602082015250565b6000612388602283611891565b91506123938261232c565b604082019050919050565b600060208201905081810360008301526123b78161237b565b9050919050565b7f5061757361626c653a206e6f7420706175736564000000000000000000000000600082015250565b60006123f4601483611891565b91506123ff826123be565b602082019050919050565b60006020820190508181036000830152612423816123e7565b9050919050565b7f5061757361626c653a2070617573656400000000000000000000000000000000600082015250565b6000612460601083611891565b915061246b8261242a565b602082019050919050565b6000602082019050818103600083015261248f81612453565b9050919050565b7f45524332305061757361626c653a20746f6b656e207472616e7366657220776860008201527f696c652070617573656400000000000000000000000000000000000000000000602082015250565b60006124f2602a83611891565b91506124fd82612496565b604082019050919050565b60006020820190508181036000830152612521816124e5565b905091905056fea2646970667358221220951bd8b8289886348a3ef6637981b20d715e5f1c50b9c80753255eb5c23f685a64736f6c63430008110033a26469706673582212209e105c5a87f50cbe1cbad5225a6f9e7c29bef36d1f84c55afcaea41cb79f7b1064736f6c63430008110033",
  "immutableReferences": {},
  "source": "// SPDX-License-Identifier: GPL-3.0\n// // // // // // // // // // // // // // // // // // // // // // // // // // // // // // // // // // // // // // // // // // // // // // // // // // // // // // // // // // // // //\n//\n//      MMWKd:..                                                                                    ..:dKWMM\n//      MKl.                                                                                            .lKW\n//      O'       ..''''''''''''.     .''''''.     .'''''.      .''''''''''''''.     .''''''''''''..       'O\n//      '     .ckKNNWNWWWWWWWWWk.   .xNWWNWNl    ,0WWWWW0,     lNWWWWWWWWWNWNk'    ;0NNNWWWWWWWWNNKkc.     '\n//           ,OWMMMMMMMMMMMMMMMO.   .kMMMMMWl    ,KMMMMMK,     lWMMMMMMMMMMM0,    ;KMMMMMMMMMMMMMMMMWO,\n//          .kMMMMMMMMMMMMMMMMMO.   .kMMMMMWl    ,KMMMMMK,     lWMMMMMMMMMM0,    ;KMMMMMMMMMMMMMMMMMMMk.\n//          '0MMMMMMMMMMMMMMMMMO.   .kMMMMMWl    ,KMMMMMK,     lWMMMMMMMMM0,    :KMMMMMMMMMMMMMMMMMMMM0'\n//          '0MMMMMMMMMMMMMMMMMO.   .kMMMMMWl    ,KMMMMMK,     lWMMMMMMMM0,    :KMMMMMMMMMMMMMMMMMMMMM0'\n//          '0MMMMMMMMMMMMMMMMMO.   .kMMMMMWl    ,KMMMMMK,     lWMMMMMMM0,    ;0NNWWMMMMMMMMMMMMMMMMMM0'\n//          '0MMMMMMMMMMMMMMMMMO.   .kMMMMMWl    ,KMMMMMK,     lWMMMMMM0,     .'.',;lkNMMMMMMMMMMMMMMM0'\n//          '0MMMMMMMMMMMMMMMMMO.   .kMMMMMWl    ,KMMMMMK,     lWMMMMMK;              ,kWMMMMMMMMMMMMM0'\n//          '0MMMMMMMMMMMMMMMMMO.   .kMMMMMWl    ,KMMMMMK,     lWMMMMX:    .:oxxdc'    .dWMMMMMMMMMMMM0'\n//          '0MMMMMMMMMMMMMMMMMO.   .kMMMMMWl    ,KMMMMMK,     lWMMMWd.   ,OWMMMMMXl.   '0MMMMMMMMMMMM0'\n//          '0MMMMMMMMMMMMMMMMMO.   .kMMMMMWl    ,KMMMMMK,     lWMMMX;   .kMMMMMMMMK,   .xMMMMMMMMMMMM0'\n//          '0MMMMMMMMMMMMMMMMMO.   .kMMMMMWl    ,KMMMMMK,     lWMMM0'   .OMMMMMMMMX;   .xMMMMMMMMMMMM0'\n//          .OMMMMMMMMMMMMMMMMMO.   .kMMMMMWl    ,KMMMMMK,     lWMMMK,    lNMMMMMMWx.   '0MMMMMMMMMMMMO.\n//           lNMMMMMMMMMMMMMMMMO.   .kMMMMMWl    ,KMMMMMK,     lWMMMWd.   .:x0KKKkc.   .dWMMMMMMMMMMMNl\n//      .    .c0WMMMMMMMMMMMMMMO.   .kMMMMMWo    ,KMMMMMK,     lWMMMMNd.     ....     .xNMMMMMMMMMMW0c.    .\n//      l      .,lddxxxxxxxxxxxc.    :xxxxxd,    .lxxxxxl.     ,dxxxxxd:.            .cdxxxxxxxxddl,.      l\n//      No.                                                                                              .oN\n//      MW0l'                                                                                          'l0WM\n//      MMMWKd;.                                                                                    .;dKWMMM\n//\n// // // // // // // // // // // // // // // // // // // // // // // // // // // // // // // // // // // // // // // // // // // // // // // // // // // // // // // // // // // // //\n//                                                                                                                                                                                  //\n//      @dev            ::              Aron Mauritala Ayuk                                                                                                                                          //\n//      @msg            ::              stereo@iii6.xyz                                                                                                                                   //\n//      @github         ::              @stereoIII6\n//      @twitter        ::              @stereoIII6                                                                                                                                              //\n//                                                                                                                                                                                  //\n// // // // // // // // // // // // // // // // // // // // // // // // // // // // // // // // // // // // // // // // // // // // // // // // // // // // // // // // // // // // //\n//                                                                                                                                                                                  //\n//      @dev            ::              Juan Xavier Valverde                                                                                                                                    //\n//      @msg            ::              juanxavier@iii6.xyz                                                                                                                               //\n//      @twitter        ::              @JuanXavier                                                                                                                                             //\n//      @github         ::              @JuanXavier                                                                                                                                             //\n//                                                                                                                                                                                  //                                                                                                                                                                                 //\n// // // // // // // // // // // // // // // // // // // // // // // // // // // // // // // // // // // // // // // // // // // // // // // // // // // // // // // // // // // // //\n//  *   *   *   *   *   *   *   *   *   *   *   *   *   *   *   *   *   *   *   *   *   *   *   *   *   *   *   *   *   *   *   *   *   *   *   *   *   *   *   *   *   *   *   *   //\n// // // // // // // // // // // // // // // // // // // // // // // // // // // // // // // // // // // // // // // // // // // // // // // // // // // // // // // // // // // // //\n//                                                                                                                                                                                  //\n//      @company        ::              Fractio Holding                                                                                                                                                                       //\n//      @title          ::              iii6 Coin Factory                                                                                                                            //\n//      @description    ::              ERC721 DIA Factory Contract                                                                                                                           //\n//      @version        ::              0.0.1                                                                                                                                       //\n//      @purpose        ::              ERC721 DIA Factory                                                                                                          //\n//                                                                                                                                                                                  //\n//                                                                                                                                                                                  //\n//                                                                                                                                                                                  //\n//                                                                                                                                                                                  //\n//                                                                                                                                                                                  //\n// // // // // // // // // // // // // // // // // // // // // // // // // // // // // // // // // // // // // // // // // // // // // // // // // // // // // // // // // // // // //\n//  *   *   *   *   *   *   *   *   *   *   *   *   *   *   *   *   *   *   *   *   *   *   *   *   *   *   *   *   *   *   *   *   *   *   *   *   *   *   *   *   *   *   *   *   //\n// // // // // // // // // // // // // // // // // // // // // // // // // // // // // // // // // // // // // // // // // // // // // // // // // // // // // // // // // // // // //\n\n/////////////////////////////////////////////////////////////////////////////////////////////////////////////////////\n\n/////////////////////////////////////////////////////////////////////////////////////////////////////////////////////\n\npragma solidity ^0.8.7;\n\nimport \"./iii6CoinModel.sol\";\nimport \"../Math/iii6PriceMath.sol\";\n\ncontract iii6CoinFactory is iii6PriceMath {\n    /**\n     * @dev this contract is a model contract to be deployed through the iii6AssetFactory\n     */\n    // \n    // \n    // \n    // \n    // \n    // \n    address VRF;\n    address FEED;\n    uint256 gasSafe;\n    uint256 public p;\n    mapping(uint256 => address) public projects;\n    mapping(address => uint256) public mp;\n    mapping(address => mapping(uint256 => address)) public myProjects;\n\n    /*\n     * @dev this constructor creates a Dia NFT Token Contract\n     * @param _owner contract admin\n     * @param _name dia token name\n     * @param _max amount of tokens 0 = infinte\n     * @param _price amount of gascoin for token\n     * @param _cName name of related ERC20 token\n     * @param _cSym symbol of related ERC20 token\n     * @param _c bool if related coin exists\n     * @param _cs max supply of related ERC20 token 0 = infinite\n     * @param _rate price of related ERC20 token in gascoin\n     */\n    constructor() {\n        gasSafe = 5 * 10**13;\n    }\n\n    // function creates a ERC20 Token Contract\n    function _makeERC20Asset(\n        string memory _name,\n        string memory _sym,\n        uint256 _rate,\n        uint256 _supply,\n        bool _burn,\n        bool _pause\n    ) internal returns (address) {\n        // chose token model\n        iii6CoinModel token;\n        /**\n         * @dev creates an instance of iii6CoinModel\n         * @param _name token name\n         * @param _sym token symbol\n         * @param _rate token rate\n         * @param _supply max token supply // if 0-infinte\n         * @param _burn bool burnable\n         * @param _pause bool pauseble\n         * @return contract address\n         */\n        token = new iii6CoinModel(_name, _sym, _rate, _supply, _burn, _pause);\n        // exit with address\n        return address(token);\n    }\n\n    /**\n     * @dev creates an instance of iii6CoinModel\n     * @param _name token name\n     * @param _sym token symbol\n     * @param _rate token rate\n     * @param _supply max token supply // if 0-infinte\n     * @param _burn bool burnable\n     * @param _pause bool pauseble\n     * @return contract address\n     */\n    function buildERC20Token(\n        string calldata _name,\n        string calldata _sym,\n        uint256 _rate,\n        uint256 _supply,\n        bool _burn,\n        bool _pause\n    ) external payable returns (address) {\n        // check msg.value\n\n        // mint license\n        // make asset & exit with address\n        if (msg.value > 10**14) {\n            // address(this).transfer(safe, msg.value - gasSafe);\n        }\n        return _makeERC20Asset(_name, _sym, _rate, _supply, _burn, _pause);\n    }\n}\n",
  "sourcePath": "/Users/iii6/Documents/GitHub/Gamble360/contracts/iii6Utils/Assets/iii6CoinFactory.sol",
  "compiler": {
    "name": "solc",
    "version": "0.8.17+commit.8df45f5f.Emscripten.clang"
  },
  "schemaVersion": "3.4.8",
  "updatedAt": "2023-04-02T20:30:54.815Z",
  "devdoc": {
    "kind": "dev",
    "methods": {
      "COIN_USD()": {
        "details": "gets value of gascoin derived from iii6PriceConsumer => _get[...]Usdc()",
        "params": {
          "": "// EXTERNAL"
        },
        "returns": {
          "_0": "uint256 gascoin price in usdc"
        }
      },
      "ETH_USD()": {
        "details": "gets value of eth derived from INTERNAL => _get[...]Usdc()",
        "params": {
          "": "// EXTERNAL"
        },
        "returns": {
          "_0": "uint256 eth price in usdc"
        }
      },
      "X_USD()": {
        "details": "gets value of custon token x derived from iii6PriceConsumer => _get[...]Usdc()",
        "params": {
          "": "// EXTERNAL"
        },
        "returns": {
          "_0": "uint256 custon token x price in usdc"
        }
      },
      "Y_USD()": {
        "details": "gets value of custon token y derived from iii6PriceConsumer => _get[...]Usdc()",
        "params": {
          "": "// EXTERNAL"
        },
        "returns": {
          "_0": "uint256 custon token y price in usdc"
        }
      },
      "buildERC20Token(string,string,uint256,uint256,bool,bool)": {
        "details": "creates an instance of iii6CoinModel",
        "params": {
          "_burn": "bool burnable",
          "_name": "token name",
          "_pause": "bool pauseble",
          "_rate": "token rate",
          "_supply": "max token supply // if 0-infinte",
          "_sym": "token symbol"
        },
        "returns": {
          "_0": "contract address"
        }
      },
      "coinPriceOfEth(uint256)": {
        "details": "Returns price for input amount in chosen currency",
        "params": {
          "_amt": "uint256 amount of usd"
        },
        "returns": {
          "_0": "Result of division"
        }
      },
      "coinPriceOfUSD(uint256)": {
        "details": "Returns price for input amount in chosen currency",
        "params": {
          "_amt": "uint256 amount of usd"
        },
        "returns": {
          "_0": "Result of division"
        }
      },
      "coinPriceOfX(uint256)": {
        "details": "Returns price for input amount in chosen currency",
        "params": {
          "_amt": "uint256 amount of usd"
        },
        "returns": {
          "_0": "Result of division"
        }
      },
      "coinPriceOfY(uint256)": {
        "details": "Returns price for input amount in chosen currency",
        "params": {
          "_amt": "uint256 amount of usd"
        },
        "returns": {
          "_0": "Result of division"
        }
      },
      "ethPriceOfUSD(uint256)": {
        "details": "Returns price for input amount in chosen currency",
        "params": {
          "_amt": "uint256 amount of usd"
        },
        "returns": {
          "_0": "Result of division"
        }
      },
      "getCoinPriceInEth()": {
        "details": "gets value of gascoin denominated in eth derived from _get[...]Usdc()",
        "returns": {
          "coinPriceEth": "uint256 price of gascoin denominated in eth"
        }
      },
      "getCoinPriceInX()": {
        "details": "gets value of gascoin denominated in eth derived from _get[...]Usdc()",
        "returns": {
          "coinPriceX": "uint256 price of gascoin denominated in eth"
        }
      },
      "getCoinPriceInY()": {
        "details": "gets value of gascoin denominated in eth derived from _get[...]Usdc()",
        "returns": {
          "coinPriceY": "uint256 price of gascoin denominated in eth"
        }
      },
      "getEthPriceInCoin()": {
        "details": "gets value of eth denominated in gascoin derived from _get[...]Usdc()",
        "returns": {
          "ethPriceCoin": "uint256 price of eth denominated in gascoin"
        }
      },
      "getEthPriceInX()": {
        "details": "gets value of eth denominated in custom token x derived from _get[...]Usdc()",
        "returns": {
          "ethPriceX": "uint256 price of eth denominated in custom token x"
        }
      },
      "getEthPriceInY()": {
        "details": "gets value of eth denominated in custom token y derived from _get[...]Usdc()",
        "returns": {
          "ethPriceY": "uint256 price of eth denominated in custom token y"
        }
      },
      "getXPriceInCoin()": {
        "details": "gets value of gascoin denominated in eth derived from _get[...]Usdc()",
        "returns": {
          "xPriceCoin": "uint256 price of gascoin denominated in eth"
        }
      },
      "getXPriceInEth()": {
        "details": "gets value of gascoin denominated in eth derived from _get[...]Usdc()",
        "returns": {
          "xPriceEth": "uint256 price of gascoin denominated in eth"
        }
      },
      "getXPriceInY()": {
        "details": "gets value of gascoin denominated in eth derived from _get[...]Usdc()",
        "returns": {
          "xPriceY": "uint256 price of gascoin denominated in eth"
        }
      },
      "getYPriceInCoin()": {
        "details": "gets value of gascoin denominated in eth derived from _get[...]Usdc()",
        "returns": {
          "yPriceCoin": "uint256 price of gascoin denominated in eth"
        }
      },
      "getYPriceInEth()": {
        "details": "gets value of gascoin denominated in eth derived from _get[...]Usdc()",
        "returns": {
          "yPriceEth": "uint256 price of gascoin denominated in eth"
        }
      },
      "getYPriceInX()": {
        "details": "gets value of gascoin denominated in eth derived from _get[...]Usdc()",
        "returns": {
          "yPriceX": "uint256 price of gascoin denominated in eth"
        }
      },
      "setX(address,uint256)": {
        "details": "sets the oracle for custom token x and adapts digit length",
        "params": {
          "": "// EXTERNAL",
          "_digits": "number of decimals passed by oracle",
          "_oracle": "address of the chainlink pricefeed oracle contract"
        },
        "returns": {
          "_0": "bool success"
        }
      },
      "setY(address,uint256)": {
        "details": "sets the oracle for custom token y and adapts digit length",
        "params": {
          "": "// EXTERNAL",
          "_digits": "number of decimals passed by oracle",
          "_oracle": "address of the chainlink pricefeed oracle contract"
        },
        "returns": {
          "_0": "bool success"
        }
      },
      "xPriceOfUSD(uint256)": {
        "details": "Returns price for input amount in chosen currency",
        "params": {
          "_amt": "uint256 amount of usd"
        },
        "returns": {
          "_0": "Result of division"
        }
      },
      "yPriceOfUSD(uint256)": {
        "details": "Returns price for input amount in chosen currency",
        "params": {
          "_amt": "uint256 amount of usd"
        },
        "returns": {
          "_0": "Result of division"
        }
      }
    },
    "stateVariables": {
      "VRF": {
        "details": "this contract is a model contract to be deployed through the iii6AssetFactory"
      }
    },
    "version": 1
  },
  "userdoc": {
    "kind": "user",
    "methods": {},
    "version": 1
  }
}