{
  "contractName": "iiiDiaIdGen",
  "abi": [
    {
      "inputs": [],
      "stateMutability": "nonpayable",
      "type": "constructor"
    },
    {
      "inputs": [],
      "name": "vrf_id",
      "outputs": [
        {
          "internalType": "uint256",
          "name": "",
          "type": "uint256"
        }
      ],
      "stateMutability": "view",
      "type": "function"
    },
    {
      "inputs": [],
      "name": "getProjectId",
      "outputs": [
        {
          "internalType": "uint256",
          "name": "vrf",
          "type": "uint256"
        }
      ],
      "stateMutability": "view",
      "type": "function"
    },
    {
      "inputs": [],
      "name": "_makeProjectKeypair",
      "outputs": [],
      "stateMutability": "nonpayable",
      "type": "function"
    }
  ],
  "bytecode": "0x608060405246600a5534801561001457600080fd5b5061002361002e60201b60201c565b600b819055506109fd565b60006001600a54036101135760008060006101000a81548173ffffffffffffffffffffffffffffffffffffffff021916908373ffffffffffffffffffffffffffffffffffffffff16021790555060008054906101000a900473ffffffffffffffffffffffffffffffffffffffff1673ffffffffffffffffffffffffffffffffffffffff1663e0c862896040518163ffffffff1660e01b81526004016020604051808303816000875af11580156100e8573d6000803e3d6000fd5b505050506040513d601f19601f8201168201806040525081019061010c91906109d0565b9050610992565b6005600a540361020c5773d98489240409797bba3ad997037571e55555f4e0600160006101000a81548173ffffffffffffffffffffffffffffffffffffffff021916908373ffffffffffffffffffffffffffffffffffffffff160217905550600160009054906101000a900473ffffffffffffffffffffffffffffffffffffffff1673ffffffffffffffffffffffffffffffffffffffff1663e0c862896040518163ffffffff1660e01b81526004016020604051808303816000875af11580156101e1573d6000803e3d6000fd5b505050506040513d601f19601f8201168201806040525081019061020591906109d0565b9050610991565b6089600a540361030557738719f9e85aa0627ac9c34926d06c92b677bd4ca9600460006101000a81548173ffffffffffffffffffffffffffffffffffffffff021916908373ffffffffffffffffffffffffffffffffffffffff160217905550600460009054906101000a900473ffffffffffffffffffffffffffffffffffffffff1673ffffffffffffffffffffffffffffffffffffffff1663e0c862896040518163ffffffff1660e01b81526004016020604051808303816000875af11580156102da573d6000803e3d6000fd5b505050506040513d601f19601f820116820180604052508101906102fe91906109d0565b9050610990565b62013881600a5403610400577312c91b97bc2a6d9bfccd7a7f45d841741490a100600560006101000a81548173ffffffffffffffffffffffffffffffffffffffff021916908373ffffffffffffffffffffffffffffffffffffffff160217905550600560009054906101000a900473ffffffffffffffffffffffffffffffffffffffff1673ffffffffffffffffffffffffffffffffffffffff1663e0c862896040518163ffffffff1660e01b81526004016020604051808303816000875af11580156103d5573d6000803e3d6000fd5b505050506040513d601f19601f820116820180604052508101906103f991906109d0565b905061098f565b6038600a54036104e6576000600660006101000a81548173ffffffffffffffffffffffffffffffffffffffff021916908373ffffffffffffffffffffffffffffffffffffffff160217905550600660009054906101000a900473ffffffffffffffffffffffffffffffffffffffff1673ffffffffffffffffffffffffffffffffffffffff1663e0c862896040518163ffffffff1660e01b81526004016020604051808303816000875af11580156104bb573d6000803e3d6000fd5b505050506040513d601f19601f820116820180604052508101906104df91906109d0565b905061098e565b6061600a54036105cc576000600760006101000a81548173ffffffffffffffffffffffffffffffffffffffff021916908373ffffffffffffffffffffffffffffffffffffffff160217905550600760009054906101000a900473ffffffffffffffffffffffffffffffffffffffff1673ffffffffffffffffffffffffffffffffffffffff1663e0c862896040518163ffffffff1660e01b81526004016020604051808303816000875af11580156105a1573d6000803e3d6000fd5b505050506040513d601f19601f820116820180604052508101906105c591906109d0565b905061098d565b61a86a600a54036106b3576000600860006101000a81548173ffffffffffffffffffffffffffffffffffffffff021916908373ffffffffffffffffffffffffffffffffffffffff160217905550600860009054906101000a900473ffffffffffffffffffffffffffffffffffffffff1673ffffffffffffffffffffffffffffffffffffffff1663e0c862896040518163ffffffff1660e01b81526004016020604051808303816000875af1158015610688573d6000803e3d6000fd5b505050506040513d601f19601f820116820180604052508101906106ac91906109d0565b905061098c565b61a869600a54036107ad577379a5e2bbc6e1eac0764bf6f980b4ec6494a6d8a0600960006101000a81548173ffffffffffffffffffffffffffffffffffffffff021916908373ffffffffffffffffffffffffffffffffffffffff160217905550600960009054906101000a900473ffffffffffffffffffffffffffffffffffffffff1673ffffffffffffffffffffffffffffffffffffffff1663e0c862896040518163ffffffff1660e01b81526004016020604051808303816000875af1158015610782573d6000803e3d6000fd5b505050506040513d601f19601f820116820180604052508101906107a691906109d0565b905061098b565b60fa600a5403610893576000600260006101000a81548173ffffffffffffffffffffffffffffffffffffffff021916908373ffffffffffffffffffffffffffffffffffffffff160217905550600260009054906101000a900473ffffffffffffffffffffffffffffffffffffffff1673ffffffffffffffffffffffffffffffffffffffff1663e0c862896040518163ffffffff1660e01b81526004016020604051808303816000875af1158015610868573d6000803e3d6000fd5b505050506040513d601f19601f8201168201806040525081019061088c91906109d0565b905061098a565b610fa2600a54036109895773af4c0ee5f1adf34bce6b4e2b6d164ca6c6154c74600360006101000a81548173ffffffffffffffffffffffffffffffffffffffff021916908373ffffffffffffffffffffffffffffffffffffffff160217905550600360009054906101000a900473ffffffffffffffffffffffffffffffffffffffff1673ffffffffffffffffffffffffffffffffffffffff1663e0c862896040518163ffffffff1660e01b81526004016020604051808303816000875af1158015610962573d6000803e3d6000fd5b505050506040513d601f19601f8201168201806040525081019061098691906109d0565b90505b5b5b5b5b5b5b5b5b5b90565b600080fd5b6000819050919050565b6109ad8161099a565b81146109b857600080fd5b50565b6000815190506109ca816109a4565b92915050565b6000602082840312156109e6576109e5610995565b5b60006109f4848285016109bb565b91505092915050565b60f580610a0b6000396000f3fe6080604052348015600f57600080fd5b5060043610603c5760003560e01c80631270e10c14604157806350ed6f0a14605b578063512de73a146063575b600080fd5b6047607d565b6040516052919060a6565b60405180910390f35b60616087565b005b60696089565b6040516074919060a6565b60405180910390f35b6000600b54905090565b565b600b5481565b6000819050919050565b60a081608f565b82525050565b600060208201905060b960008301846099565b9291505056fea2646970667358221220a8871635008daa41d9ff1b1d28c6835e27df30327ebac04585d7cff73a583c7f64736f6c63430008110033",
  "immutableReferences": {},
  "source": "// SPDX-License-Identifier: GPL-3.0\n// // // // // // // // // // // // // // // // // // // // // // // // // // // // // // // // // // // // // // // // // // // // // // // // // // // // // // // // // // // // //\n//\n//      MMWKd:..                                                                                    ..:dKWMM\n//      MKl.                                                                                            .lKW\n//      O'       ..''''''''''''.     .''''''.     .'''''.      .''''''''''''''.     .''''''''''''..       'O\n//      '     .ckKNNWNWWWWWWWWWk.   .xNWWNWNl    ,0WWWWW0,     lNWWWWWWWWWNWNk'    ;0NNNWWWWWWWWNNKkc.     '\n//           ,OWMMMMMMMMMMMMMMMO.   .kMMMMMWl    ,KMMMMMK,     lWMMMMMMMMMMM0,    ;KMMMMMMMMMMMMMMMMWO,\n//          .kMMMMMMMMMMMMMMMMMO.   .kMMMMMWl    ,KMMMMMK,     lWMMMMMMMMMM0,    ;KMMMMMMMMMMMMMMMMMMMk.\n//          '0MMMMMMMMMMMMMMMMMO.   .kMMMMMWl    ,KMMMMMK,     lWMMMMMMMMM0,    :KMMMMMMMMMMMMMMMMMMMM0'\n//          '0MMMMMMMMMMMMMMMMMO.   .kMMMMMWl    ,KMMMMMK,     lWMMMMMMMM0,    :KMMMMMMMMMMMMMMMMMMMMM0'\n//          '0MMMMMMMMMMMMMMMMMO.   .kMMMMMWl    ,KMMMMMK,     lWMMMMMMM0,    ;0NNWWMMMMMMMMMMMMMMMMMM0'\n//          '0MMMMMMMMMMMMMMMMMO.   .kMMMMMWl    ,KMMMMMK,     lWMMMMMM0,     .'.',;lkNMMMMMMMMMMMMMMM0'\n//          '0MMMMMMMMMMMMMMMMMO.   .kMMMMMWl    ,KMMMMMK,     lWMMMMMK;              ,kWMMMMMMMMMMMMM0'\n//          '0MMMMMMMMMMMMMMMMMO.   .kMMMMMWl    ,KMMMMMK,     lWMMMMX:    .:oxxdc'    .dWMMMMMMMMMMMM0'\n//          '0MMMMMMMMMMMMMMMMMO.   .kMMMMMWl    ,KMMMMMK,     lWMMMWd.   ,OWMMMMMXl.   '0MMMMMMMMMMMM0'\n//          '0MMMMMMMMMMMMMMMMMO.   .kMMMMMWl    ,KMMMMMK,     lWMMMX;   .kMMMMMMMMK,   .xMMMMMMMMMMMM0'\n//          '0MMMMMMMMMMMMMMMMMO.   .kMMMMMWl    ,KMMMMMK,     lWMMM0'   .OMMMMMMMMX;   .xMMMMMMMMMMMM0'\n//          .OMMMMMMMMMMMMMMMMMO.   .kMMMMMWl    ,KMMMMMK,     lWMMMK,    lNMMMMMMWx.   '0MMMMMMMMMMMMO.\n//           lNMMMMMMMMMMMMMMMMO.   .kMMMMMWl    ,KMMMMMK,     lWMMMWd.   .:x0KKKkc.   .dWMMMMMMMMMMMNl\n//      .    .c0WMMMMMMMMMMMMMMO.   .kMMMMMWo    ,KMMMMMK,     lWMMMMNd.     ....     .xNMMMMMMMMMMW0c.    .\n//      l      .,lddxxxxxxxxxxxc.    :xxxxxd,    .lxxxxxl.     ,dxxxxxd:.            .cdxxxxxxxxddl,.      l\n//      No.                                                                                              .oN\n//      MW0l'                                                                                          'l0WM\n//      MMMWKd;.                                                                                    .;dKWMMM\n//\n// // // // // // // // // // // // // // // // // // // // // // // // // // // // // // // // // // // // // // // // // // // // // // // // // // // // // // // // // // // // //\n//                                                                                                                                                                                  //\n//      @dev            ::              Aron Mauritala Ayuk                                                                                                                                          //\n//      @msg            ::              stereo@iii6.xyz                                                                                                                                   //\n//      @github         ::              @stereoIII6\n//      @twitter        ::              @stereoIII6                                                                                                                                              //\n//                                                                                                                                                                                  //\n// // // // // // // // // // // // // // // // // // // // // // // // // // // // // // // // // // // // // // // // // // // // // // // // // // // // // // // // // // // // //\n//                                                                                                                                                                                  //\n//      @dev            ::              Juan Xavier Valverde                                                                                                                                    //\n//      @msg            ::              juanxavier@iii6.xyz                                                                                                                               //\n//      @twitter        ::              @JuanXavier                                                                                                                                             //\n//      @github         ::              @JuanXavier                                                                                                                                             //\n//                                                                                                                                                                                  //                                                                                                                                                                                 //\n// // // // // // // // // // // // // // // // // // // // // // // // // // // // // // // // // // // // // // // // // // // // // // // // // // // // // // // // // // // // //\n//  *   *   *   *   *   *   *   *   *   *   *   *   *   *   *   *   *   *   *   *   *   *   *   *   *   *   *   *   *   *   *   *   *   *   *   *   *   *   *   *   *   *   *   *   //\n// // // // // // // // // // // // // // // // // // // // // // // // // // // // // // // // // // // // // // // // // // // // // // // // // // // // // // // // // // // // //\n//                                                                                                                                                                                  //\n//      @company        ::              Fractio Holding                                                                                                                                                                       //\n//      @title          ::              iii6 Dia Id Generator                                                                                                                          //\n//      @description    ::              Generates Unique Random Numbers of specific length where each character field can allow values of different bases                                                                                                                          //\n//      @version        ::              0.0.1                                                                                                                                       //\n//      @purpose        ::              Generates Unique Random Dia Ids                                                                                                         //\n//                                                                                                                                                                                  //\n//                                                                                                                                                                                  //\n//                                                                                                                                                                                  //\n//                                                                                                                                                                                  //\n//                                                                                                                                                                                  //\n// // // // // // // // // // // // // // // // // // // // // // // // // // // // // // // // // // // // // // // // // // // // // // // // // // // // // // // // // // // // //\n//  *   *   *   *   *   *   *   *   *   *   *   *   *   *   *   *   *   *   *   *   *   *   *   *   *   *   *   *   *   *   *   *   *   *   *   *   *   *   *   *   *   *   *   *   //\n// // // // // // // // // // // // // // // // // // // // // // // // // // // // // // // // // // // // // // // // // // // // // // // // // // // // // // // // // // // // //\n\npragma solidity ^0.8.7;\n\nimport \"../Oracles/iii6VRFConsumer.sol\";\nimport \"../Math/iii6Math.sol\";\n\ncontract iiiDiaIdGen is iii6Math {\n    iii6VRFEth private iii6VRFeth;\n    iii6VRFGoerli private iii6VRFgoerli;\n    iii6VRFFantom private iii6VRFfantom;\n    iii6VRFFantomTest private iii6VRFfantomTest;\n    iii6VRFMatic private iii6VRFmatic;\n    iii6VRFMumbai private iii6VRFmumbai;\n    iii6VRFBsc private iii6VRFbsc;\n    iii6VRFChalen private iii6VRFchalen;\n    iii6VRFAvax private iii6VRFavax;\n    iii6VRFFuji private iii6VRFfuji;\n\n    uint256 chid = block.chainid;\n    uint256 public vrf_id;\n\n    constructor() {\n        vrf_id = _setVRFProjectID();\n    }\n\n    function _setVRFProjectID() internal returns (uint256 vrfBase) {\n        // \n        // \n        // \n        // \n        // \n        // \n        if (chid == 1) {\n            iii6VRFeth = iii6VRFEth(0x0000000000000000000000000000000000000000);\n            vrfBase = iii6VRFeth.requestRandomWords();\n        }\n        // \n        // \n        // \n        // \n        // \n        // \n        else if (chid == 5) {\n            iii6VRFgoerli = iii6VRFGoerli(\n                0xd98489240409797BbA3Ad997037571e55555f4E0\n            );\n            vrfBase = iii6VRFgoerli.requestRandomWords();\n        }\n        // \n        // \n        // \n        // \n        // \n        // \n        else if (chid == 137) {\n            iii6VRFmatic = iii6VRFMatic(\n                0x8719F9E85aA0627ac9c34926D06C92b677Bd4ca9\n            );\n            vrfBase = iii6VRFmatic.requestRandomWords();\n        }\n        //  \n        //  \n        //  \n        //  \n        //  \n        //  \n        else if (chid == 80001) {\n            iii6VRFmumbai = iii6VRFMumbai(\n                0x12c91b97BC2A6d9bFCcd7a7f45d841741490A100\n            );\n            vrfBase = iii6VRFmumbai.requestRandomWords();\n        }\n        // \n        // \n        // \n        // \n        // \n        // \n        else if (chid == 56) {\n            iii6VRFbsc = iii6VRFBsc(0x0000000000000000000000000000000000000000);\n            vrfBase = iii6VRFbsc.requestRandomWords();\n        }\n        // \n        // \n        // \n        // \n        // \n        // \n        else if (chid == 97) {\n            iii6VRFchalen = iii6VRFChalen(\n                0x0000000000000000000000000000000000000000\n            );\n            vrfBase = iii6VRFchalen.requestRandomWords();\n        }\n        // \n        // \n        // \n        // \n        // \n        // \n        else if (chid == 43114) {\n            iii6VRFavax = iii6VRFAvax(\n                0x0000000000000000000000000000000000000000\n            );\n            vrfBase = iii6VRFavax.requestRandomWords();\n        }\n        // \n        // \n        // \n        // \n        // \n        // \n        else if (chid == 43113) {\n            iii6VRFfuji = iii6VRFFuji(\n                0x79a5E2bBc6e1EaC0764Bf6F980b4Ec6494A6d8a0\n            );\n            vrfBase = iii6VRFfuji.requestRandomWords();\n        }\n        // \n        // \n        // \n        // \n        // \n        // \n        else if (chid == 250) {\n            iii6VRFfantom = iii6VRFFantom(\n                0x0000000000000000000000000000000000000000\n            );\n            vrfBase = iii6VRFfantom.requestRandomWords();\n        }\n        // \n        // \n        // \n        // \n        // \n        // \n        else if (chid == 4002) {\n            iii6VRFfantomTest = iii6VRFFantomTest(\n                0xaF4C0EE5f1aDF34bCE6b4E2B6D164cA6C6154c74\n            );\n            vrfBase = iii6VRFfantomTest.requestRandomWords();\n        }\n    }\n\n    function getProjectId() external view returns (uint256 vrf) {\n        vrf = vrf_id;\n    }\n\n    function _makeProjectKeypair() external {}\n}\n",
  "sourcePath": "/Users/iii6/Documents/GitHub/Gamble360/contracts/iii6Utils/Math/iii6DiaIdGen.sol",
  "compiler": {
    "name": "solc",
    "version": "0.8.17+commit.8df45f5f.Emscripten.clang"
  },
  "schemaVersion": "3.4.8",
  "updatedAt": "2023-04-02T20:30:54.863Z",
  "devdoc": {
    "kind": "dev",
    "methods": {},
    "version": 1
  },
  "userdoc": {
    "kind": "user",
    "methods": {},
    "version": 1
  }
}