{
  "contractName": "LOTTERY",
  "abi": [
    {
      "inputs": [],
      "stateMutability": "nonpayable",
      "type": "constructor"
    },
    {
      "inputs": [
        {
          "internalType": "uint256",
          "name": "num",
          "type": "uint256"
        }
      ],
      "name": "Check",
      "type": "error"
    },
    {
      "inputs": [],
      "name": "GameOver",
      "type": "error"
    },
    {
      "inputs": [
        {
          "internalType": "address",
          "name": "adr",
          "type": "address"
        },
        {
          "internalType": "uint256",
          "name": "balance",
          "type": "uint256"
        }
      ],
      "name": "LowFunds",
      "type": "error"
    },
    {
      "anonymous": false,
      "inputs": [
        {
          "indexed": true,
          "internalType": "address",
          "name": "owner",
          "type": "address"
        },
        {
          "indexed": true,
          "internalType": "address",
          "name": "approved",
          "type": "address"
        },
        {
          "indexed": true,
          "internalType": "uint256",
          "name": "tokenId",
          "type": "uint256"
        }
      ],
      "name": "Approval",
      "type": "event"
    },
    {
      "anonymous": false,
      "inputs": [
        {
          "indexed": true,
          "internalType": "address",
          "name": "owner",
          "type": "address"
        },
        {
          "indexed": true,
          "internalType": "address",
          "name": "operator",
          "type": "address"
        },
        {
          "indexed": false,
          "internalType": "bool",
          "name": "approved",
          "type": "bool"
        }
      ],
      "name": "ApprovalForAll",
      "type": "event"
    },
    {
      "anonymous": false,
      "inputs": [
        {
          "indexed": false,
          "internalType": "uint256",
          "name": "cs",
          "type": "uint256"
        },
        {
          "indexed": false,
          "internalType": "string",
          "name": "txt",
          "type": "string"
        },
        {
          "indexed": false,
          "internalType": "address",
          "name": "usr",
          "type": "address"
        }
      ],
      "name": "Log",
      "type": "event"
    },
    {
      "anonymous": false,
      "inputs": [
        {
          "indexed": true,
          "internalType": "address",
          "name": "from",
          "type": "address"
        },
        {
          "indexed": true,
          "internalType": "address",
          "name": "to",
          "type": "address"
        },
        {
          "indexed": true,
          "internalType": "uint256",
          "name": "tokenId",
          "type": "uint256"
        }
      ],
      "name": "Transfer",
      "type": "event"
    },
    {
      "inputs": [
        {
          "internalType": "address",
          "name": "to",
          "type": "address"
        },
        {
          "internalType": "uint256",
          "name": "tokenId",
          "type": "uint256"
        }
      ],
      "name": "approve",
      "outputs": [],
      "stateMutability": "nonpayable",
      "type": "function"
    },
    {
      "inputs": [
        {
          "internalType": "address",
          "name": "owner",
          "type": "address"
        }
      ],
      "name": "balanceOf",
      "outputs": [
        {
          "internalType": "uint256",
          "name": "",
          "type": "uint256"
        }
      ],
      "stateMutability": "view",
      "type": "function",
      "constant": true
    },
    {
      "inputs": [
        {
          "internalType": "uint256",
          "name": "",
          "type": "uint256"
        },
        {
          "internalType": "uint256",
          "name": "",
          "type": "uint256"
        },
        {
          "internalType": "uint256",
          "name": "",
          "type": "uint256"
        }
      ],
      "name": "claims",
      "outputs": [
        {
          "internalType": "uint256",
          "name": "",
          "type": "uint256"
        }
      ],
      "stateMutability": "view",
      "type": "function",
      "constant": true
    },
    {
      "inputs": [
        {
          "internalType": "uint256",
          "name": "",
          "type": "uint256"
        }
      ],
      "name": "count",
      "outputs": [
        {
          "internalType": "uint256",
          "name": "",
          "type": "uint256"
        }
      ],
      "stateMutability": "view",
      "type": "function",
      "constant": true
    },
    {
      "inputs": [
        {
          "internalType": "uint256",
          "name": "",
          "type": "uint256"
        }
      ],
      "name": "dias",
      "outputs": [
        {
          "internalType": "uint256",
          "name": "",
          "type": "uint256"
        }
      ],
      "stateMutability": "view",
      "type": "function",
      "constant": true
    },
    {
      "inputs": [
        {
          "internalType": "uint256",
          "name": "tokenId",
          "type": "uint256"
        }
      ],
      "name": "getApproved",
      "outputs": [
        {
          "internalType": "address",
          "name": "",
          "type": "address"
        }
      ],
      "stateMutability": "view",
      "type": "function",
      "constant": true
    },
    {
      "inputs": [
        {
          "internalType": "address",
          "name": "owner",
          "type": "address"
        },
        {
          "internalType": "address",
          "name": "operator",
          "type": "address"
        }
      ],
      "name": "isApprovedForAll",
      "outputs": [
        {
          "internalType": "bool",
          "name": "",
          "type": "bool"
        }
      ],
      "stateMutability": "view",
      "type": "function",
      "constant": true
    },
    {
      "inputs": [],
      "name": "l",
      "outputs": [
        {
          "internalType": "uint256",
          "name": "",
          "type": "uint256"
        }
      ],
      "stateMutability": "view",
      "type": "function",
      "constant": true
    },
    {
      "inputs": [
        {
          "internalType": "uint256",
          "name": "",
          "type": "uint256"
        }
      ],
      "name": "lotterys",
      "outputs": [
        {
          "internalType": "uint256",
          "name": "id",
          "type": "uint256"
        },
        {
          "internalType": "address",
          "name": "owner",
          "type": "address"
        },
        {
          "internalType": "uint256",
          "name": "tickets",
          "type": "uint256"
        },
        {
          "internalType": "uint256",
          "name": "max",
          "type": "uint256"
        },
        {
          "internalType": "uint256",
          "name": "price",
          "type": "uint256"
        },
        {
          "internalType": "uint256",
          "name": "winning",
          "type": "uint256"
        },
        {
          "internalType": "uint256",
          "name": "timestamp",
          "type": "uint256"
        },
        {
          "internalType": "uint256",
          "name": "sold",
          "type": "uint256"
        },
        {
          "internalType": "uint256",
          "name": "status",
          "type": "uint256"
        }
      ],
      "stateMutability": "view",
      "type": "function",
      "constant": true
    },
    {
      "inputs": [
        {
          "internalType": "address",
          "name": "",
          "type": "address"
        },
        {
          "internalType": "uint256",
          "name": "",
          "type": "uint256"
        }
      ],
      "name": "myTicket",
      "outputs": [
        {
          "internalType": "uint256",
          "name": "id",
          "type": "uint256"
        },
        {
          "internalType": "address",
          "name": "owner",
          "type": "address"
        },
        {
          "internalType": "uint256",
          "name": "tickets",
          "type": "uint256"
        },
        {
          "internalType": "uint256",
          "name": "max",
          "type": "uint256"
        },
        {
          "internalType": "uint256",
          "name": "price",
          "type": "uint256"
        },
        {
          "internalType": "uint256",
          "name": "winning",
          "type": "uint256"
        },
        {
          "internalType": "uint256",
          "name": "timestamp",
          "type": "uint256"
        },
        {
          "internalType": "uint256",
          "name": "sold",
          "type": "uint256"
        },
        {
          "internalType": "uint256",
          "name": "status",
          "type": "uint256"
        }
      ],
      "stateMutability": "view",
      "type": "function",
      "constant": true
    },
    {
      "inputs": [
        {
          "internalType": "address",
          "name": "",
          "type": "address"
        }
      ],
      "name": "myTickets",
      "outputs": [
        {
          "internalType": "uint256",
          "name": "",
          "type": "uint256"
        }
      ],
      "stateMutability": "view",
      "type": "function",
      "constant": true
    },
    {
      "inputs": [],
      "name": "name",
      "outputs": [
        {
          "internalType": "string",
          "name": "",
          "type": "string"
        }
      ],
      "stateMutability": "view",
      "type": "function",
      "constant": true
    },
    {
      "inputs": [
        {
          "internalType": "uint256",
          "name": "tokenId",
          "type": "uint256"
        }
      ],
      "name": "ownerOf",
      "outputs": [
        {
          "internalType": "address",
          "name": "",
          "type": "address"
        }
      ],
      "stateMutability": "view",
      "type": "function",
      "constant": true
    },
    {
      "inputs": [
        {
          "internalType": "uint256",
          "name": "",
          "type": "uint256"
        },
        {
          "internalType": "uint256",
          "name": "",
          "type": "uint256"
        }
      ],
      "name": "results",
      "outputs": [
        {
          "internalType": "uint256",
          "name": "",
          "type": "uint256"
        }
      ],
      "stateMutability": "view",
      "type": "function",
      "constant": true
    },
    {
      "inputs": [
        {
          "internalType": "address",
          "name": "from",
          "type": "address"
        },
        {
          "internalType": "address",
          "name": "to",
          "type": "address"
        },
        {
          "internalType": "uint256",
          "name": "tokenId",
          "type": "uint256"
        }
      ],
      "name": "safeTransferFrom",
      "outputs": [],
      "stateMutability": "nonpayable",
      "type": "function"
    },
    {
      "inputs": [
        {
          "internalType": "address",
          "name": "from",
          "type": "address"
        },
        {
          "internalType": "address",
          "name": "to",
          "type": "address"
        },
        {
          "internalType": "uint256",
          "name": "tokenId",
          "type": "uint256"
        },
        {
          "internalType": "bytes",
          "name": "data",
          "type": "bytes"
        }
      ],
      "name": "safeTransferFrom",
      "outputs": [],
      "stateMutability": "nonpayable",
      "type": "function"
    },
    {
      "inputs": [
        {
          "internalType": "address",
          "name": "operator",
          "type": "address"
        },
        {
          "internalType": "bool",
          "name": "approved",
          "type": "bool"
        }
      ],
      "name": "setApprovalForAll",
      "outputs": [],
      "stateMutability": "nonpayable",
      "type": "function"
    },
    {
      "inputs": [
        {
          "internalType": "bytes4",
          "name": "interfaceId",
          "type": "bytes4"
        }
      ],
      "name": "supportsInterface",
      "outputs": [
        {
          "internalType": "bool",
          "name": "",
          "type": "bool"
        }
      ],
      "stateMutability": "view",
      "type": "function",
      "constant": true
    },
    {
      "inputs": [],
      "name": "symbol",
      "outputs": [
        {
          "internalType": "string",
          "name": "",
          "type": "string"
        }
      ],
      "stateMutability": "view",
      "type": "function",
      "constant": true
    },
    {
      "inputs": [
        {
          "internalType": "uint256",
          "name": "tokenId",
          "type": "uint256"
        }
      ],
      "name": "tokenURI",
      "outputs": [
        {
          "internalType": "string",
          "name": "",
          "type": "string"
        }
      ],
      "stateMutability": "view",
      "type": "function",
      "constant": true
    },
    {
      "inputs": [
        {
          "internalType": "address",
          "name": "from",
          "type": "address"
        },
        {
          "internalType": "address",
          "name": "to",
          "type": "address"
        },
        {
          "internalType": "uint256",
          "name": "tokenId",
          "type": "uint256"
        }
      ],
      "name": "transferFrom",
      "outputs": [],
      "stateMutability": "nonpayable",
      "type": "function"
    },
    {
      "inputs": [],
      "name": "withdraw",
      "outputs": [],
      "stateMutability": "nonpayable",
      "type": "function"
    },
    {
      "inputs": [
        {
          "internalType": "uint256",
          "name": "_tick",
          "type": "uint256"
        },
        {
          "internalType": "uint256",
          "name": "_max",
          "type": "uint256"
        },
        {
          "internalType": "uint256",
          "name": "_price",
          "type": "uint256"
        },
        {
          "internalType": "uint256",
          "name": "_win",
          "type": "uint256"
        }
      ],
      "name": "makeLottery",
      "outputs": [],
      "stateMutability": "nonpayable",
      "type": "function"
    },
    {
      "inputs": [
        {
          "internalType": "uint256",
          "name": "_id",
          "type": "uint256"
        },
        {
          "internalType": "uint256",
          "name": "_amount",
          "type": "uint256"
        }
      ],
      "name": "buyTicket",
      "outputs": [],
      "stateMutability": "payable",
      "type": "function",
      "payable": true
    },
    {
      "inputs": [
        {
          "internalType": "uint256",
          "name": "_id",
          "type": "uint256"
        }
      ],
      "name": "rollLottery",
      "outputs": [],
      "stateMutability": "nonpayable",
      "type": "function"
    },
    {
      "inputs": [
        {
          "internalType": "uint256",
          "name": "_lid",
          "type": "uint256"
        },
        {
          "internalType": "uint256",
          "name": "_res",
          "type": "uint256"
        }
      ],
      "name": "claim",
      "outputs": [],
      "stateMutability": "nonpayable",
      "type": "function"
    }
  ],
  "bytecode": "0x60806040523480156200001157600080fd5b506040518060400160405280601881526020017f47616d626c65333630204c6f7474657279205469636b657400000000000000008152506040518060400160405280600681526020017f674c4f54544f000000000000000000000000000000000000000000000000000081525081600090816200008f919062000572565b508060019081620000a1919062000572565b50505033600660006101000a81548173ffffffffffffffffffffffffffffffffffffffff021916908373ffffffffffffffffffffffffffffffffffffffff160217905550601960078190555066038d7ea4c680006008819055506000600a819055506001600c819055506200012960036001662386f26fc1000060016200012f60201b60201c565b620007c2565b6000831115806200015a575083600282856200014c919062000688565b62000158919062000688565b115b1562000192576040517fdf469ccb00000000000000000000000000000000000000000000000000000000815260040160405180910390fd5b6009604051806101200160405280600a5481526020013373ffffffffffffffffffffffffffffffffffffffff168152602001868152602001858152602001848152602001838152602001428152602001600081526020018681525090806001815401808255809150506001900390600052602060002090600902016000909190919091506000820151816000015560208201518160010160006101000a81548173ffffffffffffffffffffffffffffffffffffffff021916908373ffffffffffffffffffffffffffffffffffffffff16021790555060408201518160020155606082015181600301556080820151816004015560a0820151816005015560c0820151816006015560e0820151816007015561010082015181600801555050600a6000815480929190620002c590620006d3565b91905055508042620002d891906200074f565b600b6000828254620002eb919062000787565b9250508190555050505050565b600081519050919050565b7f4e487b7100000000000000000000000000000000000000000000000000000000600052604160045260246000fd5b7f4e487b7100000000000000000000000000000000000000000000000000000000600052602260045260246000fd5b600060028204905060018216806200037a57607f821691505b60208210810362000390576200038f62000332565b5b50919050565b60008190508160005260206000209050919050565b60006020601f8301049050919050565b600082821b905092915050565b600060088302620003fa7fffffffffffffffffffffffffffffffffffffffffffffffffffffffffffffffff82620003bb565b620004068683620003bb565b95508019841693508086168417925050509392505050565b6000819050919050565b6000819050919050565b6000620004536200044d62000447846200041e565b62000428565b6200041e565b9050919050565b6000819050919050565b6200046f8362000432565b620004876200047e826200045a565b848454620003c8565b825550505050565b600090565b6200049e6200048f565b620004ab81848462000464565b505050565b5b81811015620004d357620004c760008262000494565b600181019050620004b1565b5050565b601f8211156200052257620004ec8162000396565b620004f784620003ab565b8101602085101562000507578190505b6200051f6200051685620003ab565b830182620004b0565b50505b505050565b600082821c905092915050565b6000620005476000198460080262000527565b1980831691505092915050565b600062000562838362000534565b9150826002028217905092915050565b6200057d82620002f8565b67ffffffffffffffff81111562000599576200059862000303565b5b620005a5825462000361565b620005b2828285620004d7565b600060209050601f831160018114620005ea5760008415620005d5578287015190505b620005e1858262000554565b86555062000651565b601f198416620005fa8662000396565b60005b828110156200062457848901518255600182019150602085019450602081019050620005fd565b8683101562000644578489015162000640601f89168262000534565b8355505b6001600288020188555050505b505050505050565b7f4e487b7100000000000000000000000000000000000000000000000000000000600052601160045260246000fd5b600062000695826200041e565b9150620006a2836200041e565b9250828202620006b2816200041e565b91508282048414831517620006cc57620006cb62000659565b5b5092915050565b6000620006e0826200041e565b91507fffffffffffffffffffffffffffffffffffffffffffffffffffffffffffffffff820362000715576200071462000659565b5b600182019050919050565b7f4e487b7100000000000000000000000000000000000000000000000000000000600052601260045260246000fd5b60006200075c826200041e565b915062000769836200041e565b9250826200077c576200077b62000720565b5b828206905092915050565b600062000794826200041e565b9150620007a1836200041e565b9250828201905080821115620007bc57620007bb62000659565b5b92915050565b613ed480620007d26000396000f3fe6080604052600436106101815760003560e01c806370a08231116100d1578063a22cb4651161008a578063c87b56dd11610064578063c87b56dd146105c9578063d70c6f4e14610606578063e985e9c514610643578063ece866b91461068057610181565b8063a22cb4651461054e578063b88d4fde14610577578063c3490263146105a057610181565b806370a08231146103fe5780637e3d88031461043b578063927333231461048057806395d89b41146104bd5780639b4f589f146104e85780639cf0a35b1461052557610181565b8063298ec2081161013e57806342842e0e1161011857806342842e0e1461033257806343e4b1fe1461035b5780635e0e512b146103985780636352211e146103c157610181565b8063298ec208146102c25780633b3546c8146102de5780633ccfd60b1461031b57610181565b806301ffc9a71461018657806306fdde03146101c3578063081812fc146101ee578063095ea7b31461022b57806310ca25391461025457806323b872dd14610299575b600080fd5b34801561019257600080fd5b506101ad60048036038101906101a89190612b3e565b6106ab565b6040516101ba9190612b86565b60405180910390f35b3480156101cf57600080fd5b506101d861078d565b6040516101e59190612c31565b60405180910390f35b3480156101fa57600080fd5b5061021560048036038101906102109190612c89565b61081f565b6040516102229190612cf7565b60405180910390f35b34801561023757600080fd5b50610252600480360381019061024d9190612d3e565b610865565b005b34801561026057600080fd5b5061027b60048036038101906102769190612d3e565b61097c565b60405161029099989796959493929190612d8d565b60405180910390f35b3480156102a557600080fd5b506102c060048036038101906102bb9190612e1a565b6109f7565b005b6102dc60048036038101906102d79190612e6d565b610a57565b005b3480156102ea57600080fd5b5061030560048036038101906103009190612c89565b610f75565b6040516103129190612ead565b60405180910390f35b34801561032757600080fd5b50610330610f8d565b005b34801561033e57600080fd5b5061035960048036038101906103549190612e1a565b61104e565b005b34801561036757600080fd5b50610382600480360381019061037d9190612ec8565b61106e565b60405161038f9190612ead565b60405180910390f35b3480156103a457600080fd5b506103bf60048036038101906103ba9190612f1b565b6110a0565b005b3480156103cd57600080fd5b506103e860048036038101906103e39190612c89565b6110b2565b6040516103f59190612cf7565b60405180910390f35b34801561040a57600080fd5b5061042560048036038101906104209190612f82565b611138565b6040516104329190612ead565b60405180910390f35b34801561044757600080fd5b50610462600480360381019061045d9190612c89565b6111ef565b60405161047799989796959493929190612d8d565b60405180910390f35b34801561048c57600080fd5b506104a760048036038101906104a29190612f82565b61126d565b6040516104b49190612ead565b60405180910390f35b3480156104c957600080fd5b506104d2611285565b6040516104df9190612c31565b60405180910390f35b3480156104f457600080fd5b5061050f600480360381019061050a9190612c89565b611317565b60405161051c9190612ead565b60405180910390f35b34801561053157600080fd5b5061054c60048036038101906105479190612c89565b61132f565b005b34801561055a57600080fd5b5061057560048036038101906105709190612fdb565b61141a565b005b34801561058357600080fd5b5061059e60048036038101906105999190613150565b611430565b005b3480156105ac57600080fd5b506105c760048036038101906105c29190612e6d565b611492565b005b3480156105d557600080fd5b506105f060048036038101906105eb9190612c89565b611736565b6040516105fd9190612c31565b60405180910390f35b34801561061257600080fd5b5061062d60048036038101906106289190612e6d565b61179e565b60405161063a9190612ead565b60405180910390f35b34801561064f57600080fd5b5061066a600480360381019061066591906131d3565b6117c3565b6040516106779190612b86565b60405180910390f35b34801561068c57600080fd5b50610695611857565b6040516106a29190612ead565b60405180910390f35b60007f80ac58cd000000000000000000000000000000000000000000000000000000007bffffffffffffffffffffffffffffffffffffffffffffffffffffffff1916827bffffffffffffffffffffffffffffffffffffffffffffffffffffffff1916148061077657507f5b5e139f000000000000000000000000000000000000000000000000000000007bffffffffffffffffffffffffffffffffffffffffffffffffffffffff1916827bffffffffffffffffffffffffffffffffffffffffffffffffffffffff1916145b8061078657506107858261185d565b5b9050919050565b60606000805461079c90613242565b80601f01602080910402602001604051908101604052809291908181526020018280546107c890613242565b80156108155780601f106107ea57610100808354040283529160200191610815565b820191906000526020600020905b8154815290600101906020018083116107f857829003601f168201915b5050505050905090565b600061082a826118c7565b6004600083815260200190815260200160002060009054906101000a900473ffffffffffffffffffffffffffffffffffffffff169050919050565b6000610870826110b2565b90508073ffffffffffffffffffffffffffffffffffffffff168373ffffffffffffffffffffffffffffffffffffffff16036108e0576040517f08c379a00000000000000000000000000000000000000000000000000000000081526004016108d7906132e5565b60405180910390fd5b8073ffffffffffffffffffffffffffffffffffffffff166108ff611912565b73ffffffffffffffffffffffffffffffffffffffff16148061092e575061092d81610928611912565b6117c3565b5b61096d576040517f08c379a000000000000000000000000000000000000000000000000000000000815260040161096490613377565b60405180910390fd5b610977838361191a565b505050565b6010602052816000526040600020602052806000526040600020600091509150508060000154908060010160009054906101000a900473ffffffffffffffffffffffffffffffffffffffff16908060020154908060030154908060040154908060050154908060060154908060070154908060080154905089565b610a08610a02611912565b826119d3565b610a47576040517f08c379a0000000000000000000000000000000000000000000000000000000008152600401610a3e90613409565b60405180910390fd5b610a52838383611a68565b505050565b610a5f612a70565b60098381548110610a7357610a72613429565b5b906000526020600020906009020160405180610120016040529081600082015481526020016001820160009054906101000a900473ffffffffffffffffffffffffffffffffffffffff1673ffffffffffffffffffffffffffffffffffffffff1673ffffffffffffffffffffffffffffffffffffffff1681526020016002820154815260200160038201548152602001600482015481526020016005820154815260200160068201548152602001600782015481526020016008820154815250509050818160800151610b459190613487565b341015610b9a5733828260800151610b5d9190613487565b6040517f96f756fd000000000000000000000000000000000000000000000000000000008152600401610b919291906134c9565b60405180910390fd5b806101000151821180610bb05750806060015182115b15610bf7578061010001516040517fcce3a419000000000000000000000000000000000000000000000000000000008152600401610bee9190612ead565b60405180910390fd5b6000600190505b600183610c0b91906134f2565b811015610e4657600060018360e0015164e8d4a510008560000151610c309190613487565b610c3a91906134f2565b610c4491906134f2565b905080600d6000600c54815260200190815260200160002081905550600c54600e60008381526020019081526020016000208190555082601060003373ffffffffffffffffffffffffffffffffffffffff1673ffffffffffffffffffffffffffffffffffffffff1681526020019081526020016000206000600f60003373ffffffffffffffffffffffffffffffffffffffff1673ffffffffffffffffffffffffffffffffffffffff1681526020019081526020016000205481526020019081526020016000206000820151816000015560208201518160010160006101000a81548173ffffffffffffffffffffffffffffffffffffffff021916908373ffffffffffffffffffffffffffffffffffffffff16021790555060408201518160020155606082015181600301556080820151816004015560a0820151816005015560c0820151816006015560e082015181600701556101008201518160080155905050610daf3382611d61565b600f60003373ffffffffffffffffffffffffffffffffffffffff1673ffffffffffffffffffffffffffffffffffffffff1681526020019081526020016000206000815480929190610dff90613526565b9190505550600c6000815480929190610e1790613526565b91905055508260e0018051809190610e2e90613526565b81525050508080610e3e90613526565b915050610bfe565b508060e001518160400151610e5b919061356e565b816101000181815250508060098481548110610e7a57610e79613429565b5b90600052602060002090600902016000820151816000015560208201518160010160006101000a81548173ffffffffffffffffffffffffffffffffffffffff021916908373ffffffffffffffffffffffffffffffffffffffff16021790555060408201518160020155606082015181600301556080820151816004015560a0820151816005015560c0820151816006015560e08201518160070155610100820151816008015590505060018160400151610f34919061356e565b42610f3f91906135d1565b600b6000828254610f5091906134f2565b9250508190555080604001518160e0015103610f7057610f6f81611f7e565b5b505050565b600d6020528060005260406000206000915090505481565b600660009054906101000a900473ffffffffffffffffffffffffffffffffffffffff1673ffffffffffffffffffffffffffffffffffffffff163373ffffffffffffffffffffffffffffffffffffffff160361104c57600660009054906101000a900473ffffffffffffffffffffffffffffffffffffffff1673ffffffffffffffffffffffffffffffffffffffff166108fc479081150290604051600060405180830381858888f1935050505015801561104a573d6000803e3d6000fd5b505b565b61106983838360405180602001604052806000815250611430565b505050565b601260205282600052604060002060205281600052604060002060205280600052604060002060009250925050505481565b6110ac84848484612259565b50505050565b6000806110be83612416565b9050600073ffffffffffffffffffffffffffffffffffffffff168173ffffffffffffffffffffffffffffffffffffffff160361112f576040517f08c379a00000000000000000000000000000000000000000000000000000000081526004016111269061364e565b60405180910390fd5b80915050919050565b60008073ffffffffffffffffffffffffffffffffffffffff168273ffffffffffffffffffffffffffffffffffffffff16036111a8576040517f08c379a000000000000000000000000000000000000000000000000000000000815260040161119f906136e0565b60405180910390fd5b600360008373ffffffffffffffffffffffffffffffffffffffff1673ffffffffffffffffffffffffffffffffffffffff168152602001908152602001600020549050919050565b600981815481106111ff57600080fd5b90600052602060002090600902016000915090508060000154908060010160009054906101000a900473ffffffffffffffffffffffffffffffffffffffff16908060020154908060030154908060040154908060050154908060060154908060070154908060080154905089565b600f6020528060005260406000206000915090505481565b60606001805461129490613242565b80601f01602080910402602001604051908101604052809291908181526020018280546112c090613242565b801561130d5780601f106112e25761010080835404028352916020019161130d565b820191906000526020600020905b8154815290600101906020018083116112f057829003601f168201915b5050505050905090565b600e6020528060005260406000206000915090505481565b611337612a70565b6009828154811061134b5761134a613429565b5b906000526020600020906009020160405180610120016040529081600082015481526020016001820160009054906101000a900473ffffffffffffffffffffffffffffffffffffffff1673ffffffffffffffffffffffffffffffffffffffff1673ffffffffffffffffffffffffffffffffffffffff168152602001600282015481526020016003820154815260200160048201548152602001600582015481526020016006820154815260200160078201548152602001600882015481525050905061141681611f7e565b5050565b61142c611425611912565b8383612453565b5050565b61144161143b611912565b836119d3565b611480576040517f08c379a000000000000000000000000000000000000000000000000000000000815260040161147790613409565b60405180910390fd5b61148c848484846125bf565b50505050565b61149a612a70565b600983815481106114ae576114ad613429565b5b906000526020600020906009020160405180610120016040529081600082015481526020016001820160009054906101000a900473ffffffffffffffffffffffffffffffffffffffff1673ffffffffffffffffffffffffffffffffffffffff1673ffffffffffffffffffffffffffffffffffffffff168152602001600282015481526020016003820154815260200160048201548152602001600582015481526020016006820154815260200160078201548152602001600882015481525050905060005b8160a0015181116117305782601160008681526020019081526020016000206000838152602001908152602001600020540361171d577fc423adeec29086fe53c1d7f40a30acfe899aa8f676ff47b77b02885a74bbc512836115d4856110b2565b6040516115e292919061374c565b60405180910390a16115f3836110b2565b73ffffffffffffffffffffffffffffffffffffffff163373ffffffffffffffffffffffffffffffffffffffff160361171c57600060126000868152602001908152602001600020600083815260200190815260200160002060008581526020019081526020016000205490507fc423adeec29086fe53c1d7f40a30acfe899aa8f676ff47b77b02885a74bbc51281336040516116909291906137d4565b60405180910390a160006012600087815260200190815260200160002060008481526020019081526020016000206000868152602001908152602001600020819055503373ffffffffffffffffffffffffffffffffffffffff166108fc829081150290604051600060405180830381858888f19350505050158015611719573d6000803e3d6000fd5b50505b5b808061172890613526565b915050611573565b50505050565b6060611741826118c7565b600061174b61261b565b9050600081511161176b5760405180602001604052806000815250611796565b8061177584612658565b60405160200161178692919061384c565b6040516020818303038152906040525b915050919050565b6011602052816000526040600020602052806000526040600020600091509150505481565b6000600560008473ffffffffffffffffffffffffffffffffffffffff1673ffffffffffffffffffffffffffffffffffffffff16815260200190815260200160002060008373ffffffffffffffffffffffffffffffffffffffff1673ffffffffffffffffffffffffffffffffffffffff16815260200190815260200160002060009054906101000a900460ff16905092915050565b600a5481565b60007f01ffc9a7000000000000000000000000000000000000000000000000000000007bffffffffffffffffffffffffffffffffffffffffffffffffffffffff1916827bffffffffffffffffffffffffffffffffffffffffffffffffffffffff1916149050919050565b6118d081612726565b61190f576040517f08c379a00000000000000000000000000000000000000000000000000000000081526004016119069061364e565b60405180910390fd5b50565b600033905090565b816004600083815260200190815260200160002060006101000a81548173ffffffffffffffffffffffffffffffffffffffff021916908373ffffffffffffffffffffffffffffffffffffffff160217905550808273ffffffffffffffffffffffffffffffffffffffff1661198d836110b2565b73ffffffffffffffffffffffffffffffffffffffff167f8c5be1e5ebec7d5bd14f71427d1e84f3dd0314c0f7b2291e5b200ac8c7c3b92560405160405180910390a45050565b6000806119df836110b2565b90508073ffffffffffffffffffffffffffffffffffffffff168473ffffffffffffffffffffffffffffffffffffffff161480611a215750611a2081856117c3565b5b80611a5f57508373ffffffffffffffffffffffffffffffffffffffff16611a478461081f565b73ffffffffffffffffffffffffffffffffffffffff16145b91505092915050565b8273ffffffffffffffffffffffffffffffffffffffff16611a88826110b2565b73ffffffffffffffffffffffffffffffffffffffff1614611ade576040517f08c379a0000000000000000000000000000000000000000000000000000000008152600401611ad5906138e2565b60405180910390fd5b600073ffffffffffffffffffffffffffffffffffffffff168273ffffffffffffffffffffffffffffffffffffffff1603611b4d576040517f08c379a0000000000000000000000000000000000000000000000000000000008152600401611b4490613974565b60405180910390fd5b611b5a8383836001612767565b8273ffffffffffffffffffffffffffffffffffffffff16611b7a826110b2565b73ffffffffffffffffffffffffffffffffffffffff1614611bd0576040517f08c379a0000000000000000000000000000000000000000000000000000000008152600401611bc7906138e2565b60405180910390fd5b6004600082815260200190815260200160002060006101000a81549073ffffffffffffffffffffffffffffffffffffffff02191690556001600360008573ffffffffffffffffffffffffffffffffffffffff1673ffffffffffffffffffffffffffffffffffffffff168152602001908152602001600020600082825403925050819055506001600360008473ffffffffffffffffffffffffffffffffffffffff1673ffffffffffffffffffffffffffffffffffffffff16815260200190815260200160002060008282540192505081905550816002600083815260200190815260200160002060006101000a81548173ffffffffffffffffffffffffffffffffffffffff021916908373ffffffffffffffffffffffffffffffffffffffff160217905550808273ffffffffffffffffffffffffffffffffffffffff168473ffffffffffffffffffffffffffffffffffffffff167fddf252ad1be2c89b69c2b068fc378daa952ba7f163c4a11628f55a4df523b3ef60405160405180910390a4611d5c838383600161276d565b505050565b600073ffffffffffffffffffffffffffffffffffffffff168273ffffffffffffffffffffffffffffffffffffffff1603611dd0576040517f08c379a0000000000000000000000000000000000000000000000000000000008152600401611dc7906139e0565b60405180910390fd5b611dd981612726565b15611e19576040517f08c379a0000000000000000000000000000000000000000000000000000000008152600401611e1090613a4c565b60405180910390fd5b611e27600083836001612767565b611e3081612726565b15611e70576040517f08c379a0000000000000000000000000000000000000000000000000000000008152600401611e6790613a4c565b60405180910390fd5b6001600360008473ffffffffffffffffffffffffffffffffffffffff1673ffffffffffffffffffffffffffffffffffffffff16815260200190815260200160002060008282540192505081905550816002600083815260200190815260200160002060006101000a81548173ffffffffffffffffffffffffffffffffffffffff021916908373ffffffffffffffffffffffffffffffffffffffff160217905550808273ffffffffffffffffffffffffffffffffffffffff16600073ffffffffffffffffffffffffffffffffffffffff167fddf252ad1be2c89b69c2b068fc378daa952ba7f163c4a11628f55a4df523b3ef60405160405180910390a4611f7a60008383600161276d565b5050565b60008160e001518260400151611f94919061356e565b14611fdb578061010001516040517fcce3a419000000000000000000000000000000000000000000000000000000008152600401611fd29190612ead565b60405180910390fd5b600081608001518260400151611ff19190613487565b90507fc423adeec29086fe53c1d7f40a30acfe899aa8f676ff47b77b02885a74bbc5128133604051612024929190613ab8565b60405180910390a160006007546103e861203e919061356e565b90506000816103e8846120519190613af4565b61205b9190613487565b905060008460a001518261206f9190613af4565b90506000600190505b8560a001518111612200577fc423adeec29086fe53c1d7f40a30acfe899aa8f676ff47b77b02885a74bbc51282336040516120b4929190613b71565b60405180910390a16000600187604001516120cf919061356e565b600b546120dc91906135d1565b60016120e891906134f2565b90507fc423adeec29086fe53c1d7f40a30acfe899aa8f676ff47b77b02885a74bbc512813360405161211b929190613bf9565b60405180910390a160008164e8d4a51000896000015161213b9190613487565b61214591906134f2565b90507fc423adeec29086fe53c1d7f40a30acfe899aa8f676ff47b77b02885a74bbc5128133604051612178929190613c81565b60405180910390a180601160008a60000151815260200190815260200160002060008581526020019081526020016000208190555083601260008a6000015181526020019081526020016000206000858152602001908152602001600020600083815260200190815260200160002081905550505080806121f890613526565b915050612078565b508460400151600b548660a001516122189190613487565b42600b546122269190613487565b6122309190613487565b61223a91906135d1565b600b600082825461224b91906134f2565b925050819055505050505050565b60008311158061227f575083600282856122739190613487565b61227d9190613487565b115b156122b6576040517fdf469ccb00000000000000000000000000000000000000000000000000000000815260040160405180910390fd5b6009604051806101200160405280600a5481526020013373ffffffffffffffffffffffffffffffffffffffff168152602001868152602001858152602001848152602001838152602001428152602001600081526020018681525090806001815401808255809150506001900390600052602060002090600902016000909190919091506000820151816000015560208201518160010160006101000a81548173ffffffffffffffffffffffffffffffffffffffff021916908373ffffffffffffffffffffffffffffffffffffffff16021790555060408201518160020155606082015181600301556080820151816004015560a0820151816005015560c0820151816006015560e0820151816007015561010082015181600801555050600a60008154809291906123e790613526565b919050555080426123f891906135d1565b600b600082825461240991906134f2565b9250508190555050505050565b60006002600083815260200190815260200160002060009054906101000a900473ffffffffffffffffffffffffffffffffffffffff169050919050565b8173ffffffffffffffffffffffffffffffffffffffff168373ffffffffffffffffffffffffffffffffffffffff16036124c1576040517f08c379a00000000000000000000000000000000000000000000000000000000081526004016124b890613d09565b60405180910390fd5b80600560008573ffffffffffffffffffffffffffffffffffffffff1673ffffffffffffffffffffffffffffffffffffffff16815260200190815260200160002060008473ffffffffffffffffffffffffffffffffffffffff1673ffffffffffffffffffffffffffffffffffffffff16815260200190815260200160002060006101000a81548160ff0219169083151502179055508173ffffffffffffffffffffffffffffffffffffffff168373ffffffffffffffffffffffffffffffffffffffff167f17307eab39ab6107e8899845ad3d59bd9653f200f220920489ca2b5937696c31836040516125b29190612b86565b60405180910390a3505050565b6125ca848484611a68565b6125d684848484612773565b612615576040517f08c379a000000000000000000000000000000000000000000000000000000000815260040161260c90613d9b565b60405180910390fd5b50505050565b60606040518060400160405280600a81526020017f2e2f7572692e6a736f6e00000000000000000000000000000000000000000000815250905090565b606060006001612667846128fa565b01905060008167ffffffffffffffff81111561268657612685613025565b5b6040519080825280601f01601f1916602001820160405280156126b85781602001600182028036833780820191505090505b509050600082602001820190505b60011561271b578080600190039150507f3031323334353637383961626364656600000000000000000000000000000000600a86061a8153600a858161270f5761270e6135a2565b5b049450600085036126c6575b819350505050919050565b60008073ffffffffffffffffffffffffffffffffffffffff1661274883612416565b73ffffffffffffffffffffffffffffffffffffffff1614159050919050565b50505050565b50505050565b60006127948473ffffffffffffffffffffffffffffffffffffffff16612a4d565b156128ed578373ffffffffffffffffffffffffffffffffffffffff1663150b7a026127bd611912565b8786866040518563ffffffff1660e01b81526004016127df9493929190613e10565b6020604051808303816000875af192505050801561281b57506040513d601f19601f820116820180604052508101906128189190613e71565b60015b61289d573d806000811461284b576040519150601f19603f3d011682016040523d82523d6000602084013e612850565b606091505b506000815103612895576040517f08c379a000000000000000000000000000000000000000000000000000000000815260040161288c90613d9b565b60405180910390fd5b805181602001fd5b63150b7a0260e01b7bffffffffffffffffffffffffffffffffffffffffffffffffffffffff1916817bffffffffffffffffffffffffffffffffffffffffffffffffffffffff1916149150506128f2565b600190505b949350505050565b600080600090507a184f03e93ff9f4daa797ed6e38ed64bf6a1f0100000000000000008310612958577a184f03e93ff9f4daa797ed6e38ed64bf6a1f010000000000000000838161294e5761294d6135a2565b5b0492506040810190505b6d04ee2d6d415b85acef81000000008310612995576d04ee2d6d415b85acef8100000000838161298b5761298a6135a2565b5b0492506020810190505b662386f26fc1000083106129c457662386f26fc1000083816129ba576129b96135a2565b5b0492506010810190505b6305f5e10083106129ed576305f5e10083816129e3576129e26135a2565b5b0492506008810190505b6127108310612a12576127108381612a0857612a076135a2565b5b0492506004810190505b60648310612a355760648381612a2b57612a2a6135a2565b5b0492506002810190505b600a8310612a44576001810190505b80915050919050565b6000808273ffffffffffffffffffffffffffffffffffffffff163b119050919050565b60405180610120016040528060008152602001600073ffffffffffffffffffffffffffffffffffffffff168152602001600081526020016000815260200160008152602001600081526020016000815260200160008152602001600081525090565b6000604051905090565b600080fd5b600080fd5b60007fffffffff0000000000000000000000000000000000000000000000000000000082169050919050565b612b1b81612ae6565b8114612b2657600080fd5b50565b600081359050612b3881612b12565b92915050565b600060208284031215612b5457612b53612adc565b5b6000612b6284828501612b29565b91505092915050565b60008115159050919050565b612b8081612b6b565b82525050565b6000602082019050612b9b6000830184612b77565b92915050565b600081519050919050565b600082825260208201905092915050565b60005b83811015612bdb578082015181840152602081019050612bc0565b60008484015250505050565b6000601f19601f8301169050919050565b6000612c0382612ba1565b612c0d8185612bac565b9350612c1d818560208601612bbd565b612c2681612be7565b840191505092915050565b60006020820190508181036000830152612c4b8184612bf8565b905092915050565b6000819050919050565b612c6681612c53565b8114612c7157600080fd5b50565b600081359050612c8381612c5d565b92915050565b600060208284031215612c9f57612c9e612adc565b5b6000612cad84828501612c74565b91505092915050565b600073ffffffffffffffffffffffffffffffffffffffff82169050919050565b6000612ce182612cb6565b9050919050565b612cf181612cd6565b82525050565b6000602082019050612d0c6000830184612ce8565b92915050565b612d1b81612cd6565b8114612d2657600080fd5b50565b600081359050612d3881612d12565b92915050565b60008060408385031215612d5557612d54612adc565b5b6000612d6385828601612d29565b9250506020612d7485828601612c74565b9150509250929050565b612d8781612c53565b82525050565b600061012082019050612da3600083018c612d7e565b612db0602083018b612ce8565b612dbd604083018a612d7e565b612dca6060830189612d7e565b612dd76080830188612d7e565b612de460a0830187612d7e565b612df160c0830186612d7e565b612dfe60e0830185612d7e565b612e0c610100830184612d7e565b9a9950505050505050505050565b600080600060608486031215612e3357612e32612adc565b5b6000612e4186828701612d29565b9350506020612e5286828701612d29565b9250506040612e6386828701612c74565b9150509250925092565b60008060408385031215612e8457612e83612adc565b5b6000612e9285828601612c74565b9250506020612ea385828601612c74565b9150509250929050565b6000602082019050612ec26000830184612d7e565b92915050565b600080600060608486031215612ee157612ee0612adc565b5b6000612eef86828701612c74565b9350506020612f0086828701612c74565b9250506040612f1186828701612c74565b9150509250925092565b60008060008060808587031215612f3557612f34612adc565b5b6000612f4387828801612c74565b9450506020612f5487828801612c74565b9350506040612f6587828801612c74565b9250506060612f7687828801612c74565b91505092959194509250565b600060208284031215612f9857612f97612adc565b5b6000612fa684828501612d29565b91505092915050565b612fb881612b6b565b8114612fc357600080fd5b50565b600081359050612fd581612faf565b92915050565b60008060408385031215612ff257612ff1612adc565b5b600061300085828601612d29565b925050602061301185828601612fc6565b9150509250929050565b600080fd5b600080fd5b7f4e487b7100000000000000000000000000000000000000000000000000000000600052604160045260246000fd5b61305d82612be7565b810181811067ffffffffffffffff8211171561307c5761307b613025565b5b80604052505050565b600061308f612ad2565b905061309b8282613054565b919050565b600067ffffffffffffffff8211156130bb576130ba613025565b5b6130c482612be7565b9050602081019050919050565b82818337600083830152505050565b60006130f36130ee846130a0565b613085565b90508281526020810184848401111561310f5761310e613020565b5b61311a8482856130d1565b509392505050565b600082601f8301126131375761313661301b565b5b81356131478482602086016130e0565b91505092915050565b6000806000806080858703121561316a57613169612adc565b5b600061317887828801612d29565b945050602061318987828801612d29565b935050604061319a87828801612c74565b925050606085013567ffffffffffffffff8111156131bb576131ba612ae1565b5b6131c787828801613122565b91505092959194509250565b600080604083850312156131ea576131e9612adc565b5b60006131f885828601612d29565b925050602061320985828601612d29565b9150509250929050565b7f4e487b7100000000000000000000000000000000000000000000000000000000600052602260045260246000fd5b6000600282049050600182168061325a57607f821691505b60208210810361326d5761326c613213565b5b50919050565b7f4552433732313a20617070726f76616c20746f2063757272656e74206f776e6560008201527f7200000000000000000000000000000000000000000000000000000000000000602082015250565b60006132cf602183612bac565b91506132da82613273565b604082019050919050565b600060208201905081810360008301526132fe816132c2565b9050919050565b7f4552433732313a20617070726f76652063616c6c6572206973206e6f7420746f60008201527f6b656e206f776e6572206f7220617070726f76656420666f7220616c6c000000602082015250565b6000613361603d83612bac565b915061336c82613305565b604082019050919050565b6000602082019050818103600083015261339081613354565b9050919050565b7f4552433732313a2063616c6c6572206973206e6f7420746f6b656e206f776e6560008201527f72206f7220617070726f76656400000000000000000000000000000000000000602082015250565b60006133f3602d83612bac565b91506133fe82613397565b604082019050919050565b60006020820190508181036000830152613422816133e6565b9050919050565b7f4e487b7100000000000000000000000000000000000000000000000000000000600052603260045260246000fd5b7f4e487b7100000000000000000000000000000000000000000000000000000000600052601160045260246000fd5b600061349282612c53565b915061349d83612c53565b92508282026134ab81612c53565b915082820484148315176134c2576134c1613458565b5b5092915050565b60006040820190506134de6000830185612ce8565b6134eb6020830184612d7e565b9392505050565b60006134fd82612c53565b915061350883612c53565b92508282019050808211156135205761351f613458565b5b92915050565b600061353182612c53565b91507fffffffffffffffffffffffffffffffffffffffffffffffffffffffffffffffff820361356357613562613458565b5b600182019050919050565b600061357982612c53565b915061358483612c53565b925082820390508181111561359c5761359b613458565b5b92915050565b7f4e487b7100000000000000000000000000000000000000000000000000000000600052601260045260246000fd5b60006135dc82612c53565b91506135e783612c53565b9250826135f7576135f66135a2565b5b828206905092915050565b7f4552433732313a20696e76616c696420746f6b656e2049440000000000000000600082015250565b6000613638601883612bac565b915061364382613602565b602082019050919050565b600060208201905081810360008301526136678161362b565b9050919050565b7f4552433732313a2061646472657373207a65726f206973206e6f74206120766160008201527f6c6964206f776e65720000000000000000000000000000000000000000000000602082015250565b60006136ca602983612bac565b91506136d58261366e565b604082019050919050565b600060208201905081810360008301526136f9816136bd565b9050919050565b7f6964000000000000000000000000000000000000000000000000000000000000600082015250565b6000613736600283612bac565b915061374182613700565b602082019050919050565b60006060820190506137616000830185612d7e565b818103602083015261377281613729565b90506137816040830184612ce8565b9392505050565b7f7072697a65000000000000000000000000000000000000000000000000000000600082015250565b60006137be600583612bac565b91506137c982613788565b602082019050919050565b60006060820190506137e96000830185612d7e565b81810360208301526137fa816137b1565b90506138096040830184612ce8565b9392505050565b600081905092915050565b600061382682612ba1565b6138308185613810565b9350613840818560208601612bbd565b80840191505092915050565b6000613858828561381b565b9150613864828461381b565b91508190509392505050565b7f4552433732313a207472616e736665722066726f6d20696e636f72726563742060008201527f6f776e6572000000000000000000000000000000000000000000000000000000602082015250565b60006138cc602583612bac565b91506138d782613870565b604082019050919050565b600060208201905081810360008301526138fb816138bf565b9050919050565b7f4552433732313a207472616e7366657220746f20746865207a65726f2061646460008201527f7265737300000000000000000000000000000000000000000000000000000000602082015250565b600061395e602483612bac565b915061396982613902565b604082019050919050565b6000602082019050818103600083015261398d81613951565b9050919050565b7f4552433732313a206d696e7420746f20746865207a65726f2061646472657373600082015250565b60006139ca602083612bac565b91506139d582613994565b602082019050919050565b600060208201905081810360008301526139f9816139bd565b9050919050565b7f4552433732313a20746f6b656e20616c7265616479206d696e74656400000000600082015250565b6000613a36601c83612bac565b9150613a4182613a00565b602082019050919050565b60006020820190508181036000830152613a6581613a29565b9050919050565b7f6c6f74746572792077696e000000000000000000000000000000000000000000600082015250565b6000613aa2600b83612bac565b9150613aad82613a6c565b602082019050919050565b6000606082019050613acd6000830185612d7e565b8181036020830152613ade81613a95565b9050613aed6040830184612ce8565b9392505050565b6000613aff82612c53565b9150613b0a83612c53565b925082613b1a57613b196135a2565b5b828204905092915050565b7f6c6f74746572792077696e207061727400000000000000000000000000000000600082015250565b6000613b5b601083612bac565b9150613b6682613b25565b602082019050919050565b6000606082019050613b866000830185612d7e565b8181036020830152613b9781613b4e565b9050613ba66040830184612ce8565b9392505050565b7f6c6f747465727920726573756c74000000000000000000000000000000000000600082015250565b6000613be3600e83612bac565b9150613bee82613bad565b602082019050919050565b6000606082019050613c0e6000830185612d7e565b8181036020830152613c1f81613bd6565b9050613c2e6040830184612ce8565b9392505050565b7f6c6f747465727920636f6d626f00000000000000000000000000000000000000600082015250565b6000613c6b600d83612bac565b9150613c7682613c35565b602082019050919050565b6000606082019050613c966000830185612d7e565b8181036020830152613ca781613c5e565b9050613cb66040830184612ce8565b9392505050565b7f4552433732313a20617070726f766520746f2063616c6c657200000000000000600082015250565b6000613cf3601983612bac565b9150613cfe82613cbd565b602082019050919050565b60006020820190508181036000830152613d2281613ce6565b9050919050565b7f4552433732313a207472616e7366657220746f206e6f6e20455243373231526560008201527f63656976657220696d706c656d656e7465720000000000000000000000000000602082015250565b6000613d85603283612bac565b9150613d9082613d29565b604082019050919050565b60006020820190508181036000830152613db481613d78565b9050919050565b600081519050919050565b600082825260208201905092915050565b6000613de282613dbb565b613dec8185613dc6565b9350613dfc818560208601612bbd565b613e0581612be7565b840191505092915050565b6000608082019050613e256000830187612ce8565b613e326020830186612ce8565b613e3f6040830185612d7e565b8181036060830152613e518184613dd7565b905095945050505050565b600081519050613e6b81612b12565b92915050565b600060208284031215613e8757613e86612adc565b5b6000613e9584828501613e5c565b9150509291505056fea2646970667358221220299d0ce2c67b69364128244d594bf151d5af368ed3220822d375bf8ab650de1264736f6c63430008110033",
  "immutableReferences": {},
  "source": "// SPDX-License-Identifier: MIT\n\npragma solidity >=0.8.2 <0.9.0;\n\nimport \"@openzeppelin/contracts/token/ERC721/ERC721.sol\";\n\nerror LowFunds(address adr, uint256 balance);\nerror NotAdmin(address adr);\nerror GameOver();\nerror Yourself(address adr);\nerror Check(uint256 num);\n\ncontract standards {\n    address private admin;\n\n    constructor() {\n        admin = msg.sender;\n    }\n\n    function withdraw() external {\n        if (msg.sender == admin) {\n            payable(admin).transfer(address(this).balance);\n        }\n    }\n}\n\ncontract LOTTERY is ERC721, standards {\n    event Log(uint256 cs, string txt, address usr);\n    uint256 fee;\n    uint256 min;\n    struct Lottery {\n        uint256 id;\n        address owner;\n        uint256 tickets;\n        uint256 max;\n        uint256 price;\n        uint256 winning;\n        uint256 timestamp;\n        uint256 sold;\n        uint256 status;\n    }\n    Lottery[] public lotterys;\n    uint256 public l;\n    uint256 rand;\n    uint256 t;\n    mapping(uint256 => uint256) public count;\n    mapping(uint256 => uint256) public dias;\n    mapping(address => uint256) public myTickets;\n    mapping(address => mapping(uint256 => Lottery)) public myTicket;\n    mapping(uint256 => mapping(uint256 => uint256)) public results;\n    mapping(uint256 => mapping(uint256 => mapping(uint256 => uint256))) public claims;\n\n    constructor() ERC721(\"Gamble360 Lottery Ticket\", \"gLOTTO\") {\n        fee = 25;\n        min = 1 * 10**15;\n        l = 0;\n        t = 1;\n        _makeLottery(3, 1, 10000000000000000, 1);\n    }\n\n    function makeLottery(\n        uint256 _tick,\n        uint256 _max,\n        uint256 _price,\n        uint256 _win\n    ) external {\n        _makeLottery(_tick, _max, _price, _win);\n    }\n\n    function _makeLottery(\n        uint256 _tick,\n        uint256 _max,\n        uint256 _price,\n        uint256 _win\n    ) internal {\n        if (_max <= 0 || _max * _win * 2 > _tick) revert GameOver();\n        // uint total = _tick * _price;\n        // if(total / _tick < min) revert GameOver();\n        lotterys.push(\n            Lottery(\n                l,\n                msg.sender,\n                _tick,\n                _max,\n                _price,\n                _win,\n                block.timestamp,\n                0,\n                _tick\n            )\n        );\n        l++;\n        rand += block.timestamp % _win;\n    }\n\n    function _baseURI() internal view virtual override returns (string memory) {\n        return \"./uri.json\";\n    }\n\n    // 10000000000000000000\n    function buyTicket(uint256 _id, uint256 _amount) external payable {\n        Lottery memory lottery;\n        lottery = lotterys[_id];\n        if (msg.value < lottery.price * _amount)\n            revert LowFunds(msg.sender, lottery.price * _amount);\n        if (_amount > lottery.status || _amount > lottery.max)\n            revert Check(lottery.status);\n        for (uint256 i = 1; i < _amount + 1; i++) {\n            uint256 tid = (lottery.id * 10**12) + lottery.sold + 1;\n            count[t] = tid;\n            dias[tid] = t;\n            myTicket[msg.sender][myTickets[msg.sender]] = lottery;\n            _mint(msg.sender, tid);\n            myTickets[msg.sender]++;\n            t++;\n            lottery.sold++;\n        }\n        lottery.status = lottery.tickets - lottery.sold;\n        lotterys[_id] = lottery;\n        rand += block.timestamp % (lottery.tickets - 1);\n        if (lottery.sold == lottery.tickets) _playLottery(lottery);\n    }\n\n    function rollLottery(uint256 _id) external {\n        Lottery memory lottery;\n        lottery = lotterys[_id];\n        _playLottery(lottery);\n    }\n\n    function _playLottery(Lottery memory lottery) internal {\n        if (lottery.tickets - lottery.sold != 0) revert Check(lottery.status);\n        uint256 win = lottery.tickets * lottery.price;\n        emit Log(win, \"lottery win\", msg.sender);\n        uint256 permil = 1000 - fee;\n        uint256 winsub = (win / 1000) * permil;\n        uint256 winpart = winsub / lottery.winning;\n        for (uint256 i = 1; i <= lottery.winning; i++) {\n            // 1 000 000 000 000\n            // 2 925 000 000 000\n            emit Log(winpart, \"lottery win part\", msg.sender);\n            uint256 r = 1 + ((rand) % (lottery.tickets - 1));\n            emit Log(r, \"lottery result\", msg.sender);\n            uint256 res = (lottery.id * 10**12) + r;\n            emit Log(res, \"lottery combo\", msg.sender);\n            results[lottery.id][i] = res;\n            claims[lottery.id][i][res] = winpart;\n        }\n        rand +=\n            ((rand * block.timestamp) * (lottery.winning * rand)) %\n            lottery.tickets;\n    }\n\n    function claim(uint256 _lid, uint256 _res) external {\n        Lottery memory lottery;\n        lottery = lotterys[_lid];\n        for (uint256 i; i <= lottery.winning; i++) {\n            if (results[_lid][i] == _res) {\n                emit Log(_res, \"id\", ownerOf(_res));\n                if (msg.sender == ownerOf(_res)) {\n                    uint256 win = claims[_lid][i][_res];\n                    emit Log(win, \"prize\", msg.sender);\n                    claims[_lid][i][_res] = 0;\n                    payable(msg.sender).transfer(win);\n                }\n            }\n        }\n    }\n}\n",
  "sourcePath": "/Users/iii6/Documents/GitHub/Gamble360/contracts/gamble360/LOTTERY.sol",
  "compiler": {
    "name": "solc",
    "version": "0.8.17+commit.8df45f5f.Emscripten.clang"
  },
  "schemaVersion": "3.4.8",
  "updatedAt": "2023-04-04T04:10:21.480Z",
  "networkType": "ethereum",
  "devdoc": {
    "kind": "dev",
    "methods": {
      "approve(address,uint256)": {
        "details": "See {IERC721-approve}."
      },
      "balanceOf(address)": {
        "details": "See {IERC721-balanceOf}."
      },
      "getApproved(uint256)": {
        "details": "See {IERC721-getApproved}."
      },
      "isApprovedForAll(address,address)": {
        "details": "See {IERC721-isApprovedForAll}."
      },
      "name()": {
        "details": "See {IERC721Metadata-name}."
      },
      "ownerOf(uint256)": {
        "details": "See {IERC721-ownerOf}."
      },
      "safeTransferFrom(address,address,uint256)": {
        "details": "See {IERC721-safeTransferFrom}."
      },
      "safeTransferFrom(address,address,uint256,bytes)": {
        "details": "See {IERC721-safeTransferFrom}."
      },
      "setApprovalForAll(address,bool)": {
        "details": "See {IERC721-setApprovalForAll}."
      },
      "supportsInterface(bytes4)": {
        "details": "See {IERC165-supportsInterface}."
      },
      "symbol()": {
        "details": "See {IERC721Metadata-symbol}."
      },
      "tokenURI(uint256)": {
        "details": "See {IERC721Metadata-tokenURI}."
      },
      "transferFrom(address,address,uint256)": {
        "details": "See {IERC721-transferFrom}."
      }
    },
    "version": 1
  },
  "userdoc": {
    "kind": "user",
    "methods": {},
    "version": 1
  }
}