{
  "contractName": "LOTTERY",
  "abi": [
    {
      "inputs": [],
      "stateMutability": "nonpayable",
      "type": "constructor"
    },
    {
      "inputs": [
        {
          "internalType": "uint256",
          "name": "num",
          "type": "uint256"
        }
      ],
      "name": "Check",
      "type": "error"
    },
    {
      "inputs": [],
      "name": "GameOver",
      "type": "error"
    },
    {
      "inputs": [
        {
          "internalType": "address",
          "name": "adr",
          "type": "address"
        },
        {
          "internalType": "uint256",
          "name": "balance",
          "type": "uint256"
        }
      ],
      "name": "LowFunds",
      "type": "error"
    },
    {
      "anonymous": false,
      "inputs": [
        {
          "indexed": true,
          "internalType": "address",
          "name": "owner",
          "type": "address"
        },
        {
          "indexed": true,
          "internalType": "address",
          "name": "approved",
          "type": "address"
        },
        {
          "indexed": true,
          "internalType": "uint256",
          "name": "tokenId",
          "type": "uint256"
        }
      ],
      "name": "Approval",
      "type": "event"
    },
    {
      "anonymous": false,
      "inputs": [
        {
          "indexed": true,
          "internalType": "address",
          "name": "owner",
          "type": "address"
        },
        {
          "indexed": true,
          "internalType": "address",
          "name": "operator",
          "type": "address"
        },
        {
          "indexed": false,
          "internalType": "bool",
          "name": "approved",
          "type": "bool"
        }
      ],
      "name": "ApprovalForAll",
      "type": "event"
    },
    {
      "anonymous": false,
      "inputs": [
        {
          "indexed": false,
          "internalType": "uint256",
          "name": "cs",
          "type": "uint256"
        },
        {
          "indexed": false,
          "internalType": "string",
          "name": "txt",
          "type": "string"
        },
        {
          "indexed": false,
          "internalType": "address",
          "name": "usr",
          "type": "address"
        }
      ],
      "name": "Log",
      "type": "event"
    },
    {
      "anonymous": false,
      "inputs": [
        {
          "indexed": true,
          "internalType": "address",
          "name": "from",
          "type": "address"
        },
        {
          "indexed": true,
          "internalType": "address",
          "name": "to",
          "type": "address"
        },
        {
          "indexed": true,
          "internalType": "uint256",
          "name": "tokenId",
          "type": "uint256"
        }
      ],
      "name": "Transfer",
      "type": "event"
    },
    {
      "inputs": [
        {
          "internalType": "address",
          "name": "to",
          "type": "address"
        },
        {
          "internalType": "uint256",
          "name": "tokenId",
          "type": "uint256"
        }
      ],
      "name": "approve",
      "outputs": [],
      "stateMutability": "nonpayable",
      "type": "function"
    },
    {
      "inputs": [
        {
          "internalType": "address",
          "name": "owner",
          "type": "address"
        }
      ],
      "name": "balanceOf",
      "outputs": [
        {
          "internalType": "uint256",
          "name": "",
          "type": "uint256"
        }
      ],
      "stateMutability": "view",
      "type": "function",
      "constant": true
    },
    {
      "inputs": [
        {
          "internalType": "uint256",
          "name": "",
          "type": "uint256"
        },
        {
          "internalType": "uint256",
          "name": "",
          "type": "uint256"
        },
        {
          "internalType": "uint256",
          "name": "",
          "type": "uint256"
        }
      ],
      "name": "claims",
      "outputs": [
        {
          "internalType": "uint256",
          "name": "",
          "type": "uint256"
        }
      ],
      "stateMutability": "view",
      "type": "function",
      "constant": true
    },
    {
      "inputs": [
        {
          "internalType": "uint256",
          "name": "",
          "type": "uint256"
        }
      ],
      "name": "count",
      "outputs": [
        {
          "internalType": "uint256",
          "name": "",
          "type": "uint256"
        }
      ],
      "stateMutability": "view",
      "type": "function",
      "constant": true
    },
    {
      "inputs": [
        {
          "internalType": "uint256",
          "name": "",
          "type": "uint256"
        }
      ],
      "name": "dias",
      "outputs": [
        {
          "internalType": "uint256",
          "name": "",
          "type": "uint256"
        }
      ],
      "stateMutability": "view",
      "type": "function",
      "constant": true
    },
    {
      "inputs": [
        {
          "internalType": "uint256",
          "name": "tokenId",
          "type": "uint256"
        }
      ],
      "name": "getApproved",
      "outputs": [
        {
          "internalType": "address",
          "name": "",
          "type": "address"
        }
      ],
      "stateMutability": "view",
      "type": "function",
      "constant": true
    },
    {
      "inputs": [
        {
          "internalType": "address",
          "name": "owner",
          "type": "address"
        },
        {
          "internalType": "address",
          "name": "operator",
          "type": "address"
        }
      ],
      "name": "isApprovedForAll",
      "outputs": [
        {
          "internalType": "bool",
          "name": "",
          "type": "bool"
        }
      ],
      "stateMutability": "view",
      "type": "function",
      "constant": true
    },
    {
      "inputs": [
        {
          "internalType": "uint256",
          "name": "",
          "type": "uint256"
        }
      ],
      "name": "lotterys",
      "outputs": [
        {
          "internalType": "uint256",
          "name": "id",
          "type": "uint256"
        },
        {
          "internalType": "address",
          "name": "owner",
          "type": "address"
        },
        {
          "internalType": "uint256",
          "name": "tickets",
          "type": "uint256"
        },
        {
          "internalType": "uint256",
          "name": "max",
          "type": "uint256"
        },
        {
          "internalType": "uint256",
          "name": "price",
          "type": "uint256"
        },
        {
          "internalType": "uint256",
          "name": "winning",
          "type": "uint256"
        },
        {
          "internalType": "uint256",
          "name": "timestamp",
          "type": "uint256"
        },
        {
          "internalType": "uint256",
          "name": "sold",
          "type": "uint256"
        },
        {
          "internalType": "uint256",
          "name": "status",
          "type": "uint256"
        }
      ],
      "stateMutability": "view",
      "type": "function",
      "constant": true
    },
    {
      "inputs": [
        {
          "internalType": "address",
          "name": "",
          "type": "address"
        },
        {
          "internalType": "uint256",
          "name": "",
          "type": "uint256"
        }
      ],
      "name": "myTicket",
      "outputs": [
        {
          "internalType": "uint256",
          "name": "id",
          "type": "uint256"
        },
        {
          "internalType": "address",
          "name": "owner",
          "type": "address"
        },
        {
          "internalType": "uint256",
          "name": "tickets",
          "type": "uint256"
        },
        {
          "internalType": "uint256",
          "name": "max",
          "type": "uint256"
        },
        {
          "internalType": "uint256",
          "name": "price",
          "type": "uint256"
        },
        {
          "internalType": "uint256",
          "name": "winning",
          "type": "uint256"
        },
        {
          "internalType": "uint256",
          "name": "timestamp",
          "type": "uint256"
        },
        {
          "internalType": "uint256",
          "name": "sold",
          "type": "uint256"
        },
        {
          "internalType": "uint256",
          "name": "status",
          "type": "uint256"
        }
      ],
      "stateMutability": "view",
      "type": "function",
      "constant": true
    },
    {
      "inputs": [
        {
          "internalType": "address",
          "name": "",
          "type": "address"
        }
      ],
      "name": "myTickets",
      "outputs": [
        {
          "internalType": "uint256",
          "name": "",
          "type": "uint256"
        }
      ],
      "stateMutability": "view",
      "type": "function",
      "constant": true
    },
    {
      "inputs": [],
      "name": "name",
      "outputs": [
        {
          "internalType": "string",
          "name": "",
          "type": "string"
        }
      ],
      "stateMutability": "view",
      "type": "function",
      "constant": true
    },
    {
      "inputs": [
        {
          "internalType": "uint256",
          "name": "tokenId",
          "type": "uint256"
        }
      ],
      "name": "ownerOf",
      "outputs": [
        {
          "internalType": "address",
          "name": "",
          "type": "address"
        }
      ],
      "stateMutability": "view",
      "type": "function",
      "constant": true
    },
    {
      "inputs": [
        {
          "internalType": "uint256",
          "name": "",
          "type": "uint256"
        },
        {
          "internalType": "uint256",
          "name": "",
          "type": "uint256"
        }
      ],
      "name": "results",
      "outputs": [
        {
          "internalType": "uint256",
          "name": "",
          "type": "uint256"
        }
      ],
      "stateMutability": "view",
      "type": "function",
      "constant": true
    },
    {
      "inputs": [
        {
          "internalType": "address",
          "name": "from",
          "type": "address"
        },
        {
          "internalType": "address",
          "name": "to",
          "type": "address"
        },
        {
          "internalType": "uint256",
          "name": "tokenId",
          "type": "uint256"
        }
      ],
      "name": "safeTransferFrom",
      "outputs": [],
      "stateMutability": "nonpayable",
      "type": "function"
    },
    {
      "inputs": [
        {
          "internalType": "address",
          "name": "from",
          "type": "address"
        },
        {
          "internalType": "address",
          "name": "to",
          "type": "address"
        },
        {
          "internalType": "uint256",
          "name": "tokenId",
          "type": "uint256"
        },
        {
          "internalType": "bytes",
          "name": "data",
          "type": "bytes"
        }
      ],
      "name": "safeTransferFrom",
      "outputs": [],
      "stateMutability": "nonpayable",
      "type": "function"
    },
    {
      "inputs": [
        {
          "internalType": "address",
          "name": "operator",
          "type": "address"
        },
        {
          "internalType": "bool",
          "name": "approved",
          "type": "bool"
        }
      ],
      "name": "setApprovalForAll",
      "outputs": [],
      "stateMutability": "nonpayable",
      "type": "function"
    },
    {
      "inputs": [
        {
          "internalType": "bytes4",
          "name": "interfaceId",
          "type": "bytes4"
        }
      ],
      "name": "supportsInterface",
      "outputs": [
        {
          "internalType": "bool",
          "name": "",
          "type": "bool"
        }
      ],
      "stateMutability": "view",
      "type": "function",
      "constant": true
    },
    {
      "inputs": [],
      "name": "symbol",
      "outputs": [
        {
          "internalType": "string",
          "name": "",
          "type": "string"
        }
      ],
      "stateMutability": "view",
      "type": "function",
      "constant": true
    },
    {
      "inputs": [
        {
          "internalType": "uint256",
          "name": "tokenId",
          "type": "uint256"
        }
      ],
      "name": "tokenURI",
      "outputs": [
        {
          "internalType": "string",
          "name": "",
          "type": "string"
        }
      ],
      "stateMutability": "view",
      "type": "function",
      "constant": true
    },
    {
      "inputs": [
        {
          "internalType": "address",
          "name": "from",
          "type": "address"
        },
        {
          "internalType": "address",
          "name": "to",
          "type": "address"
        },
        {
          "internalType": "uint256",
          "name": "tokenId",
          "type": "uint256"
        }
      ],
      "name": "transferFrom",
      "outputs": [],
      "stateMutability": "nonpayable",
      "type": "function"
    },
    {
      "inputs": [],
      "name": "withdraw",
      "outputs": [],
      "stateMutability": "nonpayable",
      "type": "function"
    },
    {
      "inputs": [
        {
          "internalType": "uint256",
          "name": "_tick",
          "type": "uint256"
        },
        {
          "internalType": "uint256",
          "name": "_max",
          "type": "uint256"
        },
        {
          "internalType": "uint256",
          "name": "_price",
          "type": "uint256"
        },
        {
          "internalType": "uint256",
          "name": "_win",
          "type": "uint256"
        }
      ],
      "name": "makeLottery",
      "outputs": [],
      "stateMutability": "nonpayable",
      "type": "function"
    },
    {
      "inputs": [
        {
          "internalType": "uint256",
          "name": "_id",
          "type": "uint256"
        },
        {
          "internalType": "uint256",
          "name": "_amount",
          "type": "uint256"
        }
      ],
      "name": "buyTicket",
      "outputs": [],
      "stateMutability": "payable",
      "type": "function",
      "payable": true
    },
    {
      "inputs": [
        {
          "internalType": "uint256",
          "name": "_id",
          "type": "uint256"
        }
      ],
      "name": "rollLottery",
      "outputs": [],
      "stateMutability": "nonpayable",
      "type": "function"
    },
    {
      "inputs": [
        {
          "internalType": "uint256",
          "name": "_lid",
          "type": "uint256"
        },
        {
          "internalType": "uint256",
          "name": "_res",
          "type": "uint256"
        }
      ],
      "name": "claim",
      "outputs": [],
      "stateMutability": "nonpayable",
      "type": "function"
    }
  ],
  "bytecode": "0x60806040523480156200001157600080fd5b506040518060400160405280601881526020017f47616d626c65333630204c6f7474657279205469636b657400000000000000008152506040518060400160405280600681526020017f674c4f54544f000000000000000000000000000000000000000000000000000081525081600090816200008f919062000572565b508060019081620000a1919062000572565b50505033600660006101000a81548173ffffffffffffffffffffffffffffffffffffffff021916908373ffffffffffffffffffffffffffffffffffffffff160217905550601960078190555066038d7ea4c680006008819055506000600a819055506001600c819055506200012960036001662386f26fc1000060016200012f60201b60201c565b620007c2565b6000831115806200015a575083600282856200014c919062000688565b62000158919062000688565b115b1562000192576040517fdf469ccb00000000000000000000000000000000000000000000000000000000815260040160405180910390fd5b6009604051806101200160405280600a5481526020013373ffffffffffffffffffffffffffffffffffffffff168152602001868152602001858152602001848152602001838152602001428152602001600081526020018681525090806001815401808255809150506001900390600052602060002090600902016000909190919091506000820151816000015560208201518160010160006101000a81548173ffffffffffffffffffffffffffffffffffffffff021916908373ffffffffffffffffffffffffffffffffffffffff16021790555060408201518160020155606082015181600301556080820151816004015560a0820151816005015560c0820151816006015560e0820151816007015561010082015181600801555050600a6000815480929190620002c590620006d3565b91905055508042620002d891906200074f565b600b6000828254620002eb919062000787565b9250508190555050505050565b600081519050919050565b7f4e487b7100000000000000000000000000000000000000000000000000000000600052604160045260246000fd5b7f4e487b7100000000000000000000000000000000000000000000000000000000600052602260045260246000fd5b600060028204905060018216806200037a57607f821691505b60208210810362000390576200038f62000332565b5b50919050565b60008190508160005260206000209050919050565b60006020601f8301049050919050565b600082821b905092915050565b600060088302620003fa7fffffffffffffffffffffffffffffffffffffffffffffffffffffffffffffffff82620003bb565b620004068683620003bb565b95508019841693508086168417925050509392505050565b6000819050919050565b6000819050919050565b6000620004536200044d62000447846200041e565b62000428565b6200041e565b9050919050565b6000819050919050565b6200046f8362000432565b620004876200047e826200045a565b848454620003c8565b825550505050565b600090565b6200049e6200048f565b620004ab81848462000464565b505050565b5b81811015620004d357620004c760008262000494565b600181019050620004b1565b5050565b601f8211156200052257620004ec8162000396565b620004f784620003ab565b8101602085101562000507578190505b6200051f6200051685620003ab565b830182620004b0565b50505b505050565b600082821c905092915050565b6000620005476000198460080262000527565b1980831691505092915050565b600062000562838362000534565b9150826002028217905092915050565b6200057d82620002f8565b67ffffffffffffffff81111562000599576200059862000303565b5b620005a5825462000361565b620005b2828285620004d7565b600060209050601f831160018114620005ea5760008415620005d5578287015190505b620005e1858262000554565b86555062000651565b601f198416620005fa8662000396565b60005b828110156200062457848901518255600182019150602085019450602081019050620005fd565b8683101562000644578489015162000640601f89168262000534565b8355505b6001600288020188555050505b505050505050565b7f4e487b7100000000000000000000000000000000000000000000000000000000600052601160045260246000fd5b600062000695826200041e565b9150620006a2836200041e565b9250828202620006b2816200041e565b91508282048414831517620006cc57620006cb62000659565b5b5092915050565b6000620006e0826200041e565b91507fffffffffffffffffffffffffffffffffffffffffffffffffffffffffffffffff820362000715576200071462000659565b5b600182019050919050565b7f4e487b7100000000000000000000000000000000000000000000000000000000600052601260045260246000fd5b60006200075c826200041e565b915062000769836200041e565b9250826200077c576200077b62000720565b5b828206905092915050565b600062000794826200041e565b9150620007a1836200041e565b9250828201905080821115620007bc57620007bb62000659565b5b92915050565b613e8880620007d26000396000f3fe6080604052600436106101665760003560e01c80636352211e116100d15780639cf0a35b1161008a578063c349026311610064578063c349026314610585578063c87b56dd146105ae578063d70c6f4e146105eb578063e985e9c51461062857610166565b80639cf0a35b1461050a578063a22cb46514610533578063b88d4fde1461055c57610166565b80636352211e146103a657806370a08231146103e35780637e3d880314610420578063927333231461046557806395d89b41146104a25780639b4f589f146104cd57610166565b8063298ec20811610123578063298ec208146102a75780633b3546c8146102c35780633ccfd60b1461030057806342842e0e1461031757806343e4b1fe146103405780635e0e512b1461037d57610166565b806301ffc9a71461016b57806306fdde03146101a8578063081812fc146101d3578063095ea7b31461021057806310ca25391461023957806323b872dd1461027e575b600080fd5b34801561017757600080fd5b50610192600480360381019061018d9190612af2565b610665565b60405161019f9190612b3a565b60405180910390f35b3480156101b457600080fd5b506101bd610747565b6040516101ca9190612be5565b60405180910390f35b3480156101df57600080fd5b506101fa60048036038101906101f59190612c3d565b6107d9565b6040516102079190612cab565b60405180910390f35b34801561021c57600080fd5b5061023760048036038101906102329190612cf2565b61081f565b005b34801561024557600080fd5b50610260600480360381019061025b9190612cf2565b610936565b60405161027599989796959493929190612d41565b60405180910390f35b34801561028a57600080fd5b506102a560048036038101906102a09190612dce565b6109b1565b005b6102c160048036038101906102bc9190612e21565b610a11565b005b3480156102cf57600080fd5b506102ea60048036038101906102e59190612c3d565b610f2f565b6040516102f79190612e61565b60405180910390f35b34801561030c57600080fd5b50610315610f47565b005b34801561032357600080fd5b5061033e60048036038101906103399190612dce565b611008565b005b34801561034c57600080fd5b5061036760048036038101906103629190612e7c565b611028565b6040516103749190612e61565b60405180910390f35b34801561038957600080fd5b506103a4600480360381019061039f9190612ecf565b61105a565b005b3480156103b257600080fd5b506103cd60048036038101906103c89190612c3d565b61106c565b6040516103da9190612cab565b60405180910390f35b3480156103ef57600080fd5b5061040a60048036038101906104059190612f36565b6110f2565b6040516104179190612e61565b60405180910390f35b34801561042c57600080fd5b5061044760048036038101906104429190612c3d565b6111a9565b60405161045c99989796959493929190612d41565b60405180910390f35b34801561047157600080fd5b5061048c60048036038101906104879190612f36565b611227565b6040516104999190612e61565b60405180910390f35b3480156104ae57600080fd5b506104b761123f565b6040516104c49190612be5565b60405180910390f35b3480156104d957600080fd5b506104f460048036038101906104ef9190612c3d565b6112d1565b6040516105019190612e61565b60405180910390f35b34801561051657600080fd5b50610531600480360381019061052c9190612c3d565b6112e9565b005b34801561053f57600080fd5b5061055a60048036038101906105559190612f8f565b6113d4565b005b34801561056857600080fd5b50610583600480360381019061057e9190613104565b6113ea565b005b34801561059157600080fd5b506105ac60048036038101906105a79190612e21565b61144c565b005b3480156105ba57600080fd5b506105d560048036038101906105d09190612c3d565b6116f0565b6040516105e29190612be5565b60405180910390f35b3480156105f757600080fd5b50610612600480360381019061060d9190612e21565b611758565b60405161061f9190612e61565b60405180910390f35b34801561063457600080fd5b5061064f600480360381019061064a9190613187565b61177d565b60405161065c9190612b3a565b60405180910390f35b60007f80ac58cd000000000000000000000000000000000000000000000000000000007bffffffffffffffffffffffffffffffffffffffffffffffffffffffff1916827bffffffffffffffffffffffffffffffffffffffffffffffffffffffff1916148061073057507f5b5e139f000000000000000000000000000000000000000000000000000000007bffffffffffffffffffffffffffffffffffffffffffffffffffffffff1916827bffffffffffffffffffffffffffffffffffffffffffffffffffffffff1916145b80610740575061073f82611811565b5b9050919050565b606060008054610756906131f6565b80601f0160208091040260200160405190810160405280929190818152602001828054610782906131f6565b80156107cf5780601f106107a4576101008083540402835291602001916107cf565b820191906000526020600020905b8154815290600101906020018083116107b257829003601f168201915b5050505050905090565b60006107e48261187b565b6004600083815260200190815260200160002060009054906101000a900473ffffffffffffffffffffffffffffffffffffffff169050919050565b600061082a8261106c565b90508073ffffffffffffffffffffffffffffffffffffffff168373ffffffffffffffffffffffffffffffffffffffff160361089a576040517f08c379a000000000000000000000000000000000000000000000000000000000815260040161089190613299565b60405180910390fd5b8073ffffffffffffffffffffffffffffffffffffffff166108b96118c6565b73ffffffffffffffffffffffffffffffffffffffff1614806108e857506108e7816108e26118c6565b61177d565b5b610927576040517f08c379a000000000000000000000000000000000000000000000000000000000815260040161091e9061332b565b60405180910390fd5b61093183836118ce565b505050565b6010602052816000526040600020602052806000526040600020600091509150508060000154908060010160009054906101000a900473ffffffffffffffffffffffffffffffffffffffff16908060020154908060030154908060040154908060050154908060060154908060070154908060080154905089565b6109c26109bc6118c6565b82611987565b610a01576040517f08c379a00000000000000000000000000000000000000000000000000000000081526004016109f8906133bd565b60405180910390fd5b610a0c838383611a1c565b505050565b610a19612a24565b60098381548110610a2d57610a2c6133dd565b5b906000526020600020906009020160405180610120016040529081600082015481526020016001820160009054906101000a900473ffffffffffffffffffffffffffffffffffffffff1673ffffffffffffffffffffffffffffffffffffffff1673ffffffffffffffffffffffffffffffffffffffff1681526020016002820154815260200160038201548152602001600482015481526020016005820154815260200160068201548152602001600782015481526020016008820154815250509050818160800151610aff919061343b565b341015610b545733828260800151610b17919061343b565b6040517f96f756fd000000000000000000000000000000000000000000000000000000008152600401610b4b92919061347d565b60405180910390fd5b806101000151821180610b6a5750806060015182115b15610bb1578061010001516040517fcce3a419000000000000000000000000000000000000000000000000000000008152600401610ba89190612e61565b60405180910390fd5b6000600190505b600183610bc591906134a6565b811015610e0057600060018360e0015164e8d4a510008560000151610bea919061343b565b610bf491906134a6565b610bfe91906134a6565b905080600d6000600c54815260200190815260200160002081905550600c54600e60008381526020019081526020016000208190555082601060003373ffffffffffffffffffffffffffffffffffffffff1673ffffffffffffffffffffffffffffffffffffffff1681526020019081526020016000206000600f60003373ffffffffffffffffffffffffffffffffffffffff1673ffffffffffffffffffffffffffffffffffffffff1681526020019081526020016000205481526020019081526020016000206000820151816000015560208201518160010160006101000a81548173ffffffffffffffffffffffffffffffffffffffff021916908373ffffffffffffffffffffffffffffffffffffffff16021790555060408201518160020155606082015181600301556080820151816004015560a0820151816005015560c0820151816006015560e082015181600701556101008201518160080155905050610d693382611d15565b600f60003373ffffffffffffffffffffffffffffffffffffffff1673ffffffffffffffffffffffffffffffffffffffff1681526020019081526020016000206000815480929190610db9906134da565b9190505550600c6000815480929190610dd1906134da565b91905055508260e0018051809190610de8906134da565b81525050508080610df8906134da565b915050610bb8565b508060e001518160400151610e159190613522565b816101000181815250508060098481548110610e3457610e336133dd565b5b90600052602060002090600902016000820151816000015560208201518160010160006101000a81548173ffffffffffffffffffffffffffffffffffffffff021916908373ffffffffffffffffffffffffffffffffffffffff16021790555060408201518160020155606082015181600301556080820151816004015560a0820151816005015560c0820151816006015560e08201518160070155610100820151816008015590505060018160400151610eee9190613522565b42610ef99190613585565b600b6000828254610f0a91906134a6565b9250508190555080604001518160e0015103610f2a57610f2981611f32565b5b505050565b600d6020528060005260406000206000915090505481565b600660009054906101000a900473ffffffffffffffffffffffffffffffffffffffff1673ffffffffffffffffffffffffffffffffffffffff163373ffffffffffffffffffffffffffffffffffffffff160361100657600660009054906101000a900473ffffffffffffffffffffffffffffffffffffffff1673ffffffffffffffffffffffffffffffffffffffff166108fc479081150290604051600060405180830381858888f19350505050158015611004573d6000803e3d6000fd5b505b565b611023838383604051806020016040528060008152506113ea565b505050565b601260205282600052604060002060205281600052604060002060205280600052604060002060009250925050505481565b6110668484848461220d565b50505050565b600080611078836123ca565b9050600073ffffffffffffffffffffffffffffffffffffffff168173ffffffffffffffffffffffffffffffffffffffff16036110e9576040517f08c379a00000000000000000000000000000000000000000000000000000000081526004016110e090613602565b60405180910390fd5b80915050919050565b60008073ffffffffffffffffffffffffffffffffffffffff168273ffffffffffffffffffffffffffffffffffffffff1603611162576040517f08c379a000000000000000000000000000000000000000000000000000000000815260040161115990613694565b60405180910390fd5b600360008373ffffffffffffffffffffffffffffffffffffffff1673ffffffffffffffffffffffffffffffffffffffff168152602001908152602001600020549050919050565b600981815481106111b957600080fd5b90600052602060002090600902016000915090508060000154908060010160009054906101000a900473ffffffffffffffffffffffffffffffffffffffff16908060020154908060030154908060040154908060050154908060060154908060070154908060080154905089565b600f6020528060005260406000206000915090505481565b60606001805461124e906131f6565b80601f016020809104026020016040519081016040528092919081815260200182805461127a906131f6565b80156112c75780601f1061129c576101008083540402835291602001916112c7565b820191906000526020600020905b8154815290600101906020018083116112aa57829003601f168201915b5050505050905090565b600e6020528060005260406000206000915090505481565b6112f1612a24565b60098281548110611305576113046133dd565b5b906000526020600020906009020160405180610120016040529081600082015481526020016001820160009054906101000a900473ffffffffffffffffffffffffffffffffffffffff1673ffffffffffffffffffffffffffffffffffffffff1673ffffffffffffffffffffffffffffffffffffffff16815260200160028201548152602001600382015481526020016004820154815260200160058201548152602001600682015481526020016007820154815260200160088201548152505090506113d081611f32565b5050565b6113e66113df6118c6565b8383612407565b5050565b6113fb6113f56118c6565b83611987565b61143a576040517f08c379a0000000000000000000000000000000000000000000000000000000008152600401611431906133bd565b60405180910390fd5b61144684848484612573565b50505050565b611454612a24565b60098381548110611468576114676133dd565b5b906000526020600020906009020160405180610120016040529081600082015481526020016001820160009054906101000a900473ffffffffffffffffffffffffffffffffffffffff1673ffffffffffffffffffffffffffffffffffffffff1673ffffffffffffffffffffffffffffffffffffffff168152602001600282015481526020016003820154815260200160048201548152602001600582015481526020016006820154815260200160078201548152602001600882015481525050905060005b8160a0015181116116ea578260116000868152602001908152602001600020600083815260200190815260200160002054036116d7577fc423adeec29086fe53c1d7f40a30acfe899aa8f676ff47b77b02885a74bbc5128361158e8561106c565b60405161159c929190613700565b60405180910390a16115ad8361106c565b73ffffffffffffffffffffffffffffffffffffffff163373ffffffffffffffffffffffffffffffffffffffff16036116d657600060126000868152602001908152602001600020600083815260200190815260200160002060008581526020019081526020016000205490507fc423adeec29086fe53c1d7f40a30acfe899aa8f676ff47b77b02885a74bbc512813360405161164a929190613788565b60405180910390a160006012600087815260200190815260200160002060008481526020019081526020016000206000868152602001908152602001600020819055503373ffffffffffffffffffffffffffffffffffffffff166108fc829081150290604051600060405180830381858888f193505050501580156116d3573d6000803e3d6000fd5b50505b5b80806116e2906134da565b91505061152d565b50505050565b60606116fb8261187b565b60006117056125cf565b905060008151116117255760405180602001604052806000815250611750565b8061172f8461260c565b604051602001611740929190613800565b6040516020818303038152906040525b915050919050565b6011602052816000526040600020602052806000526040600020600091509150505481565b6000600560008473ffffffffffffffffffffffffffffffffffffffff1673ffffffffffffffffffffffffffffffffffffffff16815260200190815260200160002060008373ffffffffffffffffffffffffffffffffffffffff1673ffffffffffffffffffffffffffffffffffffffff16815260200190815260200160002060009054906101000a900460ff16905092915050565b60007f01ffc9a7000000000000000000000000000000000000000000000000000000007bffffffffffffffffffffffffffffffffffffffffffffffffffffffff1916827bffffffffffffffffffffffffffffffffffffffffffffffffffffffff1916149050919050565b611884816126da565b6118c3576040517f08c379a00000000000000000000000000000000000000000000000000000000081526004016118ba90613602565b60405180910390fd5b50565b600033905090565b816004600083815260200190815260200160002060006101000a81548173ffffffffffffffffffffffffffffffffffffffff021916908373ffffffffffffffffffffffffffffffffffffffff160217905550808273ffffffffffffffffffffffffffffffffffffffff166119418361106c565b73ffffffffffffffffffffffffffffffffffffffff167f8c5be1e5ebec7d5bd14f71427d1e84f3dd0314c0f7b2291e5b200ac8c7c3b92560405160405180910390a45050565b6000806119938361106c565b90508073ffffffffffffffffffffffffffffffffffffffff168473ffffffffffffffffffffffffffffffffffffffff1614806119d557506119d4818561177d565b5b80611a1357508373ffffffffffffffffffffffffffffffffffffffff166119fb846107d9565b73ffffffffffffffffffffffffffffffffffffffff16145b91505092915050565b8273ffffffffffffffffffffffffffffffffffffffff16611a3c8261106c565b73ffffffffffffffffffffffffffffffffffffffff1614611a92576040517f08c379a0000000000000000000000000000000000000000000000000000000008152600401611a8990613896565b60405180910390fd5b600073ffffffffffffffffffffffffffffffffffffffff168273ffffffffffffffffffffffffffffffffffffffff1603611b01576040517f08c379a0000000000000000000000000000000000000000000000000000000008152600401611af890613928565b60405180910390fd5b611b0e838383600161271b565b8273ffffffffffffffffffffffffffffffffffffffff16611b2e8261106c565b73ffffffffffffffffffffffffffffffffffffffff1614611b84576040517f08c379a0000000000000000000000000000000000000000000000000000000008152600401611b7b90613896565b60405180910390fd5b6004600082815260200190815260200160002060006101000a81549073ffffffffffffffffffffffffffffffffffffffff02191690556001600360008573ffffffffffffffffffffffffffffffffffffffff1673ffffffffffffffffffffffffffffffffffffffff168152602001908152602001600020600082825403925050819055506001600360008473ffffffffffffffffffffffffffffffffffffffff1673ffffffffffffffffffffffffffffffffffffffff16815260200190815260200160002060008282540192505081905550816002600083815260200190815260200160002060006101000a81548173ffffffffffffffffffffffffffffffffffffffff021916908373ffffffffffffffffffffffffffffffffffffffff160217905550808273ffffffffffffffffffffffffffffffffffffffff168473ffffffffffffffffffffffffffffffffffffffff167fddf252ad1be2c89b69c2b068fc378daa952ba7f163c4a11628f55a4df523b3ef60405160405180910390a4611d108383836001612721565b505050565b600073ffffffffffffffffffffffffffffffffffffffff168273ffffffffffffffffffffffffffffffffffffffff1603611d84576040517f08c379a0000000000000000000000000000000000000000000000000000000008152600401611d7b90613994565b60405180910390fd5b611d8d816126da565b15611dcd576040517f08c379a0000000000000000000000000000000000000000000000000000000008152600401611dc490613a00565b60405180910390fd5b611ddb60008383600161271b565b611de4816126da565b15611e24576040517f08c379a0000000000000000000000000000000000000000000000000000000008152600401611e1b90613a00565b60405180910390fd5b6001600360008473ffffffffffffffffffffffffffffffffffffffff1673ffffffffffffffffffffffffffffffffffffffff16815260200190815260200160002060008282540192505081905550816002600083815260200190815260200160002060006101000a81548173ffffffffffffffffffffffffffffffffffffffff021916908373ffffffffffffffffffffffffffffffffffffffff160217905550808273ffffffffffffffffffffffffffffffffffffffff16600073ffffffffffffffffffffffffffffffffffffffff167fddf252ad1be2c89b69c2b068fc378daa952ba7f163c4a11628f55a4df523b3ef60405160405180910390a4611f2e600083836001612721565b5050565b60008160e001518260400151611f489190613522565b14611f8f578061010001516040517fcce3a419000000000000000000000000000000000000000000000000000000008152600401611f869190612e61565b60405180910390fd5b600081608001518260400151611fa5919061343b565b90507fc423adeec29086fe53c1d7f40a30acfe899aa8f676ff47b77b02885a74bbc5128133604051611fd8929190613a6c565b60405180910390a160006007546103e8611ff29190613522565b90506000816103e8846120059190613aa8565b61200f919061343b565b905060008460a00151826120239190613aa8565b90506000600190505b8560a0015181116121b4577fc423adeec29086fe53c1d7f40a30acfe899aa8f676ff47b77b02885a74bbc5128233604051612068929190613b25565b60405180910390a16000600187604001516120839190613522565b600b546120909190613585565b600161209c91906134a6565b90507fc423adeec29086fe53c1d7f40a30acfe899aa8f676ff47b77b02885a74bbc51281336040516120cf929190613bad565b60405180910390a160008164e8d4a5100089600001516120ef919061343b565b6120f991906134a6565b90507fc423adeec29086fe53c1d7f40a30acfe899aa8f676ff47b77b02885a74bbc512813360405161212c929190613c35565b60405180910390a180601160008a60000151815260200190815260200160002060008581526020019081526020016000208190555083601260008a6000015181526020019081526020016000206000858152602001908152602001600020600083815260200190815260200160002081905550505080806121ac906134da565b91505061202c565b508460400151600b548660a001516121cc919061343b565b42600b546121da919061343b565b6121e4919061343b565b6121ee9190613585565b600b60008282546121ff91906134a6565b925050819055505050505050565b60008311158061223357508360028285612227919061343b565b612231919061343b565b115b1561226a576040517fdf469ccb00000000000000000000000000000000000000000000000000000000815260040160405180910390fd5b6009604051806101200160405280600a5481526020013373ffffffffffffffffffffffffffffffffffffffff168152602001868152602001858152602001848152602001838152602001428152602001600081526020018681525090806001815401808255809150506001900390600052602060002090600902016000909190919091506000820151816000015560208201518160010160006101000a81548173ffffffffffffffffffffffffffffffffffffffff021916908373ffffffffffffffffffffffffffffffffffffffff16021790555060408201518160020155606082015181600301556080820151816004015560a0820151816005015560c0820151816006015560e0820151816007015561010082015181600801555050600a600081548092919061239b906134da565b919050555080426123ac9190613585565b600b60008282546123bd91906134a6565b9250508190555050505050565b60006002600083815260200190815260200160002060009054906101000a900473ffffffffffffffffffffffffffffffffffffffff169050919050565b8173ffffffffffffffffffffffffffffffffffffffff168373ffffffffffffffffffffffffffffffffffffffff1603612475576040517f08c379a000000000000000000000000000000000000000000000000000000000815260040161246c90613cbd565b60405180910390fd5b80600560008573ffffffffffffffffffffffffffffffffffffffff1673ffffffffffffffffffffffffffffffffffffffff16815260200190815260200160002060008473ffffffffffffffffffffffffffffffffffffffff1673ffffffffffffffffffffffffffffffffffffffff16815260200190815260200160002060006101000a81548160ff0219169083151502179055508173ffffffffffffffffffffffffffffffffffffffff168373ffffffffffffffffffffffffffffffffffffffff167f17307eab39ab6107e8899845ad3d59bd9653f200f220920489ca2b5937696c31836040516125669190612b3a565b60405180910390a3505050565b61257e848484611a1c565b61258a84848484612727565b6125c9576040517f08c379a00000000000000000000000000000000000000000000000000000000081526004016125c090613d4f565b60405180910390fd5b50505050565b60606040518060400160405280600a81526020017f2e2f7572692e6a736f6e00000000000000000000000000000000000000000000815250905090565b60606000600161261b846128ae565b01905060008167ffffffffffffffff81111561263a57612639612fd9565b5b6040519080825280601f01601f19166020018201604052801561266c5781602001600182028036833780820191505090505b509050600082602001820190505b6001156126cf578080600190039150507f3031323334353637383961626364656600000000000000000000000000000000600a86061a8153600a85816126c3576126c2613556565b5b0494506000850361267a575b819350505050919050565b60008073ffffffffffffffffffffffffffffffffffffffff166126fc836123ca565b73ffffffffffffffffffffffffffffffffffffffff1614159050919050565b50505050565b50505050565b60006127488473ffffffffffffffffffffffffffffffffffffffff16612a01565b156128a1578373ffffffffffffffffffffffffffffffffffffffff1663150b7a026127716118c6565b8786866040518563ffffffff1660e01b81526004016127939493929190613dc4565b6020604051808303816000875af19250505080156127cf57506040513d601f19601f820116820180604052508101906127cc9190613e25565b60015b612851573d80600081146127ff576040519150601f19603f3d011682016040523d82523d6000602084013e612804565b606091505b506000815103612849576040517f08c379a000000000000000000000000000000000000000000000000000000000815260040161284090613d4f565b60405180910390fd5b805181602001fd5b63150b7a0260e01b7bffffffffffffffffffffffffffffffffffffffffffffffffffffffff1916817bffffffffffffffffffffffffffffffffffffffffffffffffffffffff1916149150506128a6565b600190505b949350505050565b600080600090507a184f03e93ff9f4daa797ed6e38ed64bf6a1f010000000000000000831061290c577a184f03e93ff9f4daa797ed6e38ed64bf6a1f010000000000000000838161290257612901613556565b5b0492506040810190505b6d04ee2d6d415b85acef81000000008310612949576d04ee2d6d415b85acef8100000000838161293f5761293e613556565b5b0492506020810190505b662386f26fc10000831061297857662386f26fc10000838161296e5761296d613556565b5b0492506010810190505b6305f5e10083106129a1576305f5e100838161299757612996613556565b5b0492506008810190505b61271083106129c65761271083816129bc576129bb613556565b5b0492506004810190505b606483106129e957606483816129df576129de613556565b5b0492506002810190505b600a83106129f8576001810190505b80915050919050565b6000808273ffffffffffffffffffffffffffffffffffffffff163b119050919050565b60405180610120016040528060008152602001600073ffffffffffffffffffffffffffffffffffffffff168152602001600081526020016000815260200160008152602001600081526020016000815260200160008152602001600081525090565b6000604051905090565b600080fd5b600080fd5b60007fffffffff0000000000000000000000000000000000000000000000000000000082169050919050565b612acf81612a9a565b8114612ada57600080fd5b50565b600081359050612aec81612ac6565b92915050565b600060208284031215612b0857612b07612a90565b5b6000612b1684828501612add565b91505092915050565b60008115159050919050565b612b3481612b1f565b82525050565b6000602082019050612b4f6000830184612b2b565b92915050565b600081519050919050565b600082825260208201905092915050565b60005b83811015612b8f578082015181840152602081019050612b74565b60008484015250505050565b6000601f19601f8301169050919050565b6000612bb782612b55565b612bc18185612b60565b9350612bd1818560208601612b71565b612bda81612b9b565b840191505092915050565b60006020820190508181036000830152612bff8184612bac565b905092915050565b6000819050919050565b612c1a81612c07565b8114612c2557600080fd5b50565b600081359050612c3781612c11565b92915050565b600060208284031215612c5357612c52612a90565b5b6000612c6184828501612c28565b91505092915050565b600073ffffffffffffffffffffffffffffffffffffffff82169050919050565b6000612c9582612c6a565b9050919050565b612ca581612c8a565b82525050565b6000602082019050612cc06000830184612c9c565b92915050565b612ccf81612c8a565b8114612cda57600080fd5b50565b600081359050612cec81612cc6565b92915050565b60008060408385031215612d0957612d08612a90565b5b6000612d1785828601612cdd565b9250506020612d2885828601612c28565b9150509250929050565b612d3b81612c07565b82525050565b600061012082019050612d57600083018c612d32565b612d64602083018b612c9c565b612d71604083018a612d32565b612d7e6060830189612d32565b612d8b6080830188612d32565b612d9860a0830187612d32565b612da560c0830186612d32565b612db260e0830185612d32565b612dc0610100830184612d32565b9a9950505050505050505050565b600080600060608486031215612de757612de6612a90565b5b6000612df586828701612cdd565b9350506020612e0686828701612cdd565b9250506040612e1786828701612c28565b9150509250925092565b60008060408385031215612e3857612e37612a90565b5b6000612e4685828601612c28565b9250506020612e5785828601612c28565b9150509250929050565b6000602082019050612e766000830184612d32565b92915050565b600080600060608486031215612e9557612e94612a90565b5b6000612ea386828701612c28565b9350506020612eb486828701612c28565b9250506040612ec586828701612c28565b9150509250925092565b60008060008060808587031215612ee957612ee8612a90565b5b6000612ef787828801612c28565b9450506020612f0887828801612c28565b9350506040612f1987828801612c28565b9250506060612f2a87828801612c28565b91505092959194509250565b600060208284031215612f4c57612f4b612a90565b5b6000612f5a84828501612cdd565b91505092915050565b612f6c81612b1f565b8114612f7757600080fd5b50565b600081359050612f8981612f63565b92915050565b60008060408385031215612fa657612fa5612a90565b5b6000612fb485828601612cdd565b9250506020612fc585828601612f7a565b9150509250929050565b600080fd5b600080fd5b7f4e487b7100000000000000000000000000000000000000000000000000000000600052604160045260246000fd5b61301182612b9b565b810181811067ffffffffffffffff821117156130305761302f612fd9565b5b80604052505050565b6000613043612a86565b905061304f8282613008565b919050565b600067ffffffffffffffff82111561306f5761306e612fd9565b5b61307882612b9b565b9050602081019050919050565b82818337600083830152505050565b60006130a76130a284613054565b613039565b9050828152602081018484840111156130c3576130c2612fd4565b5b6130ce848285613085565b509392505050565b600082601f8301126130eb576130ea612fcf565b5b81356130fb848260208601613094565b91505092915050565b6000806000806080858703121561311e5761311d612a90565b5b600061312c87828801612cdd565b945050602061313d87828801612cdd565b935050604061314e87828801612c28565b925050606085013567ffffffffffffffff81111561316f5761316e612a95565b5b61317b878288016130d6565b91505092959194509250565b6000806040838503121561319e5761319d612a90565b5b60006131ac85828601612cdd565b92505060206131bd85828601612cdd565b9150509250929050565b7f4e487b7100000000000000000000000000000000000000000000000000000000600052602260045260246000fd5b6000600282049050600182168061320e57607f821691505b602082108103613221576132206131c7565b5b50919050565b7f4552433732313a20617070726f76616c20746f2063757272656e74206f776e6560008201527f7200000000000000000000000000000000000000000000000000000000000000602082015250565b6000613283602183612b60565b915061328e82613227565b604082019050919050565b600060208201905081810360008301526132b281613276565b9050919050565b7f4552433732313a20617070726f76652063616c6c6572206973206e6f7420746f60008201527f6b656e206f776e6572206f7220617070726f76656420666f7220616c6c000000602082015250565b6000613315603d83612b60565b9150613320826132b9565b604082019050919050565b6000602082019050818103600083015261334481613308565b9050919050565b7f4552433732313a2063616c6c6572206973206e6f7420746f6b656e206f776e6560008201527f72206f7220617070726f76656400000000000000000000000000000000000000602082015250565b60006133a7602d83612b60565b91506133b28261334b565b604082019050919050565b600060208201905081810360008301526133d68161339a565b9050919050565b7f4e487b7100000000000000000000000000000000000000000000000000000000600052603260045260246000fd5b7f4e487b7100000000000000000000000000000000000000000000000000000000600052601160045260246000fd5b600061344682612c07565b915061345183612c07565b925082820261345f81612c07565b915082820484148315176134765761347561340c565b5b5092915050565b60006040820190506134926000830185612c9c565b61349f6020830184612d32565b9392505050565b60006134b182612c07565b91506134bc83612c07565b92508282019050808211156134d4576134d361340c565b5b92915050565b60006134e582612c07565b91507fffffffffffffffffffffffffffffffffffffffffffffffffffffffffffffffff82036135175761351661340c565b5b600182019050919050565b600061352d82612c07565b915061353883612c07565b92508282039050818111156135505761354f61340c565b5b92915050565b7f4e487b7100000000000000000000000000000000000000000000000000000000600052601260045260246000fd5b600061359082612c07565b915061359b83612c07565b9250826135ab576135aa613556565b5b828206905092915050565b7f4552433732313a20696e76616c696420746f6b656e2049440000000000000000600082015250565b60006135ec601883612b60565b91506135f7826135b6565b602082019050919050565b6000602082019050818103600083015261361b816135df565b9050919050565b7f4552433732313a2061646472657373207a65726f206973206e6f74206120766160008201527f6c6964206f776e65720000000000000000000000000000000000000000000000602082015250565b600061367e602983612b60565b915061368982613622565b604082019050919050565b600060208201905081810360008301526136ad81613671565b9050919050565b7f6964000000000000000000000000000000000000000000000000000000000000600082015250565b60006136ea600283612b60565b91506136f5826136b4565b602082019050919050565b60006060820190506137156000830185612d32565b8181036020830152613726816136dd565b90506137356040830184612c9c565b9392505050565b7f7072697a65000000000000000000000000000000000000000000000000000000600082015250565b6000613772600583612b60565b915061377d8261373c565b602082019050919050565b600060608201905061379d6000830185612d32565b81810360208301526137ae81613765565b90506137bd6040830184612c9c565b9392505050565b600081905092915050565b60006137da82612b55565b6137e481856137c4565b93506137f4818560208601612b71565b80840191505092915050565b600061380c82856137cf565b915061381882846137cf565b91508190509392505050565b7f4552433732313a207472616e736665722066726f6d20696e636f72726563742060008201527f6f776e6572000000000000000000000000000000000000000000000000000000602082015250565b6000613880602583612b60565b915061388b82613824565b604082019050919050565b600060208201905081810360008301526138af81613873565b9050919050565b7f4552433732313a207472616e7366657220746f20746865207a65726f2061646460008201527f7265737300000000000000000000000000000000000000000000000000000000602082015250565b6000613912602483612b60565b915061391d826138b6565b604082019050919050565b6000602082019050818103600083015261394181613905565b9050919050565b7f4552433732313a206d696e7420746f20746865207a65726f2061646472657373600082015250565b600061397e602083612b60565b915061398982613948565b602082019050919050565b600060208201905081810360008301526139ad81613971565b9050919050565b7f4552433732313a20746f6b656e20616c7265616479206d696e74656400000000600082015250565b60006139ea601c83612b60565b91506139f5826139b4565b602082019050919050565b60006020820190508181036000830152613a19816139dd565b9050919050565b7f6c6f74746572792077696e000000000000000000000000000000000000000000600082015250565b6000613a56600b83612b60565b9150613a6182613a20565b602082019050919050565b6000606082019050613a816000830185612d32565b8181036020830152613a9281613a49565b9050613aa16040830184612c9c565b9392505050565b6000613ab382612c07565b9150613abe83612c07565b925082613ace57613acd613556565b5b828204905092915050565b7f6c6f74746572792077696e207061727400000000000000000000000000000000600082015250565b6000613b0f601083612b60565b9150613b1a82613ad9565b602082019050919050565b6000606082019050613b3a6000830185612d32565b8181036020830152613b4b81613b02565b9050613b5a6040830184612c9c565b9392505050565b7f6c6f747465727920726573756c74000000000000000000000000000000000000600082015250565b6000613b97600e83612b60565b9150613ba282613b61565b602082019050919050565b6000606082019050613bc26000830185612d32565b8181036020830152613bd381613b8a565b9050613be26040830184612c9c565b9392505050565b7f6c6f747465727920636f6d626f00000000000000000000000000000000000000600082015250565b6000613c1f600d83612b60565b9150613c2a82613be9565b602082019050919050565b6000606082019050613c4a6000830185612d32565b8181036020830152613c5b81613c12565b9050613c6a6040830184612c9c565b9392505050565b7f4552433732313a20617070726f766520746f2063616c6c657200000000000000600082015250565b6000613ca7601983612b60565b9150613cb282613c71565b602082019050919050565b60006020820190508181036000830152613cd681613c9a565b9050919050565b7f4552433732313a207472616e7366657220746f206e6f6e20455243373231526560008201527f63656976657220696d706c656d656e7465720000000000000000000000000000602082015250565b6000613d39603283612b60565b9150613d4482613cdd565b604082019050919050565b60006020820190508181036000830152613d6881613d2c565b9050919050565b600081519050919050565b600082825260208201905092915050565b6000613d9682613d6f565b613da08185613d7a565b9350613db0818560208601612b71565b613db981612b9b565b840191505092915050565b6000608082019050613dd96000830187612c9c565b613de66020830186612c9c565b613df36040830185612d32565b8181036060830152613e058184613d8b565b905095945050505050565b600081519050613e1f81612ac6565b92915050565b600060208284031215613e3b57613e3a612a90565b5b6000613e4984828501613e10565b9150509291505056fea2646970667358221220432905b42cbbcda7e0644c96ca90469606f534b8fe28e0e7ff326579c8e7979d64736f6c63430008110033",
  "immutableReferences": {},
  "source": "// SPDX-License-Identifier: MIT\n\npragma solidity >=0.8.2 <0.9.0;\n\nimport \"@openzeppelin/contracts/token/ERC721/ERC721.sol\";\n\nerror LowFunds(address adr, uint256 balance);\nerror NotAdmin(address adr);\nerror GameOver();\nerror Yourself(address adr);\nerror Check(uint256 num);\n\ncontract standards {\n    address private admin;\n\n    constructor() {\n        admin = msg.sender;\n    }\n\n    function withdraw() external {\n        if (msg.sender == admin) {\n            payable(admin).transfer(address(this).balance);\n        }\n    }\n}\n\ncontract LOTTERY is ERC721, standards {\n    event Log(uint256 cs, string txt, address usr);\n    uint256 fee;\n    uint256 min;\n    struct Lottery {\n        uint256 id;\n        address owner;\n        uint256 tickets;\n        uint256 max;\n        uint256 price;\n        uint256 winning;\n        uint256 timestamp;\n        uint256 sold;\n        uint256 status;\n    }\n    Lottery[] public lotterys;\n    uint256 l;\n    uint256 rand;\n    uint256 t;\n    mapping(uint256 => uint256) public count;\n    mapping(uint256 => uint256) public dias;\n    mapping(address => uint256) public myTickets;\n    mapping(address => mapping(uint256 => Lottery)) public myTicket;\n    mapping(uint256 => mapping(uint256 => uint256)) public results;\n    mapping(uint256 => mapping(uint256 => mapping(uint256 => uint256))) public claims;\n\n    constructor() ERC721(\"Gamble360 Lottery Ticket\", \"gLOTTO\") {\n        fee = 25;\n        min = 1 * 10**15;\n        l = 0;\n        t = 1;\n        _makeLottery(3, 1, 10000000000000000, 1);\n    }\n\n    function makeLottery(\n        uint256 _tick,\n        uint256 _max,\n        uint256 _price,\n        uint256 _win\n    ) external {\n        _makeLottery(_tick, _max, _price, _win);\n    }\n\n    function _makeLottery(\n        uint256 _tick,\n        uint256 _max,\n        uint256 _price,\n        uint256 _win\n    ) internal {\n        if (_max <= 0 || _max * _win * 2 > _tick) revert GameOver();\n        // uint total = _tick * _price;\n        // if(total / _tick < min) revert GameOver();\n        lotterys.push(\n            Lottery(\n                l,\n                msg.sender,\n                _tick,\n                _max,\n                _price,\n                _win,\n                block.timestamp,\n                0,\n                _tick\n            )\n        );\n        l++;\n        rand += block.timestamp % _win;\n    }\n\n    function _baseURI() internal view virtual override returns (string memory) {\n        return \"./uri.json\";\n    }\n\n    // 10000000000000000000\n    function buyTicket(uint256 _id, uint256 _amount) external payable {\n        Lottery memory lottery;\n        lottery = lotterys[_id];\n        if (msg.value < lottery.price * _amount)\n            revert LowFunds(msg.sender, lottery.price * _amount);\n        if (_amount > lottery.status || _amount > lottery.max)\n            revert Check(lottery.status);\n        for (uint256 i = 1; i < _amount + 1; i++) {\n            uint256 tid = (lottery.id * 10**12) + lottery.sold + 1;\n            count[t] = tid;\n            dias[tid] = t;\n            myTicket[msg.sender][myTickets[msg.sender]] = lottery;\n            _mint(msg.sender, tid);\n            myTickets[msg.sender]++;\n            t++;\n            lottery.sold++;\n        }\n        lottery.status = lottery.tickets - lottery.sold;\n        lotterys[_id] = lottery;\n        rand += block.timestamp % (lottery.tickets - 1);\n        if (lottery.sold == lottery.tickets) _playLottery(lottery);\n    }\n\n    function rollLottery(uint256 _id) external {\n        Lottery memory lottery;\n        lottery = lotterys[_id];\n        _playLottery(lottery);\n    }\n\n    function _playLottery(Lottery memory lottery) internal {\n        if (lottery.tickets - lottery.sold != 0) revert Check(lottery.status);\n        uint256 win = lottery.tickets * lottery.price;\n        emit Log(win, \"lottery win\", msg.sender);\n        uint256 permil = 1000 - fee;\n        uint256 winsub = (win / 1000) * permil;\n        uint256 winpart = winsub / lottery.winning;\n        for (uint256 i = 1; i <= lottery.winning; i++) {\n            // 1 000 000 000 000\n            // 2 925 000 000 000\n            emit Log(winpart, \"lottery win part\", msg.sender);\n            uint256 r = 1 + ((rand) % (lottery.tickets - 1));\n            emit Log(r, \"lottery result\", msg.sender);\n            uint256 res = (lottery.id * 10**12) + r;\n            emit Log(res, \"lottery combo\", msg.sender);\n            results[lottery.id][i] = res;\n            claims[lottery.id][i][res] = winpart;\n        }\n        rand +=\n            ((rand * block.timestamp) * (lottery.winning * rand)) %\n            lottery.tickets;\n    }\n\n    function claim(uint256 _lid, uint256 _res) external {\n        Lottery memory lottery;\n        lottery = lotterys[_lid];\n        for (uint256 i; i <= lottery.winning; i++) {\n            if (results[_lid][i] == _res) {\n                emit Log(_res, \"id\", ownerOf(_res));\n                if (msg.sender == ownerOf(_res)) {\n                    uint256 win = claims[_lid][i][_res];\n                    emit Log(win, \"prize\", msg.sender);\n                    claims[_lid][i][_res] = 0;\n                    payable(msg.sender).transfer(win);\n                }\n            }\n        }\n    }\n}\n",
  "sourcePath": "/Users/iii6/Documents/GitHub/Gamble360/contracts/gamble360/LOTTERY.sol",
  "compiler": {
    "name": "solc",
    "version": "0.8.17+commit.8df45f5f.Emscripten.clang"
  },
  "schemaVersion": "3.4.8",
  "updatedAt": "2023-04-03T15:54:47.680Z",
  "networkType": "ethereum",
  "devdoc": {
    "kind": "dev",
    "methods": {
      "approve(address,uint256)": {
        "details": "See {IERC721-approve}."
      },
      "balanceOf(address)": {
        "details": "See {IERC721-balanceOf}."
      },
      "getApproved(uint256)": {
        "details": "See {IERC721-getApproved}."
      },
      "isApprovedForAll(address,address)": {
        "details": "See {IERC721-isApprovedForAll}."
      },
      "name()": {
        "details": "See {IERC721Metadata-name}."
      },
      "ownerOf(uint256)": {
        "details": "See {IERC721-ownerOf}."
      },
      "safeTransferFrom(address,address,uint256)": {
        "details": "See {IERC721-safeTransferFrom}."
      },
      "safeTransferFrom(address,address,uint256,bytes)": {
        "details": "See {IERC721-safeTransferFrom}."
      },
      "setApprovalForAll(address,bool)": {
        "details": "See {IERC721-setApprovalForAll}."
      },
      "supportsInterface(bytes4)": {
        "details": "See {IERC165-supportsInterface}."
      },
      "symbol()": {
        "details": "See {IERC721Metadata-symbol}."
      },
      "tokenURI(uint256)": {
        "details": "See {IERC721Metadata-tokenURI}."
      },
      "transferFrom(address,address,uint256)": {
        "details": "See {IERC721-transferFrom}."
      }
    },
    "version": 1
  },
  "userdoc": {
    "kind": "user",
    "methods": {},
    "version": 1
  }
}