{
  "contractName": "LOTTERY_BAKER",
  "abi": [
    {
      "inputs": [],
      "stateMutability": "nonpayable",
      "type": "constructor"
    },
    {
      "inputs": [
        {
          "internalType": "uint256",
          "name": "num",
          "type": "uint256"
        }
      ],
      "name": "Check",
      "type": "error"
    },
    {
      "inputs": [],
      "name": "GameOver",
      "type": "error"
    },
    {
      "inputs": [
        {
          "internalType": "address",
          "name": "adr",
          "type": "address"
        },
        {
          "internalType": "uint256",
          "name": "balance",
          "type": "uint256"
        }
      ],
      "name": "LowFunds",
      "type": "error"
    },
    {
      "anonymous": false,
      "inputs": [
        {
          "indexed": true,
          "internalType": "address",
          "name": "owner",
          "type": "address"
        },
        {
          "indexed": true,
          "internalType": "address",
          "name": "approved",
          "type": "address"
        },
        {
          "indexed": true,
          "internalType": "uint256",
          "name": "tokenId",
          "type": "uint256"
        }
      ],
      "name": "Approval",
      "type": "event"
    },
    {
      "anonymous": false,
      "inputs": [
        {
          "indexed": true,
          "internalType": "address",
          "name": "owner",
          "type": "address"
        },
        {
          "indexed": true,
          "internalType": "address",
          "name": "operator",
          "type": "address"
        },
        {
          "indexed": false,
          "internalType": "bool",
          "name": "approved",
          "type": "bool"
        }
      ],
      "name": "ApprovalForAll",
      "type": "event"
    },
    {
      "anonymous": false,
      "inputs": [
        {
          "indexed": false,
          "internalType": "uint256",
          "name": "cs",
          "type": "uint256"
        },
        {
          "indexed": false,
          "internalType": "string",
          "name": "txt",
          "type": "string"
        },
        {
          "indexed": false,
          "internalType": "address",
          "name": "usr",
          "type": "address"
        }
      ],
      "name": "Log",
      "type": "event"
    },
    {
      "anonymous": false,
      "inputs": [
        {
          "indexed": true,
          "internalType": "address",
          "name": "from",
          "type": "address"
        },
        {
          "indexed": true,
          "internalType": "address",
          "name": "to",
          "type": "address"
        },
        {
          "indexed": true,
          "internalType": "uint256",
          "name": "tokenId",
          "type": "uint256"
        }
      ],
      "name": "Transfer",
      "type": "event"
    },
    {
      "inputs": [
        {
          "internalType": "address",
          "name": "to",
          "type": "address"
        },
        {
          "internalType": "uint256",
          "name": "tokenId",
          "type": "uint256"
        }
      ],
      "name": "approve",
      "outputs": [],
      "stateMutability": "nonpayable",
      "type": "function"
    },
    {
      "inputs": [
        {
          "internalType": "address",
          "name": "owner",
          "type": "address"
        }
      ],
      "name": "balanceOf",
      "outputs": [
        {
          "internalType": "uint256",
          "name": "",
          "type": "uint256"
        }
      ],
      "stateMutability": "view",
      "type": "function"
    },
    {
      "inputs": [
        {
          "internalType": "uint256",
          "name": "",
          "type": "uint256"
        }
      ],
      "name": "count",
      "outputs": [
        {
          "internalType": "uint256",
          "name": "",
          "type": "uint256"
        }
      ],
      "stateMutability": "view",
      "type": "function"
    },
    {
      "inputs": [
        {
          "internalType": "uint256",
          "name": "",
          "type": "uint256"
        }
      ],
      "name": "dias",
      "outputs": [
        {
          "internalType": "uint256",
          "name": "",
          "type": "uint256"
        }
      ],
      "stateMutability": "view",
      "type": "function"
    },
    {
      "inputs": [
        {
          "internalType": "uint256",
          "name": "tokenId",
          "type": "uint256"
        }
      ],
      "name": "getApproved",
      "outputs": [
        {
          "internalType": "address",
          "name": "",
          "type": "address"
        }
      ],
      "stateMutability": "view",
      "type": "function"
    },
    {
      "inputs": [
        {
          "internalType": "address",
          "name": "owner",
          "type": "address"
        },
        {
          "internalType": "address",
          "name": "operator",
          "type": "address"
        }
      ],
      "name": "isApprovedForAll",
      "outputs": [
        {
          "internalType": "bool",
          "name": "",
          "type": "bool"
        }
      ],
      "stateMutability": "view",
      "type": "function"
    },
    {
      "inputs": [
        {
          "internalType": "uint256",
          "name": "",
          "type": "uint256"
        }
      ],
      "name": "lotterys",
      "outputs": [
        {
          "internalType": "uint256",
          "name": "id",
          "type": "uint256"
        },
        {
          "internalType": "address",
          "name": "owner",
          "type": "address"
        },
        {
          "internalType": "uint256",
          "name": "tickets",
          "type": "uint256"
        },
        {
          "internalType": "uint256",
          "name": "max",
          "type": "uint256"
        },
        {
          "internalType": "uint256",
          "name": "price",
          "type": "uint256"
        },
        {
          "internalType": "uint256",
          "name": "winning",
          "type": "uint256"
        },
        {
          "internalType": "uint256",
          "name": "timestamp",
          "type": "uint256"
        },
        {
          "internalType": "uint256",
          "name": "sold",
          "type": "uint256"
        },
        {
          "internalType": "uint256",
          "name": "status",
          "type": "uint256"
        }
      ],
      "stateMutability": "view",
      "type": "function"
    },
    {
      "inputs": [
        {
          "internalType": "address",
          "name": "",
          "type": "address"
        },
        {
          "internalType": "uint256",
          "name": "",
          "type": "uint256"
        }
      ],
      "name": "myTicket",
      "outputs": [
        {
          "internalType": "uint256",
          "name": "id",
          "type": "uint256"
        },
        {
          "internalType": "address",
          "name": "owner",
          "type": "address"
        },
        {
          "internalType": "uint256",
          "name": "tickets",
          "type": "uint256"
        },
        {
          "internalType": "uint256",
          "name": "max",
          "type": "uint256"
        },
        {
          "internalType": "uint256",
          "name": "price",
          "type": "uint256"
        },
        {
          "internalType": "uint256",
          "name": "winning",
          "type": "uint256"
        },
        {
          "internalType": "uint256",
          "name": "timestamp",
          "type": "uint256"
        },
        {
          "internalType": "uint256",
          "name": "sold",
          "type": "uint256"
        },
        {
          "internalType": "uint256",
          "name": "status",
          "type": "uint256"
        }
      ],
      "stateMutability": "view",
      "type": "function"
    },
    {
      "inputs": [],
      "name": "name",
      "outputs": [
        {
          "internalType": "string",
          "name": "",
          "type": "string"
        }
      ],
      "stateMutability": "view",
      "type": "function"
    },
    {
      "inputs": [
        {
          "internalType": "uint256",
          "name": "tokenId",
          "type": "uint256"
        }
      ],
      "name": "ownerOf",
      "outputs": [
        {
          "internalType": "address",
          "name": "",
          "type": "address"
        }
      ],
      "stateMutability": "view",
      "type": "function"
    },
    {
      "inputs": [
        {
          "internalType": "uint256",
          "name": "",
          "type": "uint256"
        },
        {
          "internalType": "uint256",
          "name": "",
          "type": "uint256"
        }
      ],
      "name": "results",
      "outputs": [
        {
          "internalType": "uint256",
          "name": "",
          "type": "uint256"
        }
      ],
      "stateMutability": "view",
      "type": "function"
    },
    {
      "inputs": [
        {
          "internalType": "address",
          "name": "from",
          "type": "address"
        },
        {
          "internalType": "address",
          "name": "to",
          "type": "address"
        },
        {
          "internalType": "uint256",
          "name": "tokenId",
          "type": "uint256"
        }
      ],
      "name": "safeTransferFrom",
      "outputs": [],
      "stateMutability": "nonpayable",
      "type": "function"
    },
    {
      "inputs": [
        {
          "internalType": "address",
          "name": "from",
          "type": "address"
        },
        {
          "internalType": "address",
          "name": "to",
          "type": "address"
        },
        {
          "internalType": "uint256",
          "name": "tokenId",
          "type": "uint256"
        },
        {
          "internalType": "bytes",
          "name": "data",
          "type": "bytes"
        }
      ],
      "name": "safeTransferFrom",
      "outputs": [],
      "stateMutability": "nonpayable",
      "type": "function"
    },
    {
      "inputs": [
        {
          "internalType": "address",
          "name": "operator",
          "type": "address"
        },
        {
          "internalType": "bool",
          "name": "approved",
          "type": "bool"
        }
      ],
      "name": "setApprovalForAll",
      "outputs": [],
      "stateMutability": "nonpayable",
      "type": "function"
    },
    {
      "inputs": [
        {
          "internalType": "bytes4",
          "name": "interfaceId",
          "type": "bytes4"
        }
      ],
      "name": "supportsInterface",
      "outputs": [
        {
          "internalType": "bool",
          "name": "",
          "type": "bool"
        }
      ],
      "stateMutability": "view",
      "type": "function"
    },
    {
      "inputs": [],
      "name": "symbol",
      "outputs": [
        {
          "internalType": "string",
          "name": "",
          "type": "string"
        }
      ],
      "stateMutability": "view",
      "type": "function"
    },
    {
      "inputs": [
        {
          "internalType": "uint256",
          "name": "tokenId",
          "type": "uint256"
        }
      ],
      "name": "tokenURI",
      "outputs": [
        {
          "internalType": "string",
          "name": "",
          "type": "string"
        }
      ],
      "stateMutability": "view",
      "type": "function"
    },
    {
      "inputs": [
        {
          "internalType": "address",
          "name": "from",
          "type": "address"
        },
        {
          "internalType": "address",
          "name": "to",
          "type": "address"
        },
        {
          "internalType": "uint256",
          "name": "tokenId",
          "type": "uint256"
        }
      ],
      "name": "transferFrom",
      "outputs": [],
      "stateMutability": "nonpayable",
      "type": "function"
    },
    {
      "inputs": [],
      "name": "withdraw",
      "outputs": [],
      "stateMutability": "nonpayable",
      "type": "function"
    },
    {
      "inputs": [
        {
          "internalType": "uint256",
          "name": "_tick",
          "type": "uint256"
        },
        {
          "internalType": "uint256",
          "name": "_max",
          "type": "uint256"
        },
        {
          "internalType": "uint256",
          "name": "_price",
          "type": "uint256"
        },
        {
          "internalType": "uint256",
          "name": "_win",
          "type": "uint256"
        }
      ],
      "name": "makeLottery",
      "outputs": [],
      "stateMutability": "nonpayable",
      "type": "function"
    },
    {
      "inputs": [
        {
          "internalType": "uint256",
          "name": "_id",
          "type": "uint256"
        },
        {
          "internalType": "uint256",
          "name": "_amount",
          "type": "uint256"
        }
      ],
      "name": "buyTicket",
      "outputs": [],
      "stateMutability": "payable",
      "type": "function"
    },
    {
      "inputs": [
        {
          "internalType": "uint256",
          "name": "_id",
          "type": "uint256"
        }
      ],
      "name": "rollLottery",
      "outputs": [],
      "stateMutability": "nonpayable",
      "type": "function"
    },
    {
      "inputs": [
        {
          "internalType": "uint256",
          "name": "_lid",
          "type": "uint256"
        },
        {
          "internalType": "uint256",
          "name": "_res",
          "type": "uint256"
        }
      ],
      "name": "claim",
      "outputs": [],
      "stateMutability": "nonpayable",
      "type": "function"
    }
  ],
  "bytecode": "0x60806040523480156200001157600080fd5b506040518060400160405280601881526020017f47616d626c65333630204c6f7474657279205469636b657400000000000000008152506040518060400160405280600681526020017f674c4f54544f000000000000000000000000000000000000000000000000000081525081600090816200008f919062000572565b508060019081620000a1919062000572565b50505033600660006101000a81548173ffffffffffffffffffffffffffffffffffffffff021916908373ffffffffffffffffffffffffffffffffffffffff160217905550601960078190555066038d7ea4c680006008819055506000600a819055506001600c819055506200012960036001662386f26fc1000060016200012f60201b60201c565b620007c2565b6000831115806200015a575083600282856200014c919062000688565b62000158919062000688565b115b1562000192576040517fdf469ccb00000000000000000000000000000000000000000000000000000000815260040160405180910390fd5b6009604051806101200160405280600a5481526020013373ffffffffffffffffffffffffffffffffffffffff168152602001868152602001858152602001848152602001838152602001428152602001600081526020018681525090806001815401808255809150506001900390600052602060002090600902016000909190919091506000820151816000015560208201518160010160006101000a81548173ffffffffffffffffffffffffffffffffffffffff021916908373ffffffffffffffffffffffffffffffffffffffff16021790555060408201518160020155606082015181600301556080820151816004015560a0820151816005015560c0820151816006015560e0820151816007015561010082015181600801555050600a6000815480929190620002c590620006d3565b91905055508042620002d891906200074f565b600b6000828254620002eb919062000787565b9250508190555050505050565b600081519050919050565b7f4e487b7100000000000000000000000000000000000000000000000000000000600052604160045260246000fd5b7f4e487b7100000000000000000000000000000000000000000000000000000000600052602260045260246000fd5b600060028204905060018216806200037a57607f821691505b60208210810362000390576200038f62000332565b5b50919050565b60008190508160005260206000209050919050565b60006020601f8301049050919050565b600082821b905092915050565b600060088302620003fa7fffffffffffffffffffffffffffffffffffffffffffffffffffffffffffffffff82620003bb565b620004068683620003bb565b95508019841693508086168417925050509392505050565b6000819050919050565b6000819050919050565b6000620004536200044d62000447846200041e565b62000428565b6200041e565b9050919050565b6000819050919050565b6200046f8362000432565b620004876200047e826200045a565b848454620003c8565b825550505050565b600090565b6200049e6200048f565b620004ab81848462000464565b505050565b5b81811015620004d357620004c760008262000494565b600181019050620004b1565b5050565b601f8211156200052257620004ec8162000396565b620004f784620003ab565b8101602085101562000507578190505b6200051f6200051685620003ab565b830182620004b0565b50505b505050565b600082821c905092915050565b6000620005476000198460080262000527565b1980831691505092915050565b600062000562838362000534565b9150826002028217905092915050565b6200057d82620002f8565b67ffffffffffffffff81111562000599576200059862000303565b5b620005a5825462000361565b620005b2828285620004d7565b600060209050601f831160018114620005ea5760008415620005d5578287015190505b620005e1858262000554565b86555062000651565b601f198416620005fa8662000396565b60005b828110156200062457848901518255600182019150602085019450602081019050620005fd565b8683101562000644578489015162000640601f89168262000534565b8355505b6001600288020188555050505b505050505050565b7f4e487b7100000000000000000000000000000000000000000000000000000000600052601160045260246000fd5b600062000695826200041e565b9150620006a2836200041e565b9250828202620006b2816200041e565b91508282048414831517620006cc57620006cb62000659565b5b5092915050565b6000620006e0826200041e565b91507fffffffffffffffffffffffffffffffffffffffffffffffffffffffffffffffff820362000715576200071462000659565b5b600182019050919050565b7f4e487b7100000000000000000000000000000000000000000000000000000000600052601260045260246000fd5b60006200075c826200041e565b915062000769836200041e565b9250826200077c576200077b62000720565b5b828206905092915050565b600062000794826200041e565b9150620007a1836200041e565b9250828201905080821115620007bc57620007bb62000659565b5b92915050565b613d4b80620007d26000396000f3fe6080604052600436106101405760003560e01c80636352211e116100b6578063a22cb4651161006f578063a22cb46514610493578063b88d4fde146104bc578063c3490263146104e5578063c87b56dd1461050e578063d70c6f4e1461054b578063e985e9c51461058857610140565b80636352211e1461034357806370a08231146103805780637e3d8803146103bd57806395d89b41146104025780639b4f589f1461042d5780639cf0a35b1461046a57610140565b806323b872dd1161010857806323b872dd14610258578063298ec208146102815780633b3546c81461029d5780633ccfd60b146102da57806342842e0e146102f15780635e0e512b1461031a57610140565b806301ffc9a71461014557806306fdde0314610182578063081812fc146101ad578063095ea7b3146101ea57806310ca253914610213575b600080fd5b34801561015157600080fd5b5061016c60048036038101906101679190612a08565b6105c5565b6040516101799190612a50565b60405180910390f35b34801561018e57600080fd5b506101976106a7565b6040516101a49190612afb565b60405180910390f35b3480156101b957600080fd5b506101d460048036038101906101cf9190612b53565b610739565b6040516101e19190612bc1565b60405180910390f35b3480156101f657600080fd5b50610211600480360381019061020c9190612c08565b61077f565b005b34801561021f57600080fd5b5061023a60048036038101906102359190612c08565b610896565b60405161024f99989796959493929190612c57565b60405180910390f35b34801561026457600080fd5b5061027f600480360381019061027a9190612ce4565b610911565b005b61029b60048036038101906102969190612d37565b610971565b005b3480156102a957600080fd5b506102c460048036038101906102bf9190612b53565b610e8f565b6040516102d19190612d77565b60405180910390f35b3480156102e657600080fd5b506102ef610ea7565b005b3480156102fd57600080fd5b5061031860048036038101906103139190612ce4565b610f68565b005b34801561032657600080fd5b50610341600480360381019061033c9190612d92565b610f88565b005b34801561034f57600080fd5b5061036a60048036038101906103659190612b53565b610f9a565b6040516103779190612bc1565b60405180910390f35b34801561038c57600080fd5b506103a760048036038101906103a29190612df9565b611020565b6040516103b49190612d77565b60405180910390f35b3480156103c957600080fd5b506103e460048036038101906103df9190612b53565b6110d7565b6040516103f999989796959493929190612c57565b60405180910390f35b34801561040e57600080fd5b50610417611155565b6040516104249190612afb565b60405180910390f35b34801561043957600080fd5b50610454600480360381019061044f9190612b53565b6111e7565b6040516104619190612d77565b60405180910390f35b34801561047657600080fd5b50610491600480360381019061048c9190612b53565b6111ff565b005b34801561049f57600080fd5b506104ba60048036038101906104b59190612e52565b6112ea565b005b3480156104c857600080fd5b506104e360048036038101906104de9190612fc7565b611300565b005b3480156104f157600080fd5b5061050c60048036038101906105079190612d37565b611362565b005b34801561051a57600080fd5b5061053560048036038101906105309190612b53565b611606565b6040516105429190612afb565b60405180910390f35b34801561055757600080fd5b50610572600480360381019061056d9190612d37565b61166e565b60405161057f9190612d77565b60405180910390f35b34801561059457600080fd5b506105af60048036038101906105aa919061304a565b611693565b6040516105bc9190612a50565b60405180910390f35b60007f80ac58cd000000000000000000000000000000000000000000000000000000007bffffffffffffffffffffffffffffffffffffffffffffffffffffffff1916827bffffffffffffffffffffffffffffffffffffffffffffffffffffffff1916148061069057507f5b5e139f000000000000000000000000000000000000000000000000000000007bffffffffffffffffffffffffffffffffffffffffffffffffffffffff1916827bffffffffffffffffffffffffffffffffffffffffffffffffffffffff1916145b806106a0575061069f82611727565b5b9050919050565b6060600080546106b6906130b9565b80601f01602080910402602001604051908101604052809291908181526020018280546106e2906130b9565b801561072f5780601f106107045761010080835404028352916020019161072f565b820191906000526020600020905b81548152906001019060200180831161071257829003601f168201915b5050505050905090565b600061074482611791565b6004600083815260200190815260200160002060009054906101000a900473ffffffffffffffffffffffffffffffffffffffff169050919050565b600061078a82610f9a565b90508073ffffffffffffffffffffffffffffffffffffffff168373ffffffffffffffffffffffffffffffffffffffff16036107fa576040517f08c379a00000000000000000000000000000000000000000000000000000000081526004016107f19061315c565b60405180910390fd5b8073ffffffffffffffffffffffffffffffffffffffff166108196117dc565b73ffffffffffffffffffffffffffffffffffffffff1614806108485750610847816108426117dc565b611693565b5b610887576040517f08c379a000000000000000000000000000000000000000000000000000000000815260040161087e906131ee565b60405180910390fd5b61089183836117e4565b505050565b6010602052816000526040600020602052806000526040600020600091509150508060000154908060010160009054906101000a900473ffffffffffffffffffffffffffffffffffffffff16908060020154908060030154908060040154908060050154908060060154908060070154908060080154905089565b61092261091c6117dc565b8261189d565b610961576040517f08c379a000000000000000000000000000000000000000000000000000000000815260040161095890613280565b60405180910390fd5b61096c838383611932565b505050565b61097961293a565b6009838154811061098d5761098c6132a0565b5b906000526020600020906009020160405180610120016040529081600082015481526020016001820160009054906101000a900473ffffffffffffffffffffffffffffffffffffffff1673ffffffffffffffffffffffffffffffffffffffff1673ffffffffffffffffffffffffffffffffffffffff1681526020016002820154815260200160038201548152602001600482015481526020016005820154815260200160068201548152602001600782015481526020016008820154815250509050818160800151610a5f91906132fe565b341015610ab45733828260800151610a7791906132fe565b6040517f96f756fd000000000000000000000000000000000000000000000000000000008152600401610aab929190613340565b60405180910390fd5b806101000151821180610aca5750806060015182115b15610b11578061010001516040517fcce3a419000000000000000000000000000000000000000000000000000000008152600401610b089190612d77565b60405180910390fd5b6000600190505b600183610b259190613369565b811015610d6057600060018360e0015164e8d4a510008560000151610b4a91906132fe565b610b549190613369565b610b5e9190613369565b905080600d6000600c54815260200190815260200160002081905550600c54600e60008381526020019081526020016000208190555082601060003373ffffffffffffffffffffffffffffffffffffffff1673ffffffffffffffffffffffffffffffffffffffff1681526020019081526020016000206000600f60003373ffffffffffffffffffffffffffffffffffffffff1673ffffffffffffffffffffffffffffffffffffffff1681526020019081526020016000205481526020019081526020016000206000820151816000015560208201518160010160006101000a81548173ffffffffffffffffffffffffffffffffffffffff021916908373ffffffffffffffffffffffffffffffffffffffff16021790555060408201518160020155606082015181600301556080820151816004015560a0820151816005015560c0820151816006015560e082015181600701556101008201518160080155905050610cc93382611c2b565b600f60003373ffffffffffffffffffffffffffffffffffffffff1673ffffffffffffffffffffffffffffffffffffffff1681526020019081526020016000206000815480929190610d199061339d565b9190505550600c6000815480929190610d319061339d565b91905055508260e0018051809190610d489061339d565b81525050508080610d589061339d565b915050610b18565b508060e001518160400151610d7591906133e5565b816101000181815250508060098481548110610d9457610d936132a0565b5b90600052602060002090600902016000820151816000015560208201518160010160006101000a81548173ffffffffffffffffffffffffffffffffffffffff021916908373ffffffffffffffffffffffffffffffffffffffff16021790555060408201518160020155606082015181600301556080820151816004015560a0820151816005015560c0820151816006015560e08201518160070155610100820151816008015590505060018160400151610e4e91906133e5565b42610e599190613448565b600b6000828254610e6a9190613369565b9250508190555080604001518160e0015103610e8a57610e8981611e48565b5b505050565b600d6020528060005260406000206000915090505481565b600660009054906101000a900473ffffffffffffffffffffffffffffffffffffffff1673ffffffffffffffffffffffffffffffffffffffff163373ffffffffffffffffffffffffffffffffffffffff1603610f6657600660009054906101000a900473ffffffffffffffffffffffffffffffffffffffff1673ffffffffffffffffffffffffffffffffffffffff166108fc479081150290604051600060405180830381858888f19350505050158015610f64573d6000803e3d6000fd5b505b565b610f8383838360405180602001604052806000815250611300565b505050565b610f9484848484612123565b50505050565b600080610fa6836122e0565b9050600073ffffffffffffffffffffffffffffffffffffffff168173ffffffffffffffffffffffffffffffffffffffff1603611017576040517f08c379a000000000000000000000000000000000000000000000000000000000815260040161100e906134c5565b60405180910390fd5b80915050919050565b60008073ffffffffffffffffffffffffffffffffffffffff168273ffffffffffffffffffffffffffffffffffffffff1603611090576040517f08c379a000000000000000000000000000000000000000000000000000000000815260040161108790613557565b60405180910390fd5b600360008373ffffffffffffffffffffffffffffffffffffffff1673ffffffffffffffffffffffffffffffffffffffff168152602001908152602001600020549050919050565b600981815481106110e757600080fd5b90600052602060002090600902016000915090508060000154908060010160009054906101000a900473ffffffffffffffffffffffffffffffffffffffff16908060020154908060030154908060040154908060050154908060060154908060070154908060080154905089565b606060018054611164906130b9565b80601f0160208091040260200160405190810160405280929190818152602001828054611190906130b9565b80156111dd5780601f106111b2576101008083540402835291602001916111dd565b820191906000526020600020905b8154815290600101906020018083116111c057829003601f168201915b5050505050905090565b600e6020528060005260406000206000915090505481565b61120761293a565b6009828154811061121b5761121a6132a0565b5b906000526020600020906009020160405180610120016040529081600082015481526020016001820160009054906101000a900473ffffffffffffffffffffffffffffffffffffffff1673ffffffffffffffffffffffffffffffffffffffff1673ffffffffffffffffffffffffffffffffffffffff16815260200160028201548152602001600382015481526020016004820154815260200160058201548152602001600682015481526020016007820154815260200160088201548152505090506112e681611e48565b5050565b6112fc6112f56117dc565b838361231d565b5050565b61131161130b6117dc565b8361189d565b611350576040517f08c379a000000000000000000000000000000000000000000000000000000000815260040161134790613280565b60405180910390fd5b61135c84848484612489565b50505050565b61136a61293a565b6009838154811061137e5761137d6132a0565b5b906000526020600020906009020160405180610120016040529081600082015481526020016001820160009054906101000a900473ffffffffffffffffffffffffffffffffffffffff1673ffffffffffffffffffffffffffffffffffffffff1673ffffffffffffffffffffffffffffffffffffffff168152602001600282015481526020016003820154815260200160048201548152602001600582015481526020016006820154815260200160078201548152602001600882015481525050905060005b8160a001518111611600578260116000868152602001908152602001600020600083815260200190815260200160002054036115ed577fc423adeec29086fe53c1d7f40a30acfe899aa8f676ff47b77b02885a74bbc512836114a485610f9a565b6040516114b29291906135c3565b60405180910390a16114c383610f9a565b73ffffffffffffffffffffffffffffffffffffffff163373ffffffffffffffffffffffffffffffffffffffff16036115ec57600060126000868152602001908152602001600020600083815260200190815260200160002060008581526020019081526020016000205490507fc423adeec29086fe53c1d7f40a30acfe899aa8f676ff47b77b02885a74bbc512813360405161156092919061364b565b60405180910390a160006012600087815260200190815260200160002060008481526020019081526020016000206000868152602001908152602001600020819055503373ffffffffffffffffffffffffffffffffffffffff166108fc829081150290604051600060405180830381858888f193505050501580156115e9573d6000803e3d6000fd5b50505b5b80806115f89061339d565b915050611443565b50505050565b606061161182611791565b600061161b6124e5565b9050600081511161163b5760405180602001604052806000815250611666565b8061164584612522565b6040516020016116569291906136c3565b6040516020818303038152906040525b915050919050565b6011602052816000526040600020602052806000526040600020600091509150505481565b6000600560008473ffffffffffffffffffffffffffffffffffffffff1673ffffffffffffffffffffffffffffffffffffffff16815260200190815260200160002060008373ffffffffffffffffffffffffffffffffffffffff1673ffffffffffffffffffffffffffffffffffffffff16815260200190815260200160002060009054906101000a900460ff16905092915050565b60007f01ffc9a7000000000000000000000000000000000000000000000000000000007bffffffffffffffffffffffffffffffffffffffffffffffffffffffff1916827bffffffffffffffffffffffffffffffffffffffffffffffffffffffff1916149050919050565b61179a816125f0565b6117d9576040517f08c379a00000000000000000000000000000000000000000000000000000000081526004016117d0906134c5565b60405180910390fd5b50565b600033905090565b816004600083815260200190815260200160002060006101000a81548173ffffffffffffffffffffffffffffffffffffffff021916908373ffffffffffffffffffffffffffffffffffffffff160217905550808273ffffffffffffffffffffffffffffffffffffffff1661185783610f9a565b73ffffffffffffffffffffffffffffffffffffffff167f8c5be1e5ebec7d5bd14f71427d1e84f3dd0314c0f7b2291e5b200ac8c7c3b92560405160405180910390a45050565b6000806118a983610f9a565b90508073ffffffffffffffffffffffffffffffffffffffff168473ffffffffffffffffffffffffffffffffffffffff1614806118eb57506118ea8185611693565b5b8061192957508373ffffffffffffffffffffffffffffffffffffffff1661191184610739565b73ffffffffffffffffffffffffffffffffffffffff16145b91505092915050565b8273ffffffffffffffffffffffffffffffffffffffff1661195282610f9a565b73ffffffffffffffffffffffffffffffffffffffff16146119a8576040517f08c379a000000000000000000000000000000000000000000000000000000000815260040161199f90613759565b60405180910390fd5b600073ffffffffffffffffffffffffffffffffffffffff168273ffffffffffffffffffffffffffffffffffffffff1603611a17576040517f08c379a0000000000000000000000000000000000000000000000000000000008152600401611a0e906137eb565b60405180910390fd5b611a248383836001612631565b8273ffffffffffffffffffffffffffffffffffffffff16611a4482610f9a565b73ffffffffffffffffffffffffffffffffffffffff1614611a9a576040517f08c379a0000000000000000000000000000000000000000000000000000000008152600401611a9190613759565b60405180910390fd5b6004600082815260200190815260200160002060006101000a81549073ffffffffffffffffffffffffffffffffffffffff02191690556001600360008573ffffffffffffffffffffffffffffffffffffffff1673ffffffffffffffffffffffffffffffffffffffff168152602001908152602001600020600082825403925050819055506001600360008473ffffffffffffffffffffffffffffffffffffffff1673ffffffffffffffffffffffffffffffffffffffff16815260200190815260200160002060008282540192505081905550816002600083815260200190815260200160002060006101000a81548173ffffffffffffffffffffffffffffffffffffffff021916908373ffffffffffffffffffffffffffffffffffffffff160217905550808273ffffffffffffffffffffffffffffffffffffffff168473ffffffffffffffffffffffffffffffffffffffff167fddf252ad1be2c89b69c2b068fc378daa952ba7f163c4a11628f55a4df523b3ef60405160405180910390a4611c268383836001612637565b505050565b600073ffffffffffffffffffffffffffffffffffffffff168273ffffffffffffffffffffffffffffffffffffffff1603611c9a576040517f08c379a0000000000000000000000000000000000000000000000000000000008152600401611c9190613857565b60405180910390fd5b611ca3816125f0565b15611ce3576040517f08c379a0000000000000000000000000000000000000000000000000000000008152600401611cda906138c3565b60405180910390fd5b611cf1600083836001612631565b611cfa816125f0565b15611d3a576040517f08c379a0000000000000000000000000000000000000000000000000000000008152600401611d31906138c3565b60405180910390fd5b6001600360008473ffffffffffffffffffffffffffffffffffffffff1673ffffffffffffffffffffffffffffffffffffffff16815260200190815260200160002060008282540192505081905550816002600083815260200190815260200160002060006101000a81548173ffffffffffffffffffffffffffffffffffffffff021916908373ffffffffffffffffffffffffffffffffffffffff160217905550808273ffffffffffffffffffffffffffffffffffffffff16600073ffffffffffffffffffffffffffffffffffffffff167fddf252ad1be2c89b69c2b068fc378daa952ba7f163c4a11628f55a4df523b3ef60405160405180910390a4611e44600083836001612637565b5050565b60008160e001518260400151611e5e91906133e5565b14611ea5578061010001516040517fcce3a419000000000000000000000000000000000000000000000000000000008152600401611e9c9190612d77565b60405180910390fd5b600081608001518260400151611ebb91906132fe565b90507fc423adeec29086fe53c1d7f40a30acfe899aa8f676ff47b77b02885a74bbc5128133604051611eee92919061392f565b60405180910390a160006007546103e8611f0891906133e5565b90506000816103e884611f1b919061396b565b611f2591906132fe565b905060008460a0015182611f39919061396b565b90506000600190505b8560a0015181116120ca577fc423adeec29086fe53c1d7f40a30acfe899aa8f676ff47b77b02885a74bbc5128233604051611f7e9291906139e8565b60405180910390a1600060018760400151611f9991906133e5565b600b54611fa69190613448565b6001611fb29190613369565b90507fc423adeec29086fe53c1d7f40a30acfe899aa8f676ff47b77b02885a74bbc5128133604051611fe5929190613a70565b60405180910390a160008164e8d4a51000896000015161200591906132fe565b61200f9190613369565b90507fc423adeec29086fe53c1d7f40a30acfe899aa8f676ff47b77b02885a74bbc5128133604051612042929190613af8565b60405180910390a180601160008a60000151815260200190815260200160002060008581526020019081526020016000208190555083601260008a6000015181526020019081526020016000206000858152602001908152602001600020600083815260200190815260200160002081905550505080806120c29061339d565b915050611f42565b508460400151600b548660a001516120e291906132fe565b42600b546120f091906132fe565b6120fa91906132fe565b6121049190613448565b600b60008282546121159190613369565b925050819055505050505050565b6000831115806121495750836002828561213d91906132fe565b61214791906132fe565b115b15612180576040517fdf469ccb00000000000000000000000000000000000000000000000000000000815260040160405180910390fd5b6009604051806101200160405280600a5481526020013373ffffffffffffffffffffffffffffffffffffffff168152602001868152602001858152602001848152602001838152602001428152602001600081526020018681525090806001815401808255809150506001900390600052602060002090600902016000909190919091506000820151816000015560208201518160010160006101000a81548173ffffffffffffffffffffffffffffffffffffffff021916908373ffffffffffffffffffffffffffffffffffffffff16021790555060408201518160020155606082015181600301556080820151816004015560a0820151816005015560c0820151816006015560e0820151816007015561010082015181600801555050600a60008154809291906122b19061339d565b919050555080426122c29190613448565b600b60008282546122d39190613369565b9250508190555050505050565b60006002600083815260200190815260200160002060009054906101000a900473ffffffffffffffffffffffffffffffffffffffff169050919050565b8173ffffffffffffffffffffffffffffffffffffffff168373ffffffffffffffffffffffffffffffffffffffff160361238b576040517f08c379a000000000000000000000000000000000000000000000000000000000815260040161238290613b80565b60405180910390fd5b80600560008573ffffffffffffffffffffffffffffffffffffffff1673ffffffffffffffffffffffffffffffffffffffff16815260200190815260200160002060008473ffffffffffffffffffffffffffffffffffffffff1673ffffffffffffffffffffffffffffffffffffffff16815260200190815260200160002060006101000a81548160ff0219169083151502179055508173ffffffffffffffffffffffffffffffffffffffff168373ffffffffffffffffffffffffffffffffffffffff167f17307eab39ab6107e8899845ad3d59bd9653f200f220920489ca2b5937696c318360405161247c9190612a50565b60405180910390a3505050565b612494848484611932565b6124a08484848461263d565b6124df576040517f08c379a00000000000000000000000000000000000000000000000000000000081526004016124d690613c12565b60405180910390fd5b50505050565b60606040518060400160405280600a81526020017f2e2f7572692e6a736f6e00000000000000000000000000000000000000000000815250905090565b606060006001612531846127c4565b01905060008167ffffffffffffffff8111156125505761254f612e9c565b5b6040519080825280601f01601f1916602001820160405280156125825781602001600182028036833780820191505090505b509050600082602001820190505b6001156125e5578080600190039150507f3031323334353637383961626364656600000000000000000000000000000000600a86061a8153600a85816125d9576125d8613419565b5b04945060008503612590575b819350505050919050565b60008073ffffffffffffffffffffffffffffffffffffffff16612612836122e0565b73ffffffffffffffffffffffffffffffffffffffff1614159050919050565b50505050565b50505050565b600061265e8473ffffffffffffffffffffffffffffffffffffffff16612917565b156127b7578373ffffffffffffffffffffffffffffffffffffffff1663150b7a026126876117dc565b8786866040518563ffffffff1660e01b81526004016126a99493929190613c87565b6020604051808303816000875af19250505080156126e557506040513d601f19601f820116820180604052508101906126e29190613ce8565b60015b612767573d8060008114612715576040519150601f19603f3d011682016040523d82523d6000602084013e61271a565b606091505b50600081510361275f576040517f08c379a000000000000000000000000000000000000000000000000000000000815260040161275690613c12565b60405180910390fd5b805181602001fd5b63150b7a0260e01b7bffffffffffffffffffffffffffffffffffffffffffffffffffffffff1916817bffffffffffffffffffffffffffffffffffffffffffffffffffffffff1916149150506127bc565b600190505b949350505050565b600080600090507a184f03e93ff9f4daa797ed6e38ed64bf6a1f0100000000000000008310612822577a184f03e93ff9f4daa797ed6e38ed64bf6a1f010000000000000000838161281857612817613419565b5b0492506040810190505b6d04ee2d6d415b85acef8100000000831061285f576d04ee2d6d415b85acef8100000000838161285557612854613419565b5b0492506020810190505b662386f26fc10000831061288e57662386f26fc10000838161288457612883613419565b5b0492506010810190505b6305f5e10083106128b7576305f5e10083816128ad576128ac613419565b5b0492506008810190505b61271083106128dc5761271083816128d2576128d1613419565b5b0492506004810190505b606483106128ff57606483816128f5576128f4613419565b5b0492506002810190505b600a831061290e576001810190505b80915050919050565b6000808273ffffffffffffffffffffffffffffffffffffffff163b119050919050565b60405180610120016040528060008152602001600073ffffffffffffffffffffffffffffffffffffffff168152602001600081526020016000815260200160008152602001600081526020016000815260200160008152602001600081525090565b6000604051905090565b600080fd5b600080fd5b60007fffffffff0000000000000000000000000000000000000000000000000000000082169050919050565b6129e5816129b0565b81146129f057600080fd5b50565b600081359050612a02816129dc565b92915050565b600060208284031215612a1e57612a1d6129a6565b5b6000612a2c848285016129f3565b91505092915050565b60008115159050919050565b612a4a81612a35565b82525050565b6000602082019050612a656000830184612a41565b92915050565b600081519050919050565b600082825260208201905092915050565b60005b83811015612aa5578082015181840152602081019050612a8a565b60008484015250505050565b6000601f19601f8301169050919050565b6000612acd82612a6b565b612ad78185612a76565b9350612ae7818560208601612a87565b612af081612ab1565b840191505092915050565b60006020820190508181036000830152612b158184612ac2565b905092915050565b6000819050919050565b612b3081612b1d565b8114612b3b57600080fd5b50565b600081359050612b4d81612b27565b92915050565b600060208284031215612b6957612b686129a6565b5b6000612b7784828501612b3e565b91505092915050565b600073ffffffffffffffffffffffffffffffffffffffff82169050919050565b6000612bab82612b80565b9050919050565b612bbb81612ba0565b82525050565b6000602082019050612bd66000830184612bb2565b92915050565b612be581612ba0565b8114612bf057600080fd5b50565b600081359050612c0281612bdc565b92915050565b60008060408385031215612c1f57612c1e6129a6565b5b6000612c2d85828601612bf3565b9250506020612c3e85828601612b3e565b9150509250929050565b612c5181612b1d565b82525050565b600061012082019050612c6d600083018c612c48565b612c7a602083018b612bb2565b612c87604083018a612c48565b612c946060830189612c48565b612ca16080830188612c48565b612cae60a0830187612c48565b612cbb60c0830186612c48565b612cc860e0830185612c48565b612cd6610100830184612c48565b9a9950505050505050505050565b600080600060608486031215612cfd57612cfc6129a6565b5b6000612d0b86828701612bf3565b9350506020612d1c86828701612bf3565b9250506040612d2d86828701612b3e565b9150509250925092565b60008060408385031215612d4e57612d4d6129a6565b5b6000612d5c85828601612b3e565b9250506020612d6d85828601612b3e565b9150509250929050565b6000602082019050612d8c6000830184612c48565b92915050565b60008060008060808587031215612dac57612dab6129a6565b5b6000612dba87828801612b3e565b9450506020612dcb87828801612b3e565b9350506040612ddc87828801612b3e565b9250506060612ded87828801612b3e565b91505092959194509250565b600060208284031215612e0f57612e0e6129a6565b5b6000612e1d84828501612bf3565b91505092915050565b612e2f81612a35565b8114612e3a57600080fd5b50565b600081359050612e4c81612e26565b92915050565b60008060408385031215612e6957612e686129a6565b5b6000612e7785828601612bf3565b9250506020612e8885828601612e3d565b9150509250929050565b600080fd5b600080fd5b7f4e487b7100000000000000000000000000000000000000000000000000000000600052604160045260246000fd5b612ed482612ab1565b810181811067ffffffffffffffff82111715612ef357612ef2612e9c565b5b80604052505050565b6000612f0661299c565b9050612f128282612ecb565b919050565b600067ffffffffffffffff821115612f3257612f31612e9c565b5b612f3b82612ab1565b9050602081019050919050565b82818337600083830152505050565b6000612f6a612f6584612f17565b612efc565b905082815260208101848484011115612f8657612f85612e97565b5b612f91848285612f48565b509392505050565b600082601f830112612fae57612fad612e92565b5b8135612fbe848260208601612f57565b91505092915050565b60008060008060808587031215612fe157612fe06129a6565b5b6000612fef87828801612bf3565b945050602061300087828801612bf3565b935050604061301187828801612b3e565b925050606085013567ffffffffffffffff811115613032576130316129ab565b5b61303e87828801612f99565b91505092959194509250565b60008060408385031215613061576130606129a6565b5b600061306f85828601612bf3565b925050602061308085828601612bf3565b9150509250929050565b7f4e487b7100000000000000000000000000000000000000000000000000000000600052602260045260246000fd5b600060028204905060018216806130d157607f821691505b6020821081036130e4576130e361308a565b5b50919050565b7f4552433732313a20617070726f76616c20746f2063757272656e74206f776e6560008201527f7200000000000000000000000000000000000000000000000000000000000000602082015250565b6000613146602183612a76565b9150613151826130ea565b604082019050919050565b6000602082019050818103600083015261317581613139565b9050919050565b7f4552433732313a20617070726f76652063616c6c6572206973206e6f7420746f60008201527f6b656e206f776e6572206f7220617070726f76656420666f7220616c6c000000602082015250565b60006131d8603d83612a76565b91506131e38261317c565b604082019050919050565b60006020820190508181036000830152613207816131cb565b9050919050565b7f4552433732313a2063616c6c6572206973206e6f7420746f6b656e206f776e6560008201527f72206f7220617070726f76656400000000000000000000000000000000000000602082015250565b600061326a602d83612a76565b91506132758261320e565b604082019050919050565b600060208201905081810360008301526132998161325d565b9050919050565b7f4e487b7100000000000000000000000000000000000000000000000000000000600052603260045260246000fd5b7f4e487b7100000000000000000000000000000000000000000000000000000000600052601160045260246000fd5b600061330982612b1d565b915061331483612b1d565b925082820261332281612b1d565b91508282048414831517613339576133386132cf565b5b5092915050565b60006040820190506133556000830185612bb2565b6133626020830184612c48565b9392505050565b600061337482612b1d565b915061337f83612b1d565b9250828201905080821115613397576133966132cf565b5b92915050565b60006133a882612b1d565b91507fffffffffffffffffffffffffffffffffffffffffffffffffffffffffffffffff82036133da576133d96132cf565b5b600182019050919050565b60006133f082612b1d565b91506133fb83612b1d565b9250828203905081811115613413576134126132cf565b5b92915050565b7f4e487b7100000000000000000000000000000000000000000000000000000000600052601260045260246000fd5b600061345382612b1d565b915061345e83612b1d565b92508261346e5761346d613419565b5b828206905092915050565b7f4552433732313a20696e76616c696420746f6b656e2049440000000000000000600082015250565b60006134af601883612a76565b91506134ba82613479565b602082019050919050565b600060208201905081810360008301526134de816134a2565b9050919050565b7f4552433732313a2061646472657373207a65726f206973206e6f74206120766160008201527f6c6964206f776e65720000000000000000000000000000000000000000000000602082015250565b6000613541602983612a76565b915061354c826134e5565b604082019050919050565b6000602082019050818103600083015261357081613534565b9050919050565b7f6964000000000000000000000000000000000000000000000000000000000000600082015250565b60006135ad600283612a76565b91506135b882613577565b602082019050919050565b60006060820190506135d86000830185612c48565b81810360208301526135e9816135a0565b90506135f86040830184612bb2565b9392505050565b7f7072697a65000000000000000000000000000000000000000000000000000000600082015250565b6000613635600583612a76565b9150613640826135ff565b602082019050919050565b60006060820190506136606000830185612c48565b818103602083015261367181613628565b90506136806040830184612bb2565b9392505050565b600081905092915050565b600061369d82612a6b565b6136a78185613687565b93506136b7818560208601612a87565b80840191505092915050565b60006136cf8285613692565b91506136db8284613692565b91508190509392505050565b7f4552433732313a207472616e736665722066726f6d20696e636f72726563742060008201527f6f776e6572000000000000000000000000000000000000000000000000000000602082015250565b6000613743602583612a76565b915061374e826136e7565b604082019050919050565b6000602082019050818103600083015261377281613736565b9050919050565b7f4552433732313a207472616e7366657220746f20746865207a65726f2061646460008201527f7265737300000000000000000000000000000000000000000000000000000000602082015250565b60006137d5602483612a76565b91506137e082613779565b604082019050919050565b60006020820190508181036000830152613804816137c8565b9050919050565b7f4552433732313a206d696e7420746f20746865207a65726f2061646472657373600082015250565b6000613841602083612a76565b915061384c8261380b565b602082019050919050565b6000602082019050818103600083015261387081613834565b9050919050565b7f4552433732313a20746f6b656e20616c7265616479206d696e74656400000000600082015250565b60006138ad601c83612a76565b91506138b882613877565b602082019050919050565b600060208201905081810360008301526138dc816138a0565b9050919050565b7f6c6f74746572792077696e000000000000000000000000000000000000000000600082015250565b6000613919600b83612a76565b9150613924826138e3565b602082019050919050565b60006060820190506139446000830185612c48565b81810360208301526139558161390c565b90506139646040830184612bb2565b9392505050565b600061397682612b1d565b915061398183612b1d565b92508261399157613990613419565b5b828204905092915050565b7f6c6f74746572792077696e207061727400000000000000000000000000000000600082015250565b60006139d2601083612a76565b91506139dd8261399c565b602082019050919050565b60006060820190506139fd6000830185612c48565b8181036020830152613a0e816139c5565b9050613a1d6040830184612bb2565b9392505050565b7f6c6f747465727920726573756c74000000000000000000000000000000000000600082015250565b6000613a5a600e83612a76565b9150613a6582613a24565b602082019050919050565b6000606082019050613a856000830185612c48565b8181036020830152613a9681613a4d565b9050613aa56040830184612bb2565b9392505050565b7f6c6f747465727920636f6d626f00000000000000000000000000000000000000600082015250565b6000613ae2600d83612a76565b9150613aed82613aac565b602082019050919050565b6000606082019050613b0d6000830185612c48565b8181036020830152613b1e81613ad5565b9050613b2d6040830184612bb2565b9392505050565b7f4552433732313a20617070726f766520746f2063616c6c657200000000000000600082015250565b6000613b6a601983612a76565b9150613b7582613b34565b602082019050919050565b60006020820190508181036000830152613b9981613b5d565b9050919050565b7f4552433732313a207472616e7366657220746f206e6f6e20455243373231526560008201527f63656976657220696d706c656d656e7465720000000000000000000000000000602082015250565b6000613bfc603283612a76565b9150613c0782613ba0565b604082019050919050565b60006020820190508181036000830152613c2b81613bef565b9050919050565b600081519050919050565b600082825260208201905092915050565b6000613c5982613c32565b613c638185613c3d565b9350613c73818560208601612a87565b613c7c81612ab1565b840191505092915050565b6000608082019050613c9c6000830187612bb2565b613ca96020830186612bb2565b613cb66040830185612c48565b8181036060830152613cc88184613c4e565b905095945050505050565b600081519050613ce2816129dc565b92915050565b600060208284031215613cfe57613cfd6129a6565b5b6000613d0c84828501613cd3565b9150509291505056fea264697066735822122004c15d72a6744ec1537d5bce9baa9cfc28d967cc32fa656b0beac4399bd20e0164736f6c63430008110033",
  "immutableReferences": {},
  "source": "// SPDX-License-Identifier: MIT\n\npragma solidity >=0.8.2 <0.9.0;\n\nimport \"@openzeppelin/contracts/token/ERC721/ERC721.sol\";\n\nerror LowFunds(address adr, uint256 balance);\nerror NotAdmin(address adr);\nerror GameOver();\nerror Yourself(address adr);\nerror Check(uint256 num);\n\ncontract standards {\n    address private admin;\n\n    constructor() {\n        admin = msg.sender;\n    }\n\n    function withdraw() external {\n        if (msg.sender == admin) {\n            payable(admin).transfer(address(this).balance);\n        }\n    }\n}\n\ncontract LOTTERY_BAKER is ERC721, standards {\n    event Log(uint256 cs, string txt, address usr);\n    uint256 fee;\n    uint256 min;\n    struct Lottery {\n        uint256 id;\n        address owner;\n        uint256 tickets;\n        uint256 max;\n        uint256 price;\n        uint256 winning;\n        uint256 timestamp;\n        uint256 sold;\n        uint256 status;\n    }\n    Lottery[] public lotterys;\n    uint256 l;\n    uint256 rand;\n    uint256 t;\n    mapping(uint256 => uint256) public count;\n    mapping(uint256 => uint256) public dias;\n    mapping(address => uint256) myTickets;\n    mapping(address => mapping(uint256 => Lottery)) public myTicket;\n    mapping(uint256 => mapping(uint256 => uint256)) public results;\n    mapping(uint256 => mapping(uint256 => mapping(uint256 => uint256))) claims;\n\n    constructor() ERC721(\"Gamble360 Lottery Ticket\", \"gLOTTO\") {\n        fee = 25;\n        min = 1 * 10**15;\n        l = 0;\n        t = 1;\n        _makeLottery(3, 1, 10000000000000000, 1);\n    }\n\n    function makeLottery(\n        uint256 _tick,\n        uint256 _max,\n        uint256 _price,\n        uint256 _win\n    ) external {\n        _makeLottery(_tick, _max, _price, _win);\n    }\n\n    function _makeLottery(\n        uint256 _tick,\n        uint256 _max,\n        uint256 _price,\n        uint256 _win\n    ) internal {\n        if (_max <= 0 || _max * _win * 2 > _tick) revert GameOver();\n        // uint total = _tick * _price;\n        // if(total / _tick < min) revert GameOver();\n        lotterys.push(\n            Lottery(\n                l,\n                msg.sender,\n                _tick,\n                _max,\n                _price,\n                _win,\n                block.timestamp,\n                0,\n                _tick\n            )\n        );\n        l++;\n        rand += block.timestamp % _win;\n    }\n\n    function _baseURI() internal view virtual override returns (string memory) {\n        return \"./uri.json\";\n    }\n\n    // 10000000000000000000\n    function buyTicket(uint256 _id, uint256 _amount) external payable {\n        Lottery memory lottery;\n        lottery = lotterys[_id];\n        if (msg.value < lottery.price * _amount)\n            revert LowFunds(msg.sender, lottery.price * _amount);\n        if (_amount > lottery.status || _amount > lottery.max)\n            revert Check(lottery.status);\n        for (uint256 i = 1; i < _amount + 1; i++) {\n            uint256 tid = (lottery.id * 10**12) + lottery.sold + 1;\n            count[t] = tid;\n            dias[tid] = t;\n            myTicket[msg.sender][myTickets[msg.sender]] = lottery;\n            _mint(msg.sender, tid);\n            myTickets[msg.sender]++;\n            t++;\n            lottery.sold++;\n        }\n        lottery.status = lottery.tickets - lottery.sold;\n        lotterys[_id] = lottery;\n        rand += block.timestamp % (lottery.tickets - 1);\n        if (lottery.sold == lottery.tickets) _playLottery(lottery);\n    }\n\n    function rollLottery(uint256 _id) external {\n        Lottery memory lottery;\n        lottery = lotterys[_id];\n        _playLottery(lottery);\n    }\n\n    function _playLottery(Lottery memory lottery) internal {\n        if (lottery.tickets - lottery.sold != 0) revert Check(lottery.status);\n        uint256 win = lottery.tickets * lottery.price;\n        emit Log(win, \"lottery win\", msg.sender);\n        uint256 permil = 1000 - fee;\n        uint256 winsub = (win / 1000) * permil;\n        uint256 winpart = winsub / lottery.winning;\n        for (uint256 i = 1; i <= lottery.winning; i++) {\n            // 1 000 000 000 000\n            // 2 925 000 000 000\n            emit Log(winpart, \"lottery win part\", msg.sender);\n            uint256 r = 1 + ((rand) % (lottery.tickets - 1));\n            emit Log(r, \"lottery result\", msg.sender);\n            uint256 res = (lottery.id * 10**12) + r;\n            emit Log(res, \"lottery combo\", msg.sender);\n            results[lottery.id][i] = res;\n            claims[lottery.id][i][res] = winpart;\n        }\n        rand +=\n            ((rand * block.timestamp) * (lottery.winning * rand)) %\n            lottery.tickets;\n    }\n\n    function claim(uint256 _lid, uint256 _res) external {\n        Lottery memory lottery;\n        lottery = lotterys[_lid];\n        for (uint256 i; i <= lottery.winning; i++) {\n            if (results[_lid][i] == _res) {\n                emit Log(_res, \"id\", ownerOf(_res));\n                if (msg.sender == ownerOf(_res)) {\n                    uint256 win = claims[_lid][i][_res];\n                    emit Log(win, \"prize\", msg.sender);\n                    claims[_lid][i][_res] = 0;\n                    payable(msg.sender).transfer(win);\n                }\n            }\n        }\n    }\n}\n",
  "sourcePath": "/Users/iii6/Documents/GitHub/Gamble360/contracts/gamble360/LOTTERY.sol",
  "compiler": {
    "name": "solc",
    "version": "0.8.17+commit.8df45f5f.Emscripten.clang"
  },
  "schemaVersion": "3.4.8",
  "updatedAt": "2023-04-02T17:18:59.456Z",
  "devdoc": {
    "kind": "dev",
    "methods": {
      "approve(address,uint256)": {
        "details": "See {IERC721-approve}."
      },
      "balanceOf(address)": {
        "details": "See {IERC721-balanceOf}."
      },
      "getApproved(uint256)": {
        "details": "See {IERC721-getApproved}."
      },
      "isApprovedForAll(address,address)": {
        "details": "See {IERC721-isApprovedForAll}."
      },
      "name()": {
        "details": "See {IERC721Metadata-name}."
      },
      "ownerOf(uint256)": {
        "details": "See {IERC721-ownerOf}."
      },
      "safeTransferFrom(address,address,uint256)": {
        "details": "See {IERC721-safeTransferFrom}."
      },
      "safeTransferFrom(address,address,uint256,bytes)": {
        "details": "See {IERC721-safeTransferFrom}."
      },
      "setApprovalForAll(address,bool)": {
        "details": "See {IERC721-setApprovalForAll}."
      },
      "supportsInterface(bytes4)": {
        "details": "See {IERC165-supportsInterface}."
      },
      "symbol()": {
        "details": "See {IERC721Metadata-symbol}."
      },
      "tokenURI(uint256)": {
        "details": "See {IERC721Metadata-tokenURI}."
      },
      "transferFrom(address,address,uint256)": {
        "details": "See {IERC721-transferFrom}."
      }
    },
    "version": 1
  },
  "userdoc": {
    "kind": "user",
    "methods": {},
    "version": 1
  }
}