{
  "contractName": "ROCK_PAPER_SCISSORS",
  "abi": [
    {
      "inputs": [],
      "stateMutability": "nonpayable",
      "type": "constructor"
    },
    {
      "inputs": [],
      "name": "GameOver",
      "type": "error"
    },
    {
      "inputs": [
        {
          "internalType": "address",
          "name": "adr",
          "type": "address"
        },
        {
          "internalType": "uint256",
          "name": "balance",
          "type": "uint256"
        }
      ],
      "name": "LowFunds",
      "type": "error"
    },
    {
      "inputs": [
        {
          "internalType": "address",
          "name": "adr",
          "type": "address"
        }
      ],
      "name": "Yourself",
      "type": "error"
    },
    {
      "anonymous": false,
      "inputs": [
        {
          "indexed": false,
          "internalType": "uint256",
          "name": "cs",
          "type": "uint256"
        },
        {
          "indexed": false,
          "internalType": "address",
          "name": "from",
          "type": "address"
        },
        {
          "indexed": false,
          "internalType": "uint256",
          "name": "time",
          "type": "uint256"
        }
      ],
      "name": "Log",
      "type": "event"
    },
    {
      "inputs": [],
      "name": "g",
      "outputs": [
        {
          "internalType": "uint256",
          "name": "",
          "type": "uint256"
        }
      ],
      "stateMutability": "view",
      "type": "function",
      "constant": true
    },
    {
      "inputs": [
        {
          "internalType": "uint256",
          "name": "",
          "type": "uint256"
        }
      ],
      "name": "games",
      "outputs": [
        {
          "internalType": "uint256",
          "name": "id",
          "type": "uint256"
        },
        {
          "internalType": "uint256",
          "name": "value",
          "type": "uint256"
        },
        {
          "internalType": "address payable",
          "name": "owner",
          "type": "address"
        },
        {
          "internalType": "uint256",
          "name": "t0",
          "type": "uint256"
        },
        {
          "internalType": "uint256",
          "name": "c0",
          "type": "uint256"
        },
        {
          "internalType": "address payable",
          "name": "opponent",
          "type": "address"
        },
        {
          "internalType": "uint256",
          "name": "t1",
          "type": "uint256"
        },
        {
          "internalType": "uint256",
          "name": "c1",
          "type": "uint256"
        },
        {
          "internalType": "uint256",
          "name": "state",
          "type": "uint256"
        },
        {
          "internalType": "uint256",
          "name": "result",
          "type": "uint256"
        }
      ],
      "stateMutability": "view",
      "type": "function",
      "constant": true
    },
    {
      "inputs": [
        {
          "internalType": "address",
          "name": "",
          "type": "address"
        },
        {
          "internalType": "uint256",
          "name": "",
          "type": "uint256"
        }
      ],
      "name": "myGame",
      "outputs": [
        {
          "internalType": "uint256",
          "name": "id",
          "type": "uint256"
        },
        {
          "internalType": "uint256",
          "name": "value",
          "type": "uint256"
        },
        {
          "internalType": "address payable",
          "name": "owner",
          "type": "address"
        },
        {
          "internalType": "uint256",
          "name": "t0",
          "type": "uint256"
        },
        {
          "internalType": "uint256",
          "name": "c0",
          "type": "uint256"
        },
        {
          "internalType": "address payable",
          "name": "opponent",
          "type": "address"
        },
        {
          "internalType": "uint256",
          "name": "t1",
          "type": "uint256"
        },
        {
          "internalType": "uint256",
          "name": "c1",
          "type": "uint256"
        },
        {
          "internalType": "uint256",
          "name": "state",
          "type": "uint256"
        },
        {
          "internalType": "uint256",
          "name": "result",
          "type": "uint256"
        }
      ],
      "stateMutability": "view",
      "type": "function",
      "constant": true
    },
    {
      "inputs": [],
      "name": "withdraw",
      "outputs": [],
      "stateMutability": "nonpayable",
      "type": "function"
    },
    {
      "inputs": [
        {
          "internalType": "uint256",
          "name": "_choice",
          "type": "uint256"
        }
      ],
      "name": "setGame",
      "outputs": [],
      "stateMutability": "payable",
      "type": "function",
      "payable": true
    },
    {
      "inputs": [
        {
          "internalType": "uint256",
          "name": "_game",
          "type": "uint256"
        },
        {
          "internalType": "uint256",
          "name": "_choice",
          "type": "uint256"
        }
      ],
      "name": "joinGame",
      "outputs": [],
      "stateMutability": "payable",
      "type": "function",
      "payable": true
    }
  ],
  "bytecode": "0x60806040523480156200001157600080fd5b50336000806101000a81548173ffffffffffffffffffffffffffffffffffffffff021916908373ffffffffffffffffffffffffffffffffffffffff160217905550600942620000619190620000d2565b60016200006f919062000139565b600381905550601960018190555066038d7ea4c68000600281905550600160048190555062000174565b6000819050919050565b7f4e487b7100000000000000000000000000000000000000000000000000000000600052601260045260246000fd5b6000620000df8262000099565b9150620000ec8362000099565b925082620000ff57620000fe620000a3565b5b828206905092915050565b7f4e487b7100000000000000000000000000000000000000000000000000000000600052601160045260246000fd5b6000620001468262000099565b9150620001538362000099565b92508282019050808211156200016e576200016d6200010a565b5b92915050565b611f2c80620001846000396000f3fe6080604052600436106100555760003560e01c8063117a5b901461005a57806311edb398146100a05780633ccfd60b146100bc578063725c62cd146100d3578063b60b9fcb14610119578063e2179b8e14610135575b600080fd5b34801561006657600080fd5b50610081600480360381019061007c91906116c5565b610160565b6040516100979a99989796959493929190611742565b60405180910390f35b6100ba60048036038101906100b591906116c5565b6101f4565b005b3480156100c857600080fd5b506100d16107c8565b005b3480156100df57600080fd5b506100fa60048036038101906100f5919061181c565b610885565b6040516101109a99989796959493929190611742565b60405180910390f35b610133600480360381019061012e919061185c565b610926565b005b34801561014157600080fd5b5061014a610b56565b604051610157919061189c565b60405180910390f35b60076020528060005260406000206000915090508060000154908060010154908060020160009054906101000a900473ffffffffffffffffffffffffffffffffffffffff16908060030154908060040154908060050160009054906101000a900473ffffffffffffffffffffffffffffffffffffffff1690806006015490806007015490806008015490806009015490508a565b600254341161023e57336002546040517f96f756fd0000000000000000000000000000000000000000000000000000000081526004016102359291906118c6565b60405180910390fd5b60008061024b3484610b5c565b915091508115610384576000600760008381526020019081526020016000206040518061014001604052908160008201548152602001600182015481526020016002820160009054906101000a900473ffffffffffffffffffffffffffffffffffffffff1673ffffffffffffffffffffffffffffffffffffffff1673ffffffffffffffffffffffffffffffffffffffff16815260200160038201548152602001600482015481526020016005820160009054906101000a900473ffffffffffffffffffffffffffffffffffffffff1673ffffffffffffffffffffffffffffffffffffffff1673ffffffffffffffffffffffffffffffffffffffff168152602001600682015481526020016007820154815260200160088201548152602001600982015481525050905061037e8185610c7c565b506107c3565b60004290508084610395919061191e565b6040516020016103a59190611973565b60405160208183030381529060405260056000600654815260200190815260200160002090816103d59190611bd4565b5060405180610140016040528060045481526020013481526020013373ffffffffffffffffffffffffffffffffffffffff1681526020018281526020016006548152602001600073ffffffffffffffffffffffffffffffffffffffff1681526020016000815260200160008152602001600181526020016000815250600760006004548152602001908152602001600020600082015181600001556020820151816001015560408201518160020160006101000a81548173ffffffffffffffffffffffffffffffffffffffff021916908373ffffffffffffffffffffffffffffffffffffffff160217905550606082015181600301556080820151816004015560a08201518160050160006101000a81548173ffffffffffffffffffffffffffffffffffffffff021916908373ffffffffffffffffffffffffffffffffffffffff16021790555060c0820151816006015560e0820151816007015561010082015181600801556101208201518160090155905050600760006004548152602001908152602001600020600960003373ffffffffffffffffffffffffffffffffffffffff1673ffffffffffffffffffffffffffffffffffffffff1681526020019081526020016000206000600860003373ffffffffffffffffffffffffffffffffffffffff1673ffffffffffffffffffffffffffffffffffffffff16815260200190815260200160002054815260200190815260200160002060008201548160000155600182015481600101556002820160009054906101000a900473ffffffffffffffffffffffffffffffffffffffff168160020160006101000a81548173ffffffffffffffffffffffffffffffffffffffff021916908373ffffffffffffffffffffffffffffffffffffffff16021790555060038201548160030155600482015481600401556005820160009054906101000a900473ffffffffffffffffffffffffffffffffffffffff168160050160006101000a81548173ffffffffffffffffffffffffffffffffffffffff021916908373ffffffffffffffffffffffffffffffffffffffff16021790555060068201548160060155600782015481600701556008820154816008015560098201548160090155905050600860003373ffffffffffffffffffffffffffffffffffffffff1673ffffffffffffffffffffffffffffffffffffffff168152602001908152602001600020600081548092919061075e90611ca6565b91905055506000600a6000600454815260200190815260200160002060006101000a81548160ff021916908315150217905550600460008154809291906107a490611ca6565b9190505550600660008154809291906107bc90611ca6565b9190505550505b505050565b60008054906101000a900473ffffffffffffffffffffffffffffffffffffffff1673ffffffffffffffffffffffffffffffffffffffff163373ffffffffffffffffffffffffffffffffffffffff16036108835760008054906101000a900473ffffffffffffffffffffffffffffffffffffffff1673ffffffffffffffffffffffffffffffffffffffff166108fc479081150290604051600060405180830381858888f19350505050158015610881573d6000803e3d6000fd5b505b565b6009602052816000526040600020602052806000526040600020600091509150508060000154908060010154908060020160009054906101000a900473ffffffffffffffffffffffffffffffffffffffff16908060030154908060040154908060050160009054906101000a900473ffffffffffffffffffffffffffffffffffffffff1690806006015490806007015490806008015490806009015490508a565b6000600760008481526020019081526020016000206040518061014001604052908160008201548152602001600182015481526020016002820160009054906101000a900473ffffffffffffffffffffffffffffffffffffffff1673ffffffffffffffffffffffffffffffffffffffff1673ffffffffffffffffffffffffffffffffffffffff16815260200160038201548152602001600482015481526020016005820160009054906101000a900473ffffffffffffffffffffffffffffffffffffffff1673ffffffffffffffffffffffffffffffffffffffff1673ffffffffffffffffffffffffffffffffffffffff16815260200160068201548152602001600782015481526020016008820154815260200160098201548152505090508060200151341015610a94573381602001516040517f96f756fd000000000000000000000000000000000000000000000000000000008152600401610a8b9291906118c6565b60405180910390fd5b600181610100015114610ad3576040517fdf469ccb00000000000000000000000000000000000000000000000000000000815260040160405180910390fd5b806040015173ffffffffffffffffffffffffffffffffffffffff163373ffffffffffffffffffffffffffffffffffffffff1603610b4757336040517f633df725000000000000000000000000000000000000000000000000000000008152600401610b3e9190611cee565b60405180910390fd5b610b518183610c7c565b505050565b60045481565b60008060005b600454811015610c7457846007600083815260200190815260200160002060010154148015610bf357503373ffffffffffffffffffffffffffffffffffffffff166007600083815260200190815260200160002060020160009054906101000a900473ffffffffffffffffffffffffffffffffffffffff1673ffffffffffffffffffffffffffffffffffffffff1614155b8015610c15575083600760008381526020019081526020016000206004015414155b8015610c37575060016007600083815260200190815260200160002060080154145b15610c58576001925080915060045481610c51919061191e565b9050610c61565b60009250600091505b8080610c6c90611ca6565b915050610b62565b509250929050565b6001826101000151141580610c975750600454826000015110155b15610cce576040517fdf469ccb00000000000000000000000000000000000000000000000000000000815260040160405180910390fd5b338260a0019073ffffffffffffffffffffffffffffffffffffffff16908173ffffffffffffffffffffffffffffffffffffffff1681525050808260e0018181525050428260c0018181525050600282610100018181525050816007600084600001518152602001908152602001600020600082015181600001556020820151816001015560408201518160020160006101000a81548173ffffffffffffffffffffffffffffffffffffffff021916908373ffffffffffffffffffffffffffffffffffffffff160217905550606082015181600301556080820151816004015560a08201518160050160006101000a81548173ffffffffffffffffffffffffffffffffffffffff021916908373ffffffffffffffffffffffffffffffffffffffff16021790555060c0820151816006015560e082015181600701556101008201518160080155610120820151816009015590505081600960003373ffffffffffffffffffffffffffffffffffffffff1673ffffffffffffffffffffffffffffffffffffffff1681526020019081526020016000206000600860003373ffffffffffffffffffffffffffffffffffffffff1673ffffffffffffffffffffffffffffffffffffffff168152602001908152602001600020548152602001908152602001600020600082015181600001556020820151816001015560408201518160020160006101000a81548173ffffffffffffffffffffffffffffffffffffffff021916908373ffffffffffffffffffffffffffffffffffffffff160217905550606082015181600301556080820151816004015560a08201518160050160006101000a81548173ffffffffffffffffffffffffffffffffffffffff021916908373ffffffffffffffffffffffffffffffffffffffff16021790555060c0820151816006015560e0820151816007015561010082015181600801556101208201518160090155905050600860003373ffffffffffffffffffffffffffffffffffffffff1673ffffffffffffffffffffffffffffffffffffffff1681526020019081526020016000206000815480929190610fe490611ca6565b919050555060006001546103e8610ffb9190611d09565b6103e86002856020015161100f9190611d3d565b6110199190611dae565b6110239190611d3d565b9050600383610100018181525050600083606001516001611044919061191e565b6040516020016110549190611973565b6040516020818303038152906040526040516020016110739190611e45565b6040516020818303038152906040528051906020012060056000866080015181526020019081526020016000206040516020016110b09190611edf565b60405160208183030381529060405280519060200120036110d057600190505b836060015160026110e1919061191e565b6040516020016110f19190611973565b6040516020818303038152906040526040516020016111109190611e45565b60405160208183030381529060405280519060200120600560008660800151815260200190815260200160002060405160200161114d9190611edf565b604051602081830303815290604052805190602001200361116d57600290505b8360600151600361117e919061191e565b60405160200161118e9190611973565b6040516020818303038152906040526040516020016111ad9190611e45565b6040516020818303038152906040528051906020012060056000866080015181526020019081526020016000206040516020016111ea9190611edf565b604051602081830303815290604052805190602001200361120a57600390505b80846080018181525050836007600086600001518152602001908152602001600020600082015181600001556020820151816001015560408201518160020160006101000a81548173ffffffffffffffffffffffffffffffffffffffff021916908373ffffffffffffffffffffffffffffffffffffffff160217905550606082015181600301556080820151816004015560a08201518160050160006101000a81548173ffffffffffffffffffffffffffffffffffffffff021916908373ffffffffffffffffffffffffffffffffffffffff16021790555060c0820151816006015560e08201518160070155610100820151816008015561012082015181600901559050506001600a60008660000151815260200190815260200160002060006101000a81548160ff0219169083151502179055508360e001518103611357576000846101200181815250505b60018114801561136b575060028460e00151145b806113865750600281148015611385575060038460e00151145b5b806113a157506003811480156113a0575060018460e00151145b5b156113b3576002846101200181815250505b60018460e001511480156113c75750600281145b806113e2575060028460e001511480156113e15750600381145b5b806113fd575060038460e001511480156113fc5750600181145b5b1561140f576001846101200181815250505b600384610100018181525050836007600086600001518152602001908152602001600020600082015181600001556020820151816001015560408201518160020160006101000a81548173ffffffffffffffffffffffffffffffffffffffff021916908373ffffffffffffffffffffffffffffffffffffffff160217905550606082015181600301556080820151816004015560a08201518160050160006101000a81548173ffffffffffffffffffffffffffffffffffffffff021916908373ffffffffffffffffffffffffffffffffffffffff16021790555060c0820151816006015560e08201518160070155610100820151816008015561012082015181600901559050506000846101200151036115d257836040015173ffffffffffffffffffffffffffffffffffffffff166108fc60028461154e9190611dae565b9081150290604051600060405180830381858888f19350505050158015611579573d6000803e3d6000fd5b508360a0015173ffffffffffffffffffffffffffffffffffffffff166108fc6002846115a59190611dae565b9081150290604051600060405180830381858888f193505050501580156115d0573d6000803e3d6000fd5b505b60018461012001510361162b57836040015173ffffffffffffffffffffffffffffffffffffffff166108fc839081150290604051600060405180830381858888f19350505050158015611629573d6000803e3d6000fd5b505b600284610120015103611684578360a0015173ffffffffffffffffffffffffffffffffffffffff166108fc839081150290604051600060405180830381858888f19350505050158015611682573d6000803e3d6000fd5b505b50505050565b600080fd5b6000819050919050565b6116a28161168f565b81146116ad57600080fd5b50565b6000813590506116bf81611699565b92915050565b6000602082840312156116db576116da61168a565b5b60006116e9848285016116b0565b91505092915050565b6116fb8161168f565b82525050565b600073ffffffffffffffffffffffffffffffffffffffff82169050919050565b600061172c82611701565b9050919050565b61173c81611721565b82525050565b600061014082019050611758600083018d6116f2565b611765602083018c6116f2565b611772604083018b611733565b61177f606083018a6116f2565b61178c60808301896116f2565b61179960a0830188611733565b6117a660c08301876116f2565b6117b360e08301866116f2565b6117c16101008301856116f2565b6117cf6101208301846116f2565b9b9a5050505050505050505050565b60006117e982611701565b9050919050565b6117f9816117de565b811461180457600080fd5b50565b600081359050611816816117f0565b92915050565b600080604083850312156118335761183261168a565b5b600061184185828601611807565b9250506020611852858286016116b0565b9150509250929050565b600080604083850312156118735761187261168a565b5b6000611881858286016116b0565b9250506020611892858286016116b0565b9150509250929050565b60006020820190506118b160008301846116f2565b92915050565b6118c0816117de565b82525050565b60006040820190506118db60008301856118b7565b6118e860208301846116f2565b9392505050565b7f4e487b7100000000000000000000000000000000000000000000000000000000600052601160045260246000fd5b60006119298261168f565b91506119348361168f565b925082820190508082111561194c5761194b6118ef565b5b92915050565b6000819050919050565b61196d6119688261168f565b611952565b82525050565b600061197f828461195c565b60208201915081905092915050565b600081519050919050565b7f4e487b7100000000000000000000000000000000000000000000000000000000600052604160045260246000fd5b7f4e487b7100000000000000000000000000000000000000000000000000000000600052602260045260246000fd5b60006002820490506001821680611a0f57607f821691505b602082108103611a2257611a216119c8565b5b50919050565b60008190508160005260206000209050919050565b60006020601f8301049050919050565b600082821b905092915050565b600060088302611a8a7fffffffffffffffffffffffffffffffffffffffffffffffffffffffffffffffff82611a4d565b611a948683611a4d565b95508019841693508086168417925050509392505050565b6000819050919050565b6000611ad1611acc611ac78461168f565b611aac565b61168f565b9050919050565b6000819050919050565b611aeb83611ab6565b611aff611af782611ad8565b848454611a5a565b825550505050565b600090565b611b14611b07565b611b1f818484611ae2565b505050565b5b81811015611b4357611b38600082611b0c565b600181019050611b25565b5050565b601f821115611b8857611b5981611a28565b611b6284611a3d565b81016020851015611b71578190505b611b85611b7d85611a3d565b830182611b24565b50505b505050565b600082821c905092915050565b6000611bab60001984600802611b8d565b1980831691505092915050565b6000611bc48383611b9a565b9150826002028217905092915050565b611bdd8261198e565b67ffffffffffffffff811115611bf657611bf5611999565b5b611c0082546119f7565b611c0b828285611b47565b600060209050601f831160018114611c3e5760008415611c2c578287015190505b611c368582611bb8565b865550611c9e565b601f198416611c4c86611a28565b60005b82811015611c7457848901518255600182019150602085019450602081019050611c4f565b86831015611c915784890151611c8d601f891682611b9a565b8355505b6001600288020188555050505b505050505050565b6000611cb18261168f565b91507fffffffffffffffffffffffffffffffffffffffffffffffffffffffffffffffff8203611ce357611ce26118ef565b5b600182019050919050565b6000602082019050611d0360008301846118b7565b92915050565b6000611d148261168f565b9150611d1f8361168f565b9250828203905081811115611d3757611d366118ef565b5b92915050565b6000611d488261168f565b9150611d538361168f565b9250828202611d618161168f565b91508282048414831517611d7857611d776118ef565b5b5092915050565b7f4e487b7100000000000000000000000000000000000000000000000000000000600052601260045260246000fd5b6000611db98261168f565b9150611dc48361168f565b925082611dd457611dd3611d7f565b5b828204905092915050565b600081905092915050565b60005b83811015611e08578082015181840152602081019050611ded565b60008484015250505050565b6000611e1f8261198e565b611e298185611ddf565b9350611e39818560208601611dea565b80840191505092915050565b6000611e518284611e14565b915081905092915050565b60008154611e69816119f7565b611e738186611ddf565b94506001821660008114611e8e5760018114611ea357611ed6565b60ff1983168652811515820286019350611ed6565b611eac85611a28565b60005b83811015611ece57815481890152600182019150602081019050611eaf565b838801955050505b50505092915050565b6000611eeb8284611e5c565b91508190509291505056fea2646970667358221220f1671166d5564d09fd789fe93343bf0435250dfee6a153a41a421927d9e097ea64736f6c63430008110033",
  "immutableReferences": {},
  "source": "// SPDX-License-Identifier: MIT\n\npragma solidity >=0.8.2 <0.9.0;\n\nerror LowFunds(address adr, uint256 balance);\nerror NotAdmin(address adr);\nerror GameOver();\nerror Yourself(address adr);\nerror Check(uint256 num);\n\ncontract standards {\n    address private admin;\n\n    constructor() {\n        admin = msg.sender;\n    }\n\n    function withdraw() external {\n        if (msg.sender == admin) {\n            payable(admin).transfer(address(this).balance);\n        }\n    }\n}\n\ncontract ROCK_PAPER_SCISSORS is standards {\n    event Log(uint256 cs, address from, uint256 time);\n\n    uint256 fee;\n    uint256 min;\n    uint256 t;\n    uint256 public g;\n    mapping(uint256 => bytes) private locker;\n    uint256 ln;\n\n    struct Game {\n        uint256 id;\n        uint256 value;\n        address payable owner;\n        uint256 t0;\n        uint256 c0; // 1 lo // 2 hi\n        address payable opponent;\n        uint256 t1;\n        uint256 c1; // 1 lo // 2 hi\n        uint256 state; // 0 invalid // 1 created // 2 played // 3 finished\n        uint256 result;\n    }\n\n    mapping(uint256 => Game) public games;\n    mapping(address => uint256) private myGames;\n    mapping(address => mapping(uint256 => Game)) public myGame;\n    mapping(uint256 => bool) played;\n\n    constructor() {\n        t = 1 + (block.timestamp % 9);\n        fee = 25;\n        min = 1 * 10**15;\n        g = 1;\n    }\n\n    function setGame(uint256 _choice) external payable {\n        if (msg.value <= min) revert LowFunds(msg.sender, min);\n        (bool found, uint256 id) = _scanGames(msg.value, _choice);\n        if (found) {\n            // aggregated\n            Game memory game = games[id];\n            _play(game, _choice);\n        } else {\n            uint256 timer = block.timestamp;\n            locker[ln] = bytes(abi.encodePacked(_choice + timer));\n            games[g] = Game(\n                g,\n                msg.value,\n                payable(msg.sender),\n                timer,\n                ln,\n                payable(address(0)),\n                0,\n                0,\n                1,\n                0\n            );\n            myGame[msg.sender][myGames[msg.sender]] = games[g];\n            myGames[msg.sender]++;\n            played[g] = false;\n            g++;\n            ln++;\n        }\n    }\n\n    function _scanGames(uint256 _value, uint256 _choice)\n        internal\n        view\n        returns (bool find, uint256 id)\n    {\n        for (uint256 i; i < g; i++) {\n            if (\n                games[i].value == _value &&\n                games[i].owner != msg.sender &&\n                games[i].c0 != _choice &&\n                games[i].state == 1\n            ) {\n                find = true;\n                id = i;\n                i += g;\n            } else {\n                find = false;\n                id = 0;\n            }\n        }\n    }\n\n    function joinGame(uint256 _game, uint256 _choice) external payable {\n        Game memory game = games[_game];\n        if (msg.value < game.value) revert LowFunds(msg.sender, game.value);\n        if (game.state != 1) revert GameOver();\n        if (msg.sender == game.owner) revert Yourself(msg.sender);\n        _play(game, _choice);\n    }\n\n    function _play(Game memory _game, uint256 _choice) internal {\n        if (_game.state != 1 || _game.id >= g) revert GameOver();\n        _game.opponent = payable(msg.sender);\n        _game.c1 = _choice;\n        _game.t1 = block.timestamp;\n        _game.state = 2;\n        games[_game.id] = _game;\n        myGame[msg.sender][myGames[msg.sender]] = _game;\n        myGames[msg.sender]++;\n        uint256 win = ((_game.value * 2) / 1000) * (1000 - fee);\n        _game.state = 3;\n        uint256 choice0;\n        if (\n            keccak256(abi.encodePacked(locker[_game.c0])) ==\n            keccak256(\n                abi.encodePacked(bytes(abi.encodePacked(uint256(1) + _game.t0)))\n            )\n        ) choice0 = 1;\n        if (\n            keccak256(abi.encodePacked(locker[_game.c0])) ==\n            keccak256(\n                abi.encodePacked(bytes(abi.encodePacked(uint256(2) + _game.t0)))\n            )\n        ) choice0 = 2;\n        if (\n            keccak256(abi.encodePacked(locker[_game.c0])) ==\n            keccak256(\n                abi.encodePacked(bytes(abi.encodePacked(uint256(3) + _game.t0)))\n            )\n        ) choice0 = 3;\n        _game.c0 = choice0;\n        games[_game.id] = _game;\n        played[_game.id] = true;\n        if (choice0 == _game.c1) _game.result = 0;\n        if (\n            (choice0 == 1 && _game.c1 == 2) ||\n            (choice0 == 2 && _game.c1 == 3) ||\n            (choice0 == 3 && _game.c1 == 1)\n        ) _game.result = 2;\n        if (\n            (_game.c1 == 1 && choice0 == 2) ||\n            (_game.c1 == 2 && choice0 == 3) ||\n            (_game.c1 == 3 && choice0 == 1)\n        ) _game.result = 1;\n        _game.state = 3;\n        games[_game.id] = _game;\n        if (_game.result == 0) {\n            payable(_game.owner).transfer(win / 2);\n            payable(_game.opponent).transfer(win / 2);\n        }\n        if (_game.result == 1) payable(_game.owner).transfer(win);\n        if (_game.result == 2) payable(_game.opponent).transfer(win);\n    }\n}\n",
  "sourcePath": "/Users/iii6/Documents/GitHub/Gamble360/contracts/gamble360/ROCK_PAPER_SCISSORS.sol",
  "compiler": {
    "name": "solc",
    "version": "0.8.17+commit.8df45f5f.Emscripten.clang"
  },
  "schemaVersion": "3.4.8",
  "updatedAt": "2023-04-02T20:32:28.313Z",
  "networkType": "ethereum",
  "devdoc": {
    "kind": "dev",
    "methods": {},
    "version": 1
  },
  "userdoc": {
    "kind": "user",
    "methods": {},
    "version": 1
  }
}