{
  "contractName": "ROCK_PAPER_SCISSORS",
  "abi": [
    {
      "inputs": [],
      "stateMutability": "nonpayable",
      "type": "constructor"
    },
    {
      "inputs": [],
      "name": "GameOver",
      "type": "error"
    },
    {
      "inputs": [
        {
          "internalType": "address",
          "name": "adr",
          "type": "address"
        },
        {
          "internalType": "uint256",
          "name": "balance",
          "type": "uint256"
        }
      ],
      "name": "LowFunds",
      "type": "error"
    },
    {
      "inputs": [
        {
          "internalType": "address",
          "name": "adr",
          "type": "address"
        }
      ],
      "name": "Yourself",
      "type": "error"
    },
    {
      "anonymous": false,
      "inputs": [
        {
          "indexed": false,
          "internalType": "uint256",
          "name": "cs",
          "type": "uint256"
        },
        {
          "indexed": false,
          "internalType": "address",
          "name": "from",
          "type": "address"
        },
        {
          "indexed": false,
          "internalType": "uint256",
          "name": "time",
          "type": "uint256"
        }
      ],
      "name": "Log",
      "type": "event"
    },
    {
      "inputs": [],
      "name": "g",
      "outputs": [
        {
          "internalType": "uint256",
          "name": "",
          "type": "uint256"
        }
      ],
      "stateMutability": "view",
      "type": "function",
      "constant": true
    },
    {
      "inputs": [
        {
          "internalType": "uint256",
          "name": "",
          "type": "uint256"
        }
      ],
      "name": "games",
      "outputs": [
        {
          "internalType": "uint256",
          "name": "id",
          "type": "uint256"
        },
        {
          "internalType": "uint256",
          "name": "value",
          "type": "uint256"
        },
        {
          "internalType": "address payable",
          "name": "owner",
          "type": "address"
        },
        {
          "internalType": "uint256",
          "name": "t0",
          "type": "uint256"
        },
        {
          "internalType": "uint256",
          "name": "c0",
          "type": "uint256"
        },
        {
          "internalType": "address payable",
          "name": "opponent",
          "type": "address"
        },
        {
          "internalType": "uint256",
          "name": "t1",
          "type": "uint256"
        },
        {
          "internalType": "uint256",
          "name": "c1",
          "type": "uint256"
        },
        {
          "internalType": "uint256",
          "name": "state",
          "type": "uint256"
        },
        {
          "internalType": "uint256",
          "name": "result",
          "type": "uint256"
        }
      ],
      "stateMutability": "view",
      "type": "function",
      "constant": true
    },
    {
      "inputs": [
        {
          "internalType": "address",
          "name": "",
          "type": "address"
        },
        {
          "internalType": "uint256",
          "name": "",
          "type": "uint256"
        }
      ],
      "name": "myGame",
      "outputs": [
        {
          "internalType": "uint256",
          "name": "id",
          "type": "uint256"
        },
        {
          "internalType": "uint256",
          "name": "value",
          "type": "uint256"
        },
        {
          "internalType": "address payable",
          "name": "owner",
          "type": "address"
        },
        {
          "internalType": "uint256",
          "name": "t0",
          "type": "uint256"
        },
        {
          "internalType": "uint256",
          "name": "c0",
          "type": "uint256"
        },
        {
          "internalType": "address payable",
          "name": "opponent",
          "type": "address"
        },
        {
          "internalType": "uint256",
          "name": "t1",
          "type": "uint256"
        },
        {
          "internalType": "uint256",
          "name": "c1",
          "type": "uint256"
        },
        {
          "internalType": "uint256",
          "name": "state",
          "type": "uint256"
        },
        {
          "internalType": "uint256",
          "name": "result",
          "type": "uint256"
        }
      ],
      "stateMutability": "view",
      "type": "function",
      "constant": true
    },
    {
      "inputs": [
        {
          "internalType": "address",
          "name": "",
          "type": "address"
        }
      ],
      "name": "myGames",
      "outputs": [
        {
          "internalType": "uint256",
          "name": "",
          "type": "uint256"
        }
      ],
      "stateMutability": "view",
      "type": "function",
      "constant": true
    },
    {
      "inputs": [
        {
          "internalType": "uint256",
          "name": "",
          "type": "uint256"
        }
      ],
      "name": "played",
      "outputs": [
        {
          "internalType": "bool",
          "name": "",
          "type": "bool"
        }
      ],
      "stateMutability": "view",
      "type": "function",
      "constant": true
    },
    {
      "inputs": [],
      "name": "withdraw",
      "outputs": [],
      "stateMutability": "nonpayable",
      "type": "function"
    },
    {
      "inputs": [
        {
          "internalType": "uint256",
          "name": "_choice",
          "type": "uint256"
        }
      ],
      "name": "setGame",
      "outputs": [],
      "stateMutability": "payable",
      "type": "function",
      "payable": true
    },
    {
      "inputs": [
        {
          "internalType": "uint256",
          "name": "_game",
          "type": "uint256"
        },
        {
          "internalType": "uint256",
          "name": "_choice",
          "type": "uint256"
        }
      ],
      "name": "joinGame",
      "outputs": [],
      "stateMutability": "payable",
      "type": "function",
      "payable": true
    }
  ],
  "bytecode": "0x60806040523480156200001157600080fd5b50336000806101000a81548173ffffffffffffffffffffffffffffffffffffffff021916908373ffffffffffffffffffffffffffffffffffffffff160217905550600942620000619190620000d2565b60016200006f919062000139565b600381905550601960018190555066038d7ea4c68000600281905550600160048190555062000174565b6000819050919050565b7f4e487b7100000000000000000000000000000000000000000000000000000000600052601260045260246000fd5b6000620000df8262000099565b9150620000ec8362000099565b925082620000ff57620000fe620000a3565b5b828206905092915050565b7f4e487b7100000000000000000000000000000000000000000000000000000000600052601160045260246000fd5b6000620001468262000099565b9150620001538362000099565b92508282019050808211156200016e576200016d6200010a565b5b92915050565b6121e780620001846000396000f3fe60806040526004361061007b5760003560e01c8063725c62cd1161004e578063725c62cd14610136578063b60b9fcb1461017c578063e2179b8e14610198578063eaf83826146101c35761007b565b8063117a5b901461008057806311edb398146100c65780633a245f3d146100e25780633ccfd60b1461011f575b600080fd5b34801561008c57600080fd5b506100a760048036038101906100a2919061191d565b610200565b6040516100bd9a9998979695949392919061199a565b60405180910390f35b6100e060048036038101906100db919061191d565b610294565b005b3480156100ee57600080fd5b506101096004803603810190610104919061191d565b6108a6565b6040516101169190611a51565b60405180910390f35b34801561012b57600080fd5b506101346108c6565b005b34801561014257600080fd5b5061015d60048036038101906101589190611aaa565b610983565b6040516101739a9998979695949392919061199a565b60405180910390f35b61019660048036038101906101919190611aea565b610a24565b005b3480156101a457600080fd5b506101ad610c54565b6040516101ba9190611b2a565b60405180910390f35b3480156101cf57600080fd5b506101ea60048036038101906101e59190611b45565b610c5a565b6040516101f79190611b2a565b60405180910390f35b60076020528060005260406000206000915090508060000154908060010154908060020160009054906101000a900473ffffffffffffffffffffffffffffffffffffffff16908060030154908060040154908060050160009054906101000a900473ffffffffffffffffffffffffffffffffffffffff1690806006015490806007015490806008015490806009015490508a565b60025434116102de57336002546040517f96f756fd0000000000000000000000000000000000000000000000000000000081526004016102d5929190611b81565b60405180910390fd5b6000806102eb3484610c72565b915091508115610424576000600760008381526020019081526020016000206040518061014001604052908160008201548152602001600182015481526020016002820160009054906101000a900473ffffffffffffffffffffffffffffffffffffffff1673ffffffffffffffffffffffffffffffffffffffff1673ffffffffffffffffffffffffffffffffffffffff16815260200160038201548152602001600482015481526020016005820160009054906101000a900473ffffffffffffffffffffffffffffffffffffffff1673ffffffffffffffffffffffffffffffffffffffff1673ffffffffffffffffffffffffffffffffffffffff168152602001600682015481526020016007820154815260200160088201548152602001600982015481525050905061041e8185610d92565b506108a1565b600042905080846104359190611bd9565b6040516020016104459190611c2e565b60405160208183030381529060405260056000600654815260200190815260200160002090816104759190611e8f565b5060405180610140016040528060045481526020013481526020013373ffffffffffffffffffffffffffffffffffffffff1681526020018281526020016006548152602001600073ffffffffffffffffffffffffffffffffffffffff168152602001600860003373ffffffffffffffffffffffffffffffffffffffff1673ffffffffffffffffffffffffffffffffffffffff16815260200190815260200160002054815260200160008152602001600181526020016000815250600760006004548152602001908152602001600020600082015181600001556020820151816001015560408201518160020160006101000a81548173ffffffffffffffffffffffffffffffffffffffff021916908373ffffffffffffffffffffffffffffffffffffffff160217905550606082015181600301556080820151816004015560a08201518160050160006101000a81548173ffffffffffffffffffffffffffffffffffffffff021916908373ffffffffffffffffffffffffffffffffffffffff16021790555060c0820151816006015560e0820151816007015561010082015181600801556101208201518160090155905050600760006004548152602001908152602001600020600960003373ffffffffffffffffffffffffffffffffffffffff1673ffffffffffffffffffffffffffffffffffffffff1681526020019081526020016000206000600860003373ffffffffffffffffffffffffffffffffffffffff1673ffffffffffffffffffffffffffffffffffffffff16815260200190815260200160002054815260200190815260200160002060008201548160000155600182015481600101556002820160009054906101000a900473ffffffffffffffffffffffffffffffffffffffff168160020160006101000a81548173ffffffffffffffffffffffffffffffffffffffff021916908373ffffffffffffffffffffffffffffffffffffffff16021790555060038201548160030155600482015481600401556005820160009054906101000a900473ffffffffffffffffffffffffffffffffffffffff168160050160006101000a81548173ffffffffffffffffffffffffffffffffffffffff021916908373ffffffffffffffffffffffffffffffffffffffff16021790555060068201548160060155600782015481600701556008820154816008015560098201548160090155905050600860003373ffffffffffffffffffffffffffffffffffffffff1673ffffffffffffffffffffffffffffffffffffffff168152602001908152602001600020600081548092919061083c90611f61565b91905055506000600a6000600454815260200190815260200160002060006101000a81548160ff0219169083151502179055506004600081548092919061088290611f61565b91905055506006600081548092919061089a90611f61565b9190505550505b505050565b600a6020528060005260406000206000915054906101000a900460ff1681565b60008054906101000a900473ffffffffffffffffffffffffffffffffffffffff1673ffffffffffffffffffffffffffffffffffffffff163373ffffffffffffffffffffffffffffffffffffffff16036109815760008054906101000a900473ffffffffffffffffffffffffffffffffffffffff1673ffffffffffffffffffffffffffffffffffffffff166108fc479081150290604051600060405180830381858888f1935050505015801561097f573d6000803e3d6000fd5b505b565b6009602052816000526040600020602052806000526040600020600091509150508060000154908060010154908060020160009054906101000a900473ffffffffffffffffffffffffffffffffffffffff16908060030154908060040154908060050160009054906101000a900473ffffffffffffffffffffffffffffffffffffffff1690806006015490806007015490806008015490806009015490508a565b6000600760008481526020019081526020016000206040518061014001604052908160008201548152602001600182015481526020016002820160009054906101000a900473ffffffffffffffffffffffffffffffffffffffff1673ffffffffffffffffffffffffffffffffffffffff1673ffffffffffffffffffffffffffffffffffffffff16815260200160038201548152602001600482015481526020016005820160009054906101000a900473ffffffffffffffffffffffffffffffffffffffff1673ffffffffffffffffffffffffffffffffffffffff1673ffffffffffffffffffffffffffffffffffffffff16815260200160068201548152602001600782015481526020016008820154815260200160098201548152505090508060200151341015610b92573381602001516040517f96f756fd000000000000000000000000000000000000000000000000000000008152600401610b89929190611b81565b60405180910390fd5b600181610100015114610bd1576040517fdf469ccb00000000000000000000000000000000000000000000000000000000815260040160405180910390fd5b806040015173ffffffffffffffffffffffffffffffffffffffff163373ffffffffffffffffffffffffffffffffffffffff1603610c4557336040517f633df725000000000000000000000000000000000000000000000000000000008152600401610c3c9190611fa9565b60405180910390fd5b610c4f8183610d92565b505050565b60045481565b60086020528060005260406000206000915090505481565b60008060005b600454811015610d8a57846007600083815260200190815260200160002060010154148015610d0957503373ffffffffffffffffffffffffffffffffffffffff166007600083815260200190815260200160002060020160009054906101000a900473ffffffffffffffffffffffffffffffffffffffff1673ffffffffffffffffffffffffffffffffffffffff1614155b8015610d2b575083600760008381526020019081526020016000206004015414155b8015610d4d575060016007600083815260200190815260200160002060080154145b15610d6e576001925080915060045481610d679190611bd9565b9050610d77565b60009250600091505b8080610d8290611f61565b915050610c78565b509250929050565b6001826101000151141580610dad5750600454826000015110155b15610de4576040517fdf469ccb00000000000000000000000000000000000000000000000000000000815260040160405180910390fd5b338260a0019073ffffffffffffffffffffffffffffffffffffffff16908173ffffffffffffffffffffffffffffffffffffffff1681525050808260e001818152505060008260c001519050428360c0018181525050600283610100018181525050826007600085600001518152602001908152602001600020600082015181600001556020820151816001015560408201518160020160006101000a81548173ffffffffffffffffffffffffffffffffffffffff021916908373ffffffffffffffffffffffffffffffffffffffff160217905550606082015181600301556080820151816004015560a08201518160050160006101000a81548173ffffffffffffffffffffffffffffffffffffffff021916908373ffffffffffffffffffffffffffffffffffffffff16021790555060c0820151816006015560e08201518160070155610100820151816008015561012082015181600901559050508260096000856040015173ffffffffffffffffffffffffffffffffffffffff1673ffffffffffffffffffffffffffffffffffffffff1681526020019081526020016000206000838152602001908152602001600020600082015181600001556020820151816001015560408201518160020160006101000a81548173ffffffffffffffffffffffffffffffffffffffff021916908373ffffffffffffffffffffffffffffffffffffffff160217905550606082015181600301556080820151816004015560a08201518160050160006101000a81548173ffffffffffffffffffffffffffffffffffffffff021916908373ffffffffffffffffffffffffffffffffffffffff16021790555060c0820151816006015560e082015181600701556101008201518160080155610120820151816009015590505082600960003373ffffffffffffffffffffffffffffffffffffffff1673ffffffffffffffffffffffffffffffffffffffff1681526020019081526020016000206000600860003373ffffffffffffffffffffffffffffffffffffffff1673ffffffffffffffffffffffffffffffffffffffff168152602001908152602001600020548152602001908152602001600020600082015181600001556020820151816001015560408201518160020160006101000a81548173ffffffffffffffffffffffffffffffffffffffff021916908373ffffffffffffffffffffffffffffffffffffffff160217905550606082015181600301556080820151816004015560a08201518160050160006101000a81548173ffffffffffffffffffffffffffffffffffffffff021916908373ffffffffffffffffffffffffffffffffffffffff16021790555060c0820151816006015560e0820151816007015561010082015181600801556101208201518160090155905050600860003373ffffffffffffffffffffffffffffffffffffffff1673ffffffffffffffffffffffffffffffffffffffff168152602001908152602001600020600081548092919061123b90611f61565b919050555060006001546103e86112529190611fc4565b6103e8600286602001516112669190611ff8565b6112709190612069565b61127a9190611ff8565b905060038461010001818152505060008460600151600161129b9190611bd9565b6040516020016112ab9190611c2e565b6040516020818303038152906040526040516020016112ca9190612100565b604051602081830303815290604052805190602001206005600087608001518152602001908152602001600020604051602001611307919061219a565b604051602081830303815290604052805190602001200361132757600190505b846060015160026113389190611bd9565b6040516020016113489190611c2e565b6040516020818303038152906040526040516020016113679190612100565b6040516020818303038152906040528051906020012060056000876080015181526020019081526020016000206040516020016113a4919061219a565b60405160208183030381529060405280519060200120036113c457600290505b846060015160036113d59190611bd9565b6040516020016113e59190611c2e565b6040516020818303038152906040526040516020016114049190612100565b604051602081830303815290604052805190602001206005600087608001518152602001908152602001600020604051602001611441919061219a565b604051602081830303815290604052805190602001200361146157600390505b80856080018181525050846007600087600001518152602001908152602001600020600082015181600001556020820151816001015560408201518160020160006101000a81548173ffffffffffffffffffffffffffffffffffffffff021916908373ffffffffffffffffffffffffffffffffffffffff160217905550606082015181600301556080820151816004015560a08201518160050160006101000a81548173ffffffffffffffffffffffffffffffffffffffff021916908373ffffffffffffffffffffffffffffffffffffffff16021790555060c0820151816006015560e08201518160070155610100820151816008015561012082015181600901559050506001600a60008760000151815260200190815260200160002060006101000a81548160ff0219169083151502179055508460e0015181036115ae576000856101200181815250505b6001811480156115c2575060028560e00151145b806115dd57506002811480156115dc575060038560e00151145b5b806115f857506003811480156115f7575060018560e00151145b5b1561160a576002856101200181815250505b60018560e0015114801561161e5750600281145b80611639575060028560e001511480156116385750600381145b5b80611654575060038560e001511480156116535750600181145b5b15611666576001856101200181815250505b600385610100018181525050846007600087600001518152602001908152602001600020600082015181600001556020820151816001015560408201518160020160006101000a81548173ffffffffffffffffffffffffffffffffffffffff021916908373ffffffffffffffffffffffffffffffffffffffff160217905550606082015181600301556080820151816004015560a08201518160050160006101000a81548173ffffffffffffffffffffffffffffffffffffffff021916908373ffffffffffffffffffffffffffffffffffffffff16021790555060c0820151816006015560e082015181600701556101008201518160080155610120820151816009015590505060008561012001510361182957846040015173ffffffffffffffffffffffffffffffffffffffff166108fc6002846117a59190612069565b9081150290604051600060405180830381858888f193505050501580156117d0573d6000803e3d6000fd5b508460a0015173ffffffffffffffffffffffffffffffffffffffff166108fc6002846117fc9190612069565b9081150290604051600060405180830381858888f19350505050158015611827573d6000803e3d6000fd5b505b60018561012001510361188257846040015173ffffffffffffffffffffffffffffffffffffffff166108fc839081150290604051600060405180830381858888f19350505050158015611880573d6000803e3d6000fd5b505b6002856101200151036118db578460a0015173ffffffffffffffffffffffffffffffffffffffff166108fc839081150290604051600060405180830381858888f193505050501580156118d9573d6000803e3d6000fd5b505b5050505050565b600080fd5b6000819050919050565b6118fa816118e7565b811461190557600080fd5b50565b600081359050611917816118f1565b92915050565b600060208284031215611933576119326118e2565b5b600061194184828501611908565b91505092915050565b611953816118e7565b82525050565b600073ffffffffffffffffffffffffffffffffffffffff82169050919050565b600061198482611959565b9050919050565b61199481611979565b82525050565b6000610140820190506119b0600083018d61194a565b6119bd602083018c61194a565b6119ca604083018b61198b565b6119d7606083018a61194a565b6119e4608083018961194a565b6119f160a083018861198b565b6119fe60c083018761194a565b611a0b60e083018661194a565b611a1961010083018561194a565b611a2761012083018461194a565b9b9a5050505050505050505050565b60008115159050919050565b611a4b81611a36565b82525050565b6000602082019050611a666000830184611a42565b92915050565b6000611a7782611959565b9050919050565b611a8781611a6c565b8114611a9257600080fd5b50565b600081359050611aa481611a7e565b92915050565b60008060408385031215611ac157611ac06118e2565b5b6000611acf85828601611a95565b9250506020611ae085828601611908565b9150509250929050565b60008060408385031215611b0157611b006118e2565b5b6000611b0f85828601611908565b9250506020611b2085828601611908565b9150509250929050565b6000602082019050611b3f600083018461194a565b92915050565b600060208284031215611b5b57611b5a6118e2565b5b6000611b6984828501611a95565b91505092915050565b611b7b81611a6c565b82525050565b6000604082019050611b966000830185611b72565b611ba3602083018461194a565b9392505050565b7f4e487b7100000000000000000000000000000000000000000000000000000000600052601160045260246000fd5b6000611be4826118e7565b9150611bef836118e7565b9250828201905080821115611c0757611c06611baa565b5b92915050565b6000819050919050565b611c28611c23826118e7565b611c0d565b82525050565b6000611c3a8284611c17565b60208201915081905092915050565b600081519050919050565b7f4e487b7100000000000000000000000000000000000000000000000000000000600052604160045260246000fd5b7f4e487b7100000000000000000000000000000000000000000000000000000000600052602260045260246000fd5b60006002820490506001821680611cca57607f821691505b602082108103611cdd57611cdc611c83565b5b50919050565b60008190508160005260206000209050919050565b60006020601f8301049050919050565b600082821b905092915050565b600060088302611d457fffffffffffffffffffffffffffffffffffffffffffffffffffffffffffffffff82611d08565b611d4f8683611d08565b95508019841693508086168417925050509392505050565b6000819050919050565b6000611d8c611d87611d82846118e7565b611d67565b6118e7565b9050919050565b6000819050919050565b611da683611d71565b611dba611db282611d93565b848454611d15565b825550505050565b600090565b611dcf611dc2565b611dda818484611d9d565b505050565b5b81811015611dfe57611df3600082611dc7565b600181019050611de0565b5050565b601f821115611e4357611e1481611ce3565b611e1d84611cf8565b81016020851015611e2c578190505b611e40611e3885611cf8565b830182611ddf565b50505b505050565b600082821c905092915050565b6000611e6660001984600802611e48565b1980831691505092915050565b6000611e7f8383611e55565b9150826002028217905092915050565b611e9882611c49565b67ffffffffffffffff811115611eb157611eb0611c54565b5b611ebb8254611cb2565b611ec6828285611e02565b600060209050601f831160018114611ef95760008415611ee7578287015190505b611ef18582611e73565b865550611f59565b601f198416611f0786611ce3565b60005b82811015611f2f57848901518255600182019150602085019450602081019050611f0a565b86831015611f4c5784890151611f48601f891682611e55565b8355505b6001600288020188555050505b505050505050565b6000611f6c826118e7565b91507fffffffffffffffffffffffffffffffffffffffffffffffffffffffffffffffff8203611f9e57611f9d611baa565b5b600182019050919050565b6000602082019050611fbe6000830184611b72565b92915050565b6000611fcf826118e7565b9150611fda836118e7565b9250828203905081811115611ff257611ff1611baa565b5b92915050565b6000612003826118e7565b915061200e836118e7565b925082820261201c816118e7565b9150828204841483151761203357612032611baa565b5b5092915050565b7f4e487b7100000000000000000000000000000000000000000000000000000000600052601260045260246000fd5b6000612074826118e7565b915061207f836118e7565b92508261208f5761208e61203a565b5b828204905092915050565b600081905092915050565b60005b838110156120c35780820151818401526020810190506120a8565b60008484015250505050565b60006120da82611c49565b6120e4818561209a565b93506120f48185602086016120a5565b80840191505092915050565b600061210c82846120cf565b915081905092915050565b6000815461212481611cb2565b61212e818661209a565b94506001821660008114612149576001811461215e57612191565b60ff1983168652811515820286019350612191565b61216785611ce3565b60005b838110156121895781548189015260018201915060208101905061216a565b838801955050505b50505092915050565b60006121a68284612117565b91508190509291505056fea2646970667358221220cbdbc031efdb4b89a1aac850bdbb0d1be486989847ba99a6c3611b64be6a619764736f6c63430008110033",
  "immutableReferences": {},
  "source": "// SPDX-License-Identifier: MIT\n\npragma solidity >=0.8.2 <0.9.0;\n\nerror LowFunds(address adr, uint256 balance);\nerror NotAdmin(address adr);\nerror GameOver();\nerror Yourself(address adr);\nerror Check(uint256 num);\n\ncontract standards {\n    address private admin;\n\n    constructor() {\n        admin = msg.sender;\n    }\n\n    function withdraw() external {\n        if (msg.sender == admin) {\n            payable(admin).transfer(address(this).balance);\n        }\n    }\n}\n\ncontract ROCK_PAPER_SCISSORS is standards {\n    event Log(uint256 cs, address from, uint256 time);\n\n    uint256 fee;\n    uint256 min;\n    uint256 t;\n    uint256 public g;\n    mapping(uint256 => bytes) private locker;\n    uint256 ln;\n\n    struct Game {\n        uint256 id;\n        uint256 value;\n        address payable owner;\n        uint256 t0;\n        uint256 c0; // 1 lo // 2 hi\n        address payable opponent;\n        uint256 t1;\n        uint256 c1; // 1 lo // 2 hi\n        uint256 state; // 0 invalid // 1 created // 2 played // 3 finished\n        uint256 result;\n    }\n\n    mapping(uint256 => Game) public games;\n    mapping(address => uint256) public myGames;\n    mapping(address => mapping(uint256 => Game)) public myGame;\n    mapping(uint256 => bool) public played;\n\n    constructor() {\n        t = 1 + (block.timestamp % 9);\n        fee = 25;\n        min = 1 * 10**15;\n        g = 1;\n    }\n\n    function setGame(uint256 _choice) external payable {\n        if (msg.value <= min) revert LowFunds(msg.sender, min);\n        (bool found, uint256 id) = _scanGames(msg.value, _choice);\n        if (found) {\n            // aggregated\n            Game memory game = games[id];\n            _play(game, _choice);\n        } else {\n            uint256 timer = block.timestamp;\n            locker[ln] = bytes(abi.encodePacked(_choice + timer));\n            games[g] = Game(\n                g,\n                msg.value,\n                payable(msg.sender),\n                timer,\n                ln,\n                payable(address(0)),\n                myGames[msg.sender],\n                0,\n                1,\n                0\n            );\n            myGame[msg.sender][myGames[msg.sender]] = games[g];\n            myGames[msg.sender]++;\n            played[g] = false;\n            g++;\n            ln++;\n        }\n    }\n\n    function _scanGames(uint256 _value, uint256 _choice)\n        internal\n        view\n        returns (bool find, uint256 id)\n    {\n        for (uint256 i; i < g; i++) {\n            if (\n                games[i].value == _value &&\n                games[i].owner != msg.sender &&\n                games[i].c0 != _choice &&\n                games[i].state == 1\n            ) {\n                find = true;\n                id = i;\n                i += g;\n            } else {\n                find = false;\n                id = 0;\n            }\n        }\n    }\n\n    function joinGame(uint256 _game, uint256 _choice) external payable {\n        Game memory game = games[_game];\n        if (msg.value < game.value) revert LowFunds(msg.sender, game.value);\n        if (game.state != 1) revert GameOver();\n        if (msg.sender == game.owner) revert Yourself(msg.sender);\n        _play(game, _choice);\n    }\n\n    function _play(Game memory _game, uint256 _choice) internal {\n        if (_game.state != 1 || _game.id >= g) revert GameOver();\n        _game.opponent = payable(msg.sender);\n        _game.c1 = _choice;\n        uint hold = _game.t1;\n        _game.t1 = block.timestamp;\n        _game.state = 2;\n        games[_game.id] = _game;\n        myGame[_game.owner][hold] = _game;\n        myGame[msg.sender][myGames[msg.sender]] = _game;\n        myGames[msg.sender]++;\n        uint256 win = ((_game.value * 2) / 1000) * (1000 - fee);\n        _game.state = 3;\n        uint256 choice0;\n        if (\n            keccak256(abi.encodePacked(locker[_game.c0])) ==\n            keccak256(\n                abi.encodePacked(bytes(abi.encodePacked(uint256(1) + _game.t0)))\n            )\n        ) choice0 = 1;\n        if (\n            keccak256(abi.encodePacked(locker[_game.c0])) ==\n            keccak256(\n                abi.encodePacked(bytes(abi.encodePacked(uint256(2) + _game.t0)))\n            )\n        ) choice0 = 2;\n        if (\n            keccak256(abi.encodePacked(locker[_game.c0])) ==\n            keccak256(\n                abi.encodePacked(bytes(abi.encodePacked(uint256(3) + _game.t0)))\n            )\n        ) choice0 = 3;\n        _game.c0 = choice0;\n        games[_game.id] = _game;\n        played[_game.id] = true;\n        if (choice0 == _game.c1) _game.result = 0;\n        if (\n            (choice0 == 1 && _game.c1 == 2) ||\n            (choice0 == 2 && _game.c1 == 3) ||\n            (choice0 == 3 && _game.c1 == 1)\n        ) _game.result = 2;\n        if (\n            (_game.c1 == 1 && choice0 == 2) ||\n            (_game.c1 == 2 && choice0 == 3) ||\n            (_game.c1 == 3 && choice0 == 1)\n        ) _game.result = 1;\n        _game.state = 3;\n        games[_game.id] = _game;\n        if (_game.result == 0) {\n            payable(_game.owner).transfer(win / 2);\n            payable(_game.opponent).transfer(win / 2);\n        }\n        if (_game.result == 1) payable(_game.owner).transfer(win);\n        if (_game.result == 2) payable(_game.opponent).transfer(win);\n    }\n}\n",
  "sourcePath": "/Users/iii6/Documents/GitHub/Gamble360/contracts/gamble360/ROCK_PAPER_SCISSORS.sol",
  "compiler": {
    "name": "solc",
    "version": "0.8.17+commit.8df45f5f.Emscripten.clang"
  },
  "schemaVersion": "3.4.8",
  "updatedAt": "2023-04-04T04:10:21.463Z",
  "networkType": "ethereum",
  "devdoc": {
    "kind": "dev",
    "methods": {},
    "version": 1
  },
  "userdoc": {
    "kind": "user",
    "methods": {},
    "version": 1
  }
}