{
  "contractName": "ROCK_PAPER_SCISSORS",
  "abi": [
    {
      "inputs": [],
      "stateMutability": "nonpayable",
      "type": "constructor"
    },
    {
      "inputs": [],
      "name": "GameOver",
      "type": "error"
    },
    {
      "inputs": [
        {
          "internalType": "address",
          "name": "adr",
          "type": "address"
        },
        {
          "internalType": "uint256",
          "name": "balance",
          "type": "uint256"
        }
      ],
      "name": "LowFunds",
      "type": "error"
    },
    {
      "inputs": [
        {
          "internalType": "address",
          "name": "adr",
          "type": "address"
        }
      ],
      "name": "Yourself",
      "type": "error"
    },
    {
      "anonymous": false,
      "inputs": [
        {
          "indexed": false,
          "internalType": "uint256",
          "name": "cs",
          "type": "uint256"
        },
        {
          "indexed": false,
          "internalType": "address",
          "name": "from",
          "type": "address"
        },
        {
          "indexed": false,
          "internalType": "uint256",
          "name": "time",
          "type": "uint256"
        }
      ],
      "name": "Log",
      "type": "event"
    },
    {
      "inputs": [],
      "name": "g",
      "outputs": [
        {
          "internalType": "uint256",
          "name": "",
          "type": "uint256"
        }
      ],
      "stateMutability": "view",
      "type": "function",
      "constant": true
    },
    {
      "inputs": [
        {
          "internalType": "uint256",
          "name": "",
          "type": "uint256"
        }
      ],
      "name": "games",
      "outputs": [
        {
          "internalType": "uint256",
          "name": "id",
          "type": "uint256"
        },
        {
          "internalType": "uint256",
          "name": "value",
          "type": "uint256"
        },
        {
          "internalType": "address payable",
          "name": "owner",
          "type": "address"
        },
        {
          "internalType": "uint256",
          "name": "t0",
          "type": "uint256"
        },
        {
          "internalType": "uint256",
          "name": "c0",
          "type": "uint256"
        },
        {
          "internalType": "address payable",
          "name": "opponent",
          "type": "address"
        },
        {
          "internalType": "uint256",
          "name": "t1",
          "type": "uint256"
        },
        {
          "internalType": "uint256",
          "name": "c1",
          "type": "uint256"
        },
        {
          "internalType": "uint256",
          "name": "state",
          "type": "uint256"
        },
        {
          "internalType": "uint256",
          "name": "result",
          "type": "uint256"
        }
      ],
      "stateMutability": "view",
      "type": "function",
      "constant": true
    },
    {
      "inputs": [
        {
          "internalType": "address",
          "name": "",
          "type": "address"
        },
        {
          "internalType": "uint256",
          "name": "",
          "type": "uint256"
        }
      ],
      "name": "myGame",
      "outputs": [
        {
          "internalType": "uint256",
          "name": "id",
          "type": "uint256"
        },
        {
          "internalType": "uint256",
          "name": "value",
          "type": "uint256"
        },
        {
          "internalType": "address payable",
          "name": "owner",
          "type": "address"
        },
        {
          "internalType": "uint256",
          "name": "t0",
          "type": "uint256"
        },
        {
          "internalType": "uint256",
          "name": "c0",
          "type": "uint256"
        },
        {
          "internalType": "address payable",
          "name": "opponent",
          "type": "address"
        },
        {
          "internalType": "uint256",
          "name": "t1",
          "type": "uint256"
        },
        {
          "internalType": "uint256",
          "name": "c1",
          "type": "uint256"
        },
        {
          "internalType": "uint256",
          "name": "state",
          "type": "uint256"
        },
        {
          "internalType": "uint256",
          "name": "result",
          "type": "uint256"
        }
      ],
      "stateMutability": "view",
      "type": "function",
      "constant": true
    },
    {
      "inputs": [
        {
          "internalType": "address",
          "name": "",
          "type": "address"
        }
      ],
      "name": "myGames",
      "outputs": [
        {
          "internalType": "uint256",
          "name": "",
          "type": "uint256"
        }
      ],
      "stateMutability": "view",
      "type": "function",
      "constant": true
    },
    {
      "inputs": [
        {
          "internalType": "uint256",
          "name": "",
          "type": "uint256"
        }
      ],
      "name": "played",
      "outputs": [
        {
          "internalType": "bool",
          "name": "",
          "type": "bool"
        }
      ],
      "stateMutability": "view",
      "type": "function",
      "constant": true
    },
    {
      "inputs": [],
      "name": "withdraw",
      "outputs": [],
      "stateMutability": "nonpayable",
      "type": "function"
    },
    {
      "inputs": [
        {
          "internalType": "uint256",
          "name": "_choice",
          "type": "uint256"
        }
      ],
      "name": "setGame",
      "outputs": [],
      "stateMutability": "payable",
      "type": "function",
      "payable": true
    },
    {
      "inputs": [
        {
          "internalType": "uint256",
          "name": "_game",
          "type": "uint256"
        },
        {
          "internalType": "uint256",
          "name": "_choice",
          "type": "uint256"
        }
      ],
      "name": "joinGame",
      "outputs": [],
      "stateMutability": "payable",
      "type": "function",
      "payable": true
    }
  ],
  "bytecode": "0x60806040523480156200001157600080fd5b50336000806101000a81548173ffffffffffffffffffffffffffffffffffffffff021916908373ffffffffffffffffffffffffffffffffffffffff160217905550600942620000619190620000d2565b60016200006f919062000139565b600381905550601960018190555066038d7ea4c68000600281905550600160048190555062000174565b6000819050919050565b7f4e487b7100000000000000000000000000000000000000000000000000000000600052601260045260246000fd5b6000620000df8262000099565b9150620000ec8362000099565b925082620000ff57620000fe620000a3565b5b828206905092915050565b7f4e487b7100000000000000000000000000000000000000000000000000000000600052601160045260246000fd5b6000620001468262000099565b9150620001538362000099565b92508282019050808211156200016e576200016d6200010a565b5b92915050565b61206780620001846000396000f3fe60806040526004361061007b5760003560e01c8063725c62cd1161004e578063725c62cd14610136578063b60b9fcb1461017c578063e2179b8e14610198578063eaf83826146101c35761007b565b8063117a5b901461008057806311edb398146100c65780633a245f3d146100e25780633ccfd60b1461011f575b600080fd5b34801561008c57600080fd5b506100a760048036038101906100a2919061179d565b610200565b6040516100bd9a9998979695949392919061181a565b60405180910390f35b6100e060048036038101906100db919061179d565b610294565b005b3480156100ee57600080fd5b506101096004803603810190610104919061179d565b610868565b60405161011691906118d1565b60405180910390f35b34801561012b57600080fd5b50610134610888565b005b34801561014257600080fd5b5061015d6004803603810190610158919061192a565b610945565b6040516101739a9998979695949392919061181a565b60405180910390f35b6101966004803603810190610191919061196a565b6109e6565b005b3480156101a457600080fd5b506101ad610c16565b6040516101ba91906119aa565b60405180910390f35b3480156101cf57600080fd5b506101ea60048036038101906101e591906119c5565b610c1c565b6040516101f791906119aa565b60405180910390f35b60076020528060005260406000206000915090508060000154908060010154908060020160009054906101000a900473ffffffffffffffffffffffffffffffffffffffff16908060030154908060040154908060050160009054906101000a900473ffffffffffffffffffffffffffffffffffffffff1690806006015490806007015490806008015490806009015490508a565b60025434116102de57336002546040517f96f756fd0000000000000000000000000000000000000000000000000000000081526004016102d5929190611a01565b60405180910390fd5b6000806102eb3484610c34565b915091508115610424576000600760008381526020019081526020016000206040518061014001604052908160008201548152602001600182015481526020016002820160009054906101000a900473ffffffffffffffffffffffffffffffffffffffff1673ffffffffffffffffffffffffffffffffffffffff1673ffffffffffffffffffffffffffffffffffffffff16815260200160038201548152602001600482015481526020016005820160009054906101000a900473ffffffffffffffffffffffffffffffffffffffff1673ffffffffffffffffffffffffffffffffffffffff1673ffffffffffffffffffffffffffffffffffffffff168152602001600682015481526020016007820154815260200160088201548152602001600982015481525050905061041e8185610d54565b50610863565b600042905080846104359190611a59565b6040516020016104459190611aae565b60405160208183030381529060405260056000600654815260200190815260200160002090816104759190611d0f565b5060405180610140016040528060045481526020013481526020013373ffffffffffffffffffffffffffffffffffffffff1681526020018281526020016006548152602001600073ffffffffffffffffffffffffffffffffffffffff1681526020016000815260200160008152602001600181526020016000815250600760006004548152602001908152602001600020600082015181600001556020820151816001015560408201518160020160006101000a81548173ffffffffffffffffffffffffffffffffffffffff021916908373ffffffffffffffffffffffffffffffffffffffff160217905550606082015181600301556080820151816004015560a08201518160050160006101000a81548173ffffffffffffffffffffffffffffffffffffffff021916908373ffffffffffffffffffffffffffffffffffffffff16021790555060c0820151816006015560e0820151816007015561010082015181600801556101208201518160090155905050600760006004548152602001908152602001600020600960003373ffffffffffffffffffffffffffffffffffffffff1673ffffffffffffffffffffffffffffffffffffffff1681526020019081526020016000206000600860003373ffffffffffffffffffffffffffffffffffffffff1673ffffffffffffffffffffffffffffffffffffffff16815260200190815260200160002054815260200190815260200160002060008201548160000155600182015481600101556002820160009054906101000a900473ffffffffffffffffffffffffffffffffffffffff168160020160006101000a81548173ffffffffffffffffffffffffffffffffffffffff021916908373ffffffffffffffffffffffffffffffffffffffff16021790555060038201548160030155600482015481600401556005820160009054906101000a900473ffffffffffffffffffffffffffffffffffffffff168160050160006101000a81548173ffffffffffffffffffffffffffffffffffffffff021916908373ffffffffffffffffffffffffffffffffffffffff16021790555060068201548160060155600782015481600701556008820154816008015560098201548160090155905050600860003373ffffffffffffffffffffffffffffffffffffffff1673ffffffffffffffffffffffffffffffffffffffff16815260200190815260200160002060008154809291906107fe90611de1565b91905055506000600a6000600454815260200190815260200160002060006101000a81548160ff0219169083151502179055506004600081548092919061084490611de1565b91905055506006600081548092919061085c90611de1565b9190505550505b505050565b600a6020528060005260406000206000915054906101000a900460ff1681565b60008054906101000a900473ffffffffffffffffffffffffffffffffffffffff1673ffffffffffffffffffffffffffffffffffffffff163373ffffffffffffffffffffffffffffffffffffffff16036109435760008054906101000a900473ffffffffffffffffffffffffffffffffffffffff1673ffffffffffffffffffffffffffffffffffffffff166108fc479081150290604051600060405180830381858888f19350505050158015610941573d6000803e3d6000fd5b505b565b6009602052816000526040600020602052806000526040600020600091509150508060000154908060010154908060020160009054906101000a900473ffffffffffffffffffffffffffffffffffffffff16908060030154908060040154908060050160009054906101000a900473ffffffffffffffffffffffffffffffffffffffff1690806006015490806007015490806008015490806009015490508a565b6000600760008481526020019081526020016000206040518061014001604052908160008201548152602001600182015481526020016002820160009054906101000a900473ffffffffffffffffffffffffffffffffffffffff1673ffffffffffffffffffffffffffffffffffffffff1673ffffffffffffffffffffffffffffffffffffffff16815260200160038201548152602001600482015481526020016005820160009054906101000a900473ffffffffffffffffffffffffffffffffffffffff1673ffffffffffffffffffffffffffffffffffffffff1673ffffffffffffffffffffffffffffffffffffffff16815260200160068201548152602001600782015481526020016008820154815260200160098201548152505090508060200151341015610b54573381602001516040517f96f756fd000000000000000000000000000000000000000000000000000000008152600401610b4b929190611a01565b60405180910390fd5b600181610100015114610b93576040517fdf469ccb00000000000000000000000000000000000000000000000000000000815260040160405180910390fd5b806040015173ffffffffffffffffffffffffffffffffffffffff163373ffffffffffffffffffffffffffffffffffffffff1603610c0757336040517f633df725000000000000000000000000000000000000000000000000000000008152600401610bfe9190611e29565b60405180910390fd5b610c118183610d54565b505050565b60045481565b60086020528060005260406000206000915090505481565b60008060005b600454811015610d4c57846007600083815260200190815260200160002060010154148015610ccb57503373ffffffffffffffffffffffffffffffffffffffff166007600083815260200190815260200160002060020160009054906101000a900473ffffffffffffffffffffffffffffffffffffffff1673ffffffffffffffffffffffffffffffffffffffff1614155b8015610ced575083600760008381526020019081526020016000206004015414155b8015610d0f575060016007600083815260200190815260200160002060080154145b15610d30576001925080915060045481610d299190611a59565b9050610d39565b60009250600091505b8080610d4490611de1565b915050610c3a565b509250929050565b6001826101000151141580610d6f5750600454826000015110155b15610da6576040517fdf469ccb00000000000000000000000000000000000000000000000000000000815260040160405180910390fd5b338260a0019073ffffffffffffffffffffffffffffffffffffffff16908173ffffffffffffffffffffffffffffffffffffffff1681525050808260e0018181525050428260c0018181525050600282610100018181525050816007600084600001518152602001908152602001600020600082015181600001556020820151816001015560408201518160020160006101000a81548173ffffffffffffffffffffffffffffffffffffffff021916908373ffffffffffffffffffffffffffffffffffffffff160217905550606082015181600301556080820151816004015560a08201518160050160006101000a81548173ffffffffffffffffffffffffffffffffffffffff021916908373ffffffffffffffffffffffffffffffffffffffff16021790555060c0820151816006015560e082015181600701556101008201518160080155610120820151816009015590505081600960003373ffffffffffffffffffffffffffffffffffffffff1673ffffffffffffffffffffffffffffffffffffffff1681526020019081526020016000206000600860003373ffffffffffffffffffffffffffffffffffffffff1673ffffffffffffffffffffffffffffffffffffffff168152602001908152602001600020548152602001908152602001600020600082015181600001556020820151816001015560408201518160020160006101000a81548173ffffffffffffffffffffffffffffffffffffffff021916908373ffffffffffffffffffffffffffffffffffffffff160217905550606082015181600301556080820151816004015560a08201518160050160006101000a81548173ffffffffffffffffffffffffffffffffffffffff021916908373ffffffffffffffffffffffffffffffffffffffff16021790555060c0820151816006015560e0820151816007015561010082015181600801556101208201518160090155905050600860003373ffffffffffffffffffffffffffffffffffffffff1673ffffffffffffffffffffffffffffffffffffffff16815260200190815260200160002060008154809291906110bc90611de1565b919050555060006001546103e86110d39190611e44565b6103e8600285602001516110e79190611e78565b6110f19190611ee9565b6110fb9190611e78565b905060038361010001818152505060008360600151600161111c9190611a59565b60405160200161112c9190611aae565b60405160208183030381529060405260405160200161114b9190611f80565b604051602081830303815290604052805190602001206005600086608001518152602001908152602001600020604051602001611188919061201a565b60405160208183030381529060405280519060200120036111a857600190505b836060015160026111b99190611a59565b6040516020016111c99190611aae565b6040516020818303038152906040526040516020016111e89190611f80565b604051602081830303815290604052805190602001206005600086608001518152602001908152602001600020604051602001611225919061201a565b604051602081830303815290604052805190602001200361124557600290505b836060015160036112569190611a59565b6040516020016112669190611aae565b6040516020818303038152906040526040516020016112859190611f80565b6040516020818303038152906040528051906020012060056000866080015181526020019081526020016000206040516020016112c2919061201a565b60405160208183030381529060405280519060200120036112e257600390505b80846080018181525050836007600086600001518152602001908152602001600020600082015181600001556020820151816001015560408201518160020160006101000a81548173ffffffffffffffffffffffffffffffffffffffff021916908373ffffffffffffffffffffffffffffffffffffffff160217905550606082015181600301556080820151816004015560a08201518160050160006101000a81548173ffffffffffffffffffffffffffffffffffffffff021916908373ffffffffffffffffffffffffffffffffffffffff16021790555060c0820151816006015560e08201518160070155610100820151816008015561012082015181600901559050506001600a60008660000151815260200190815260200160002060006101000a81548160ff0219169083151502179055508360e00151810361142f576000846101200181815250505b600181148015611443575060028460e00151145b8061145e575060028114801561145d575060038460e00151145b5b806114795750600381148015611478575060018460e00151145b5b1561148b576002846101200181815250505b60018460e0015114801561149f5750600281145b806114ba575060028460e001511480156114b95750600381145b5b806114d5575060038460e001511480156114d45750600181145b5b156114e7576001846101200181815250505b600384610100018181525050836007600086600001518152602001908152602001600020600082015181600001556020820151816001015560408201518160020160006101000a81548173ffffffffffffffffffffffffffffffffffffffff021916908373ffffffffffffffffffffffffffffffffffffffff160217905550606082015181600301556080820151816004015560a08201518160050160006101000a81548173ffffffffffffffffffffffffffffffffffffffff021916908373ffffffffffffffffffffffffffffffffffffffff16021790555060c0820151816006015560e08201518160070155610100820151816008015561012082015181600901559050506000846101200151036116aa57836040015173ffffffffffffffffffffffffffffffffffffffff166108fc6002846116269190611ee9565b9081150290604051600060405180830381858888f19350505050158015611651573d6000803e3d6000fd5b508360a0015173ffffffffffffffffffffffffffffffffffffffff166108fc60028461167d9190611ee9565b9081150290604051600060405180830381858888f193505050501580156116a8573d6000803e3d6000fd5b505b60018461012001510361170357836040015173ffffffffffffffffffffffffffffffffffffffff166108fc839081150290604051600060405180830381858888f19350505050158015611701573d6000803e3d6000fd5b505b60028461012001510361175c578360a0015173ffffffffffffffffffffffffffffffffffffffff166108fc839081150290604051600060405180830381858888f1935050505015801561175a573d6000803e3d6000fd5b505b50505050565b600080fd5b6000819050919050565b61177a81611767565b811461178557600080fd5b50565b60008135905061179781611771565b92915050565b6000602082840312156117b3576117b2611762565b5b60006117c184828501611788565b91505092915050565b6117d381611767565b82525050565b600073ffffffffffffffffffffffffffffffffffffffff82169050919050565b6000611804826117d9565b9050919050565b611814816117f9565b82525050565b600061014082019050611830600083018d6117ca565b61183d602083018c6117ca565b61184a604083018b61180b565b611857606083018a6117ca565b61186460808301896117ca565b61187160a083018861180b565b61187e60c08301876117ca565b61188b60e08301866117ca565b6118996101008301856117ca565b6118a76101208301846117ca565b9b9a5050505050505050505050565b60008115159050919050565b6118cb816118b6565b82525050565b60006020820190506118e660008301846118c2565b92915050565b60006118f7826117d9565b9050919050565b611907816118ec565b811461191257600080fd5b50565b600081359050611924816118fe565b92915050565b6000806040838503121561194157611940611762565b5b600061194f85828601611915565b925050602061196085828601611788565b9150509250929050565b6000806040838503121561198157611980611762565b5b600061198f85828601611788565b92505060206119a085828601611788565b9150509250929050565b60006020820190506119bf60008301846117ca565b92915050565b6000602082840312156119db576119da611762565b5b60006119e984828501611915565b91505092915050565b6119fb816118ec565b82525050565b6000604082019050611a1660008301856119f2565b611a2360208301846117ca565b9392505050565b7f4e487b7100000000000000000000000000000000000000000000000000000000600052601160045260246000fd5b6000611a6482611767565b9150611a6f83611767565b9250828201905080821115611a8757611a86611a2a565b5b92915050565b6000819050919050565b611aa8611aa382611767565b611a8d565b82525050565b6000611aba8284611a97565b60208201915081905092915050565b600081519050919050565b7f4e487b7100000000000000000000000000000000000000000000000000000000600052604160045260246000fd5b7f4e487b7100000000000000000000000000000000000000000000000000000000600052602260045260246000fd5b60006002820490506001821680611b4a57607f821691505b602082108103611b5d57611b5c611b03565b5b50919050565b60008190508160005260206000209050919050565b60006020601f8301049050919050565b600082821b905092915050565b600060088302611bc57fffffffffffffffffffffffffffffffffffffffffffffffffffffffffffffffff82611b88565b611bcf8683611b88565b95508019841693508086168417925050509392505050565b6000819050919050565b6000611c0c611c07611c0284611767565b611be7565b611767565b9050919050565b6000819050919050565b611c2683611bf1565b611c3a611c3282611c13565b848454611b95565b825550505050565b600090565b611c4f611c42565b611c5a818484611c1d565b505050565b5b81811015611c7e57611c73600082611c47565b600181019050611c60565b5050565b601f821115611cc357611c9481611b63565b611c9d84611b78565b81016020851015611cac578190505b611cc0611cb885611b78565b830182611c5f565b50505b505050565b600082821c905092915050565b6000611ce660001984600802611cc8565b1980831691505092915050565b6000611cff8383611cd5565b9150826002028217905092915050565b611d1882611ac9565b67ffffffffffffffff811115611d3157611d30611ad4565b5b611d3b8254611b32565b611d46828285611c82565b600060209050601f831160018114611d795760008415611d67578287015190505b611d718582611cf3565b865550611dd9565b601f198416611d8786611b63565b60005b82811015611daf57848901518255600182019150602085019450602081019050611d8a565b86831015611dcc5784890151611dc8601f891682611cd5565b8355505b6001600288020188555050505b505050505050565b6000611dec82611767565b91507fffffffffffffffffffffffffffffffffffffffffffffffffffffffffffffffff8203611e1e57611e1d611a2a565b5b600182019050919050565b6000602082019050611e3e60008301846119f2565b92915050565b6000611e4f82611767565b9150611e5a83611767565b9250828203905081811115611e7257611e71611a2a565b5b92915050565b6000611e8382611767565b9150611e8e83611767565b9250828202611e9c81611767565b91508282048414831517611eb357611eb2611a2a565b5b5092915050565b7f4e487b7100000000000000000000000000000000000000000000000000000000600052601260045260246000fd5b6000611ef482611767565b9150611eff83611767565b925082611f0f57611f0e611eba565b5b828204905092915050565b600081905092915050565b60005b83811015611f43578082015181840152602081019050611f28565b60008484015250505050565b6000611f5a82611ac9565b611f648185611f1a565b9350611f74818560208601611f25565b80840191505092915050565b6000611f8c8284611f4f565b915081905092915050565b60008154611fa481611b32565b611fae8186611f1a565b94506001821660008114611fc95760018114611fde57612011565b60ff1983168652811515820286019350612011565b611fe785611b63565b60005b8381101561200957815481890152600182019150602081019050611fea565b838801955050505b50505092915050565b60006120268284611f97565b91508190509291505056fea264697066735822122083b67794386475504472c8a5a00ea07704b1f1e2db0f17f8b46bfacd29a0114064736f6c63430008110033",
  "immutableReferences": {},
  "source": "// SPDX-License-Identifier: MIT\n\npragma solidity >=0.8.2 <0.9.0;\n\nerror LowFunds(address adr, uint256 balance);\nerror NotAdmin(address adr);\nerror GameOver();\nerror Yourself(address adr);\nerror Check(uint256 num);\n\ncontract standards {\n    address private admin;\n\n    constructor() {\n        admin = msg.sender;\n    }\n\n    function withdraw() external {\n        if (msg.sender == admin) {\n            payable(admin).transfer(address(this).balance);\n        }\n    }\n}\n\ncontract ROCK_PAPER_SCISSORS is standards {\n    event Log(uint256 cs, address from, uint256 time);\n\n    uint256 fee;\n    uint256 min;\n    uint256 t;\n    uint256 public g;\n    mapping(uint256 => bytes) private locker;\n    uint256 ln;\n\n    struct Game {\n        uint256 id;\n        uint256 value;\n        address payable owner;\n        uint256 t0;\n        uint256 c0; // 1 lo // 2 hi\n        address payable opponent;\n        uint256 t1;\n        uint256 c1; // 1 lo // 2 hi\n        uint256 state; // 0 invalid // 1 created // 2 played // 3 finished\n        uint256 result;\n    }\n\n    mapping(uint256 => Game) public games;\n    mapping(address => uint256) public myGames;\n    mapping(address => mapping(uint256 => Game)) public myGame;\n    mapping(uint256 => bool) public played;\n\n    constructor() {\n        t = 1 + (block.timestamp % 9);\n        fee = 25;\n        min = 1 * 10**15;\n        g = 1;\n    }\n\n    function setGame(uint256 _choice) external payable {\n        if (msg.value <= min) revert LowFunds(msg.sender, min);\n        (bool found, uint256 id) = _scanGames(msg.value, _choice);\n        if (found) {\n            // aggregated\n            Game memory game = games[id];\n            _play(game, _choice);\n        } else {\n            uint256 timer = block.timestamp;\n            locker[ln] = bytes(abi.encodePacked(_choice + timer));\n            games[g] = Game(\n                g,\n                msg.value,\n                payable(msg.sender),\n                timer,\n                ln,\n                payable(address(0)),\n                0,\n                0,\n                1,\n                0\n            );\n            myGame[msg.sender][myGames[msg.sender]] = games[g];\n            myGames[msg.sender]++;\n            played[g] = false;\n            g++;\n            ln++;\n        }\n    }\n\n    function _scanGames(uint256 _value, uint256 _choice)\n        internal\n        view\n        returns (bool find, uint256 id)\n    {\n        for (uint256 i; i < g; i++) {\n            if (\n                games[i].value == _value &&\n                games[i].owner != msg.sender &&\n                games[i].c0 != _choice &&\n                games[i].state == 1\n            ) {\n                find = true;\n                id = i;\n                i += g;\n            } else {\n                find = false;\n                id = 0;\n            }\n        }\n    }\n\n    function joinGame(uint256 _game, uint256 _choice) external payable {\n        Game memory game = games[_game];\n        if (msg.value < game.value) revert LowFunds(msg.sender, game.value);\n        if (game.state != 1) revert GameOver();\n        if (msg.sender == game.owner) revert Yourself(msg.sender);\n        _play(game, _choice);\n    }\n\n    function _play(Game memory _game, uint256 _choice) internal {\n        if (_game.state != 1 || _game.id >= g) revert GameOver();\n        _game.opponent = payable(msg.sender);\n        _game.c1 = _choice;\n        _game.t1 = block.timestamp;\n        _game.state = 2;\n        games[_game.id] = _game;\n        myGame[msg.sender][myGames[msg.sender]] = _game;\n        myGames[msg.sender]++;\n        uint256 win = ((_game.value * 2) / 1000) * (1000 - fee);\n        _game.state = 3;\n        uint256 choice0;\n        if (\n            keccak256(abi.encodePacked(locker[_game.c0])) ==\n            keccak256(\n                abi.encodePacked(bytes(abi.encodePacked(uint256(1) + _game.t0)))\n            )\n        ) choice0 = 1;\n        if (\n            keccak256(abi.encodePacked(locker[_game.c0])) ==\n            keccak256(\n                abi.encodePacked(bytes(abi.encodePacked(uint256(2) + _game.t0)))\n            )\n        ) choice0 = 2;\n        if (\n            keccak256(abi.encodePacked(locker[_game.c0])) ==\n            keccak256(\n                abi.encodePacked(bytes(abi.encodePacked(uint256(3) + _game.t0)))\n            )\n        ) choice0 = 3;\n        _game.c0 = choice0;\n        games[_game.id] = _game;\n        played[_game.id] = true;\n        if (choice0 == _game.c1) _game.result = 0;\n        if (\n            (choice0 == 1 && _game.c1 == 2) ||\n            (choice0 == 2 && _game.c1 == 3) ||\n            (choice0 == 3 && _game.c1 == 1)\n        ) _game.result = 2;\n        if (\n            (_game.c1 == 1 && choice0 == 2) ||\n            (_game.c1 == 2 && choice0 == 3) ||\n            (_game.c1 == 3 && choice0 == 1)\n        ) _game.result = 1;\n        _game.state = 3;\n        games[_game.id] = _game;\n        if (_game.result == 0) {\n            payable(_game.owner).transfer(win / 2);\n            payable(_game.opponent).transfer(win / 2);\n        }\n        if (_game.result == 1) payable(_game.owner).transfer(win);\n        if (_game.result == 2) payable(_game.opponent).transfer(win);\n    }\n}\n",
  "sourcePath": "/Users/iii6/Documents/GitHub/Gamble360/contracts/gamble360/ROCK_PAPER_SCISSORS.sol",
  "compiler": {
    "name": "solc",
    "version": "0.8.17+commit.8df45f5f.Emscripten.clang"
  },
  "schemaVersion": "3.4.8",
  "updatedAt": "2023-04-03T15:54:47.662Z",
  "networkType": "ethereum",
  "devdoc": {
    "kind": "dev",
    "methods": {},
    "version": 1
  },
  "userdoc": {
    "kind": "user",
    "methods": {},
    "version": 1
  }
}