{
  "contractName": "standards",
  "abi": [
    {
      "inputs": [],
      "stateMutability": "nonpayable",
      "type": "constructor"
    },
    {
      "inputs": [],
      "name": "withdraw",
      "outputs": [],
      "stateMutability": "nonpayable",
      "type": "function"
    }
  ],
  "bytecode": "0x608060405234801561001057600080fd5b50336000806101000a81548173ffffffffffffffffffffffffffffffffffffffff021916908373ffffffffffffffffffffffffffffffffffffffff160217905550610126806100606000396000f3fe6080604052348015600f57600080fd5b506004361060285760003560e01c80633ccfd60b14602d575b600080fd5b60336035565b005b60008054906101000a900473ffffffffffffffffffffffffffffffffffffffff1673ffffffffffffffffffffffffffffffffffffffff163373ffffffffffffffffffffffffffffffffffffffff160360ee5760008054906101000a900473ffffffffffffffffffffffffffffffffffffffff1673ffffffffffffffffffffffffffffffffffffffff166108fc479081150290604051600060405180830381858888f1935050505015801560ec573d6000803e3d6000fd5b505b56fea2646970667358221220df328d572094571acfeabdc46d6b81fd5328c8d6a3669133779b89213df7ed7864736f6c63430008110033",
  "immutableReferences": {},
  "source": "// SPDX-License-Identifier: MIT\n\npragma solidity >=0.8.2 <0.9.0;\n\nerror LowFunds(address adr, uint256 balance);\nerror NotAdmin(address adr);\nerror GameOver();\nerror Yourself(address adr);\nerror Check(uint256 num);\n\ncontract standards {\n    address private admin;\n\n    constructor() {\n        admin = msg.sender;\n    }\n\n    function withdraw() external {\n        if (msg.sender == admin) {\n            payable(admin).transfer(address(this).balance);\n        }\n    }\n}\n\ncontract R_P_S is standards {\n    event Log(uint256 cs, address from, uint256 time);\n\n    uint256 fee;\n    uint256 min;\n    uint256 t;\n    uint256 public g;\n\n    struct Game {\n        uint256 id;\n        uint256 value;\n        address payable owner;\n        uint256 t0;\n        uint256 c0; // 1 lo // 2 hi\n        address payable opponent;\n        uint256 t1;\n        uint256 c1; // 1 lo // 2 hi\n        uint256 state; // 0 invalid // 1 created // 2 played // 3 finished\n        uint256 result;\n    }\n\n    mapping(uint256 => Game) public games;\n    mapping(address => uint256) private myGames;\n    mapping(address => mapping(uint256 => Game)) public myGame;\n    mapping(uint256 => bool) played;\n\n    constructor() {\n        t = 1 + (block.timestamp % 9);\n        fee = 25;\n        min = 1 * 10**15;\n        g = 1;\n    }\n\n    function setGame(uint256 _choice) external payable {\n        if (msg.value <= min) revert LowFunds(msg.sender, min);\n        (bool found, uint256 id) = _scanGames(msg.value, _choice);\n        if (found) {\n            // aggregated\n            Game memory game = games[id];\n            _play(game, _choice);\n        } else {\n            games[g] = Game(\n                g,\n                msg.value,\n                payable(msg.sender),\n                block.timestamp,\n                _choice,\n                payable(address(0)),\n                0,\n                0,\n                1,\n                0\n            );\n            myGame[msg.sender][myGames[msg.sender]] = games[g];\n            myGames[msg.sender]++;\n            played[g] = false;\n            g++;\n        }\n    }\n\n    function _scanGames(uint256 _value, uint256 _choice)\n        internal\n        view\n        returns (bool find, uint256 id)\n    {\n        for (uint256 i; i < g; i++) {\n            if (\n                games[i].value == _value &&\n                games[i].owner != msg.sender &&\n                games[i].c0 != _choice &&\n                games[i].state == 1\n            ) {\n                find = true;\n                id = i;\n                i += g;\n            } else {\n                find = false;\n                id = 0;\n            }\n        }\n    }\n\n    function joinGame(uint256 _game, uint256 _choice) external payable {\n        Game memory game = games[_game];\n        if (msg.value < game.value) revert LowFunds(msg.sender, game.value);\n        if (game.state != 1) revert GameOver();\n        if (msg.sender == game.owner) revert Yourself(msg.sender);\n        _play(game, _choice);\n    }\n\n    function _play(Game memory _game, uint256 _choice) internal {\n        if (_game.state != 1 || _game.id >= g) revert GameOver();\n        _game.opponent = payable(msg.sender);\n        _game.c1 = _choice;\n        _game.t1 = block.timestamp;\n        _game.state = 2;\n        games[_game.id] = _game;\n        myGame[msg.sender][myGames[msg.sender]] = _game;\n        myGames[msg.sender]++;\n        uint256 x = (_game.t1 + t) % 9;\n        uint256 y = (_game.t0 + x) % 9;\n        uint256 checksum = ((t * x * y) + (block.timestamp - (t + x + y))) % 9;\n        emit Log(checksum, msg.sender, block.timestamp);\n        _game.result = checksum;\n        uint256 win = ((_game.value * 2) / 1000) * (1000 - fee);\n        _game.state = 3;\n        games[_game.id] = _game;\n        played[_game.id] = true;\n        if (_game.c0 == _game.c1) _game.result = 0;\n        if (\n            (_game.c0 == 1 && _game.c1 == 2) ||\n            (_game.c0 == 2 && _game.c1 == 3) ||\n            (_game.c0 == 3 && _game.c1 == 1)\n        ) _game.result = 2;\n        if (\n            (_game.c1 == 1 && _game.c0 == 2) ||\n            (_game.c1 == 2 && _game.c0 == 3) ||\n            (_game.c1 == 3 && _game.c0 == 1)\n        ) _game.result = 1;\n        _game.state = 3;\n        games[_game.id] = _game;\n        if (_game.result == 0) {\n            payable(_game.owner).transfer(win / 2);\n            payable(_game.opponent).transfer(win / 2);\n        }\n        if (_game.result == 1) payable(_game.owner).transfer(win);\n        if (_game.result == 2) payable(_game.opponent).transfer(win);\n    }\n}\n",
  "sourcePath": "/Users/iii6/Documents/GitHub/Gamble360/contracts/gamble360/ROCK_PAPER_SCISSORS.sol",
  "compiler": {
    "name": "solc",
    "version": "0.8.17+commit.8df45f5f.Emscripten.clang"
  },
  "schemaVersion": "3.4.8",
  "updatedAt": "2023-04-02T17:18:59.451Z",
  "devdoc": {
    "kind": "dev",
    "methods": {},
    "version": 1
  },
  "userdoc": {
    "kind": "user",
    "methods": {},
    "version": 1
  }
}